:100000000C945D000C9485000C9485000C94850084
:100010000C9485000C9485000C9485000C9485004C
:100020000C9485000C9485000C9485000C9485003C
:100030000C9485000C9485000C9485000C9485002C
:100040000C94BE040C9485000C94F9050C94D30513
:100050000C9485000C9485000C9485000C9485000C
:100060000C944A030C948500000000080002010073
:100070000003040700000000000000000000000072
:10008000250028002B0000000000240027002A0083
:10009000040404040404040402020202020203032E
:1000A0000303030301020408102040800102040836
:1000B0001020010204081020371411241FBECFEFB6
:1000C000D8E0DEBFCDBF25E0AEE9B2E001C01D92B1
:1000D000A435B207E1F712E0A0E0B1E0E8E8F2E30E
:1000E00002C005900D92AE39B107D9F710E0CDE509
:1000F000D0E004C02197FE010E94F514CC35D10751
:10010000C9F70E9405100C9442190C940000DC0100
:10011000ED91FC91048CF58DE02D099485ED809393
:10012000BC008091BC0084FDFCCF10920A040895AD
:1001300040910403262F30E0240F311D2132310578
:10014000DCF420910A042430C9F4FC0180E090E042
:10015000861758F4309104032191DC01AE51BD4F54
:10016000A30FB11D2C930196F3CF80910403680F68
:100170006093040380E0089581E0089582E008958B
:100180000895E091C3038091C203E81730F4F0E0D2
:10019000EC53FC4F808190E008958FEF9FEF08951E
:1001A0009091C3038091C203981750F4E92FF0E0B7
:1001B000EC53FC4F208130E09F5F9093C30302C05B
:1001C0002FEF3FEFC90108958091C20390E0209185
:1001D000C303821B91090895CF92DF92EF92FF92A1
:1001E0000F931F93CF93DF937C01262F972F8A01C4
:1001F00080910B04882391F0C62FD72F6E01C40E77
:10020000D51ECC15DD0571F06991D701ED91FC91FA
:100210000190F081E02DC7010995F3CF642F822F63
:100220000E949800C801DF91CF911F910F91FF901C
:10023000EF90DF90CF900895CF93DF931F92CDB7CB
:10024000DEB7698320910B042223D1F020912E0484
:10025000203240F021E030E0FC013383228380E053
:1002600090E015C080910C04E82FF0E0E35FFB4FB5
:10027000998190838F5F80930C0480932E0405C036
:1002800061E0CE0101960E94980081E090E00F901D
:10029000DF91CF9108953FB7F8948091DE0290915D
:1002A000DF02A091E002B091E10226B5A89B05C053
:1002B0002F3F19F00196A11DB11D3FBFBA2FA92FE5
:1002C000982F8827820F911DA11DB11DBC01CD0162
:1002D00042E0660F771F881F991F4A95D1F708954E
:1002E000CF92DF92EF92FF920F931F93CF93DF9302
:1002F0006C017A018B01C0E0D0E0CE15DF0589F0FA
:10030000D8016D918D01D601ED91FC910190F081A4
:10031000E02DC6010995892B11F47E0102C02196BA
:10032000ECCFC701DF91CF911F910F91FF90EF901C
:10033000DF90CF900895089580E090E00895FC014B
:10034000538D448D252F30E0842F90E0821B930B3A
:10035000541710F0CF96089501970895FC01918DE0
:10036000828D981761F0828DDF01A80FB11D5D9617
:100370008C91928D9F5F9F73928F90E008958FEF85
:100380009FEF0895FC01918D828D981731F0828D39
:10039000E80FF11D858D90E008958FEF9FEF089590
:1003A000FC01918D228D892F90E0805C9F4F821BF4
:1003B00091098F73992708958FE794E00E94D001E7
:1003C00021E0892B09F420E0822F0895FC01848D1F
:1003D000DF01A80FB11DA35ABF4F2C91848D90E06F
:1003E00001968F739927848FA689B7892C93A0894A
:1003F000B1898C9180648C93938D848D981306C001
:100400000288F389E02D80818F7D80830895EF92AB
:10041000FF920F931F93CF93DF93EC0181E0888FBE
:100420009B8D8C8D981305C0E889F989808185FDA5
:1004300024C0F62E0B8D10E00F5F1F4F0F73112796
:10044000E02E8C8DE8120CC00FB607FCFACFE889BD
:10045000F989808185FFF5CFCE010E94E601F1CFB9
:100460008B8DFE01E80FF11DE35AFF4FF0820B8FD9
:10047000EA89FB898081806207C0EE89FF896083F9
:10048000E889F98980818064808381E090E0DF9150
:10049000CF911F910F91FF90EF900895CF93DF932D
:1004A000EC01888D8823C9F0EA89FB89808185FD6C
:1004B00005C0A889B9898C9186FD0FC00FB607FCCD
:1004C000F5CF808185FFF2CFA889B9898C9185FF0E
:1004D000EDCFCE010E94E601E7CFDF91CF910895E5
:1004E00080E090E0892B29F00E94DC0181110C94BE
:1004F00000000895CF93DF931F92CDB7DEB7FC01C4
:100500008081806291E090930B0480932D0410927F
:100510000C0410922E0483E794E049830E941C018E
:100520004981642F83E794E00E941C010F90DF91C2
:10053000CF910C94DB0ECF93DF93EC019881906206
:1005400081E080930B0490932D0410920C04109280
:100550002E0483E794E00E941C010E94DB0E888138
:10056000806261E070E090E00E94380F83E794E0E1
:100570000E94D000DF91CF9108950E94281608951F
:100580008CBD9DBD089590E0FC01E859FF4F34916A
:10059000FC01EC55FF4F2491FC01E057FF4FE49123
:1005A000EE2309F43BC0332339F1333091F038F4B2
:1005B0003130A9F0323001F584B58F7D12C037306B
:1005C00091F03830A1F03430B9F4809180008F7D03
:1005D00003C0809180008F77809380000DC084B528
:1005E0008F7784BD09C08091B0008F7703C0809160
:1005F000B0008F7D8093B000F0E0EE0FFF1FE45855
:10060000FF4FA591B4918FB7F894EC91611103C09D
:1006100020952E2301C02E2B2C938FBF089510926E
:100620000A0481E0809309041092E40361E082E10E
:100630000E94C30261E083E10E94C302E9EBF0E0A3
:1006400080818E7F808380818D7F808388E480930A
:10065000B80085E48093BC000895CF93DF93EC014C
:10066000683008F067E068831092C3031092C203F9
:1006700010920C0410922E040E940F034FEF60E0C2
:10068000CE010E947A024FEF61E0CE01DF91CF915F
:100690000C947A021F920F920FB60F9211242F938F
:1006A0003F934F935F936F937F938F939F93AF93FA
:1006B000BF93EF93FF938091B900887F803609F450
:1006C0009CC068F5883209F45BC090F4803109F46D
:1006D00054C038F4882309F4F6C0883009F44DC0BA
:1006E000F6C0883109F44CC0803209F45DC0EFC017
:1006F000803409F468C048F4803309F455C0883365
:1007000009F0E5C080930804D8C0803509F44FC0D3
:10071000883509F45DC0883409F0D9C0D6C088395D
:1007200009F4C7C0A8F4883709F467C038F48836DC
:1007300009F463C0803709F460C0C9C0883809F47F
:10074000B8C0803909F45FC0803809F0C0C05BC010
:10075000803B09F486C038F4803A09F466C0883AD0
:1007600009F47FC0B4C0803C09F4A7C0883C09F4F8
:10077000A4C0883B09F48AC0AAC08091E50310C0D8
:100780009091070480910604981770F5E091070492
:1007900081E08E0F80930704F0E0EA51FC4F8081E6
:1007A0008093BB0085EC86C0809308048EC0E091E6
:1007B000070481E08E0F809307048091BB00F0E076
:1007C000EA51FC4F808390910704809106046EC02B
:1007D000E091070481E08E0F809307048091BB00B5
:1007E000F0E0EA51FC4F80838091090481116DC0D3
:1007F00081E08093E40384EA61C083E080930A048B
:1008000010922803CFCF80912803803208F051C086
:10081000E091280381E08E0F809328038091BB0034
:10082000F0E0E85FFC4F8083BDCF85EC8093BC0097
:1008300010920A0480912803803230F4E09128035A
:10084000F0E0E85FFC4F10826091280370E0E091D7
:100850000603F091070388E093E0099510922803BE
:1008600036C084E080930A041092050310920403BA
:10087000E0910203F0910303099580910403811133
:1008800005C081E0809304031092E202E091050329
:1008900081E08E0F80930503F0E0EE51FD4F8081E3
:1008A0008093BB009091050380910403981708F48E
:1008B00079CF85E88093BC000AC085EC8093BC00AA
:1008C00010920A0404C0109208040E948E00FF9146
:1008D000EF91BF91AF919F918F917F916F915F91B8
:1008E0004F913F912F910F900FBE0F901F90189531
:1008F0008F929F92AF92BF92CF92DF92EF92FF9230
:100900006B017C010E944B014B015C01C114D104BD
:10091000E104F104F1F00E944B01DC01CB018819E4
:100920009909AA09BB09883E9340A105B10570F356
:1009300021E0C21AD108E108F10888EE880E83E0B0
:10094000981EA11CB11CC114D104E104F10419F7D3
:10095000DDCFFF90EF90DF90CF90BF90AF909F9052
:100960008F9008952FB7F8946091DA027091DB02AE
:100970008091DC029091DD022FBF08951F920F92AB
:100980000FB60F9211242F933F938F939F93AF93A2
:10099000BF938091DA029091DB02A091DC02B091CA
:1009A000DD023091D90223E0230F2D3720F4019688
:1009B000A11DB11D05C026E8230F0296A11DB11D82
:1009C0002093D9028093DA029093DB02A093DC0299
:1009D000B093DD028091DE029091DF02A091E002EF
:1009E000B091E1020196A11DB11D8093DE029093AA
:1009F000DF02A093E002B093E102BF91AF919F911B
:100A00008F913F912F910F900FBE0F901F901895CF
:100A10006115710579F0FB0101900020E9F731972C
:100A2000AF01461B570BDC01ED91FC910280F38175
:100A3000E02D099480E090E008959F938F931F929A
:100A400080E88F9389E293E09F938F930E943B16F7
:100A500043EB55E16CEB71E088E594E00E94000CFB
:100A600069E273E088E594E00E9408050F900F901A
:100A70000F900F900F900F9088E594E00C94880BE6
:100A80004F925F926F927F92EF92FF920F931F931C
:100A9000CF93DF93CDB7DEB7A1970FB6F894DEBF43
:100AA0000FBECDBF7C01FA01CB0119A2223008F4A0
:100AB0002AE08E010F5D1F4F422E512C612C712CAC
:100AC000BF01A30192010E94E918F901CA01015076
:100AD00011096A3014F4605D01C0695CD8016C933F
:100AE000232B242B252B61F7B801C7010E94080591
:100AF000A1960FB6F894DEBF0FBECDBFDF91CF91A8
:100B00001F910F91FF90EF907F906F905F904F90AB
:100B100008958F929F92AF92BF92CF92DF92EF9201
:100B2000FF920F931F93CF93DF937C01EB016C0136
:100B300082E0C80ED11C4701E5E08E0E911C00E05A
:100B400010E0F60141916F0150E060E070E02AE0B2
:100B5000CE010E9440055C01E881F9810190F0819D
:100B6000E02D6EE2CE0109958A0D9B1D080F191F1D
:100B7000C814D90431F7F701458150E060E070E016
:100B80002AE0CE010E944005800F911FDF91CF9196
:100B90001F910F91FF90EF90DF90CF90BF90AF909B
:100BA0009F908F9008951F920F920FB60F9211246D
:100BB0002F933F934F935F936F937F938F939F9365
:100BC000AF93BF93EF93FF938FE794E00E94E6010A
:100BD000FF91EF91BF91AF919F918F917F916F9115
:100BE0005F914F913F912F910F900FBE0F901F90EB
:100BF00018951F920F920FB60F9211242F938F9377
:100C00009F93EF93FF93E0918F04F0919004808184
:100C1000E0919504F091960482FD12C0908180913C
:100C200098048F5F8F7320919904821751F0E0919F
:100C30009804F0E0E158FB4F958F8093980401C031
:100C40008081FF91EF919F918F912F910F900FBE17
:100C50000F901F90189508951F93CF93DF93182F2F
:100C600066E270E00E94C50AC82FD0E067E270E03B
:100C7000812F0E94C50ADC2FCC279E01282BC90199
:100C8000DF91CF911F9108952A9A08952A98089587
:100C90001F93CF93DF93182F60E270E00E94C50A84
:100CA000C82FD0E061E270E0812F0E94C50ADC2FDE
:100CB000CC279E01282BC901DF91CF911F91089568
:100CC0008EBD00000DB407FEFDCF8EB50895CF9206
:100CD000DF92EF92FF920F931F93CF93DF93EC017C
:100CE0007A018B016C01C40ED51ECC15DD05A9F06F
:100CF0000E9446068FE00E9460068D2F0E946006CB
:100D00008C2F0E946006219680E00E946006F80108
:100D100081938F010E944406E8CFC701DF91CF91F4
:100D20001F910F91FF90EF90DF90CF900895AF92B9
:100D3000BF92CF92DF92EF92FF920F931F93CF93C8
:100D4000DF9300D0CDB7DEB77A836983BA01A901FA
:100D5000E981FA81F770082F10E0000F111F065487
:100D60001C4FD8018D919C918E0F9F1F2E0F3F1FFE
:100D70002130384098F07A015B0120E038E06901C9
:100D8000CE1ADF0AA6010E946706A7014C195D0969
:100D9000B5016C0D7D1DF801808191810F900F9040
:100DA000DF91CF911F910F91FF90EF90DF90CF9047
:100DB000BF90AF900C946706AF92BF92DF92EF9214
:100DC000FF920F931F93CF93DF93D82E7B018A015D
:100DD00080E590E00E94C002C0E0D0E08D2D0E942E
:100DE0002C065C01892B21F08D2D0E942C06EC0134
:100DF000CA15DB0599F7209799F463E070E08D2D13
:100E00000E94C50A8431D9F18823C9F1C1E0D0E03C
:100E10008C3111F4C0E0D0E0D195C195D1092FC03B
:100E20000C171D070CF4E8011C161D0644F568E2BA
:100E300070E08D2D0E94C50A082F10E069E270E075
:100E40008D2D0E94C50A102F0027082B9E01A70197
:100E5000B8018D2D0E9497060C0F1D1F412F68E2CF
:100E600070E08D2D0E94770A402F69E270E08D2D91
:100E70000E94770A60E470E08D2D0E94B50F0E94F9
:100E8000BF02CE01DF91CF911F910F91FF90EF90A4
:100E9000DF90BF90AF900895CF93DF93FC01218D39
:100EA000328D2115310519F48FEF9FEF11C0EC0140
:100EB0004217530708F0A901888D0E94DC06181616
:100EC000190694F7298D3A8D281B390B3A8F298FF3
:100ED000DF91CF9108950F931F93CF93DF931F92CC
:100EE000CDB7DEB7FC01218D328D232B61F08C0153
:100EF00041E050E0BE016F5F7F4F808D0E94DC06B5
:100F0000181619061CF08FEF9FEF08C0F801818DAD
:100F1000928D0197928F818F898190E00F90DF9160
:100F2000CF911F910F910895BF92CF92DF92EF92D0
:100F3000FF920F931F93CF93DF93CDB7DEB7289720
:100F40000FB6F894DEBF0FBECDBF8C01F801818DC6
:100F5000928D892B49F0D801ED91FC910284F385A3
:100F6000E02DC8010995F2CFB08C80E590E00E9499
:100F7000C002E12CF12C8B2D0E942C066C01892BD8
:100F800021F08B2D0E942C067C01EC14FD0499F7B6
:100F90000E94BF021E141F045CF548E050E0BE0131
:100FA0006F5F7F4FD80158968C910E94DC069C01A0
:100FB00018161906DCF489819A81AB81BC81F8018D
:100FC000808B918BA28BB38B8D8190E0982F88279B
:100FD0002E81820F911D958B848B2F8130E0322FD3
:100FE00022278885280F311D328F218FC90102C029
:100FF00080E090E028960FB6F894DEBF0FBECDBF1C
:10100000DF91CF911F910F91FF90EF90DF90CF90E4
:10101000BF900895FF920F931F93CF93DF931F927A
:10102000CDB7DEB7FC01218D328D232B09F1F08C79
:1010300080E590E00E94C00268E270E08F2D0E947F
:10104000C50A082F10E069E270E08F2D0E94C50AE2
:10105000702F6627682B21E030E0AE014F5F5F4FB5
:101060008F2D0E9497060E94BF02898190E002C0E6
:101070008FEF9FEF0F90DF91CF911F910F91FF9016
:101080000895CF92DF92EF92FF920F931F93CF9329
:10109000DF93EC017A018B016C01C40ED51ECC15D7
:1010A000DD05A1F00E94460680EF0E9460068D2FAC
:1010B0000E9460068C2F0E9460062196F8018191A3
:1010C0008F010E9460060E944406E9CFC701DF91AC
:1010D000CF911F910F91FF90EF90DF90CF900895E7
:1010E000BF92CF92DF92EF92FF920F931F93CF9315
:1010F000DF9300D000D000D0CDB7DEB7FC01208D4B
:10110000243009F05CC06A017B018C01B12C63E0E2
:1011100070E08B2D0E94C50A811103C0F801B08ECA
:1011200006C08831D9F3B394F4E0BF12F0CFF801D0
:10113000808D843009F443C096E0E8E1F1E0DE01FF
:10114000119601900D929A95E1F7F70193819F779F
:101150009C8394819D8395819E83B7016E5F7F4FB1
:1011600090E0982F882744E050E0845F9B4F0E94D6
:101170004108F801F08C4D2D60E170E08F2D0E9448
:10118000770A4C2D61E170E08F2D0E94770AF801FB
:10119000808D90E0982F882746E050E0BE016F5F79
:1011A0007F4F8A5F9B4F0E944108F801128E118E7B
:1011B00040E8B601808D0E94C50F81E001C080E04B
:1011C00026960FB6F894DEBF0FBECDBFDF91CF914C
:1011D0001F910F91FF90EF90DF90CF90BF900895F7
:1011E0001F93CF93DF9300D0CDB7DEB7182F6A835C
:1011F00099830E94460680EF0E9460069981892F9C
:101200000E946006812F0E9460066A81862F0E94DC
:1012100060060E94440681E00F900F90DF91CF910D
:101220001F910895CF92DF92EF92FF921F93CF9379
:10123000DF93CDB7DEB7E0970FB6F894DEBF0FBEF1
:10124000CDBFFC0182819381A481B5818DA79EA72A
:10125000AFA7B8AB51E058ABCDA4DEA4EFA4F8A87B
:10126000CB8EDC8EED8EFE8EFB01C280D380E480BF
:10127000F580C9A2DAA2EBA2FCA28FA398A7A9A726
:10128000BAA724EB31E03C8B2B8B4FEF4D8B4E8B71
:101290004F8B188E3E872D875E8F4B8D5C8D6D8DAD
:1012A0007E8D4F87588B698B7A8BC986DA86EB8661
:1012B000FC863A8329838B839C83AD83BE836CE257
:1012C00071E080E090E00E9478041FB7F89480916C
:1012D000A903811124C0EAE9F0E08491EEEAF0E08C
:1012E0009491E82FF0E0EE0FFF1FEA57FF4FA59112
:1012F000B491EC91E92321F461E08AE00E94C302F9
:101300008AE00E94830F8CB580618CBD8CB58064AF
:101310008CBD8DE00E94830F8BE00E94830F809133
:10132000A9038F5F8093A9031FBF229A80E590E0F5
:101330000E94C00260E880E090E00E94F00865E54D
:101340008BE190E00E94F00865E58AE190E00E9460
:10135000F0080E94BF0280E090E49093B303809372
:10136000B20380E090E69093BB038093BA0380E0E1
:1013700098E49093B5038093B40380E098E690934B
:10138000BD038093BC0380E090E59093B703809306
:10139000B60380E090E79093BF038093BE0380E0A4
:1013A00098E59093B9038093B80380E098E7909311
:1013B000C1038093C00380E590E00E94C00246E034
:1013C00050E068E071E089E090E00E94410844E06C
:1013D00050E0BE016D5F7F4F8FE090E00E944108BA
:1013E00044E050E0BE01615F7F4F81E090E00E94E9
:1013F000410844E050E0BE016B5E7F4F85E090E025
:101400000E9441080E94BF0289859A85AB85BC85F0
:101410008093370490933804A0933904B0933A042E
:10142000E0960FB6F894DEBF0FBECDBFDF91CF912F
:101430001F91FF90EF90DF90CF900895CF93C82F2A
:1014400080E590E00E94C00260E170E08C2F0E9475
:10145000B50F4FEF62E070E08C2F0E94770ACF91BA
:101460000C94BF02CF93DF931F92CDB7DEB7698391
:10147000DC01ED91FC910280F381E02D41E050E030
:10148000BE016F5F7F4F09950F90DF91CF91089557
:10149000FC01818D928D0895FC01848995890895C0
:1014A00024EB31E0FC0131832083FB014089518929
:1014B00062897389FC014283538364837583089531
:1014C00080E00895CF93DF93EC01888D843061F044
:1014D0000E941E0AE88DF0E0EE0FFF1FE655FC4F5C
:1014E0001182108284E0888FDF91CF9108959B0153
:1014F00090E00496982F8827642F820F931F0C94F6
:10150000F008EF92FF921F93CF93DF93EB017A01E4
:10151000FC01178A168A108D8A81811109C08B817E
:10152000811106C08C81811103C08D81882329F12E
:10153000E114F10411F180E590E00E94C002BE01C7
:101540006E5F7F4F812F90E0982F882744E050E016
:10155000845F9B4F0E9441084F2D60E170E0812F16
:101560000E94770A4E2D61E170E0812F0E94770A78
:101570000E94BF0281E090E002C080E090E0DF9135
:10158000CF911F91FF90EF9008950F931F93CF93EA
:10159000DF931F92CDB7DEB790E00496982F88278F
:1015A0008C01060F171F0E9446068FE00E946006FE
:1015B000812F0E946006802F0E94600680E00E94BA
:1015C000600689830E94440689810F90DF91CF9144
:1015D0001F910F9108957F928F929F92AF92BF9229
:1015E000CF92DF92EF92FF920F931F93CF93DF93EF
:1015F0005C014B016A01FC0106891789708C80E54A
:1016000090E00E94C002C0E0D0E0872D0E94480612
:101610007C01892B21F0872D0E944806EC01CE1514
:10162000DF0599F7CC15DD0578F4C0E0D0E0872D13
:101630000E9448066C01892B21F0872D0E944806E4
:10164000EC01CC15DD0599F764E270E0872D0E946E
:10165000C50AE82EF12C65E270E0872D0E94C50ACC
:10166000FE2CEE24E82AE701C00FD11F9E0137703F
:10167000E72CF12CC701880F991FAC014E545C4F29
:101680007A01FA0180819181820F931FA9014C0D8B
:101690005D1D4130584090F000E018E0021B130B34
:1016A000A801B4010E944108A601401B510BB401DE
:1016B000600F711FF7018081918102C0A601B40102
:1016C0000E944108CC0DDD1D4D2F64E270E0872D96
:1016D0000E94770A4C2F65E270E0872D0E94770AFE
:1016E0000E94BF02F501868997898C0D9D1D978BFD
:1016F000868BC601DF91CF911F910F91FF90EF90E4
:10170000DF90CF90BF90AF909F908F907F90089583
:10171000CF93FC01C08D80E590E00E94C00260E2A2
:1017200070E08C2F0E94B50F62E070E08C2F0E9459
:10173000C50A84FD19C062E070E08C2F0E94C50AC2
:1017400083FF0BC048E162E070E08C2F0E94770AB3
:101750000E94BF0280E090E011C00E94BF0280E5BD
:1017600090E00E94C002E0CF40E162E070E08C2F88
:101770000E94770A0E94BF0281E090E0CF91089515
:10178000CF92DF92EF92FF921F93CF93DF931F923E
:10179000CDB7DEB7FC01208D243011F080E027C0EA
:1017A0007B016C0110E080E590E00E94C00263E0E4
:1017B00070E0812F0E94C50A89830E94BF0289813F
:1017C000811103C0F601108F05C08831D9F31F5F66
:1017D000143049F7F601808D843001F3F586E486F4
:1017E000128E118E40E0B7010E94C50F81E00F906C
:1017F000DF91CF911F91FF90EF90DF90CF900895F0
:101800004F925F926F927F928F929F92AF92BF9210
:10181000CF92DF92EF92FF920F931F93CF93DF93BC
:10182000CDB7DEB7EE970FB6F894DEBF0FBECDBFD3
:101830005C018B014A0184EB91E09A8389831C86C9
:101840001B8648EE53E060E070E04D875E876F874F
:10185000788B2AE431E03A872987988F8F8B198E0D
:101860001A8E1B8E1C8E24E029A399AB88AB1AAA72
:101870001BAA1CAA1DAA8091370490913804A0913C
:101880003904B0913A048EA39FA3A8A7B9A78B836C
:101890009C83AD83BE8318861F82F80120E080E020
:1018A00090E06AE03191332319F140ED430F4A3063
:1018B00080F4689FA001699F500D1124CA01C09750
:1018C000830F911D37FD9A958F3F910559F350F382
:1018D0002BC03E3249F5233039F1A2E3B0E0AC0F22
:1018E000BD1FA20FB11D8C932F5F80E090E0DACF77
:1018F0002330D1F48DABD501ED91FC910488F589AD
:10190000E02D84EB91E09DA38CA38AA99BA9ACA9AF
:10191000BDA98EA39FA3A8A7B9A7A401BE016C5D12
:101920007F4FC501099530C24B815C816D817E81FD
:101930008091310490913204A0913304B091340429
:10194000481759076A077B0709F41CC20E94B204B2
:101950006F7077277C5FCE0109960E94C00B8130A3
:1019600009F00DC284EB91E09DA38CA38B819C8137
:10197000AD81BE818EA39FA3A8A7B9A745E350E080
:10198000BE016C5D7F4FCE0109960E94810A892BB2
:1019900019F400E010E07EC10E94B20478876F83E2
:1019A0007627672776277DA36CA342E050E0BE012F
:1019B0006C5D7F4FCE0109960E94EB0A81E090E0BA
:1019C0009FAB8EAB42E050E0BE016A5C7F4FCE0120
:1019D00009960E94EB0A80E091E09FAB8EAB42E05B
:1019E00050E0BE016A5C7F4FCE0109960E94EB0A6F
:1019F0001FAA1EAA42E050E0BE016A5C7F4FCE01E2
:101A000009960E94EB0A42E050E0BE016A5C7F4FFB
:101A1000CE0109960E94EB0A42E050E0BE016A5CEA
:101A20007F4FCE0109960E94EB0A7801D7018C9175
:101A3000882319F1F8017F018191811117C0670195
:101A4000C01AD10A1C141D04A4F4C8AE41E050E031
:101A5000BE01685C7F4FCE0109960E94EB0AA60189
:101A6000B801CE0109960E94EB0A03C08E3219F725
:101A7000E6CF87010F5F1F4FD9CF18AE41E050E08E
:101A8000BE01685C7F4FCE0109960E94EB0A00E020
:101A900011E01FAB0EAB42E050E0BE016A5C7F4F2D
:101AA000CE0109960E94EB0A1FAB0EAB42E050E05C
:101AB000BE016A5C7F4FCE0109960E94EB0ACE01FF
:101AC00009960E94880B892B09F463CF63E0E62E08
:101AD000F12C0E94B2042B013C01CE0109960E9418
:101AE000940718161906A4F00E94B204DC01CB0179
:101AF00084199509A609B70989389341A105B1054B
:101B0000C8F462E370E080E090E00E947804E5CFE2
:101B10004B815C816D817E81898D9A8DAB8DBC8D71
:101B2000481759076A077B0741F48D8D9E8DC5972D
:101B300021F406C02FEF3FEFA4C02EEF3FEFA1C06E
:101B40008AA19BA10C970CF4B2C04CE050E0BE01FE
:101B50006C5D7F4FCE0109960E944C078EA190E0EC
:101B6000982F88272FA1822B9BAF8AAF2CA130E022
:101B7000322F22274DA1242B4F815885421753071E
:101B800009F092C097FF90C08F709270892B09F076
:101B9000F3C00AA510E0102F00278BA5082B011514
:101BA000110509F4E6C0C12CD12C88A590E0982F2E
:101BB000882729A5822BC816D90608F47BC0C12C1A
:101BC000D12C41E050E0BE01645C7F4FCE0109960C
:101BD0000E944C078CAD982F907C09F0A5C0811114
:101BE00097C08CAD8111EDCF42E050E0BE01685C42
:101BF0007F4FCE0109960E944C0742E050E0BE01A3
:101C00006A5C7F4FCE0109960E944C07CE0109966F
:101C10000E946B07CE0109960E946B07CE010996C0
:101C20000E946B07CE0109960E946B0742E050E0CC
:101C3000BE01665C7F4FCE0109960E944C0788ADBD
:101C400099AD8115914009F075C02EA93FA93227A1
:101C5000232732272130310509F06CC08AAD9BADB6
:101C60008115944009F082C044E050E0BE016E5CF2
:101C70007F4FCE0109962DAF3EAF0E944C072DAD90
:101C80003EAD8901B1E0EB1AF10821F02F3F3F4F43
:101C900009F41FCFCE0109960E94620A0130110596
:101CA00009F429CEC80170C02CEF3FEFEACF2DEF29
:101CB0003FEFE7CF41E050E0BE016A5C7F4FCE01CD
:101CC00009960E944C078EA9811117C08EA9811117
:101CD000F1CFCE0109960E946B07CE0109960E94B2
:101CE0006B07CE0109960E946B07CE0109960E94F0
:101CF0006B07FFEFCF1ADF0A58CF8EA99FEF980F1F
:101D00009EAB882319F3CE0109960E946B07F5CF8D
:101D10008CAD9FEF980F9CAF882309F462CFCE0162
:101D200009960E946B07F4CFCE0109960E946B07BB
:101D30001CAE57CF612C712C8AAD9BAD982789279B
:101D400098276816790640F4CE0109960E946B0721
:101D50008FEF681A780AF0CFAFEFCA1ADA0AC01606
:101D6000D10609F02ECF26EF3FEF8BCF27EF3FEFC5
:101D700088CF2AEF3FEF85CF2BEF3FEF82CF80E078
:101D800090E002C08EEF9FEFEE960FB6F894DEBFA4
:101D90000FBECDBFDF91CF911F910F91FF90EF90BC
:101DA000DF90CF90BF90AF909F908F907F906F907B
:101DB0005F904F90089520912E0490912D04213230
:101DC00008F04AC080910A048111FCCF32E03093C0
:101DD0000A0431E0309309043FEF30930804109275
:101DE000070420930604ADE0B4E046EE53E0FA01A8
:101DF0003E2F341B321718F43D913193F9CF1092D6
:101E0000E5032091E503990F922B9093E5039091C0
:101E1000E403913061F41092E4039091E503909310
:101E2000BB009091BC0093FDF8CF95EC01C095EEFE
:101E30009093BC0090910A049230E1F390910804D1
:101E40009F3F79F080910804803241F0809108042E
:101E5000803331F084E005C081E003C082E001C03E
:101E600083E010920C0410922E0410920B0408953B
:101E700090910A049111FCCF613208F060E291E088
:101E800090930A04909309042FEF20930804109272
:101E90000704260F209306049093E5039091E50331
:101EA000880F892B8093E5038091E403813061F4EE
:101EB0001092E4038091E5038093BB008091BC0005
:101EC00083FDF8CF85EC01C085EE8093BC00809146
:101ED0000A048130E1F380910704861710F46091C1
:101EE0000704A6EEB3E024EC33E0F9018E2F821B49
:101EF000861718F48D918193F9CF1092C3036093E4
:101F0000C203862F089590E0FC01EC55FF4F249109
:101F1000FC01E057FF4F8491882399F090E0880FEF
:101F2000991FFC01EA57FF4FA591B491FC01E458B9
:101F3000FF4F859194918FB7F894EC91E22BEC933D
:101F40008FBF0895CF93DF93BC018FE794E00E9489
:101F50000805EC016BE972E08FE794E00E94080548
:101F60008C0F9D1FDF91CF910895CF93C82F462FDF
:101F700061E070E00E94770A61E070E08C2F0E94BF
:101F8000C50A8111F9CFCF910895FF920F931F9346
:101F9000CF93DF931F92CDB7DEB7F82E8B01498325
:101FA0000E941E0A80E590E00E94C00249814260C2
:101FB00060E070E08F2D0E94770A0115110551F441
:101FC00000912A0510912B050F5F1F4F10932B05D1
:101FD00000932A05412F64E070E08F2D0E94770A5C
:101FE000402F65E070E08F2D0E94770A61E070E07D
:101FF0008F2D0E94B50F0E94BF0281E00F90DF91EC
:10200000CF911F910F91FF900895CF93DF93CDB79C
:10201000DEB7C858D1090FB6F894DEBF0FBECDBFEA
:10202000789484B5826084BD84B5816084BD85B5B3
:10203000826085BD85B5816085BD80916E008160BF
:1020400080936E0010928100809181008260809365
:102050008100809181008160809381008091800067
:102060008160809380008091B10084608093B10092
:102070008091B00081608093B00080917A0084608C
:1020800080937A0080917A00826080937A008091B8
:102090007A00816080937A0080917A0080688093D2
:1020A0007A001092C100E0918F04F091900482E0D8
:1020B0008083E0918B04F0918C041082E0918D0478
:1020C000F0918E048FEC808310929704E09193043A
:1020D000F091940486E08083E0919104F091920461
:1020E000808180618083E0919104F09192048081ED
:1020F00088608083E0919104F091920480818068EF
:102100008083E0919104F091920480818F7D80839F
:1021100000912005109121051F930F938CEC91E005
:102120009F938F931F9285E08F9373EAE72E72E05F
:10213000F72EFF92EF920E943B16F70101900020CC
:10214000E9F73197E35AF240F093A002E0939F023F
:10215000FF92EF9281ED91E09F938F931F92EFE3B7
:10216000FE2EFF929E012F5F3F4F19013F932F9349
:102170000E943B16C1010E94A20F08581F4F809178
:102180000D01800F80930D0180910701080F0093CE
:10219000070184EB91E09A8389834091000150917B
:1021A000010160910201709103014B835C836D8397
:1021B0007E834E0131E4830E911CD4018D939C9358
:1021C0008091040190910501A0910601B091070151
:1021D000F40182839383A483B583B101C4010E9477
:1021E00012096BE07AE188E594E00E94C00B6AE096
:1021F0007AE18DE394E00E94C00B809107011F9269
:102200008F93809106011F928F93809105011F92F9
:102210008F93809104011F928F9385EE91E09F939D
:102220008F931F92FF923F922F920E943B16C10103
:102230000E94A20F1092C3031092C20310920C04CA
:1022400010922E040E940F030FB6F894DEBF0FBE4B
:10225000CDBFF9ECAF2EF2E0BF2E00E010E0D501CB
:102260001D921C92B1E0B0930B0480E2800F80932A
:102270002D0410920C0410922E040E94DB0E81118A
:10228000A7C01F930F93A3E0B2E0BF93AF931F9239
:10229000FFE3FF933F922F920E943B16C1010E94E1
:1022A000A20F84E390E00E94FB146C01EEE9F2E0DF
:1022B000DC011196FC93EE9313961C930E931297E8
:1022C000602FCF010E942D0396012C5F3F4FCF5707
:1022D000DF4F39832883C158D040205E3F4FCD5710
:1022E000DF4F39832883C358D0400FB6F894DEBF40
:1022F0000FBECDBFE12CF12C21E098E0E916F104EE
:102300000CF420E0622F8EE992E0CA57DF4F288359
:10231000C658D0400E949B029E2D9770412C512C94
:102320003201439404C0440C551C661C771C9A95DA
:10233000D2F7482F4429CA57DF4F2881C658D040CA
:10234000622F8EE992E00E947A02A8E0EA16F10478
:1023500014F02DE001C02CE0622F8EE992E0CA5704
:10236000DF4F2883C658D0400E949B02482F442943
:10237000CA57DF4F2881C658D040622F8EE992E0BD
:102380000E947A02CF57DF4FE881F981C158D040CF
:1023900011921192CF57DF4FF983E883C158D04093
:1023A000CD57DF4FA881B981C358D0401D92CD577A
:1023B000DF4FB983A883C358D040BFEFEB1AFB0AA5
:1023C000E0E1EE16F10409F097CFD501CD92DC9251
:1023D0000F5F1F4FB2E0AB0EB11C0830110509F0C2
:1023E0003ECF4EE1442E512C612C712C58E9C52E64
:1023F0005AE3D52EE12CF12C29EC32E0CD57DF4FFA
:1024000039832883C358D040CD57DF4FA881B98185
:10241000C358D0400D911D91CD57DF4FB983A8838C
:10242000C358D0400115110509F419C1F8016281A2
:10243000808191810E942D03D801AD90BC90F5015F
:102440008081806291E090930B0480932D04109220
:102450000C0410922E0462E183E794E00E941C01B8
:102460000E94DB0ED5018C91806262E070E090E00A
:102470000E94380F83E794E00E94D000B82E83E7D3
:1024800094E00E94D000982F88278B299E012F5915
:102490003F4FCF57DF4F39832883C158D040F801D1
:1024A000B496A8014C5F5F4F580134E3A30EB11CF2
:1024B000DE01AF59BF4FC957DF4FB983A883C75853
:1024C000D04061E070E0C957DF4FA881B981C7589B
:1024D000D0401D921C92DA012D913C91B08180FF79
:1024E00003C02150310902C02F5F3F4F2530310515
:1024F0006CF0B111B9C1B1E0B083C957DF4FA88109
:10250000B981C758D0406D937C93AEC12C3FAFEFDB
:102510003A077CF4BB2359F010822FEF3FEFC957E5
:10252000DF4FA881B981C758D0402D933C932CEF41
:102530003FEFDA012D933D93AD0196958795C957ED
:10254000DF4F28813981C758D0402E5F3F4FC95790
:10255000DF4F39832883C758D0403196EA15FB05F1
:1025600009F0B1CFAA24A394B12CCF57DF4FA88193
:10257000B981C158D0408D919C91892B09F459C0E3
:1025800061E080911C050E94C30240922605509292
:10259000270560922805709229050E94B204609375
:1025A000220570932305809324059093250581E0EF
:1025B000CF57DF4FE881F981C158D0402081318168
:1025C0002F3F3F4F09F480E01F928F93BF92AF924D
:1025D000D80113968C9113978F9312968C918F93A9
:1025E000809121058F93809120058F93A4E2B2E022
:1025F000BF93AF931F92F0E2FF939F928F920E943E
:102600003B169F928F92A4E3B2E0BF93AF931F92C9
:10261000FFE3FF933F922F920E943B16C1010E945D
:10262000A20FC4010E941D050FB6F894DEBF0FBEB5
:10263000CDBF3FEFA31AB30ACF57DF4F28813981AF
:10264000C158D0402E5F3F4FCF57DF4F398328838B
:10265000C158D04031E1A316B10409F086CFCD575F
:10266000DF4F28813981C358D040295D324009F0BD
:10267000CBCE8DE394E00E949407181619060CF057
:1026800065C088E1E1EBF2E0DF011D928A95E9F790
:1026900048E150E0BF018DE394E00E94870048E1EB
:1026A00050E06FE372E081EB92E00E942D16892BDF
:1026B00009F04CC081E08093B002C092AC02D0928D
:1026C000AD02E092AE02F092AF020E94B2046093BB
:1026D000A8027093A9028093AA029093AB0261E0D2
:1026E00080911C050E94C3028EE190E0A0E0B0E062
:1026F0008093260590932705A0932805B09329057C
:102700000E94B204609322057093230580932405F0
:102710009093250560E080911E050E94C30283EA24
:1027200092E09F938F9384E492E09F938F931F9204
:1027300080E28F933F922F920E943B16C1010E942C
:102740001D050FB6F894DEBF0FBECDBF0E94B204C8
:102750000091A8021091A9022091AA023091AB0227
:10276000DC01CB01801B910BA20BB30B0091AC02DF
:102770001091AD022091AE023091AF028017910707
:10278000A207B30708F441C00E94B2046093A802F4
:102790007093A9028093AA029093AB028CE492E01A
:1027A0000E94A20F1092B002C092AC02D092AD0271
:1027B000E092AE02F092AF020E94B2046093A802CF
:1027C0007093A9028093AA029093AB0261E080917A
:1027D0001E050E94C3028091A1029091A2029C0159
:1027E0002F5F3F4F3093A2022093A1020B976CF012
:1027F00087E692E00E94A20F68E873E180E090E033
:102800000E947804E0E0F0E009950E94B204009193
:102810002205109123052091240530912505DC0126
:10282000CB01801B910BA20BB30B009126051091DD
:102830002705209128053091290580179107A207C7
:10284000B30778F00E94B2046093220570932305C9
:10285000809324059093250560E080911C050E94DB
:10286000C3020E947002C8CD24E030E062CECF9354
:10287000DF93EFE2F4E084EB91E0918380831282B6
:10288000138214821582ECE2F5E091838083128238
:10289000138214821582E2E3F5E091838083128231
:1028A000138214821582E8E3F5E09183808312821B
:1028B000138214821582E5E3F4E09183808312820F
:1028C000138214821582EEE3F5E0918380831282F5
:1028D000138214821582E8E5F4E01382128248EE36
:1028E00053E060E070E04483558366837783AAE415
:1028F000B1E0B183A08397878687108A118A128AF4
:10290000138A24E0208FEDE3F4E0138212824483E3
:10291000558366837783B183A08397878687108AE0
:10292000118A128A138A208FE3E7F4E0138212825D
:10293000448355836683778322E731E031832083A4
:10294000E4E4F5E09183808312821382148215827D
:10295000EFE7F4E013821282448355836683778322
:1029600024E831E03183208325EC30E0358724876B
:1029700024EC30E03787268720EC30E0318B208B49
:1029800021EC30E0338B228B22EC30E0358B248B32
:1029900026EC30E0378B268B118E128E138E148E20
:1029A000EAE4F5E091838083128213821482158217
:1029B000CCE1D5E08CE190E09983888384E290E0DB
:1029C0009B838A838CE10E94830F60E08CE10E94EC
:1029D000C30284E20E94830F60E084E20E94C3028B
:1029E0001D821C82DF91CF910895EE0FFF1F05908D
:1029F000F491E02D0994CF93DF938230910510F488
:102A000082E090E0E0915205F091530520E030E043
:102A1000C0E0D0E0309711F140815181481759074B
:102A2000C0F04817590761F482819381209719F00B
:102A30009B838A832BC0909353058093520526C0B5
:102A40002115310519F04217530718F49A01BE01F8
:102A5000DF01EF010280F381E02DDCCF211531058C
:102A600009F1281B390B2430310590F412968D9111
:102A70009C9113976115710521F0FB01938382836B
:102A800004C09093530580935205FD01329644C0D3
:102A9000FD01E20FF31F81939193225031092D9391
:102AA0003C933AC02091500530915105232B41F4BD
:102AB0002091100130911101309351052093500560
:102AC00020910E0130910F012115310541F42DB7F0
:102AD0003EB74091120150911301241B350BE09138
:102AE0005005F0915105E217F307A0F42E1B3F0BA0
:102AF0002817390778F0AC014E5F5F4F2417350770
:102B000048F04E0F5F1F509351054093500581933D
:102B1000919302C0E0E0F0E0CF01DF91CF91089502
:102B20000F931F93CF93DF93009709F48CC0FC01A0
:102B300032971382128200915205109153050115AC
:102B4000110581F420813181820F931F209150055E
:102B5000309151052817390779F5F0935105E09325
:102B6000500571C0D80140E050E0AE17BF0750F4E7
:102B700012962D913C911397AD012115310509F164
:102B8000D901F3CF9D01DA01338322836081718102
:102B9000860F971F8217930769F4EC01288139810A
:102BA000260F371F2E5F3F4F318320838A819B8101
:102BB00093838283452B29F4F0935305E0935205C8
:102BC00042C01396FC93EE931297ED0149915991EF
:102BD0009E01240F351FE217F30771F48081918164
:102BE000840F951F029611969C938E9382819381F8
:102BF00013969C938E931297E0E0F0E0D801129622
:102C00008D919C911397009719F0F8018C01F6CFE4
:102C10008D919C9198012E5F3F4F820F931F2091C1
:102C20005005309151052817390769F4309729F478
:102C3000109253051092520502C013821282109313
:102C4000510500935005DF91CF911F910F91089589
:102C500081E090E0F8940C944219FB01DC014150B2
:102C6000504030F08D910190801919F40020B9F78F
:102C7000881B990B0895AEE0B0E0E1E4F6E10C9416
:102C800019190D891E898F89988D26E02C831A8346
:102C9000098397FF02C080E090E801979E838D83AF
:102CA000AE01455E5F4F698D7A8DCE0101960E941F
:102CB0006B164D815E8157FD0AC02F813885421702
:102CC00053070CF49A01F801E20FF31F10822E96BD
:102CD000E4E00C943519ACE0B0E0E1E7F6E10C94E7
:102CE0000B197C016B018A01FC011782168283811A
:102CF00081FFBDC1CE0101964C01F7019381F60120
:102D000093FD859193FF81916F01882309F4ABC1F5
:102D1000853239F493FD859193FF81916F0185325E
:102D200029F4B70190E00E945318E7CF512C312CC1
:102D300020E02032A0F48B3269F030F4803259F078
:102D4000833269F420612CC08D3239F0803339F43C
:102D5000216026C02260246023C0286021C027FD96
:102D600027C030ED380F3A3078F426FF06C0FAE07D
:102D70005F9E300D1124532E13C08AE0389E300D13
:102D80001124332E20620CC08E3221F426FD6BC13B
:102D9000206406C08C3611F4206802C0883641F4E5
:102DA000F60193FD859193FF81916F018111C1CF50
:102DB000982F9F7D9554933028F40C5F1F4FFFE3AD
:102DC000F9830DC0833631F0833771F0833509F014
:102DD0005BC022C0F801808189830E5F1F4F4424AD
:102DE0004394512C540115C03801F2E06F0E711C50
:102DF000F801A080B18026FF03C0652D70E002C0FD
:102E00006FEF7FEFC5012C870E9448182C018301CA
:102E10002C852F77222E17C03801F2E06F0E711C1F
:102E2000F801A080B18026FF03C0652D70E002C0CC
:102E30006FEF7FEFC5012C870E943D182C012C8578
:102E40002068222E830123FC1BC0832D90E04816AE
:102E50005906B0F4B70180E290E00E9453183A940A
:102E6000F4CFF50127FC859127FE81915F01B70121
:102E700090E00E94531831103A94F1E04F1A510833
:102E80004114510471F7E5C0843611F0893639F5E3
:102E9000F80127FF07C060817181828193810C5FF7
:102EA0001F4F08C060817181072E000C880B990BA1
:102EB0000E5F1F4F2F76722E97FF09C09095809559
:102EC000709561957F4F8F4F9F4F2068722E2AE03B
:102ED00030E0A4010E948B18A82EA81844C08537A2
:102EE00029F42F7EB22E2AE030E025C0F22FF97FA0
:102EF000BF2E8F36C1F018F4883579F0B4C0803712
:102F000019F0883721F0AFC02F2F2061B22EB4FE08
:102F10000DC08B2D8460B82E09C024FF0AC09F2FDE
:102F20009660B92E06C028E030E005C020E130E010
:102F300002C020E132E0F801B7FE07C06081718174
:102F4000828193810C5F1F4F06C06081718180E098
:102F500090E00E5F1F4FA4010E948B18A82EA818A6
:102F6000FB2DFF777F2E76FE0BC0372D3E7FA514FD
:102F700050F474FE0AC072FC08C0372D3E7E05C0B6
:102F8000BA2C372D03C0BA2C01C0B52C34FF0DC0AC
:102F9000FE01EA0DF11D8081803311F4397E09C0F4
:102FA00032FF06C0B394B39404C0832F867809F02F
:102FB000B39433FD13C030FF06C05A2CB31418F479
:102FC000530C5B18B32CB31468F4B70180E290E0A3
:102FD0003C870E945318B3943C85F5CFB31410F48A
:102FE0003B1801C0312C34FF12C0B70180E390E0E0
:102FF0003C870E9453183C8532FF17C031FD03C047
:1030000088E790E002C088E590E0B7010CC0832F0C
:10301000867859F031FF02C08BE201C080E237FDB3
:103020008DE2B70190E00E945318A51438F4B7015F
:1030300080E390E00E9453185A94F7CFAA94F401C9
:10304000EA0DF11D8081B70190E00E945318A11094
:10305000F5CF332009F451CEB70180E290E00E9411
:1030600053183A94F6CFF7018681978102C08FEF0B
:103070009FEF2C96E2E10C942719FC01059061501A
:1030800070400110D8F7809590958E0F9F1F08957E
:10309000FC016150704001900110D8F78095909527
:1030A0008E0F9F1F08950F931F93CF93DF93FB0104
:1030B000238121FD03C08FEF9FEF28C022FF16C0A0
:1030C00046815781248135814217530744F4A081FA
:1030D000B1819D012F5F3F4F318320838C932681E7
:1030E00037812F5F3F4F3783268310C0EB01092FB5
:1030F000182F0084F185E02D0995892BE1F68E814A
:103100009F8101969F838E83812F902FDF91CF9196
:103110001F910F910895FA01AA27283051F120310B
:1031200081F1E8946F936E7F6E5F7F4F8F4F9F4F5B
:10313000AF4FB1E03ED0B4E03CD0670F781F891F9D
:103140009A1FA11D680F791F8A1F911DA11D6A0F6B
:10315000711D811D911DA11D20D009F468943F911E
:103160002AE0269F11243019305D3193DEF6CF011D
:103170000895462F4770405D4193B3E00FD0C9F7E3
:10318000F6CF462F4F70405D4A3318F0495D31FD50
:103190004052419302D0A9F7EACFB4E0A6959795A3
:1031A000879577956795BA95C9F700976105710579
:1031B00008959B01AC010A2E0694579547953795C3
:1031C0002795BA95C9F7620F731F841F951FA01D1D
:1031D0000895A1E21A2EAA1BBB1BFD010DC0AA1F58
:1031E000BB1FEE1FFF1FA217B307E407F50720F070
:1031F000A21BB30BE40BF50B661F771F881F991FEB
:103200001A9469F760957095809590959B01AC0133
:10321000BD01CF0108952F923F924F925F926F921E
:103220007F928F929F92AF92BF92CF92DF92EF9256
:10323000FF920F931F93CF93DF93CDB7DEB7CA1BD7
:10324000DB0B0FB6F894DEBF0FBECDBF09942A8802
:10325000398848885F846E847D848C849B84AA84AA
:10326000B984C884DF80EE80FD800C811B81AA8137
:10327000B981CE0FD11D0FB6F894DEBF0FBECDBF02
:08328000ED010895F894FFCF61
:10328800FFFFFF00C0A86400DEADBEAAFE0100007B
:10329800540580000100000001005E0000000000ED
:1032A8000000BD02BD029C01BD02BD02BD02BD02FF
:1032B800BD02600ABD02BD02BD02BD02BD02BD0263
:1032C800BD02BD02BD0200000000320AEB0A9C01EB
:1032D8002B06480A6B070A08C00B7008620A810AA5
:1032E800000C880B94074C078700500A4C0A000012
:1032F80000001C01EC009C01C000E400D000C100EB
:1033080000000000070270019F014E02D001AE01CB
:10331800C20100000000BD0270019C019B01BD02BA
:10332800BD02BD0200000000BD0270019C019B01AE
:1033380000000000890500000000BD023235352E6E
:103348003235352E3235352E32353500696D2564E6
:10335800004D617374657220626F617264206964E4
:103368003A2025730041737369676E656420616450
:1033780064726573733A2025642E25642E25642EA5
:10338800256400466F756E6420696E7075742062DE
:103398006F61726420617420616464726573733A4A
:1033A80020256400696D25642062256420692564F0
:1033B8002025640053656E64696E6720257300706C
:1033C800696E6700257320706F6E67004E6F2070FE
:1033D800696E67202D20636F6E6E656374696F6E0A
:1033E800206C6F73743F004E6F2070696E672066A3
:1033F8006F722061206C6F6E672074696D652C2078
:10340800747279696E6720746F20726573657420B1
:0E34180074686520646576696365000D0A00BE
:00000001FF
