:100000000C9463000C948B000C948B000C948B006C
:100010000C948B000C948B000C948B000C948B0034
:100020000C948B000C948B000C948B000C948B0024
:100030000C948B000C948B000C948B000C948B0014
:100040000C942E050C948B000C9446060C94200600
:100050000C948B000C948B000C948B000C948B00F4
:100060000C946E030C948B00000000080002010049
:100070000003040700000000000000000000000072
:10008000250028002B0000000000240027002A0083
:10009000040404040404040402020202020203032E
:1000A0000303030301020408102040800102040836
:1000B00010200102040810206364696E6F7073756C
:1000C00078585B00BC1311241FBECFEFD8E0DEBF11
:1000D000CDBF25E0ACEBB2E001C01D92AB37B2075B
:1000E000E1F712E0A0E0B1E0E8EBF8E302C0059030
:1000F0000D92AC3BB107D9F710E0C3E6D0E004C0E5
:100100002197FE010E94D814C236D107C9F70E9478
:1001100019100C945A1C0C94000085ED8093BC00BF
:100120008091BC0084FDFCCF109221040895409181
:10013000BD03262F30E0240F311D21323105DCF4C0
:10014000209121042430C9F4FC0180E090E086175E
:1001500058F43091BD032191DC01A556BC4FA30F8B
:10016000B11D2C930196F3CF8091BD03680F60936E
:10017000BD0380E0089581E0089582E00895089528
:10018000E0919A0380919903E81730F4F0E0E75882
:10019000FC4F808190E008958FEF9FEF089590913C
:1001A0009A0380919903981750F4E92FF0E0E758EB
:1001B000FC4F208130E09F5F90939A0302C02FEFA5
:1001C0003FEFC90108958091990390E020919A032F
:1001D000821B91090895CF92DF92EF92FF920F93C5
:1001E0001F93CF93DF937C01262F972F8A01809155
:1001F0002204882391F0C62FD72F6E01C40ED51E7E
:10020000CC15DD0571F06991D701ED91FC9101905C
:10021000F081E02DC7010995F3CF642F822F0E9452
:100220009700C801DF91CF911F910F91FF90EF9040
:10023000DF90CF900895CF93DF931F92CDB7DEB7B5
:100240006983209122042223D1F020914504203299
:1002500040F021E030E0FC013383228380E090E035
:1002600015C080912304E82FF0E0EC5DFB4F9981ED
:1002700090838F5F809323048093450405C061E0E1
:10028000CE0101960E94970081E090E00F90DF91EF
:10029000CF910895DC01ED91FC91048CF58DE02D5A
:1002A00009943FB7F8948091750390917603A091DB
:1002B0007703B091780326B5A89B05C02F3F19F0AE
:1002C0000196A11DB11D3FBFBA2FA92F982F8827D6
:1002D000820F911DA11DB11DBC01CD0142E0660F31
:1002E000771F881F991F4A95D1F70895CF92DF9203
:1002F000EF92FF920F931F93CF93DF936C017A01DC
:100300008B01C0E0D0E0CE15DF0589F0D8016D91FA
:100310008D01D601ED91FC910190F081E02DC60197
:100320000995892B11F47E0102C02196ECCFC701FB
:10033000DF91CF911F910F91FF90EF90DF90CF90C1
:100340000895089580E090E00895FC01538D448D58
:10035000252F30E0842F90E0821B930B541710F070
:10036000CF96089501970895FC01918D828D98177D
:1003700061F0828DDF01A80FB11D5D968C91928D89
:100380009F5F9F73928F90E008958FEF9FEF089586
:10039000FC01918D828D981731F0828DE80FF11D4F
:1003A000858D90E008958FEF9FEF0895FC01918D6A
:1003B000228D892F90E0805C9F4F821B91098F7363
:1003C0009927089586E994E00E94D60121E0892BBF
:1003D00009F420E0822F0895FC01848DDF01A80F2D
:1003E000B11DA35ABF4F2C91848D90E001968F735D
:1003F0009927848FA689B7892C93A089B1898C917C
:1004000080648C93938D848D981306C00288F38941
:10041000E02D80818F7D80830895EF92FF920F936E
:100420001F93CF93DF93EC0181E0888F9B8D8C8DA0
:10043000981305C0E889F989808185FD24C0F62ECE
:100440000B8D10E00F5F1F4F0F731127E02E8C8D67
:10045000E8120CC00FB607FCFACFE889F989808151
:1004600085FFF5CFCE010E94EC01F1CF8B8DFE010F
:10047000E80FF11DE35AFF4FF0820B8FEA89FB89E9
:100480008081806207C0EE89FF896083E889F989ED
:1004900080818064808381E090E0DF91CF911F9123
:1004A0000F91FF90EF900895CF93DF93EC01888D2B
:1004B0008823C9F0EA89FB89808185FD05C0A88968
:1004C000B9898C9186FD0FC00FB607FCF5CF8081EE
:1004D00085FFF2CFA889B9898C9185FFEDCFCE0138
:1004E0000E94EC01E7CFDF91CF91089580E090E08A
:1004F000892B29F00E94E20181110C9400000895DB
:10050000CF93DF931F92CDB7DEB7FC01808180626D
:1005100091E090932204809344041092230410925B
:10052000450484E594E049830E941B014981642FBE
:1005300084E594E00E941B0181E00F90DF91CF9150
:100540000C943A0FCF93DF93EC019881906281E095
:100550008093220490934404109223041092450443
:1005600084E594E00E941B0181E00E943A0F88819B
:10057000909121049111FCCF91E0909321049093EC
:1005800020042FEF20931F0410921E0410921D04CC
:100590009093FC039091FC038062880F892B8093D9
:1005A000FC038091FB03813061F41092FB03809186
:1005B000FC038093BB008091BC0083FDF8CF85ECE9
:1005C00001C085EE8093BC00809121048130E1F36D
:1005D00080911E04811103C080911E0401C081E03E
:1005E000ADEFB3E029E733E0F9019E2F921B981796
:1005F00018F49D919193F9CF10929A0380939903E7
:1006000084E594E00E94CF00DF91CF910895EF92AE
:10061000FF920F931F93CF93DF931F92CDB7DEB757
:100620007C01162F062F0770683010F065E101C0BD
:1006300064E1C70149830E94A2024981442369F011
:1006400041E050E060E070E004C0440F551F661FB9
:10065000771F0A95D2F7482B0DC041E050E060E0CB
:1006600070E004C0440F551F661F771F0A95D2F72C
:1006700040954823183010F063E101C062E1C701E2
:100680000F90DF91CF911F910F91FF90EF900C94FD
:100690008002EF92FF920F931F93CF937C0125E08E
:1006A000E20EF11CC0E08C010E5F1F4FF70140818C
:1006B000F2E0EF0EF11C6C2FC8010E940703CF5F20
:1006C000C031A1F7CF911F910F91FF90EF90089546
:1006D0000E940B1608958CBD9DBD08951F920F9228
:1006E0000FB60F9211242F933F934F935F936F9305
:1006F0007F938F939F93AF93BF93EF93FF938091DB
:10070000B900887F803609F49CC068F5883209F406
:100710005BC090F4803109F454C038F4882309F4A4
:10072000F6C0883009F44DC0F6C0883109F44CC0D9
:10073000803209F45DC0EFC0803409F468C048F429
:10074000803309F455C0883309F0E5C080931F0455
:10075000D8C0803509F44FC0883509F45DC08834AD
:1007600009F0D9C0D6C0883909F4C7C0A8F48837C1
:1007700009F467C038F4883609F463C0803709F497
:1007800060C0C9C0883809F4B8C0803909F45FC0B6
:10079000803809F0C0C05BC0803B09F486C038F4E3
:1007A000803A09F466C0883A09F47FC0B4C0803C3E
:1007B00009F4A7C0883C09F4A4C0883B09F48AC0A6
:1007C000AAC08091FC0310C090911E0480911D046A
:1007D000981770F5E0911E0481E08E0F80931E043F
:1007E000F0E0E350FC4F80818093BB0085EC86C035
:1007F00080931F048EC0E0911E0481E08E0F8093D1
:100800001E048091BB00F0E0E350FC4F8083909188
:100810001E0480911D046EC0E0911E0481E08E0FC5
:1008200080931E048091BB00F0E0E350FC4F808376
:100830008091200481116DC081E08093FB0384EAE4
:1008400061C083E0809321041092E103CFCF8091B7
:10085000E103803208F051C0E091E10381E08E0FA6
:100860008093E1038091BB00F0E0EF53FC4F808365
:10087000BDCF85EC8093BC00109221048091E103F0
:10088000803230F4E091E103F0E0EF53FC4F10824E
:100890006091E10370E0E091BF03F091C00381EC4F
:1008A00093E009951092E10336C084E0809321041F
:1008B0001092BE031092BD03E091BB03F091BC0304
:1008C00009958091BD03811105C081E08093BD032E
:1008D00010929B03E091BE0381E08E0F8093BE03D4
:1008E000F0E0E556FC4F80818093BB009091BE0301
:1008F0008091BD03981708F479CF85E88093BC00F8
:100900000AC085EC8093BC001092210404C01092B0
:100910001F040E948D00FF91EF91BF91AF919F91B5
:100920008F917F916F915F914F913F912F910F9098
:100930000FBE0F901F90189590E0FC01E859FF4FF3
:100940003491FC01EC55FF4F2491FC01E057FF4F1F
:10095000E491EE2309F43BC0332339F1333091F0B5
:1009600038F43130A9F0323001F584B58F7D12C0F2
:10097000373091F03830A1F03430B9F480918000F4
:100980008F7D03C0809180008F77809380000DC0A1
:1009900084B58F7784BD09C08091B0008F7703C084
:1009A0008091B0008F7D8093B000F0E0EE0FFF1FCC
:1009B000E458FF4FA591B4918FB7F894EC91611171
:1009C00003C020952E2301C02E2B2C938FBF08959A
:1009D0008F929F92AF92BF92CF92DF92EF92FF924F
:1009E0006B017C010E9451014B015C01C114D104D7
:1009F000E104F104F1F00E945101DC01CB018819FE
:100A00009909AA09BB09883E9340A105B10570F375
:100A100021E0C21AD108E108F10888EE880E83E0CF
:100A2000981EA11CB11CC114D104E104F10419F7F2
:100A3000DDCFFF90EF90DF90CF90BF90AF909F9071
:100A40008F9008952FB7F89460917103709172039D
:100A500080917303909174032FBF08951F920F929A
:100A60000FB60F9211242F933F938F939F93AF93C1
:100A7000BF938091710390917203A0917303B09121
:100A800074033091700323E0230F2D3720F4019677
:100A9000A11DB11D05C026E8230F0296A11DB11DA1
:100AA000209370038093710390937203A093730358
:100AB000B09374038091750390917603A0917703AE
:100AC000B09178030196A11DB11D80937503909399
:100AD0007603A0937703B0937803BF91AF919F9172
:100AE0008F913F912F910F900FBE0F901F901895EF
:100AF0006115710579F0FB0101900020E9F731974C
:100B0000AF01461B570BDC01ED91FC910280F38194
:100B1000E02D099480E090E008954F925F926F92EB
:100B20007F92EF92FF920F931F93CF93DF93CDB7F6
:100B3000DEB7A1970FB6F894DEBF0FBECDBF7C0124
:100B4000FA01CB0119A2223008F42AE08E010F5DD0
:100B50001F4F422E512C612C712CBF01A301920119
:100B60000E94011CF901CA01015011096A3014F4F4
:100B7000605D01C0695CD8016C93232B242B252B6D
:100B800061F7B801C7010E947805A1960FB6F894E5
:100B9000DEBF0FBECDBFDF91CF911F910F91FF90B0
:100BA000EF907F906F905F904F9008958F929F92FB
:100BB000AF92BF92CF92DF92EF92FF920F931F936B
:100BC000CF93DF937C01EB016C0182E0C80ED11C56
:100BD0004701E5E08E0E911C00E010E0F601419126
:100BE0006F0150E060E070E02AE0CE010E948D05C8
:100BF0005C01E881F9810190F081E02D6EE2CE0187
:100C000009958A0D9B1D080F191FC814D90431F7C7
:100C1000F701458150E060E070E02AE0CE010E94DB
:100C20008D05800F911FDF91CF911F910F91FF9044
:100C3000EF90DF90CF90BF90AF909F908F900895EE
:100C40001F920F920FB60F9211242F933F934F9341
:100C50005F936F937F938F939F93AF93BF93EF9324
:100C6000FF9386E994E00E94EC01FF91EF91BF9120
:100C7000AF919F918F917F916F915F914F913F9134
:100C80002F910F900FBE0F901F9018951F920F92EB
:100C90000FB60F9211242F938F939F93EF93FF938F
:100CA000E091A604F091A7048081E091AC04F0915A
:100CB000AD0482FD12C090818091AF048F5F8F736D
:100CC0002091B004821751F0E091AF04F0E0EA56B1
:100CD000FB4F958F8093AF0401C08081FF91EF910E
:100CE0009F918F912F910F900FBE0F901F9018958D
:100CF0002CE330E0FC013483238335969C01295D8D
:100D00003F4F11921192E217F307D9F7FC0171835B
:100D10006083089508951F93CF93DF93182F66E2A1
:100D200070E00E94240BC82FD0E067E270E0812FB2
:100D30000E94240BDC2FCC279E01282BC901DF91B8
:100D4000CF911F9108952A9A08952A9808951F9384
:100D5000CF93DF93182F60E270E00E94240BC82F1E
:100D6000D0E061E270E0812F0E94240BDC2FCC27C1
:100D70009E01282BC901DF91CF911F9108958EBD4F
:100D800000000DB407FEFDCF8EB50895CF92DF921F
:100D9000EF92FF920F931F93CF93DF93EC017A01B1
:100DA0008B016C01C40ED51ECC15DD05A9F00E9487
:100DB000A5068FE00E94BF068D2F0E94BF068C2FD4
:100DC0000E94BF06219680E00E94BF06F801819331
:100DD0008F010E94A306E8CFC701DF91CF911F9139
:100DE0000F91FF90EF90DF90CF900895AF92BF9258
:100DF000CF92DF92EF92FF920F931F93CF93DF93E7
:100E000000D0CDB7DEB77A836983BA01A901E98141
:100E1000FA81F770082F10E0000F111F0D501C4FC2
:100E2000D8018D919C918E0F9F1F2E0F3F1F213057
:100E3000384098F07A015B0120E038E06901CE1A71
:100E4000DF0AA6010E94C606A7014C195D09B5017B
:100E50006C0D7D1DF801808191810F900F90DF91C5
:100E6000CF911F910F91FF90EF90DF90CF90BF90A7
:100E7000AF900C94C606AF92BF92DF92EF92FF92B2
:100E80000F931F93CF93DF93D82E7B018A0180E5C8
:100E900090E00E946B03C0E0D0E08D2D0E948B0695
:100EA0005C01892B21F08D2D0E948B06EC01CA1567
:100EB000DB0599F7209799F463E070E08D2D0E948F
:100EC000240B8431D9F18823C9F1C1E0D0E08C3101
:100ED00011F4C0E0D0E0D195C195D1092FC00C1715
:100EE0001D070CF4E8011C161D0644F568E270E0CD
:100EF0008D2D0E94240B082F10E069E270E08D2DEB
:100F00000E94240B102F0027082B9E01A701B80177
:100F10008D2D0E94F6060C0F1D1F412F68E270E018
:100F20008D2D0E94D60A402F69E270E08D2D0E941F
:100F3000D60A60E470E08D2D0E94C90F0E946A03FA
:100F4000CE01DF91CF911F910F91FF90EF90DF9035
:100F5000BF90AF900895CF93DF93FC01218D328D28
:100F60002115310519F48FEF9FEF11C0EC014217E5
:100F7000530708F0A901888D0E943B07181619062F
:100F800094F7298D3A8D281B390B3A8F298FDF91E1
:100F9000CF9108950F931F93CF93DF931F92CDB7F7
:100FA000DEB7FC01218D328D232B61F08C0141E0F5
:100FB00050E0BE016F5F7F4F808D0E943B07181687
:100FC00019061CF08FEF9FEF08C0F801818D928DFC
:100FD0000197928F818F898190E00F90DF91CF915F
:100FE0001F910F910895BF92CF92DF92EF92FF92DF
:100FF0000F931F93CF93DF93CDB7DEB728970FB62C
:10100000F894DEBF0FBECDBF8C01F801818D928DAB
:10101000892B49F0D801ED91FC910284F385E02DF4
:10102000C8010995F2CFB08C80E590E00E946B0377
:10103000E12CF12C8B2D0E948B066C01892B21F069
:101040008B2D0E948B067C01EC14FD0499F70E9405
:101050006A031E141F045CF548E050E0BE016F5F98
:101060007F4FD80158968C910E943B079C0118161F
:101070001906DCF489819A81AB81BC81F801808BEF
:10108000918BA28BB38B8D8190E0982F88272E8136
:10109000820F911D958B848B2F8130E0322F222778
:1010A0008885280F311D328F218FC90102C080E051
:1010B00090E028960FB6F894DEBF0FBECDBFDF914B
:1010C000CF911F910F91FF90EF90DF90CF90BF9045
:1010D0000895FF920F931F93CF93DF931F92CDB785
:1010E000DEB7FC01218D328D232B09F1F08C80E5D8
:1010F00090E00E946B0368E270E08F2D0E94240B49
:10110000082F10E069E270E08F2D0E94240B702FF1
:101110006627682B21E030E0AE014F5F5F4F8F2DD7
:101120000E94F6060E946A03898190E002C08FEF58
:101130009FEF0F90DF91CF911F910F91FF90089536
:10114000CF92DF92EF92FF920F931F93CF93DF9393
:10115000EC017A018B016C01C40ED51ECC15DD05A6
:10116000A1F00E94A50680EF0E94BF068D2F0E946D
:10117000BF068C2F0E94BF062196F80181918F0136
:101180000E94BF060E94A306E9CFC701DF91CF915D
:101190001F910F91FF90EF90DF90CF900895BF9235
:1011A000CF92DF92EF92FF920F931F93CF93DF9333
:1011B00000D000D000D0CDB7DEB7FC01208D2430A8
:1011C00009F05CC06A017B018C01B12C63E070E026
:1011D0008B2D0E94240B811103C0F801B08E06C034
:1011E0008831D9F3B394F4E0BF12F0CFF801808DC9
:1011F000843009F443C096E0E8E1F1E0DE011196A5
:1012000001900D929A95E1F7F70193819F779C8366
:1012100094819D8395819E83B7016E5F7F4F90E09F
:10122000982F882744E050E0845F9B4F0E94A008DD
:10123000F801F08C4D2D60E170E08F2D0E94D60AF0
:101240004C2D61E170E08F2D0E94D60AF801808D4F
:1012500090E0982F882746E050E0BE016F5F7F4FF7
:101260008A5F9B4F0E94A008F801128E118E40E801
:10127000B601808D0E94D90F81E001C080E02696E2
:101280000FB6F894DEBF0FBECDBFDF91CF911F9197
:101290000F91FF90EF90DF90CF90BF9008951F9334
:1012A000CF93DF9300D0CDB7DEB7182F6A83998331
:1012B0000E94A50680EF0E94BF069981892F0E9497
:1012C000BF06812F0E94BF066A81862F0E94BF063B
:1012D0000E94A30681E00F900F90DF91CF911F91A4
:1012E0000895CF92DF92EF92FF921F93CF93DF93F7
:1012F000CDB7DEB7E0970FB6F894DEBF0FBECDBF17
:10130000FC0182819381A481B5818DA79EA7AFA79F
:10131000B8AB51E058ABCDA4DEA4EFA4F8A8CB8EB7
:10132000DC8EED8EFE8EFB01C280D380E480F580E2
:10133000C9A2DAA2EBA2FCA28FA398A7A9A7BAA779
:1013400024EB31E03C8B2B8B4FEF4D8B4E8B4F8B37
:10135000188E3E872D875E8F4B8D5C8D6D8D7E8DBB
:101360004F87588B698B7A8BC986DA86EB86FC8629
:101370003A8329838B839C83AD83BE836CE271E0C7
:1013800080E090E00E94E8041FB7F8948091E203A7
:10139000811124C0EAE9F0E08491EEEAF0E0949152
:1013A000E82FF0E0EE0FFF1FEA57FF4FA591B49131
:1013B000EC91E92321F461E08AE00E949C048AE038
:1013C0000E94970F8CB580618CBD8CB580648CBDFC
:1013D0008DE00E94970F8BE00E94970F8091E203AF
:1013E0008F5F8093E2031FBF229A80E590E00E9406
:1013F0006B0360E880E090E00E944F0965E58BE1B7
:1014000090E00E944F0965E58AE190E00E944F0953
:101410000E946A0380E090E49093EC038093EB03D6
:1014200080E090E69093F4038093F30380E098E4E7
:101430009093EE038093ED0380E098E69093F6039B
:101440008093F50380E090E59093F0038093EF03A1
:1014500080E090E79093F8038093F70380E098E5AD
:101460009093F2038093F10380E098E79093FA035E
:101470008093F90380E590E00E946B0346E050E022
:1014800068E071E089E090E00E94A00844E050E04C
:10149000BE016D5F7F4F8FE090E00E94A00844E0A6
:1014A00050E0BE01615F7F4F81E090E00E94A008A4
:1014B00044E050E0BE016B5E7F4F85E090E00E940B
:1014C000A0080E946A0389859A85AB85BC858093B4
:1014D0004E0490934F04A0935004B0935104E096AF
:1014E0000FB6F894DEBF0FBECDBFDF91CF911F9135
:1014F000FF90EF90DF90CF900895CF93C82F80E5B5
:1015000090E00E946B0360E170E08C2F0E94C90F95
:101510004FEF62E070E08C2F0E94D60ACF910C94BE
:101520006A03CF93DF931F92CDB7DEB76983DC01E7
:10153000ED91FC910280F381E02D41E050E0BE018D
:101540006F5F7F4F09950F90DF91CF910895FC0158
:10155000818D928D0895FC0184899589089524EBED
:1015600031E0FC0131832083FB014089518962898C
:101570007389FC014283538364837583089580E0FB
:101580000895CF93DF93EC01888D843061F00E9441
:101590007D0AE88DF0E0EE0FFF1FED51FC4F118248
:1015A000108284E0888FDF91CF9108959B0190E0B5
:1015B0000496982F8827642F820F931F0C944F094D
:1015C000EF92FF921F93CF93DF93EB017A01FC011F
:1015D000178A168A108D8A81811109C08B81811129
:1015E00006C08C81811103C08D81882329F1E1140B
:1015F000F10411F180E590E00E946B03BE016E5F83
:101600007F4F812F90E0982F882744E050E0845F3F
:101610009B4F0E94A0084F2D60E170E0812F0E9437
:10162000D60A4E2D61E170E0812F0E94D60A0E94F9
:101630006A0381E090E002C080E090E0DF91CF910A
:101640001F91FF90EF9008950F931F93CF93DF9317
:101650001F92CDB7DEB790E00496982F88278C01B3
:10166000060F171F0E94A5068FE00E94BF06812F5C
:101670000E94BF06802F0E94BF0680E00E94BF0626
:1016800089830E94A30689810F90DF91CF911F91DA
:101690000F9108957F928F929F92AF92BF92CF92B7
:1016A000DF92EF92FF920F931F93CF93DF935C0132
:1016B0004B016A01FC0106891789708C80E590E076
:1016C0000E946B03C0E0D0E0872D0E94A7067C013A
:1016D000892B21F0872D0E94A706EC01CE15DF058E
:1016E00099F7CC15DD0578F4C0E0D0E0872D0E9495
:1016F000A7066C01892B21F0872D0E94A706EC011B
:10170000CC15DD0599F764E270E0872D0E94240B6B
:10171000E82EF12C65E270E0872D0E94240BFE2C50
:10172000EE24E82AE701C00FD11F9E013770E72C95
:10173000F12CC701880F991FAC0145515C4F7A010C
:10174000FA0180819181820F931FA9014C0D5D1DCB
:101750004130584090F000E018E0021B130BA80144
:10176000B4010E94A008A601401B510BB401600FF8
:10177000711FF7018081918102C0A601B4010E940E
:10178000A008CC0DDD1D4D2F64E270E0872D0E9476
:10179000D60A4C2F65E270E0872D0E94D60A0E947F
:1017A0006A03F501868997898C0D9D1D978B868B21
:1017B000C601DF91CF911F910F91FF90EF90DF90C5
:1017C000CF90BF90AF909F908F907F900895CF93D0
:1017D000FC01C08D80E590E00E946B0360E270E048
:1017E0008C2F0E94C90F62E070E08C2F0E94240BA6
:1017F00084FD19C062E070E08C2F0E94240B83FFEF
:101800000BC048E162E070E08C2F0E94D60A0E9473
:101810006A0380E090E011C00E946A0380E590E0D6
:101820000E946B03E0CF40E162E070E08C2F0E94E9
:10183000D60A0E946A0381E090E0CF910895CF928A
:10184000DF92EF92FF921F93CF93DF931F92CDB75A
:10185000DEB7FC01208D243011F080E027C07B0131
:101860006C0110E080E590E00E946B0363E070E0A3
:10187000812F0E94240B89830E946A038981811130
:1018800003C0F601108F05C08831D9F31F5F1430F3
:1018900049F7F601808D843001F3F586E486128ED7
:1018A000118E40E0B7010E94D90F81E00F90DF91C7
:1018B000CF911F91FF90EF90DF90CF9008954F92BE
:1018C0005F926F927F928F929F92AF92BF92CF92D0
:1018D000DF92EF92FF920F931F93CF93DF93CDB7D9
:1018E000DEB7EE970FB6F894DEBF0FBECDBF5C013A
:1018F0008B014A0184EB91E09A8389831C861B86C5
:1019000048EE53E060E070E04D875E876F87788B2C
:101910002CE531E03A872987988F8F8B198E1A8EA4
:101920001B8E1C8E24E029A399AB88AB1AAA1BAA94
:101930001CAA1DAA80914E0490914F04A0915004BE
:10194000B09151048EA39FA3A8A7B9A78B839C83B2
:10195000AD83BE8318861F82F80120E080E090E00E
:101960006AE03191332319F140ED430F4A3080F49E
:10197000689FA001699F500D1124CA01C097830F71
:10198000911D37FD9A958F3F910559F350F32BC068
:101990003E3249F5233039F1A2E3B0E0AC0FBD1F70
:1019A000A20FB11D8C932F5F80E090E0DACF23303F
:1019B000D1F48DABD501ED91FC910488F589E02D32
:1019C00084EB91E09DA38CA38AA99BA9ACA9BDA996
:1019D0008EA39FA3A8A7B9A7A401BE016C5D7F4FEA
:1019E000C501099530C24B815C816D817E818091FA
:1019F000480490914904A0914A04B0914B044817BF
:101A000059076A077B0709F41CC20E9422056F7000
:101A100077277C5FCE0109960E941F0C813009F068
:101A20000DC284EB91E09DA38CA38B819C81AD8141
:101A3000BE818EA39FA3A8A7B9A745E350E0BE012E
:101A40006C5D7F4FCE0109960E94E00A892B19F444
:101A500000E010E07EC10E94220578876F83762720
:101A6000672776277DA36CA342E050E0BE016C5D42
:101A70007F4FCE0109960E944A0B81E090E09FAB18
:101A80008EAB42E050E0BE016A5C7F4FCE0109960A
:101A90000E944A0B80E091E09FAB8EAB42E050E0A9
:101AA000BE016A5C7F4FCE0109960E944A0B1FAAB5
:101AB0001EAA42E050E0BE016A5C7F4FCE0109964B
:101AC0000E944A0B42E050E0BE016A5C7F4FCE01AB
:101AD00009960E944A0B42E050E0BE016A5C7F4FCB
:101AE000CE0109960E944A0B7801D7018C91882378
:101AF00019F1F8017F018191811117C06701C01AA6
:101B0000D10A1C141D04A4F4C8AE41E050E0BE018B
:101B1000685C7F4FCE0109960E944A0BA601B8016E
:101B2000CE0109960E944A0B03C08E3219F7E6CF08
:101B300087010F5F1F4FD9CF18AE41E050E0BE01C3
:101B4000685C7F4FCE0109960E944A0B00E011E0CD
:101B50001FAB0EAB42E050E0BE016A5C7F4FCE018E
:101B600009960E944A0B1FAB0EAB42E050E0BE014B
:101B70006A5C7F4FCE0109960E944A0BCE010996FE
:101B80000E94E70B892B09F463CF63E0E62EF12C6A
:101B90000E9422052B013C01CE0109960E94F30709
:101BA00018161906A4F00E942205DC01CB01841945
:101BB0009509A609B70989389341A105B105C8F46B
:101BC00062E370E080E090E00E94E804E5CF4B81A2
:101BD0005C816D817E81898D9A8DAB8DBC8D48171E
:101BE00059076A077B0741F48D8D9E8DC59721F4B7
:101BF00006C02FEF3FEFA4C02EEF3FEFA1C08AA198
:101C00009BA10C970CF4B2C04CE050E0BE016C5D9F
:101C10007F4FCE0109960E94AB078EA190E0982FCE
:101C200088272FA1822B9BAF8AAF2CA130E0322FC7
:101C300022274DA1242B4F8158854217530709F0C5
:101C400092C097FF90C08F709270892B09F0F3C0FB
:101C50000AA510E0102F00278BA5082B01151105F0
:101C600009F4E6C0C12CD12C88A590E0982F8827D4
:101C700029A5822BC816D90608F47BC0C12CD12C0B
:101C800041E050E0BE01645C7F4FCE0109960E94A6
:101C9000AB078CAD982F907C09F0A5C0811197C03F
:101CA0008CAD8111EDCF42E050E0BE01685C7F4F0A
:101CB000CE0109960E94AB0742E050E0BE016A5C8B
:101CC0007F4FCE0109960E94AB07CE0109960E9474
:101CD000CA07CE0109960E94CA07CE0109960E9442
:101CE000CA07CE0109960E94CA0742E050E0BE0131
:101CF000665C7F4FCE0109960E94AB0788AD99AD17
:101D00008115914009F075C02EA93FA932272327DC
:101D100032272130310509F06CC08AAD9BAD8115A9
:101D2000944009F082C044E050E0BE016E5C7F4FF9
:101D3000CE0109962DAF3EAF0E94AB072DAD3EAD53
:101D40008901B1E0EB1AF10821F02F3F3F4F09F470
:101D50001FCFCE0109960E94C10A0130110509F476
:101D600029CEC80170C02CEF3FEFEACF2DEF3FEF37
:101D7000E7CF41E050E0BE016A5C7F4FCE0109969B
:101D80000E94AB078EA9811117C08EA98111F1CFD6
:101D9000CE0109960E94CA07CE0109960E94CA0781
:101DA000CE0109960E94CA07CE0109960E94CA0771
:101DB000FFEFCF1ADF0A58CF8EA99FEF980F9EAB87
:101DC000882319F3CE0109960E94CA07F5CF8CAD7E
:101DD0009FEF980F9CAF882309F462CFCE0109963C
:101DE0000E94CA07F4CFCE0109960E94CA071CAE12
:101DF00057CF612C712C8AAD9BAD982789279827E6
:101E00006816790640F4CE0109960E94CA078FEF42
:101E1000681A780AF0CFAFEFCA1ADA0AC016D106EC
:101E200009F02ECF26EF3FEF8BCF27EF3FEF88CF84
:101E30002AEF3FEF85CF2BEF3FEF82CF80E090E09E
:101E400002C08EEF9FEFEE960FB6F894DEBF0FBE86
:101E5000CDBFDF91CF911F910F91FF90EF90DF9059
:101E6000CF90BF90AF909F908F907F906F905F903A
:101E70004F900895382F20914504909144042132C9
:101E800008F049C0809121048111FCCF42E04093C9
:101E90002104309320043FEF30931F0410921E045E
:101EA00020931D04A4E2B4E04DEF53E0FA013E2F6D
:101EB000341B321718F43D913193F9CF1092FC0383
:101EC0002091FC03990F922B9093FC039091FB03BC
:101ED000913061F41092FB039091FC039093BB004E
:101EE0009091BC0093FDF8CF95EC01C095EE9093D6
:101EF000BC00909121049230E1F390911F049F3F28
:101F000079F080911F04803241F080911F0480336A
:101F100031F084E005C081E003C082E001C083E0CD
:101F2000109223041092450410922204089590E028
:101F3000FC01EC55FF4F2491FC01E057FF4F8491C9
:101F4000882399F090E0880F991FFC01EA57FF4F12
:101F5000A591B491FC01E458FF4F859194918FB7FE
:101F6000F894EC91E22BEC938FBF0895CF93DF931D
:101F7000BC0186E994E00E947805EC0168EB72E010
:101F800086E994E00E9478058C0F9D1FDF91CF9128
:101F90000895CF93C82F462F61E070E00E94D60AC3
:101FA00061E070E08C2F0E94240B8111F9CFCF915A
:101FB0000895FF920F931F93CF93DF931F92CDB796
:101FC000DEB7F82E8B0149830E947D0A80E590E000
:101FD0000E946B034981426060E070E08F2D0E9497
:101FE000D60A0115110551F40091510510915205C1
:101FF0000F5F1F4F1093520500935105412F64E06E
:1020000070E08F2D0E94D60A402F65E070E08F2D82
:102010000E94D60A61E070E08F2D0E94C90F0E94D5
:102020006A0381E00F90DF91CF911F910F91FF9094
:102030000895CF93DF93CDB7DEB7C654D1090FB65D
:10204000F894DEBF0FBECDBF789484B5826084BDA6
:1020500084B5816084BD85B5826085BD85B58160AC
:1020600085BD80916E00816080936E00109281002A
:1020700080918100826080938100809181008160E5
:1020800080938100809180008160809380008091A6
:10209000B10084608093B1008091B0008160809332
:1020A000B00080917A00846080937A0080917A00F9
:1020B000826080937A0080917A00816080937A00B8
:1020C00080917A00806880937A001092C100E0913C
:1020D000A604F091A70482E08083E091A204F0912D
:1020E000A3041082E091A404F091A5048FEC8083F6
:1020F0001092AE04E091AA04F091AB0486E08083D4
:10210000E091A804F091A904808180618083E0912E
:10211000A804F091A904808188608083E091A804DC
:10212000F091A904808180688083E091A804F091F7
:10213000A90480818F7D8083E0904705F090480559
:10214000FF92EF928CEB91E09F938F931F9285E02B
:102150008F930AE413E01F930F930E941E16F80159
:1021600001900020E9F73197EA54F340F0934903D6
:10217000E09348031F930F9381EC91E09F938F931B
:102180001F92FFE3DF2EDF928E010F5F1F4F1F9321
:102190000F930E941E16C8010E94B60F2CE8E20E93
:1021A000F11C80910D018E0D80930D01809107012E
:1021B000E80EE092070184EB91E09A8389834091D5
:1021C00000015091010160910201709103014B8364
:1021D0005C836D837E8323969FAF8EAF2397809120
:1021E000040190910501A0910601B0910701279685
:1021F0008CAF9DAFAEAFBFAF2797B801CE018F5B5D
:102200009F4F0E9471096BE07AE18BE794E00E9496
:102210001F0C6AE07AE180E694E00E941F0C809136
:1022200007011F928F93809106011F928F938091D7
:1022300005011F928F93809104011F928F9385ED6A
:1022400091E09F938F931F92DF921F930F930E94B1
:102250001E16C8010E94B60F0FB6F894DEBF0FBE5F
:10226000CDBFA3E3AA2EA5E0BA2E77247394B8E4D9
:102270006B2E212C312C21012394D501ED91FD9160
:102280005D016F01B2E0CB0ED11C8081883008F077
:1022900087E0828310929A0310929903109223048C
:1022A0001092450410922104709220041092FB03B6
:1022B00061E082E10E949C0461E083E10E949C0451
:1022C0008091B9008E7F8093B9008091B9008D7F95
:1022D0008093B9006092B800E5E4E093BC004FEF52
:1022E00060E0C6010E9480024FEF61E0C6010E94DB
:1022F0008002E12CF12C8E2C99249394F8E0EF16B7
:10230000F1040CF4912C692DC6010E94A202982DB3
:102310009770B201A10104C0440F551F661F771FBB
:102320009A95D2F740954823692DC6010E948002F4
:1023300040E0682DC6010E9407032FEFE21AF20A5F
:1023400030E1E316F104B9F683E4A81685E0B80697
:1023500009F093CF88E99AE3A0E0B0E080935303BB
:1023600090935403A0935503B09356030E94220503
:1023700060934F03709350038093510390935203E3
:1023800058E5852E53E0952E68E9C62E6AE3D62ED1
:10239000E12CF12C7EE1472E512C612C712CECEBC1
:1023A0002E2EE2E03E2E80E694E00E94F3071816FF
:1023B00019060CF03AC188E1D4011D928A95E9F71B
:1023C00048E150E068E573E080E694E00E944A014D
:1023D00048E150E063EF71E088E593E00E94101659
:1023E000892B09F05CC081E080935703C0925303AE
:1023F000D0925403E0925503F09256030E942205B6
:1024000060934F0370935003809351039093520352
:1024100061E0809143050E949C0440924D055092DA
:102420004E0560924F05709250050E942205609300
:10243000490570934A0580934B0590934C0560E0E5
:10244000809145050E949C048AE493E09F938F93BA
:10245000A8EFB1E0BF93AF931F9280E28F931F93D9
:102460000F930E941E161F930F931F9280E88F9365
:102470003F922F920E941E1643EB55E160E072E0FE
:102480008BE794E00E945F0C6CEB72E08BE794E0CA
:102490000E9478058BE794E00E94E70BB7C040915B
:1024A0004803509149036AE473E088E593E00E9491
:1024B0001016892B09F0B9C0A0E4B3E0BF93AF9325
:1024C000A2E4B3E0BF93AF93A4E4B3E0BF93AF93B0
:1024D000A6E4B3E0BF93AF93A0E1B2E0BF93AF93A4
:1024E0009F928F920E944E1690933F0380933E03DB
:1024F0000FB6F894DEBF0FBECDBF049709F08CC0B5
:102500008091460390914703892B09F085C0C092C2
:102510005303D0925403E0925503F09256030E9465
:10252000220560934F03709350038093510390935F
:10253000520361E0809143050E949C0440924D0546
:1025400050924E0560924F05709250050E942205F0
:102550006093490570934A0580934B0590934C0511
:1025600060E0809145050E949C04209142033091D7
:102570004303215031093093430320934203E091F8
:102580004403F0914503EE0FFF1FED5CFA4F80818D
:102590009181409140035091410320313105A0F4D5
:1025A000452B41F0DC0113964D915C9114974F5FE0
:1025B0005F4F02C040E050E0F9013196EE0FFF1F7F
:1025C000E80FF91F548343830E944903809141031C
:1025D0008F93809140038F93809143038F938091D9
:1025E00042038F93809145038F93809144038F938F
:1025F000A0E2B2E0BF93AF931F928FE38F931F933C
:102600000F930E941E16C8010E94B60F0FB6F894D1
:10261000DEBF0FBECDBF09C086E392E00E94B60FB9
:1026200061E0809145050E949C040E942205209152
:102630004F03309150034091510350915203DC01FC
:10264000CB01821B930BA40BB50B2091530330914C
:102650005403409155035091560382179307A407E2
:10266000B50708F45AC00E94220560934F03709387
:102670005003809351039093520382E592E00E94AD
:10268000B60F1092570383E3A82E85E0B82ED5012C
:102690008D919D915D01FC0135969C012B5D3F4F15
:1026A00011921192E217F307D9F70E944903B3E49C
:1026B000AB16B5E0BB0659F7C0925303D092540352
:1026C000E0925503F09256030E94220560934F0357
:1026D00070935003809351039093520361E0809173
:1026E00045050E949C0480913C0390913D039C0110
:1026F0002F5F3F4F30933D0320933C030B976CF0CB
:1027000084E892E00E94B60F68E873E180E090E010
:102710000E94E804E0E0F0E009950E942205209183
:10272000490530914A0540914B0550914C05DC011B
:10273000CB01821B930BA40BB50B20914D0530915F
:102740004E0540914F055091500582179307A407FD
:10275000B50778F00E9422056093490570934A05F9
:1027600080934B0590934C0560E0809143050E9457
:102770009C040E94760217CE0F931F93CF93DF9392
:10278000E6E4F4E084EB91E091838083128213828B
:1027900014821582E3E5F5E091838083128213822F
:1027A00014821582E9E5F5E0918380831282138219
:1027B00014821582EFE5F5E0918380831282138203
:1027C00014821582ECE4F4E09183808312821382F8
:1027D00014821582E4E5F4E01382128248EE53E09D
:1027E00060E070E0448355836683778322E231E0C2
:1027F00031832083E5E6F5E09183808312821382A2
:1028000014821582EBE7F4E013821282448355832D
:1028100066837783ACE5B1E0B183A0839787868731
:10282000108A118A128A138A24E0208FE0E6F4E0ED
:10283000138212824483558366837783B183A08396
:1028400097878687108A118A128A138A208FEBE66F
:10285000F5E0918380831282138214821582E6E967
:10286000F4E013821282448355836683778324E8DD
:1028700031E03183208325EC30E03587248724EC58
:1028800030E03787268720EC30E0318B208B21EC3D
:1028900030E0338B228B22EC30E0358B248B26EC1E
:1028A00030E0378B268B118E128E138E148EE1E75B
:1028B000F5E0918380831282138214821582C3E42F
:1028C000D5E08CE190E09983888384E290E09B835B
:1028D0008A838CE10E94970F60E08CE10E949C0447
:1028E00084E20E94970F60E084E20E949C041D82B3
:1028F0001C8287E290E00E94DE148C0160E070E0B0
:102900000E947806C3E3D5E01983088387E290E04C
:102910000E94DE148C0161E070E00E9478061B8347
:102920000A8387E290E00E94DE148C0162E070E08E
:102930000E9478061D830C8387E290E00E94DE14DB
:102940008C0163E070E00E9478061F830E8387E2AB
:1029500090E00E94DE148C0164E070E00E94780632
:102960001987088787E290E00E94DE148C0165E0F9
:1029700070E00E9478061B870A8787E290E00E9439
:10298000DE148C0166E070E00E9478061D870C87DB
:1029900087E290E00E94DE148C0167E070E00E9404
:1029A00078061F870E87DF91CF911F910F910895B1
:1029B000EE0FFF1F0590F491E02D0994CF93DF9364
:1029C0008230910510F482E090E0E0917905F09179
:1029D0007A0520E030E0C0E0D0E0309711F140818E
:1029E000518148175907C0F04817590761F482818F
:1029F0009381209719F09B838A832BC090937A054B
:102A00008093790526C02115310519F04217530727
:102A100018F49A01BE01DF01EF010280F381E02D7D
:102A2000DCCF2115310509F1281B390B2430310584
:102A300090F412968D919C9113976115710521F078
:102A4000FB019383828304C090937A058093790578
:102A5000FD01329644C0FD01E20FF31F8193919373
:102A6000225031092D933C933AC020917705309143
:102A70007805232B41F420911001309111013093FE
:102A800078052093770520910E0130910F012115D3
:102A9000310541F42DB73EB7409112015091130119
:102AA000241B350BE0917705F0917805E217F307C9
:102AB000A0F42E1B3F0B2817390778F0AC014E5FAE
:102AC0005F4F2417350748F04E0F5F1F509378056E
:102AD000409377058193919302C0E0E0F0E0CF014D
:102AE000DF91CF9108950F931F93CF93DF930097BA
:102AF00009F48CC0FC01329713821282009179058F
:102B000010917A050115110581F420813181820F20
:102B1000931F20917705309178052817390779F5AB
:102B2000F0937805E093770571C0D80140E050E05C
:102B3000AE17BF0750F412962D913C911397AD013B
:102B40002115310509F1D901F3CF9D01DA01338354
:102B5000228360817181860F971F8217930769F422
:102B6000EC0128813981260F371F2E5F3F4F3183BB
:102B700020838A819B8193838283452B29F4F09360
:102B80007A05E093790542C01396FC93EE93129771
:102B9000ED01499159919E01240F351FE217F3076A
:102BA00071F480819181840F951F029611969C93F8
:102BB0008E938281938113969C938E931297E0E07B
:102BC000F0E0D80112968D919C911397009719F01F
:102BD000F8018C01F6CF8D919C9198012E5F3F4FAB
:102BE000820F931F209177053091780528173907B8
:102BF00069F4309729F410927A051092790502C091
:102C0000138212821093780500937705DF91CF919C
:102C10001F910F91089581E090E0F8940C945A1C54
:102C2000FB01DC014150504030F08D910190801942
:102C300019F40020B9F7881B990B0895AEE0B0E0B5
:102C4000E4E2F6E10C94311C0D891E898F89988D80
:102C500026E02C831A83098397FF02C080E090E866
:102C600001979E838D83AE01455E5F4F698D7A8D9E
:102C7000CE0101960E9467164D815E8157FD0AC004
:102C80002F813885421753070CF49A01F801E20F9F
:102C9000F31F10822E96E4E00C944D1CAEE0B0E0E1
:102CA000E4E5F6E10C94331C85E08C838B899C89E8
:102CB0009A838983AE01495E5F4F6D897E89CE011B
:102CC00001960E94B9192E96E2E00C944F1CACE0DC
:102CD000B0E0EDE6F6E10C94231C7C016B018A0167
:102CE000FC0117821682838181FFBDC1CE0101964E
:102CF0004C01F7019381F60193FD859193FF81913A
:102D00006F01882309F4ABC1853239F493FD8591B5
:102D100093FF81916F01853229F4B70190E00E9401
:102D20004F1BE7CF512C312C20E02032A0F48B3206
:102D300069F030F4803259F0833269F420612CC09C
:102D40008D3239F0803339F4216026C0226024604E
:102D500023C0286021C027FD27C030ED380F3A304E
:102D600078F426FF06C0FAE05F9E300D1124532E42
:102D700013C08AE0389E300D1124332E20620CC01F
:102D80008E3221F426FD6BC1206406C08C3611F40E
:102D9000206802C0883641F4F60193FD859193FFC7
:102DA00081916F018111C1CF982F9F7D95549330F0
:102DB00028F40C5F1F4FFFE3F9830DC0833631F019
:102DC000833771F0833509F05BC022C0F801808140
:102DD00089830E5F1F4F44244394512C540115C026
:102DE0003801F2E06F0E711CF801A080B18026FF5F
:102DF00003C0652D70E002C06FEF7FEFC5012C8727
:102E00000E94061B2C0183012C852F77222E17C0D0
:102E10003801F2E06F0E711CF801A080B18026FF2E
:102E200003C0652D70E002C06FEF7FEFC5012C87F6
:102E30000E94FB1A2C012C852068222E830123FC82
:102E40001BC0832D90E048165906B0F4B70180E20C
:102E500090E00E944F1B3A94F4CFF50127FC859136
:102E600027FE81915F01B70190E00E944F1B311056
:102E70003A94F1E04F1A51084114510471F7E5C03A
:102E8000843611F0893639F5F80127FF07C06081D3
:102E90007181828193810C5F1F4F08C060817181B5
:102EA000072E000C880B990B0E5F1F4F2F76722E8A
:102EB00097FF09C090958095709561957F4F8F4FD2
:102EC0009F4F2068722E2AE030E0A4010E94A01BD0
:102ED000A82EA81844C0853729F42F7EB22E2AE0E8
:102EE00030E025C0F22FF97FBF2E8F36C1F018F4E5
:102EF000883579F0B4C0803719F0883721F0AFC039
:102F00002F2F2061B22EB4FE0DC08B2D8460B82E01
:102F100009C024FF0AC09F2F9660B92E06C028E082
:102F200030E005C020E130E002C020E132E0F801ED
:102F3000B7FE07C060817181828193810C5F1F4F52
:102F400006C06081718180E090E00E5F1F4FA40198
:102F50000E94A01BA82EA818FB2DFF777F2E76FEBF
:102F60000BC0372D3E7FA51450F474FE0AC072FCCE
:102F700008C0372D3E7E05C0BA2C372D03C0BA2CB1
:102F800001C0B52C34FF0DC0FE01EA0DF11D80819A
:102F9000803311F4397E09C032FF06C0B394B39474
:102FA00004C0832F867809F0B39433FD13C030FF3B
:102FB00006C05A2CB31418F4530C5B18B32CB3147A
:102FC00068F4B70180E290E03C870E944F1BB39405
:102FD0003C85F5CFB31410F43B1801C0312C34FFFD
:102FE00012C0B70180E390E03C870E944F1B3C85F4
:102FF00032FF17C031FD03C088E790E002C088E5CA
:1030000090E0B7010CC0832F867859F031FF02C0E1
:103010008BE201C080E237FD8DE2B70190E00E94B3
:103020004F1BA51438F4B70180E390E00E944F1BBA
:103030005A94F7CFAA94F401EA0DF11D8081B701EB
:1030400090E00E944F1BA110F5CF332009F451CE20
:10305000B70180E290E00E944F1B3A94F6CFF7014F
:103060008681978102C08FEF9FEF2C96E2E10C944E
:103070003F1C20FD09C0FC0123FD05C022FF02C04A
:103080007383628351834083089544FD10C046FDDD
:1030900010C0DB01FC01AA0FBB1FEE1FFF1F109425
:1030A000D1F76A0F7B1F8E1F9F1F31E003C033E0F3
:1030B00001C034E0660F771F881F991F3150D1F788
:1030C000620F711D811D911D08950F931F93CF9362
:1030D000DF938C01C8010E94111BEC0197FD08C011
:1030E0000E94E71A892BB1F7B801CE010E94871B15
:1030F000CE01DF91CF911F910F910895A1E0B0E033
:10310000E4E8F8E10C94291C8C01C62E7A0129838D
:103110000E94111BAC01552729814B32510521F02A
:103120004D32510569F42068CA94C11002C080E094
:1031300076C0C80129830E94111B298197FDF7CF12
:10314000322F3D7FD32E322F307349F5803339F53E
:10315000BB24BA94BC0C09F44EC0C80129830E9458
:10316000111B298197FD47C0382F3F7D383569F401
:103170008D2D8264D82ECA94CA94CC20E1F1C80166
:103180000E94111B97FF0BC036C026FF04C02D2DD7
:103190002260D22E03C03D2D3261D32ECB2C812C48
:1031A000912C540120ED280F283080F0D4FE04C06B
:1031B000B8010E94871B1CC02A3040F0D6FEF8CF11
:1031C0002F7D3FEE320F363098F727504D2DC50139
:1031D000B4010E9445184B015C018D2D8260D82EF0
:1031E000CA94CC2059F0C8010E94111B97FFDACF76
:1031F000D1FC04C09CCF812C912C5401D7FE08C077
:10320000B094A09490948094811C911CA11CB11C3A
:103210002D2DB501A401C7010E94391881E0219626
:10322000ECE00C94451CA1E2B0E0E9E1F9E10C947A
:10323000271C5C017A01CE0101966C0180E2F60147
:1032400011928A95E9F7F501838040E050E0912CD6
:10325000712C70E0A1E0B0E0F90183FC859183FE60
:1032600081918F01982F9F01811103C080E090E030
:103270007CC08E3519F44115510549F1E72FF0E076
:10328000E417F5073CF48D3559F18D3219F47720A8
:1032900001F103C0711001C0982E892F8695869583
:1032A00086958601080F111D892F87703D0101C089
:1032B000660C8A95EAF7F801808186298083991542
:1032C00059F0991510F49F5FE8CF9150E6CF71E067
:1032D00004C07724739401C0712C4F5F5F4FBCCF43
:1032E000772019F08E8180628E83711103C099243A
:1032F000939416C0F6019E012F5D3F4F808180950B
:103300008193E217F307D1F7F2CFE114F10429F02A
:10331000F7018083C70101967C016150912CF9F07F
:10332000C50169A30E94111B69A197FD16C0282F32
:10333000269526952695F601E20FF11D208130E0B5
:10334000AC014770552702C0359527954A95E2F79D
:1033500020FDDBCFB5010E94871B911087CFE114C0
:10336000F10411F0F7011082C801A196EEE00C946F
:10337000431C4F925F927F928F929F92AF92BF9227
:10338000CF92DF92EF92FF920F931F93CF93DF9331
:103390001F92CDB7DEB76C012B015A01FC011782D9
:1033A0001682712CF601F380F201F3FC8591F3FE95
:1033B0008191382F2F01882309F4F3C090E03983DD
:1033C0000E94E71A3981892B21F0C6010E946518F5
:1033D000E9CF353241F4F201F3FC3591F3FE31913E
:1033E0002F01353269F4C60139830E94111B3981DE
:1033F00097FDD5C03817B1F2B6010E94871BD1C026
:103400003A3239F4F3FC3591F3FE31912F0151E05A
:1034100001C050E0420110E020ED230F2A3090F46B
:103420005260612F70E080E090E040E259830E949A
:103430004518162FF401F3FC3591F3FE31914F013D
:103440005981EACF052F232F240151FF03C0111109
:1034500002C0A7C01FEF383619F03C3659F011C032
:10346000F401F3FC2591F3FE21912F01283649F454
:10347000052F08600460F201F3FC2591F3FE219111
:103480002F01222309F48DC0622F70E088EB90E0B9
:1034900029830E94F01A2981892B09F482C000FD3A
:1034A00007C0F501E080F180C50102965C0102C011
:1034B000E12CF12C2E3651F4F6014681578160E063
:1034C00070E0202FC7010E9439186CCF233691F489
:1034D00001FF11E0C6010E94111B97FD60C0E114BD
:1034E000F10429F0F7018083C70101967C01115096
:1034F00089F751C02B3559F49201A701612FC601FC
:103500000E9413192C01892B09F045C03FC0C60148
:1035100029830E946518298197FD41C02F3659F1F2
:1035200028F4243631F1293649F127C0233769F0D0
:103530002537F9F022C0E114F10429F0F701808267
:10354000C70101967C01115071F0C6010E94111B48
:103550004C0197FD08C00E94E71A892B61F3B60160
:10356000C4010E94871BE114F104A9F0F701108245
:1035700012C0006203C0006101C00064202FA701D7
:10358000612FC6010E947E18811105C0F60183815A
:10359000807329F406C000FD05CF739403CF772014
:1035A00019F0872D90E002C08FEF9FEF0F90DF9111
:1035B000CF911F910F91FF90EF90DF90CF90BF9030
:1035C000AF909F908F907F905F904F900895911152
:1035D0000C94FE1B803219F089508550C8F708956D
:1035E000FC010590061621F00020D9F7C0010895CE
:1035F0003197CF010895FC01059061507040011092
:10360000D8F7809590958E0F9F1F0895FC0161500B
:10361000704001900110D8F7809590958E0F9F1FF4
:103620000895CF93DF93EC012B8120FF33C026FF59
:103630000AC02F7B2B838E819F8101969F838E836F
:103640008A8190E029C022FF0FC0E881F981808142
:10365000082E000C990B009719F420622B831AC0D6
:103660003196F983E8830EC0EA85FB85099597FFBB
:1036700009C02B81019611F080E201C080E1822B0C
:103680008B8308C02E813F812F5F3F4F3F832E8366
:10369000992702C08FEF9FEFDF91CF9108950F938D
:1036A0001F93CF93DF93FB01238121FD03C08FEF95
:1036B0009FEF28C022FF16C04681578124813581A3
:1036C0004217530744F4A081B1819D012F5F3F4F02
:1036D000318320838C93268137812F5F3F4F37833F
:1036E000268310C0EB01092F182F0084F185E02DEF
:1036F0000995892BE1F68E819F8101969F838E83A8
:10370000812F902FDF91CF911F910F910895FB0191
:10371000238120FF12C026FD10C08F3F3FEF93078B
:1037200061F082832F7D206423832681378121509D
:10373000310937832683992708958FEF9FEF0895E6
:10374000FA01AA27283051F1203181F1E8946F93D2
:103750006E7F6E5F7F4F8F4F9F4FAF4FB1E03ED078
:10376000B4E03CD0670F781F891F9A1FA11D680F16
:10377000791F8A1F911DA11D6A0F711D811D911D49
:10378000A11D20D009F468943F912AE0269F1124BE
:103790003019305D3193DEF6CF010895462F477022
:1037A000405D4193B3E00FD0C9F7F6CF462F4F707D
:1037B000405D4A3318F0495D31FD4052419302D0DB
:1037C000A9F7EACFB4E0A695979587957795679581
:1037D000BA95C9F700976105710508959B01AC0181
:1037E0000A2E06945795479537952795BA95C9F7A8
:1037F000620F731F841F951FA01D089599278827A6
:103800000895A1E21A2EAA1BBB1BFD010DC0AA1F21
:10381000BB1FEE1FFF1FA217B307E407F50720F039
:10382000A21BB30BE40BF50B661F771F881F991FB4
:103830001A9469F760957095809590959B01AC01FD
:10384000BD01CF0108952F923F924F925F926F92E8
:103850007F928F929F92AF92BF92CF92DF92EF9220
:10386000FF920F931F93CF93DF93CDB7DEB7CA1BA1
:10387000DB0B0FB6F894DEBF0FBECDBF09942A88CC
:10388000398848885F846E847D848C849B84AA8474
:10389000B984C884DF80EE80FD800C811B81AA8101
:1038A000B981CE0FD11D0FB6F894DEBF0FBECDBFCC
:0838B000ED010895F894FFCF2B
:1038B800FFFFFF00C0A85800DEADBEAAFE01000051
:1038C8007B0580000100000001005E000000000090
:1038D80000001B01EB00A201BF00E300CF00C00005
:1038E8000000000068036803A20168036803680316
:1038F80068036803BF0A680368036803680368030A
:10390800680368036803680300000000910A4A0B13
:10391800A2018A06A70ACA0769081F0CCF08C10AAC
:10392800E00A5F0CE70BF307AB074A01AF0AAB0AE3
:10393800000000000D027601A5015402D601B40171
:10394800C8010000000068037601A201A101680314
:10395800680368030000000068037601A201A10162
:1039680000000000D6050000000068036F6D2564A4
:10397800004D617374657220626F617264206964BE
:103988003A2025730041737369676E65642061642A
:1039980064726573733A2025642E25642E25642E7F
:1039A80025640070696E6700257320706F6E67006C
:1039B8003235352E3235352E3235352E3235350005
:1039C8006F6D2564206225642072256420256400BB
:1039D80052656C61792025642F25642073657420F5
:1039E800746F20256400496E76616C6964206E7579
:1039F8006D626572206F6620617267756D656E74A1
:103A080073004E6F2070696E67202D20636F6E6E95
:103A1800656374696F6E206C6F73743F20547572A0
:103A28006E696E672065766572797468696E67205D
:103A38006F6666004E6F2070696E6720666F722031
:103A480061206C6F6E672074696D652C20747279C3
:103A5800696E6720746F2072657365742074686579
:0C3A680020646576696365000D0A0000AB
:00000001FF
