:100000000C9478010C94A9010C94A9010C94A901F9
:100010000C94A9010C94A9010C94A9010C94A901B8
:100020000C94A9010C94A9010C94A9010C94A901A8
:100030000C94A9010C94A9010C94A9010C94A90198
:100040000C94A9010C94A9010C94A9010C94A90188
:100050000C94A9010C94A9010C94A9010C94B0066C
:100060000C94A9010C94CC070C94A2070C94A90140
:100070000C94A9010C94A9010C94A9010C94A90158
:100080000C94A9010C94A9010C94A9010C94A90148
:100090000C94A9010C94A9010C94A9010C94BB0423
:1000A0000C94A9010C94A9010C94A9010C94A90128
:1000B0000C94A9010C94A9010C94A9010C94A90118
:1000C0000C94A9010C94A9010C94A9010C94A90108
:1000D0000C94A9010C94A9010C94A9010C94A901F8
:1000E0000C94A9011C061F060E06120616065606DB
:1000F000230627062D06310635063B063F06430636
:10010000560649064D0651060C941C0C0C94E6024A
:100110000C9443060C946B0C0C9423060C94BF02B5
:100120000C9449060C945A0A0C94320C0C947E09D7
:100130000C94ED010C9431060C94C3020C945509F7
:100140000C9401020C94AA0D0C9456060C94720D9A
:100150000C9474150C94DD010C94360C0C94580717
:100160000C9416060C94C0020C9439020C943F06B1
:100170000C941C060C9494020C944A0C0C940902E6
:100180000C94B5040C9412060C94F4020C943506ED
:100190000C943A0C0C94EA0D0C940E060C942D065B
:1001A0000C9451060C94DE010C9436090C9414083E
:1001B0000C944C0C0C94F4090C943B060C946802BF
:1001C0000C94D2020C941F060C94D50C0C944D0682
:1001D0000C9472030C942B030C94270600000A0B5A
:1001E00002090C0D0E0807030401000000000000C6
:1001F00000000000000000000000000000000000FF
:1002000000000000000000001211100000000000BB
:1002100000000000000000000000000000000000DE
:10022000000000002200250028002B002E003100D5
:10023000340002010000050108010B01000021004B
:10024000240027002A002D003000330001010000A7
:10025000040107010A010505050507050808080846
:10026000020202020A0A080804040404010101014E
:100270000101010103030303030303030407070749
:100280000C0C0C0C0C0C0C0C0202020206060606EE
:10029000060606060B0B0B0B0B0B0B0B01021020BB
:1002A00020080810204010204080020102010804AC
:1002B0000201010204081020408080402010080440
:1002C0000201800402018040201008040201080499
:1002D00002010102040810204080010204081020DD
:1002E00040806364696E6F70737578585B00741535
:1002F00011241FBECFEFD1E2DEBFCDBF00E00CBFA7
:1003000026E0ACEBB3E001C01D92AB37B207E1F7DA
:1003100013E0A0E0B2E0E4EAFCE300E00BBF02C0BF
:1003200007900D92AC3BB107D9F711E0C8E7D1E0D7
:1003300000E006C021970109802FFE010E9490165F
:10034000C737D10780E00807A9F70E94A4110C94D1
:10035000501E0C94000085ED8093BC008091BC0081
:1003600084FDFCCF1092210508954091BD04262FF5
:1003700030E0240F311D21323105DCF420912105BC
:100380002430C9F4FC0180E090E0861758F43091E5
:10039000BD042191DC01A556BB4FA30FB11D2C93C9
:1003A0000196F3CF8091BD04680F6093BD0480E097
:1003B000089581E0089582E008950895E0919A04F7
:1003C00080919904E81730F4F0E0E758FB4F808102
:1003D00090E008958FEF9FEF089590919A04809197
:1003E0009904981750F4E92FF0E0E758FB4F20816B
:1003F00030E09F5F90939A0402C02FEF3FEFC90156
:1004000008958091990490E020919A04821B9109AB
:100410000895CF92DF92EF92FF920F931F93CF93A5
:10042000DF937C01262F972F8A0180912205882354
:1004300091F0C62FD72F6E01C40ED51ECC15DD0549
:1004400071F06991D701ED91FC910190F081E02D5F
:10045000C7011995F3CF642F822F0E94B501C801FF
:10046000DF91CF911F910F91FF90EF90DF90CF9090
:100470000895CF93DF931F92CDB7DEB769832091A4
:1004800022052223D1F020914505203240F021E0C1
:1004900030E0FC013383228380E090E015C080913E
:1004A0002305E82FF0E0EC5DFA4F998190838F5F90
:1004B000809323058093450505C061E0CE01019638
:1004C0000E94B50181E090E00F90DF91CF910895F7
:1004D000DC01ED91FC91048CF58DE02D19943FB772
:1004E000F8948091750490917604A0917704B0916E
:1004F000780426B5A89B05C02F3F19F00196A11DD1
:10050000B11D3FBFBA2FA92F982F8827820F911DA9
:10051000A11DB11DBC01CD0142E0660F771F881FF0
:10052000991F4A95D1F70895CF92DF92EF92FF92EB
:100530000F931F93CF93DF936C017A018B01C0E07F
:10054000D0E0CE15DF0589F0D8016D918D01D6017F
:10055000ED91FC910190F081E02DC6011995892B58
:1005600011F47E0102C02196ECCFC701DF91CF913B
:100570001F910F91FF90EF90DF90CF900895089515
:1005800080E090E00895FC01538D448D252F30E0EC
:10059000842F90E0821B930B541710F0CF96089590
:1005A00001970895FC01918D828D981761F0828DDD
:1005B000DF01A80FB11D5D968C91928D9F5F9F7397
:1005C000928F90E008958FEF9FEF0895FC01918D39
:1005D000828D981731F0828DE80FF11D858D90E0A6
:1005E00008958FEF9FEF0895FC01918D228D892F43
:1005F00090E0805C9F4F821B91098F73992708952B
:1006000086E995E00E94F40221E0892B09F420E0BC
:10061000822F0895FC01848DDF01A80FB11DA35A1C
:10062000BF4F2C91848D90E001968F739927848F12
:10063000A689B7892C93A089B1898C9180648C9309
:10064000938D848D981306C00288F389E02D8081F4
:100650008F7D80830895EF92FF920F931F93CF9326
:10066000DF93EC0181E0888F9B8D8C8D981305C002
:10067000E889F989808185FD24C0F62E0B8D10E074
:100680000F5F1F4F0F731127E02E8C8DE8120CC0E7
:100690000FB607FCFACFE889F989808185FFF5CF8D
:1006A000CE010E940A03F1CF8B8DFE01E80FF11DF0
:1006B000E35AFF4FF0820B8FEA89FB8980818062C9
:1006C00007C0EE89FF896083E889F98980818064A9
:1006D000808381E090E0DF91CF911F910F91FF9097
:1006E000EF900895CF93DF93EC01888D8823C9F0B4
:1006F000EA89FB89808185FD05C0A889B9898C912B
:1007000086FD0FC00FB607FCF5CF808185FFF2CFC5
:10071000A889B9898C9185FFEDCFCE010E940A038B
:10072000E7CFDF91CF91089580E090E0892B21F011
:100730000E940003811125C080E090E0892B41F0E8
:1007400080E090E0892B21F00E94000081111CC004
:1007500080E090E0892B41F080E090E0892B21F04F
:100760000E940000811113C080E090E0892BA1F06D
:1007700080E090E0892B81F00E94000081110AC086
:1007800008950E940000D8CF0E940000E1CF0E948F
:100790000000EACF0C9400000895CF93DF931F92DE
:1007A000CDB7DEB7FC018081806291E09093220595
:1007B00080934405109223051092450584E595E049
:1007C00049830E9439024981642F84E595E00E94A3
:1007D000390281E00F90DF91CF910C94C510CF9337
:1007E000DF93EC019881906281E0809322059093E1
:1007F0004405109223051092450584E595E00E947A
:10080000390281E00E94C5108881909121059111E3
:10081000FCCF91E090932105909320052FEF20933A
:100820001F0510921E0510921D059093FC049091D7
:10083000FC048062880F892B8093FC048091FB0468
:10084000813061F41092FB048091FC048093BB0022
:100850008091BC0083FDF8CF85EC01C085EE8093CC
:10086000BC00809121058130E1F380911E0581114A
:1008700003C080911E0501C081E0ADEFB4E029E71F
:1008800034E0F9019E2F921B981718F49D919193D3
:10089000F9CF10929A048093990484E595E00E9420
:1008A000ED01DF91CF910895EF92FF920F931F9387
:1008B000CF93DF931F92CDB7DEB77C01162F062FA3
:1008C0000770683010F065E101C064E1C701498339
:1008D0000E94EF034981442369F041E050E060E069
:1008E00070E004C0440F551F661F771F0A95D2F7AA
:1008F000482B0DC041E050E060E070E004C0440FC0
:10090000551F661F771F0A95D2F740954823183068
:1009100010F063E101C062E1C7010F90DF91CF9158
:100920001F910F91FF90EF900C94CD03EF92FF92E7
:100930000F931F93CF937C0125E0E20EF11CC0E0E2
:100940008C010E5F1F4FF7014081F2E0EF0EF11CAA
:100950006C2FC8010E945404CF5FC031A1F7CF9122
:100960001F910F91FF90EF9008950E94C517089571
:100970008CBD9DBD08951F920F920FB60F9211244A
:100980000BB60F922F933F934F935F936F937F9389
:100990008F939F93AF93BF93EF93FF938091B90091
:1009A000887F803609F49CC068F5883209F45BC002
:1009B00090F4803109F454C038F4882309F4F6C067
:1009C000883009F44DC0F6C0883109F44CC080323B
:1009D00009F45DC0EFC0803409F468C048F4803386
:1009E00009F455C0883309F0E5C080931F05D8C0CD
:1009F000803509F44FC0883509F45DC0883409F0AA
:100A0000D9C0D6C0883909F4C7C0A8F4883709F41A
:100A100067C038F4883609F463C0803709F460C0D1
:100A2000C9C0883809F4B8C0803909F45FC080387B
:100A300009F0C0C05BC0803B09F486C038F4803A3E
:100A400009F466C0883A09F47FC0B4C0803C09F458
:100A5000A7C0883C09F4A4C0883B09F48AC0AAC096
:100A60008091FC0410C090911E0580911D0598177F
:100A700070F5E0911E0581E08E0F80931E05F0E079
:100A8000E350FB4F80818093BB0085EC86C0809350
:100A90001F058EC0E0911E0581E08E0F80931E051C
:100AA0008091BB00F0E0E350FB4F808390911E05E6
:100AB00080911D056EC0E0911E0581E08E0F809330
:100AC0001E058091BB00F0E0E350FB4F80838091D6
:100AD000200581116DC081E08093FB0484EA61C030
:100AE00083E0809321051092E104CFCF8091E1044F
:100AF000803208F051C0E091E10481E08E0F8093D4
:100B0000E1048091BB00F0E0EF53FB4F8083BDCF49
:100B100085EC8093BC00109221058091E104803225
:100B200030F4E091E104F0E0EF53FB4F108260916C
:100B3000E10470E0E091BF04F091C00481EC94E026
:100B400019951092E10436C084E08093210510923B
:100B5000BE041092BD04E091BB04F091BC04199551
:100B60008091BD04811105C081E08093BD04109285
:100B70009B04E091BE0481E08E0F8093BE04F0E000
:100B8000E556FB4F80818093BB009091BE0480911D
:100B9000BD04981708F479CF85E88093BC000AC09B
:100BA00085EC8093BC001092210504C010921F05B3
:100BB0000E94AB01FF91EF91BF91AF919F918F91F7
:100BC0007F916F915F914F913F912F910F900BBE4D
:100BD0000F900FBE0F901F901895362F90E0FC01DC
:100BE000E452FE4F4491FC01E456FD4F2491FC0178
:100BF000EA5AFD4F9491992309F46BC0442309F4F8
:100C000055C050E0FA013197E231F10508F04EC0CD
:100C10008827EE58FF4F8F4F0C94901680918000DC
:100C20008F7707C0809180008F7D03C08091800006
:100C3000877F809380003AC084B58F7702C084B5E7
:100C40008F7D84BD33C08091B0008F7703C08091C9
:100C5000B0008F7D8093B00029C0809190008F7785
:100C600007C0809190008F7D03C080919000877FA6
:100C7000809390001BC08091A0008F7707C0809167
:100C8000A0008F7D03C08091A000877F8093A0008B
:100C90000DC0809120018F7707C0809120018F7D4A
:100CA00003C080912001877F80932001E92FF0E02D
:100CB000EE0FFF1FEE5DFD4FA591B4918FB7F89435
:100CC000EC91311103C020952E2301C02E2B2C93C3
:100CD0008FBF08958F929F92AF92BF92CF92DF9273
:100CE000EF92FF926B017C010E946F024B015C014D
:100CF000C114D104E104F104F1F00E946F02DC019F
:100D0000CB0188199909AA09BB09883E9340A1051E
:100D1000B10570F321E0C21AD108E108F10888EEAC
:100D2000880E83E0981EA11CB11CC114D104E104FB
:100D3000F10419F7DDCFFF90EF90DF90CF90BF90D7
:100D4000AF909F908F9008952FB7F89460917104A1
:100D50007091720480917304909174042FBF089570
:100D60001F920F920FB60F9211242F933F938F93E0
:100D70009F93AF93BF938091710490917204A0915F
:100D80007304B09174043091700423E0230F2D3765
:100D900020F40196A11DB11D05C026E8230F02967F
:100DA000A11DB11D2093700480937104909372046F
:100DB000A0937304B09374048091750490917604A9
:100DC000A0917704B09178040196A11DB11D809384
:100DD000750490937604A0937704B0937804BF9140
:100DE000AF919F918F913F912F910F900FBE0F90D8
:100DF0001F9018956115710579F0FB010190002095
:100E0000E9F73197AF01461B570BDC01ED91FC91DF
:100E10000280F381E02D199480E090E008954F92D4
:100E20005F926F927F92EF92FF920F931F93CF93F7
:100E3000DF93CDB7DEB7A1970FB6F894DEBF0FBE34
:100E4000CDBF7C01FA01CB0119A2223008F42AE0BF
:100E50008E010F5D1F4F422E512C612C712CBF0152
:100E6000A30192010E942E1EF901CA01015011092D
:100E70006A3014F4605D01C0695CD8016C93232B67
:100E8000242B252B61F7B801C7010E94FA06A19611
:100E90000FB6F894DEBF0FBECDBFDF91CF911F918B
:100EA0000F91FF90EF907F906F905F904F9008951B
:100EB0008F929F92AF92BF92CF92DF92EF92FF926A
:100EC0000F931F93CF93DF937C01EB016C0182E0C2
:100ED000C80ED11C4701E5E08E0E911C00E010E029
:100EE000F60141916F0150E060E070E02AE0CE0130
:100EF0000E940F075C01E881F9810190F081E02DEB
:100F00006EE2CE0119958A0D9B1D080F191FC8149A
:100F1000D90431F7F701458150E060E070E02AE044
:100F2000CE010E940F07800F911FDF91CF911F917B
:100F30000F91FF90EF90DF90CF90BF90AF909F9078
:100F40008F9008951F920F920FB60F9211240BB637
:100F50000F922F933F934F935F936F937F938F9352
:100F60009F93AF93BF93EF93FF9386E995E00E9421
:100F70000A03FF91EF91BF91AF919F918F917F9164
:100F80006F915F914F913F912F910F900BBE0F90FA
:100F90000FBE0F901F9018951F920F920FB60F92D1
:100FA00011240BB60F922F938F939F93EF93FF9380
:100FB000E091A605F091A7058081E091AC05F09144
:100FC000AD0582FD12C090818091AF058F5F8F7358
:100FD0002091B005821751F0E091AF05F0E0EA569C
:100FE000FA4F958F8093AF0501C08081FF91EF91FB
:100FF0009F918F912F910F900BBE0F900FBE0F906E
:101000001F9018952CE330E0FC0134832383359640
:101010009C01295D3F4F11921192E217F307D9F716
:10102000FC0171836083089508951F93CF93DF932C
:10103000182F66E270E00E94AF0CC82FD0E067E284
:1010400070E0812F0E94AF0CDC2FCC279E01282B53
:10105000C901DF91CF911F9108952C9A08952C9882
:1010600008951F93CF93DF93182F60E270E00E94E2
:10107000AF0CC82FD0E061E270E0812F0E94AF0C6E
:10108000DC2FCC279E01282BC901DF91CF911F9126
:1010900008958EBD00000DB407FEFDCF8EB50895F6
:1010A000CF92DF92EF92FF920F931F93CF93DF9334
:1010B000EC017A018B016C01C40ED51ECC15DD0547
:1010C000A9F00E942F088FE00E9449088D2F0E94EE
:1010D00049088C2F0E944908219680E00E94490807
:1010E000F80181938F010E942D08E8CFC701DF919D
:1010F000CF911F910F91FF90EF90DF90CF900895C7
:10110000AF92BF92CF92DF92EF92FF920F931F9315
:10111000CF93DF931F921F92CDB7DEB77A83698397
:10112000BA01A901E981FA81F770082F10E0000FD8
:10113000111F0D501B4FD8018D919C918E0F9F1F39
:101140002E0F3F1F2130384098F07A015B0120E0DC
:1011500038E06901CE1ADF0AA6010E945008A701F3
:101160004C195D09B5016C0D7D1DF80180819181DF
:101170000F900F90DF91CF911F910F91FF90EF9003
:10118000DF90CF90BF90AF900C945008AF92BF9279
:10119000DF92EF92FF920F931F93CF93DF93D82E9E
:1011A0007B018A0180E590E00E94B804C0E0D0E0B5
:1011B0008D2D0E9415085C01892B21F08D2D0E9438
:1011C0001508EC01CA15DB0599F7209799F463E03F
:1011D00070E08D2D0E94AF0C8431D9F18823C9F1C4
:1011E000C1E0D0E08C3111F4C0E0D0E0D195C195E0
:1011F000D1092FC00C171D070CF4E8011C161D06A1
:1012000044F568E270E08D2D0E94AF0C082F10E0CD
:1012100069E270E08D2D0E94AF0C102F0027082B83
:101220009E01A701B8018D2D0E9480080C0F1D1F83
:10123000412F68E270E08D2D0E94610C402F69E221
:1012400070E08D2D0E94610C60E470E08D2D0E9495
:1012500054110E94B704CE01DF91CF911F910F91DD
:10126000FF90EF90DF90BF90AF900895CF93DF9302
:10127000FC01218D328D2115310519F48FEF9FEF7F
:1012800011C0EC014217530708F0A901888D0E9494
:10129000C6081816190694F7298D3A8D281B390BA4
:1012A0003A8F298FDF91CF9108950F931F93CF939A
:1012B000DF931F92CDB7DEB7FC01218D328D232B3A
:1012C00061F08C0141E050E0BE016F5F7F4F808D87
:1012D0000E94C608181619061CF08FEF9FEF08C071
:1012E000F801818D928D0197928F818F898190E095
:1012F0000F90DF91CF911F910F910895BF92CF92E0
:10130000DF92EF92FF920F931F93CF93DF93CDB7AE
:10131000DEB728970FB6F894DEBF0FBECDBF8C01A5
:10132000F801818D928D892B49F0D801ED91FC91C6
:101330000284F385E02DC8011995F2CFB08C80E5C9
:1013400090E00E94B804E12CF12C8B2D0E9415082E
:101350006C01892B21F08B2D0E9415087C01EC1467
:10136000FD0499F70E94B7041E141F045CF548E0C1
:1013700050E0BE016F5F7F4FD80158968C910E945C
:10138000C6089C0118161906DCF489819A81AB8184
:10139000BC81F801808B918BA28BB38B8D8190E007
:1013A000982F88272E81820F911D958B848B2F81FA
:1013B00030E0322F22278885280F311D328F218F70
:1013C000C90102C080E090E028960FB6F894DEBF15
:1013D0000FBECDBFDF91CF911F910F91FF90EF9086
:1013E000DF90CF90BF900895FF920F931F93CF93FC
:1013F000DF931F92CDB7DEB7FC01218D328D232BF9
:1014000009F1F08C80E590E00E94B80468E270E099
:101410008F2D0E94AF0C082F10E069E270E08F2D35
:101420000E94AF0C702F6627682B21E030E0AE01E0
:101430004F5F5F4F8F2D0E9480080E94B704898103
:1014400090E002C08FEF9FEF0F90DF91CF911F913F
:101450000F91FF900895CF92DF92EF92FF920F933A
:101460001F93CF93DF93EC017A018B016C01C40EC3
:10147000D51ECC15DD05A1F00E942F0880EF0E943B
:1014800049088D2F0E9449088C2F0E9449082196F7
:10149000F80181918F010E9449080E942D08E9CF2F
:1014A000C701DF91CF911F910F91FF90EF90DF90D7
:1014B000CF900895BF92CF92DF92EF92FF920F9359
:1014C0001F93CF93DF9300D000D0CDB7DEB7FC01E0
:1014D000208D243009F05CC06A017B018C01B12CA5
:1014E00063E070E08B2D0E94AF0C811103C0F80106
:1014F000B08E06C08831D9F3B394F4E0BF12F0CFB8
:10150000F801808D843009F443C096E0E8E1F2E010
:10151000DE01119601900D929A95E1F7F701938102
:101520009F779C8394819D8395819E83B7016E5F95
:101530007F4F90E0982F882744E050E0845F9B4FD6
:101540000E942B0AF801F08C4D2D60E170E08F2D88
:101550000E94610C4C2D61E170E08F2D0E94610CA6
:10156000F801808D90E0982F882746E050E0BE017A
:101570006F5F7F4F8A5F9B4F0E942B0AF801128E8C
:10158000118E40E8B601808D0E94641181E001C097
:1015900080E026960FB6F894DEBF0FBECDBFDF9178
:1015A000CF911F910F91FF90EF90DF90CF90BF9060
:1015B00008951F93CF93DF931F921F92CDB7DEB78D
:1015C000182F6A8399830E942F0880EF0E94490890
:1015D0009981892F0E944908812F0E9449086A81B8
:1015E000862F0E9449080E942D0881E00F900F90DD
:1015F000DF91CF911F910895CF92DF92EF92FF92EA
:101600001F93CF93DF93CDB7DEB7E0970FB6F89473
:10161000DEBF0FBECDBFFC0182819381A481B58165
:101620008DA79EA7AFA7B8AB51E058ABCDA4DEA461
:10163000EFA4F8A8CB8EDC8EED8EFE8EFB01C2806F
:10164000D380E480F580C9A2DAA2EBA2FCA28FA32A
:1016500098A7A9A7BAA724EB32E03C8B2B8B4FEFBE
:101660004D8B4E8B4F8B188E3E872D875E8F4B8D0B
:101670005C8D6D8D7E8D4F87588B698B7A8BC9867B
:10168000DA86EB86FC863A8329838B839C83AD8341
:10169000BE836CE271E080E090E00E946A061FB7B2
:1016A000F8948091E204811124C0EBE8F2E0849187
:1016B000E1EDF2E09491E82FF0E0EE0FFF1FE45C23
:1016C000FD4FA591B491EC91E92321F461E085E30C
:1016D0000E94ED0585E30E9422118CB580618CBDCE
:1016E0008CB580648CBD84E30E94221183E30E9448
:1016F00022118091E2048F5F8093E2041FBF249A3D
:1017000080E590E00E94B80460E880E090E00E94EC
:10171000D90A65E58BE190E00E94D90A65E58AE186
:1017200090E00E94D90A0E94B70480E090E4909370
:10173000EC048093EB0480E090E69093F4048093B3
:10174000F30480E098E49093EE048093ED0480E04D
:1017500098E69093F6048093F50480E090E59093EA
:10176000F0048093EF0480E090E79093F804809376
:10177000F70480E098E59093F2048093F10480E010
:1017800098E79093FA048093F90480E590E00E9432
:10179000B80446E050E068E072E089E090E00E9422
:1017A0002B0A44E050E0BE016D5F7F4F8FE090E078
:1017B0000E942B0A44E050E0BE01615F7F4F81E050
:1017C00090E00E942B0A44E050E0BE016B5E7F4F28
:1017D00085E090E00E942B0A0E94B70489859A85D3
:1017E000AB85BC8580934E0590934F05A093500523
:1017F000B0935105E0960FB6F894DEBF0FBECDBF93
:10180000DF91CF911F91FF90EF90DF90CF900895DF
:10181000CF93C82F80E590E00E94B80460E170E0AB
:101820008C2F0E9454114FEF62E070E08C2F0E94C9
:10183000610CCF910C94B704CF93DF931F92CDB777
:10184000DEB76983DC01ED91FC910280F381E02D2C
:1018500041E050E0BE016F5F7F4F19950F90DF911F
:10186000CF910895FC01818D928D0895FC018489AA
:101870009589089524EB32E0FC0131832083FB013C
:101880004089518962897389FC014283538364834F
:101890007583089580E00895CF93DF93EC01888DE0
:1018A000843061F00E94080CE88DF0E0EE0FFF1F1D
:1018B000ED51FB4F1182108284E0888FDF91CF9130
:1018C00008959B0190E00496982F8827642F820F3B
:1018D000931F0C94D90AEF92FF921F93CF93DF933B
:1018E000EB017A01FC01178A168A108D8A81811119
:1018F00009C08B81811106C08C81811103C08D814B
:10190000882329F1E114F10411F180E590E00E94AF
:10191000B804BE016E5F7F4F812F90E0982F88271B
:1019200044E050E0845F9B4F0E942B0A4F2D60E102
:1019300070E0812F0E94610C4E2D61E170E0812FDB
:101940000E94610C0E94B70481E090E002C080E038
:1019500090E0DF91CF911F91FF90EF9008950F934A
:101960001F93CF93DF931F92CDB7DEB790E004961D
:10197000982F88278C01060F171F0E942F088FE0D1
:101980000E944908812F0E944908802F0E9449081F
:1019900080E00E94490889830E942D0889810F9068
:1019A000DF91CF911F910F9108957F928F929F9217
:1019B000AF92BF92CF92DF92EF92FF920F931F935D
:1019C000CF93DF935C014B016A01FC010689178903
:1019D000708C80E590E00E94B804C0E0D0E0872DD4
:1019E0000E9431087C01892B21F0872D0E9431084B
:1019F000EC01CE15DF0599F7CC15DD0578F4C0E0D4
:101A0000D0E0872D0E9431086C01892B21F0872DB1
:101A10000E943108EC01CC15DD0599F764E270E015
:101A2000872D0E94AF0CE82EF12C65E270E0872D27
:101A30000E94AF0CFE2CEE24E82AE701C00FD11F54
:101A40009E013770E72CF12CC701880F991FAC015C
:101A500045515B4F7A01FA0180819181820F931F7A
:101A6000A9014C0D5D1D4130584090F000E018E098
:101A7000021B130BA801B4010E942B0AA601401BF4
:101A8000510BB401600F711FF7018081918102C079
:101A9000A601B4010E942B0ACC0DDD1D4D2F64E27E
:101AA00070E0872D0E94610C4C2F65E270E0872D5D
:101AB0000E94610C0E94B704F501868997898C0DFC
:101AC0009D1D978B868BC601DF91CF911F910F9142
:101AD000FF90EF90DF90CF90BF90AF909F908F904E
:101AE0007F900895CF93FC01C08D80E590E00E9427
:101AF000B80460E270E08C2F0E94541162E070E044
:101B00008C2F0E94AF0C84FD19C062E070E08C2F16
:101B10000E94AF0C83FF0BC048E162E070E08C2FA5
:101B20000E94610C0E94B70480E090E011C00E9406
:101B3000B70480E590E00E94B804E0CF40E162E0A5
:101B400070E08C2F0E94610C0E94B70481E090E04D
:101B5000CF910895CF92DF92EF92FF921F93CF9390
:101B6000DF931F92CDB7DEB7FC01208D243011F03A
:101B700080E027C07B016C0110E080E590E00E94CE
:101B8000B80463E070E0812F0E94AF0C89830E944B
:101B9000B7048981811103C0F601108F05C0883117
:101BA000D9F31F5F143049F7F601808D843001F3BB
:101BB000F586E486128E118E40E0B7010E94641112
:101BC00081E00F90DF91CF911F91FF90EF90DF9018
:101BD000CF9008954F925F926F927F928F929F92D3
:101BE000AF92BF92CF92DF92EF92FF920F931F932B
:101BF000CF93DF93CDB7DEB7EE970FB6F894DEBF85
:101C00000FBECDBF5C018B014A0184EB92E09A8349
:101C100089831C861B8648EE53E060E070E04D87A8
:101C20005E876F87788B2CE532E03A872987988F1B
:101C30008F8B198E1A8E1B8E1C8E24E029A399ABD4
:101C400088AB1AAA1BAA1CAA1DAA80914E059091C6
:101C50004F05A0915005B09151058EA39FA3A8A751
:101C6000B9A78B839C83AD83BE8318861F82F8013E
:101C700020E080E090E06AE03191332319F140EDFB
:101C8000430F4A3080F4689FA001699F500D1124D2
:101C9000CA01C097830F911D37FD9A958F3F91051B
:101CA00059F350F32BC03E3249F5233039F1A2E30A
:101CB000B0E0AC0FBD1FA20FB11D8C932F5F80E071
:101CC00090E0DACF2330D1F48DABD501ED91FC91CA
:101CD0000488F589E02D84EB92E09DA38CA38AA96A
:101CE0009BA9ACA9BDA98EA39FA3A8A7B9A7A4012E
:101CF000BE016C5D7F4FC501199530C24B815C817F
:101D00006D817E818091480590914905A0914A0599
:101D1000B0914B05481759076A077B0709F41CC2A5
:101D20000E94A4066F7077277C5FCE0109960E94FF
:101D3000AA0D813009F00DC284EB92E09DA38CA323
:101D40008B819C81AD81BE818EA39FA3A8A7B9A7DB
:101D500045E350E0BE016C5D7F4FCE0109960E94C5
:101D60006B0C892B19F400E010E07EC10E94A406E0
:101D700078876F837627672776277DA36CA342E059
:101D800050E0BE016C5D7F4FCE0109960E94D50CDC
:101D900081E090E09FAB8EAB42E050E0BE016A5C18
:101DA0007F4FCE0109960E94D50C80E091E09FAB59
:101DB0008EAB42E050E0BE016A5C7F4FCE010996D7
:101DC0000E94D50C1FAA1EAA42E050E0BE016A5C28
:101DD0007F4FCE0109960E94D50C42E050E0BE0133
:101DE0006A5C7F4FCE0109960E94D50C42E050E01C
:101DF000BE016A5C7F4FCE0109960E94D50C780126
:101E0000D7018C91882319F1F8017F01819181110B
:101E100017C06701C01AD10A1C141D04A4F4C8AE6F
:101E200041E050E0BE01685C7F4FCE0109960E9400
:101E3000D50CA601B801CE0109960E94D50C03C0AD
:101E40008E3219F7E6CF87010F5F1F4FD9CF18AE3B
:101E500041E050E0BE01685C7F4FCE0109960E94D0
:101E6000D50C00E011E01FAB0EAB42E050E0BE012C
:101E70006A5C7F4FCE0109960E94D50C1FAB0EAB5A
:101E800042E050E0BE016A5C7F4FCE0109960E949D
:101E9000D50CCE0109960E94720D892B09F463CFEF
:101EA00063E0E62EF12C0E94A4062B013C01CE013A
:101EB00009960E947E0918161906A4F00E94A4062D
:101EC000DC01CB0184199509A609B709893893412A
:101ED000A105B105C8F462E370E080E090E00E94E3
:101EE0006A06E5CF4B815C816D817E81898D9A8DFB
:101EF000AB8DBC8D481759076A077B0741F48D8D60
:101F00009E8DC59721F406C02FEF3FEFA4C02EEFA2
:101F10003FEFA1C08AA19BA10C970CF4B2C04CE08A
:101F200050E0BE016C5D7F4FCE0109960E943609DC
:101F30008EA190E0982F88272FA1822B9BAF8AAF8C
:101F40002CA130E0322F22274DA1242B4F81588520
:101F50004217530709F092C097FF90C08F7092709C
:101F6000892B09F0F3C00AA510E0102F00278BA5DC
:101F7000082B0115110509F4E6C0C12CD12C88A548
:101F800090E0982F882729A5822BC816D90608F437
:101F90007BC0C12CD12C41E050E0BE01645C7F4F7E
:101FA000CE0109960E9436098CAD982F907C09F0DD
:101FB000A5C0811197C08CAD8111EDCF42E050E0FA
:101FC000BE01685C7F4FCE0109960E94360942E04F
:101FD00050E0BE016A5C7F4FCE0109960E9436092F
:101FE000CE0109960E945509CE0109960E94550915
:101FF000CE0109960E945509CE0109960E94550905
:1020000042E050E0BE01665C7F4FCE0109960E941F
:10201000360988AD99AD8115914009F075C02EA99A
:102020003FA93227232732272130310509F06CC020
:102030008AAD9BAD8115944009F082C044E050E028
:10204000BE016E5C7F4FCE0109962DAF3EAF0E9460
:1020500036092DAD3EAD8901B1E0EB1AF10821F052
:102060002F3F3F4F09F41FCFCE0109960E944C0C21
:102070000130110509F429CEC80170C02CEF3FEFE3
:10208000EACF2DEF3FEFE7CF41E050E0BE016A5CC1
:102090007F4FCE0109960E9436098EA9811117C083
:1020A0008EA98111F1CFCE0109960E945509CE016A
:1020B00009960E945509CE0109960E945509CE0144
:1020C00009960E945509FFEFCF1ADF0A58CF8EA953
:1020D0009FEF980F9EAB882319F3CE0109960E94BB
:1020E0005509F5CF8CAD9FEF980F9CAF882309F46D
:1020F00062CFCE0109960E945509F4CFCE01099610
:102100000E9455091CAE57CF612C712C8AAD9BAD36
:102110009827892798276816790640F4CE010996F2
:102120000E9455098FEF681A780AF0CFAFEFCA1AEC
:10213000DA0AC016D10609F02ECF26EF3FEF8BCF7B
:1021400027EF3FEF88CF2AEF3FEF85CF2BEF3FEF11
:1021500082CF80E090E002C08EEF9FEFEE960FB648
:10216000F894DEBF0FBECDBFDF91CF911F910F91CD
:10217000FF90EF90DF90CF90BF90AF909F908F90A7
:102180007F906F905F904F900895382F2091450574
:1021900090914405213208F049C0809121058111B8
:1021A000FCCF42E040932105309320053FEF309370
:1021B0001F0510921E0520931D05A4E2B5E04DEF0A
:1021C00054E0FA013E2F341B321718F43D9131933D
:1021D000F9CF1092FC042091FC04990F922B90935C
:1021E000FC049091FB04913061F41092FB049091F7
:1021F000FC049093BB009091BC0093FDF8CF95EC4C
:1022000001C095EE9093BC00909121059230E1F3CE
:1022100090911F059F3F79F080911F05803241F01A
:1022200080911F05803331F084E005C081E003C058
:1022300082E001C083E010922305109245051092C0
:102240002205089590E0FC01E456FD4F2491FC0125
:10225000EA5AFD4F8491882399F090E0880F991FE6
:10226000FC01E45CFD4FA591B491FC01EE5DFD4FD6
:10227000859194918FB7F894EC91E22BEC938FBFFA
:102280000895CF93DF93BC0186E995E00E94FA069A
:10229000EC0168EB73E086E995E00E94FA068C0F8A
:1022A0009D1FDF91CF910895CF93C82F462F61E0F6
:1022B00070E00E94610C61E070E08C2F0E94AF0C16
:1022C0008111F9CFCF910895FF920F931F93CF9370
:1022D000DF931F92CDB7DEB7F82E8B0149830E94A2
:1022E000080C80E590E00E94B8044981426060E0FB
:1022F00070E08F2D0E94610C0115110551F40091C1
:102300005106109152060F5F1F4F10935206009313
:102310005106412F64E070E08F2D0E94610C402F28
:1023200065E070E08F2D0E94610C61E070E08F2D00
:102330000E9454110E94B70481E00F90DF91CF9169
:102340001F910F91FF900895CF93DF93CDB7DEB724
:10235000C654D1090FB6F894DEBF0FBECDBF789436
:1023600084B5826084BD84B5816084BD85B582609A
:1023700085BD85B5816085BD80916E00816080934B
:102380006E001092810080918100826080938100B4
:1023900080918100816080938100809180008160C4
:1023A000809380008091B10084608093B10080911F
:1023B000B00081608093B000809191008260809332
:1023C00091008091910081608093910080919000B4
:1023D0008160809390008091A10082608093A10031
:1023E0008091A10081608093A1008091A000816014
:1023F0008093A000809121018260809321018091CF
:10240000210181608093210180912001816080936E
:10241000200180917A00846080937A0080917A0014
:10242000826080937A0080917A00816080937A0044
:1024300080917A00806880937A001092C100E091C8
:10244000A605F091A70582E08083E091A205F091B6
:10245000A3051082E091A405F091A5058FEC80837F
:102460001092AE05E091AA05F091AB0586E080835D
:10247000E091A805F091A905808180618083E091B9
:10248000A805F091A905808188608083E091A80566
:10249000F091A905808180688083E091A805F09182
:1024A000A90580818F7D8083E0904706F0904806E3
:1024B000FF92EF928CEB92E09F938F931F9285E0B7
:1024C0008F930AE414E01F930F930E94D817F8012A
:1024D00001900020E9F73197EA54F440F093490461
:1024E000E09348041F930F9381EC92E09F938F93A6
:1024F0001F92FFE3DF2EDF928E010F5F1F4F1F93AE
:102500000F930E94D817C8010E9441112CE8E20ED7
:10251000F11C80910D028E0D80930D0280910702B7
:10252000E80EE092070284EB92E09A83898340915F
:1025300000025091010260910202709103024B83EC
:102540005C836D837E8323969FAF8EAF23978091AC
:10255000040290910502A0910602B091070227960D
:102560008CAF9DAFAEAFBFAF2797B801CE018F5BE9
:102570009F4F0E94FC0A6BE07AE18BE795E00E9496
:10258000AA0D6AE07AE180E695E00E94AA0D8091AA
:1025900007021F928F93809106021F928F93809162
:1025A00005021F928F93809104021F928F9385EDF5
:1025B00092E09F938F931F92DF921F930F930E943D
:1025C000D817C8010E9441110FB6F894DEBF0FBEA4
:1025D000CDBFA3E3AA2EA6E0BA2E77247394B8E465
:1025E0006B2E212C312C21012394D501ED91FD91ED
:1025F0005D016F01B2E0CB0ED11C8081883008F004
:1026000087E0828310929A04109299041092230515
:102610001092450510922105709220051092FB043E
:1026200061E084E10E94ED0561E085E10E94ED0535
:102630008091B9008E7F8093B9008091B9008D7F21
:102640008093B9006092B800E5E4E093BC004FEFDE
:1026500060E0C6010E94CD034FEF61E0C6010E9419
:10266000CD03E12CF12C8E2C99249394F8E0EF16F5
:10267000F1040CF4912C692DC6010E94EF03982DF2
:102680009770B201A10104C0440F551F661F771F48
:102690009A95D2F740954823692DC6010E94CD0333
:1026A00040E0682DC6010E9454042FEFE21AF20A9E
:1026B00030E1E316F104B9F683E4A81686E0B80623
:1026C00009F093CF88E99AE3A0E0B0E08093530447
:1026D00090935404A0935504B09356040E94A4060A
:1026E00060934F047093500480935104909352046C
:1026F00058E5852E54E0952E68E9C62E6AE3D62E5D
:10270000E12CF12C7EE1472E512C612C712CECEB4D
:102710002E2EE3E03E2E80E695E00E947E091816FC
:1027200019060CF03AC188E1D4011D928A95E9F7A7
:1027300048E150E068E574E080E695E00E946802B8
:1027400048E150E063EF72E088E594E00E94CA1728
:10275000892B09F05CC081E080935704C092530438
:10276000D0925404E0925504F09256040E94A406BC
:1027700060934F04709350048093510490935204DB
:1027800061E0809143060E94ED0540924D06509213
:102790004E0660924F06709250060E94A406609307
:1027A000490670934A0680934B0690934C0660E06E
:1027B000809145060E94ED058AE494E09F938F93F3
:1027C000A8EFB2E0BF93AF931F9280E28F931F9365
:1027D0000F930E94D8171F930F931F9280E88F9337
:1027E0003F922F920E94D81743EB55E160E073E0CF
:1027F0008BE795E00E94EA0D6CEB73E08BE795E0C8
:102800000E94FA068BE795E00E94720DB7C04091D6
:102810004804509149046AE474E088E594E00E9419
:10282000CA17892B09F0B9C0A0E4B4E0BF93AF93F5
:10283000A2E4B4E0BF93AF93A4E4B4E0BF93AF933A
:10284000A6E4B4E0BF93AF93A0E1B3E0BF93AF932E
:102850009F928F920E94151890933F0480933E049C
:102860000FB6F894DEBF0FBECDBF049709F08CC041
:102870008091460490914704892B09F085C0C0924D
:102880005304D0925404E0925504F09256040E94EE
:10289000A40660934F047093500480935104909366
:1028A000520461E0809143060E94ED0540924D067E
:1028B00050924E0660924F06709250060E94A406F7
:1028C0006093490670934A0680934B0690934C069A
:1028D00060E0809145060E94ED0520914204309110
:1028E0004304215031093093430420934204E09182
:1028F0004404F0914504EE0FFF1FED5CF94F808119
:102900009181409140045091410420313105A0F45F
:10291000452B41F0DC0113964D915C9114974F5F6C
:102920005F4F02C040E050E0F9013196EE0FFF1F0B
:10293000E80FF91F548343830E9496048091410459
:102940008F93809140048F93809143048F93809163
:1029500042048F93809145048F93809144048F9318
:10296000A0E2B3E0BF93AF931F928FE38F931F93C7
:102970000F930E94D817C8010E9441110FB6F89416
:10298000DEBF0FBECDBF09C086E393E00E944111B8
:1029900061E0809145060E94ED050E94A406209109
:1029A0004F04309150044091510450915204DC0185
:1029B000CB01821B930BA40BB50B209153043091D8
:1029C0005404409155045091560482179307A4076C
:1029D000B50708F45AC00E94A40660934F04709390
:1029E0005004809351049093520482E593E00E9436
:1029F00041111092570483E3A82E86E0B82ED5012A
:102A00008D919D915D01FC0135969C012B5D3F4FA1
:102A100011921192E217F307D9F70E949604B3E4DA
:102A2000AB16B6E0BB0659F7C0925304D0925404DB
:102A3000E0925504F09256040E94A40660934F045D
:102A400070935004809351049093520461E08091FC
:102A500045060E94ED0580913C0490913D049C0147
:102A60002F5F3F4F30933D0420933C040B976CF055
:102A700084E893E00E94411168E873E180E090E00F
:102A80000E946A06E0E0F0E019950E94A4062091F9
:102A9000490630914A0640914B0650914C06DC01A4
:102AA000CB01821B930BA40BB50B20914D063091EB
:102AB0004E0640914F065091500682179307A40787
:102AC000B50778F00E94A4066093490670934A0601
:102AD00080934B0690934C0660E0809143060E94E1
:102AE000ED050E94940317CE0F931F93CF93DF93AE
:102AF000E6E4F5E084EB92E0918380831282138216
:102B000014821582E3E5F6E09183808312821382BA
:102B100014821582E9E5F6E09183808312821382A4
:102B200014821582EFE5F6E091838083128213828E
:102B300014821582ECE4F5E0918380831282138283
:102B400014821582E4E5F5E01382128248EE53E028
:102B500060E070E0448355836683778322E232E04D
:102B600031832083E5E6F6E091838083128213822D
:102B700014821582EBE7F5E01382128244835583B9
:102B800066837783ACE5B2E0B183A08397878687BD
:102B9000108A118A128A138A24E0208FE0E6F5E079
:102BA000138212824483558366837783B183A08323
:102BB00097878687108A118A128A138A208FEBE6FC
:102BC000F6E0918380831282138214821582E6E9F3
:102BD000F5E013821282448355836683778324E869
:102BE00032E03183208325EC30E03587248724ECE4
:102BF00030E03787268720EC30E0318B208B21ECCA
:102C000030E0338B228B22EC30E0358B248B26ECAA
:102C100030E0378B268B118E128E138E148EE1E7E7
:102C2000F6E0918380831282138214821582C3E4BA
:102C3000D6E08CE190E09983888384E290E09B83E6
:102C40008A838CE10E94221160E08CE10E94ED05F4
:102C500084E20E94221160E084E20E94ED051D8260
:102C60001C8287E290E00E9498168C0160E070E080
:102C70000E940208C3E3D6E01983088387E290E04C
:102C80000E9498168C0161E070E00E9402081B838C
:102C90000A8387E290E00E9498168C0162E070E05F
:102CA0000E9402081D830C8387E290E00E94981620
:102CB0008C0163E070E00E9402081F830E8387E2AC
:102CC00090E00E9498168C0164E070E00E94020877
:102CD0001987088787E290E00E9498168C0165E0CA
:102CE00070E00E9402081B870A8787E290E00E943A
:102CF00098168C0166E070E00E9402081D870C8720
:102D000087E290E00E9498168C0167E070E00E94D4
:102D100002081F870E87DF91CF911F910F910895B1
:102D2000EE0FFF1F881F8BBF0790F691E02D1994BF
:102D3000CF93DF938230910510F482E090E0E09130
:102D40007906F0917A0620E030E0C0E0D0E03097DC
:102D500011F14081518148175907C0F048175907B0
:102D600061F482819381209719F09B838A832BC021
:102D700090937A068093790626C02115310519F0C3
:102D80004217530718F49A01BE01DF01EF010280D8
:102D9000F381E02DDCCF2115310509F1281B390B1A
:102DA0002430310590F412968D919C911397611502
:102DB000710521F0FB019383828304C090937A060E
:102DC00080937906FD01329644C0FD01E20FF31FA6
:102DD00081939193225031092D933C933AC02091D5
:102DE000770630917806232B41F420911002309120
:102DF0001102309378062093770620910E023091CD
:102E00000F022115310541F42DB73EB74091120252
:102E100050911302241B350BE0917706F091780650
:102E2000E217F307A0F42E1B3F0B2817390778F0A1
:102E3000AC014E5F5F4F2417350748F04E0F5F1F00
:102E400050937806409377068193919302C0E0E017
:102E5000F0E0CF01DF91CF9108950F931F93CF93AF
:102E6000DF93009709F48CC0FC0132971382128221
:102E70000091790610917A060115110581F42081DF
:102E80003181820F931F20917706309178062817A1
:102E9000390779F5F0937806E093770671C0D80189
:102EA00040E050E0AE17BF0750F412962D913C91D0
:102EB0001397AD012115310509F1D901F3CF9D011A
:102EC000DA013383228360817181860F971F821715
:102ED000930769F4EC0128813981260F371F2E5F93
:102EE0003F4F318320838A819B8193838283452B4B
:102EF00029F4F0937A06E093790642C01396FC9386
:102F0000EE931297ED01499159919E01240F351FBF
:102F1000E217F30771F480819181840F951F029667
:102F200011969C938E938281938113969C938E939A
:102F30001297E0E0F0E0D80112968D919C911397E2
:102F4000009719F0F8018C01F6CF8D919C919801B2
:102F50002E5F3F4F820F931F2091770630917806A6
:102F60002817390769F4309729F410927A061092DD
:102F7000790602C0138212821093780600937706B6
:102F8000DF91CF911F910F91089581E090E0F89427
:102F90000C94501EFB01DC014150504030F08D91EB
:102FA0000190801919F40020B9F7881B990B089536
:102FB0000F931F93CF93DF93CDB7DEB72E970FB646
:102FC000F894DEBF0FBECDBF0E891F89888D998D05
:102FD00026E02C831A83098397FF02C080E090E8E3
:102FE00001979E838D83AE01445E5F4F6A8D7B8D1A
:102FF000CE0101960E9437184D815E8157FD0AC0AF
:103000002F813885421753070CF49A01F801E20F1B
:10301000F31F10822E960FB6F894DEBF0FBECDBF01
:10302000DF91CF911F910F910895CF93DF93CDB78B
:10303000DEB72E970FB6F894DEBF0FBECDBF85E08A
:103040008C838C899D899A838983AE01485E5F4F0A
:103050006E897F89CE0101960E94E61B2E960FB6DF
:10306000F894DEBF0FBECDBFDF91CF9108952F92B0
:103070003F924F925F926F927F928F929F92AF9208
:10308000BF92CF92DF92EF92FF920F931F93CF9355
:10309000DF93CDB7DEB72C970FB6F894DEBF0FBE27
:1030A000CDBF7C016B018A01FC01178216828381EE
:1030B00081FFBDC1CE0101964C01F7019381F6015C
:1030C00093FD859193FF81916F01882309F4ABC132
:1030D000853239F493FD859193FF81916F0185329B
:1030E00029F4B70190E00E947C1DE7CF512C312CD0
:1030F00020E02032A0F48B3269F030F4803259F0B5
:10310000833269F420612CC08D3239F0803339F478
:10311000216026C02260246023C0286021C027FDD2
:1031200027C030ED380F3A3078F426FF06C0FAE0B9
:103130005F9E300D1124532E13C08AE0389E300D4F
:103140001124332E20620CC08E3221F426FD6BC177
:10315000206406C08C3611F4206802C0883641F421
:10316000F60193FD859193FF81916F018111C1CF8C
:10317000982F9F7D9554933028F40C5F1F4FFFE3E9
:10318000F9830DC0833631F0833771F0833509F050
:103190005BC022C0F801808189830E5F1F4F4424E9
:1031A0004394512C540115C03801F2E06F0E711C8C
:1031B000F801A080B18026FF03C0652D70E002C039
:1031C0006FEF7FEFC5012C870E94331D2C01830117
:1031D0002C852F77222E17C03801F2E06F0E711C5C
:1031E000F801A080B18026FF03C0652D70E002C009
:1031F0006FEF7FEFC5012C870E94281D2C012C85C5
:103200002068222E830123FC1BC0832D90E04816EA
:103210005906B0F4B70180E290E00E947C1D3A9418
:10322000F4CFF50127FC859127FE81915F01B7015D
:1032300090E00E947C1D31103A94F1E04F1A510841
:103240004114510471F7E5C0843611F0893639F51F
:10325000F80127FF07C060817181828193810C5F33
:103260001F4F08C060817181072E000C880B990BDD
:103270000E5F1F4F2F76722E97FF09C09095809595
:10328000709561957F4F8F4F9F4F2068722E2AE077
:1032900030E0A4010E94CD1DA82EA81844C0853797
:1032A00029F42F7EB22E2AE030E025C0F22FF97FDC
:1032B000BF2E8F36C1F018F4883579F0B4C080374E
:1032C00019F0883721F0AFC02F2F2061B22EB4FE45
:1032D0000DC08B2D8460B82E09C024FF0AC09F2F1B
:1032E0009660B92E06C028E030E005C020E130E04D
:1032F00002C020E132E0F801B7FE07C060817181B1
:10330000828193810C5F1F4F06C06081718180E0D4
:1033100090E00E5F1F4FA4010E94CD1DA82EA8189B
:10332000FB2DFF777F2E76FE0BC0372D3E7FA51439
:1033300050F474FE0AC072FC08C0372D3E7E05C0F2
:10334000BA2C372D03C0BA2C01C0B52C34FF0DC0E8
:10335000FE01EA0DF11D8081803311F4397E09C030
:1033600032FF06C0B394B39404C0832F867809F06B
:10337000B39433FD13C030FF06C05A2CB31418F4B5
:10338000530C5B18B32CB31468F4B70180E290E0DF
:103390003C870E947C1DB3943C85F5CFB31410F498
:1033A0003B1801C0312C34FF12C0B70180E390E01C
:1033B0003C870E947C1D3C8532FF17C031FD03C055
:1033C00088E790E002C088E590E0B7010CC0832F49
:1033D000867859F031FF02C08BE201C080E237FDF0
:1033E0008DE2B70190E00E947C1DA51438F4B7016E
:1033F00080E390E00E947C1D5A94F7CFAA94F401D8
:10340000EA0DF11D8081B70190E00E947C1DA110A2
:10341000F5CF332009F451CEB70180E290E00E944D
:103420007C1D3A94F6CFF7018681978102C08FEF19
:103430009FEF2C960FB6F894DEBF0FBECDBFDF9185
:10344000CF911F910F91FF90EF90DF90CF90BF90A1
:10345000AF909F908F907F906F905F904F903F9034
:103460002F90089520FD09C0FC0123FD05C022FF17
:1034700002C07383628351834083089544FD10C06A
:1034800046FD10C0DB01FC01AA0FBB1FEE1FFF1F92
:103490001094D1F76A0F7B1F8E1F9F1F31E003C06E
:1034A00033E001C034E0660F771F881F991F315049
:1034B000D1F7620F711D811D911D08950F931F9308
:1034C000CF93DF938C01C8010E943E1DEC0197FD54
:1034D00008C00E94141D892BB1F7B801CE010E94CB
:1034E000B41DCE01DF91CF911F910F9108958F925E
:1034F0009F92AF92BF92CF92DF92EF92FF920F9383
:103500001F93CF93DF931F92CDB7DEB78C01C62EEA
:103510007A0129830E943E1DAC01552729814B3237
:10352000510521F04D32510569F42068CA94C1104B
:1035300002C080E076C0C80129830E943E1D298117
:1035400097FDF7CF322F3D7FD32E322F307349F5C1
:10355000803339F5BB24BA94BC0C09F44EC0C801C1
:1035600029830E943E1D298197FD47C0382F3F7D4A
:10357000383569F48D2D8264D82ECA94CA94CC2033
:10358000E1F1C8010E943E1D97FF0BC036C026FF27
:1035900004C02D2D2260D22E03C03D2D3261D32ECA
:1035A000CB2C812C912C540120ED280F283080F059
:1035B000D4FE04C0B8010E94B41D1CC02A3040F0E3
:1035C000D6FEF8CF2F7D3FEE320F363098F72750DA
:1035D0004D2DC501B4010E943E1A4B015C018D2D99
:1035E0008260D82ECA94CC2059F0C8010E943E1D9A
:1035F00097FFDACFD1FC04C09CCF812C912C5401D1
:10360000D7FE08C0B094A09490948094811C911C23
:10361000A11CB11C2D2DB501A401C7010E94321AB5
:1036200081E00F90DF91CF911F910F91FF90EF906C
:10363000DF90CF90BF90AF909F908F9008956F9242
:103640007F928F929F92AF92BF92CF92DF92EF9232
:10365000FF920F931F93CF93DF93CDB7DEB7A19760
:103660000FB6F894DEBF0FBECDBF5C017A01CE016C
:1036700001966C0180E2F60111928A95E9F7F50155
:10368000838040E050E0912C712C70E0A1E0B0E02C
:10369000F90183FC859183FE81918F01982F9F0111
:1036A000811103C080E090E07CC08E3519F4411593
:1036B000510549F1E72FF0E0E417F5073CF48D35AB
:1036C00059F18D3219F4772001F103C0711001C056
:1036D000982E892F8695869586958601080F111D4F
:1036E000892F87703D0101C0660C8A95EAF7F801C1
:1036F000808186298083991559F0991510F49F5F70
:10370000E8CF9150E6CF71E004C07724739401C0F4
:10371000712C4F5F5F4FBCCF772019F08E81806294
:103720008E83711103C09924939416C0F6019E01F3
:103730002F5D3F4F808180958193E217F307D1F78A
:10374000F2CFE114F10429F0F7018083C70101965B
:103750007C016150912CF9F0C50169A30E943E1DC6
:1037600069A197FD16C0282F269526952695F60166
:10377000E20FF11D208130E0AC014770552702C0F7
:10378000359527954A95E2F720FDDBCFB5010E94DC
:10379000B41D911087CFE114F10411F0F7011082EC
:1037A000C801A1960FB6F894DEBF0FBECDBFDF9162
:1037B000CF911F910F91FF90EF90DF90CF90BF902E
:1037C000AF909F908F907F906F9008954F925F92EF
:1037D0007F928F929F92AF92BF92CF92DF92EF92A1
:1037E000FF920F931F93CF93DF931F92CDB7DEB756
:1037F0006C012B015A01FC0117821682712CF60113
:10380000F380F201F3FC8591F3FE8191382F2F01B3
:10381000882309F4F3C090E039830E94141D398194
:10382000892B21F0C6010E945E1AE9CF353241F49E
:10383000F201F3FC3591F3FE31912F01353269F439
:10384000C60139830E943E1D398197FDD5C03817C6
:10385000B1F2B6010E94B41DD1C03A3239F4F3FC82
:103860003591F3FE31912F0151E001C050E042014A
:1038700010E020ED230F2A3090F45260612F70E0A9
:1038800080E090E040E259830E943E1A162FF40136
:10389000F3FC3591F3FE31914F015981EACF052FA9
:1038A000232F240151FF03C0111102C0A7C01FEF35
:1038B000383619F03C3659F011C0F401F3FC25916B
:1038C000F3FE21912F01283649F4052F086004608A
:1038D000F201F3FC2591F3FE21912F01222309F43B
:1038E0008DC0622F70E082EE92E029830E941D1D40
:1038F0002981892B09F482C000FD07C0F501E08011
:10390000F180C50102965C0102C0E12CF12C2E363B
:1039100051F4F6014681578160E070E0202FC70125
:103920000E94321A6CCF233691F401FF11E0C601D8
:103930000E943E1D97FD60C0E114F10429F0F701DB
:103940008083C70101967C01115089F751C02B3546
:1039500059F49201A701612FC6010E941F1B2C017F
:10396000892B09F045C03FC0C60129830E945E1A19
:10397000298197FD41C02F3659F128F4243631F1C1
:10398000293649F127C0233769F02537F9F022C0DD
:10399000E114F10429F0F7018082C70101967C014E
:1039A000115071F0C6010E943E1D4C0197FD08C0E8
:1039B0000E94141D892B61F3B601C4010E94B41D3D
:1039C000E114F104A9F0F701108212C0006203C0F3
:1039D000006101C00064202FA701612FC6010E9471
:1039E000771A811105C0F6018381807329F406C01E
:1039F00000FD05CF739403CF772019F0872D90E059
:103A000002C08FEF9FEF0F90DF91CF911F910F9129
:103A1000FF90EF90DF90CF90BF90AF909F908F90EE
:103A20007F905F904F90089591110C942B1E8032DF
:103A300019F089508550C8F70895FC0105900616C5
:103A400021F00020D9F7C00108953197CF010895E2
:103A5000FC010590615070400110D8F78095909559
:103A60008E0F9F1F0895FC0161507040019001105E
:103A7000D8F7809590958E0F9F1F0895CF93DF9371
:103A8000EC012B8120FF33C026FF0AC02F7B2B8344
:103A90008E819F8101969F838E838A8190E029C0C9
:103AA00022FF0FC0E881F9818081082E000C990B5C
:103AB000009719F420622B831AC03196F983E883AA
:103AC0000EC0EA85FB85199597FF09C02B810196E9
:103AD00011F080E201C080E1822B8B8308C02E812F
:103AE0003F812F5F3F4F3F832E83992702C08FEF87
:103AF0009FEFDF91CF9108950F931F93CF93DF93A3
:103B0000FB01238121FD03C08FEF9FEF28C022FF1F
:103B100016C046815781248135814217530744F4EA
:103B2000A081B1819D012F5F3F4F318320838C9312
:103B3000268137812F5F3F4F3783268310C0EB01EB
:103B4000092F182F0084F185E02D1995892BE1F6B6
:103B50008E819F8101969F838E83812F902FDF918D
:103B6000CF911F910F910895FB01238120FF12C077
:103B700026FD10C08F3F3FEF930761F082832F7DBA
:103B8000206423832681378121503109378326839E
:103B9000992708958FEF9FEF0895FA01AA272830FB
:103BA00051F1203181F1E8946F936E7F6E5F7F4F0A
:103BB0008F4F9F4FAF4FB1E03ED0B4E03CD0670F86
:103BC000781F891F9A1FA11D680F791F8A1F911DD9
:103BD000A11D6A0F711D811D911DA11D20D009F429
:103BE00068943F912AE0269F11243019305D31936B
:103BF000DEF6CF010895462F4770405D4193B3E054
:103C00000FD0C9F7F6CF462F4F70405D4A3318F0FA
:103C1000495D31FD4052419302D0A9F7EACFB4E0AB
:103C2000A6959795879577956795BA95C9F7009763
:103C30006105710508959B01AC010A2E0694579504
:103C4000479537952795BA95C9F7620F731F841F5B
:103C5000951FA01D0895992788270895A1E21A2E7F
:103C6000AA1BBB1BFD010DC0AA1FBB1FEE1FFF1F20
:103C7000A217B307E407F50720F0A21BB30BE40B70
:103C8000F50B661F771F881F991F1A9469F76095B7
:103C90007095809590959B01AC01BD01CF01089571
:043CA000F894FFCFC6
:103CA400FFFFFF00C0A85800DEADBEAAFE01000061
:103CB4007B0680000100000001005E00000000009F
:103CC400000039020902C002DD010102ED01DE013A
:103CD40000000000B504B504C002B504B504B50481
:103CE400B504B5044A0CB504B504B504B504B5046B
:103CF400B504B504B504B504000000001C0CD50CD3
:103D0400C0021408320C5509F409AA0D5A0A4C0CC5
:103D14006B0CEA0D720D7E09360968023A0C360CFA
:103D2400000000002B039402C3027203F402D202C7
:103D3400E60200000000B5049402C002BF02B5040C
:103D4400B504B50400000000B5049402C002BF022B
:103D540000000000580700000000B5046F6D2564E2
:103D6400004D617374657220626F617264206964CE
:103D74003A2025730041737369676E65642061643A
:103D840064726573733A2025642E25642E25642E8F
:103D940025640070696E6700257320706F6E67007C
:103DA4003235352E3235352E3235352E3235350015
:103DB4006F6D2564206225642072256420256400CB
:103DC40052656C61792025642F2564207365742005
:103DD400746F20256400496E76616C6964206E7589
:103DE4006D626572206F6620617267756D656E74B1
:103DF40073004E6F2070696E67202D20636F6E6EA6
:103E0400656374696F6E206C6F73743F20547572B0
:103E14006E696E672065766572797468696E67206D
:103E24006F6666004E6F2070696E6720666F722041
:103E340061206C6F6E672074696D652C20747279D3
:103E4400696E6720746F2072657365742074686589
:0C3E540020646576696365000D0A0000BB
:00000001FF
