:100000000C9472010C94A3010C94A3010C94A30111
:100010000C94A3010C94A3010C94A3010C94A301D0
:100020000C94A3010C94A3010C94A3010C94A301C0
:100030000C94A3010C94A3010C94A3010C94A301B0
:100040000C94A3010C94A3010C94A3010C94A301A0
:100050000C94A3010C94A3010C94A3010C944006EE
:100060000C94A3010C947F070C9455070C94A301E6
:100070000C94A3010C94A3010C94A3010C94A30170
:100080000C94A3010C94A3010C94A3010C94A30160
:100090000C94A3010C94A3010C94A3010C94C80428
:1000A0000C94A3010C94A3010C94A3010C94A30140
:1000B0000C94A3010C94A3010C94A3010C94A30130
:1000C0000C94A3010C94A3010C94A3010C94A30120
:1000D0000C94A3010C94A3010C94A3010C94A30110
:1000E0000C94A3013F04420431043504390479041B
:1000F00046044A045004540458045E04620466042E
:1001000079046C04700474040C94E0020C94D70815
:100110000C9450040C9442040C940C0C0C94DE01CE
:100120000C948B0D0C9431040C9466040C9479049B
:100130000C9470040C94D30B0C94EF150C940B07D7
:100140000C940A020C94B9020C94ED0B0C94BD0BA8
:100150000C94760C0C9454040C9425030C94DF013D
:100160000C9474040C94B5070C94EB0B0C943F04A2
:100170000C9402020C9439040C9495090C94CC0252
:100180000C94130D0C948E020C9435040C941F09DE
:100190000C94EE010C945E040C943A020C944A0404
:1001A0000C94FB090C9462040C94BA020C94EE02B9
:1001B0000C9458040C946C030C944B0D0C94F6089E
:1001C0000C94BD020C94D70B0C940A040C946C0490
:1001D0000C94A5010C94DB0B0C94460400000A0B54
:1001E00002090C0D0E0807030401000000000000C6
:1001F00000000000000000000000000000000000FF
:1002000000000000000000001211100000000000BB
:1002100000000000000000000000000000000000DE
:10022000000000002200250028002B002E003100D5
:10023000340002010000050108010B01000021004B
:10024000240027002A002D003000330001010000A7
:10025000040107010A010505050507050808080846
:10026000020202020A0A080804040404010101014E
:100270000101010103030303030303030407070749
:100280000C0C0C0C0C0C0C0C0202020206060606EE
:10029000060606060B0B0B0B0B0B0B0B01021020BB
:1002A00020080810204010204080020102010804AC
:1002B0000201010204081020408080402010080440
:1002C0000201800402018040201008040201080499
:1002D00002010102040810204080010204081020DD
:1002E0004080EF1511241FBECFEFD1E2DEBFCDBF9E
:1002F00000E00CBF26E0AEE9B3E001C01D92A435DA
:10030000B207E1F713E0A0E0B2E0EAEFF5E300E0C6
:100310000BBF02C007900D92AE39B107D9F711E0BB
:10032000C2E7D1E000E006C021970109802FFE015D
:100330000E94AD16C137D10780E00807A9F70E94D7
:1003400090110C94FB1A0C940000DC01ED91FC91CF
:10035000048CF58DE02D199485ED8093BC0080917F
:10036000BC0084FDFCCF10920A050895409104045E
:10037000262F30E0240F311D21323105DCF420918D
:100380000A052430C9F4FC0180E090E0861758F497
:10039000309104042191DC01AE51BC4FA30FB11D7B
:1003A0002C930196F3CF80910404680F60930404AA
:1003B00080E0089581E0089582E008950895E09135
:1003C000C3048091C204E81730F4F0E0EC53FB4F13
:1003D000808190E008958FEF9FEF08959091C3047E
:1003E0008091C204981750F4E92FF0E0EC53FB4FD2
:1003F000208130E09F5F9093C30402C02FEF3FEF56
:10040000C90108958091C20490E02091C304821B29
:1004100091090895CF92DF92EF92FF920F931F936D
:10042000CF93DF937C01262F972F8A0180910B05B4
:10043000882391F0C62FD72F6E01C40ED51ECC1580
:10044000DD0571F06991D701ED91FC910190F0818A
:10045000E02DC7011995F3CF642F822F0E94B601BA
:10046000C801DF91CF911F910F91FF90EF90DF9026
:10047000CF900895CF93DF931F92CDB7DEB76983F6
:1004800020910B052223D1F020912E05203240F03F
:1004900021E030E0FC013383228380E090E015C04E
:1004A00080910C05E82FF0E0E35FFA4F998190838B
:1004B0008F5F80930C0580932E0505C061E0CE010F
:1004C00001960E94B60181E090E00F90DF91CF91FC
:1004D00008953FB7F8948091DE039091DF03A091D7
:1004E000E003B091E10326B5A89B05C02F3F19F0AA
:1004F0000196A11DB11D3FBFBA2FA92F982F8827A4
:10050000820F911DA11DB11DBC01CD0142E0660FFE
:10051000771F881F991F4A95D1F70895CF92DF92D0
:10052000EF92FF920F931F93CF93DF936C017A01A9
:100530008B01C0E0D0E0CE15DF0589F0D8016D91C8
:100540008D01D601ED91FC910190F081E02DC60165
:100550001995892B11F47E0102C02196ECCFC701B9
:10056000DF91CF911F910F91FF90EF90DF90CF908F
:100570000895089580E090E00895FC01538D448D26
:10058000252F30E0842F90E0821B930B541710F03E
:10059000CF96089501970895FC01918D828D98174B
:1005A00061F0828DDF01A80FB11D5D968C91928D57
:1005B0009F5F9F73928F90E008958FEF9FEF089554
:1005C000FC01918D828D981731F0828DE80FF11D1D
:1005D000858D90E008958FEF9FEF0895FC01918D38
:1005E000228D892F90E0805C9F4F821B91098F7331
:1005F000992708958FE795E00E94EE0221E0892B6C
:1006000009F420E0822F0895FC01848DDF01A80FFA
:10061000B11DA35ABF4F2C91848D90E001968F732A
:100620009927848FA689B7892C93A089B1898C9149
:1006300080648C93938D848D981306C00288F3890F
:10064000E02D80818F7D80830895EF92FF920F933C
:100650001F93CF93DF93EC0181E0888F9B8D8C8D6E
:10066000981305C0E889F989808185FD24C0F62E9C
:100670000B8D10E00F5F1F4F0F731127E02E8C8D35
:10068000E8120CC00FB607FCFACFE889F98980811F
:1006900085FFF5CFCE010E940403F1CF8B8DFE01C3
:1006A000E80FF11DE35AFF4FF0820B8FEA89FB89B7
:1006B0008081806207C0EE89FF896083E889F989BB
:1006C00080818064808381E090E0DF91CF911F91F1
:1006D0000F91FF90EF900895CF93DF93EC01888DF9
:1006E0008823C9F0EA89FB89808185FD05C0A88936
:1006F000B9898C9186FD0FC00FB607FCF5CF8081BC
:1007000085FFF2CFA889B9898C9185FFEDCFCE0105
:100710000E940403E7CFDF91CF91089580E090E03D
:10072000892B21F00E94FA02811125C080E090E01F
:10073000892B41F080E090E0892B21F00E9400009D
:1007400081111CC080E090E0892B41F080E090E0B6
:10075000892B21F00E940000811113C080E090E0FD
:10076000892BA1F080E090E0892B81F00E940000AD
:1007700081110AC008950E940000D8CF0E94000095
:10078000E1CF0E940000EACF0C9400000895CF93BF
:10079000DF931F92CDB7DEB7FC018081806291E0CC
:1007A00090930B0580932D0510920C0510922E0549
:1007B00083E795E049830E943A024981642F83E7E9
:1007C00095E00E943A020F90DF91CF910C94661051
:1007D000CF93DF93EC019881906281E080930B05C9
:1007E00090932D0510920C0510922E0583E795E04D
:1007F0000E943A020E9466108881806261E070E087
:1008000090E00E94C31083E795E00E94EE01DF9123
:10081000CF9108950E94E21708958CBD9DBD089563
:10082000362F90E0FC01E452FE4F4491FC01E45667
:10083000FD4F2491FC01EA5AFD4F9491992309F44C
:100840006BC0442309F455C050E0FA013197E231FE
:10085000F10508F04EC08827EE58FF4F8F4F0C94DB
:10086000AD16809180008F7707C0809180008F7DCA
:1008700003C080918000877F809380003AC084B558
:100880008F7702C084B58F7D84BD33C08091B00066
:100890008F7703C08091B0008F7D8093B00029C016
:1008A000809190008F7707C0809190008F7D03C06A
:1008B00080919000877F809390001BC08091A00062
:1008C0008F7707C08091A0008F7D03C08091A0002A
:1008D000877F8093A0000DC0809120018F7707C093
:1008E000809120018F7D03C080912001877F8093BC
:1008F0002001E92FF0E0EE0FFF1FEE5DFD4FA59107
:10090000B4918FB7F894EC91311103C020952E2348
:1009100001C02E2B2C938FBF089510920A0581E001
:10092000809309051092E40461E084E10E941004C0
:1009300061E085E10E941004E9EBF0E080818E7FA8
:10094000808380818D7F808388E48093B80085E4F4
:100950008093BC000895CF93DF93EC01683008F0DA
:1009600067E068831092C3041092C20410920C05D1
:1009700010922E050E948D044FEF60E0CE010E9480
:10098000C7034FEF61E0CE01DF91CF910C94C70315
:100990001F920F920FB60F9211240BB60F922F9346
:1009A0003F934F935F936F937F938F939F93AF93F7
:1009B000BF93EF93FF938091B900887F803609F44D
:1009C0009CC068F5883209F45BC090F4803109F46A
:1009D00054C038F4882309F4F6C0883009F44DC0B7
:1009E000F6C0883109F44CC0803209F45DC0EFC014
:1009F000803409F468C048F4803309F455C0883362
:100A000009F0E5C080930805D8C0803509F44FC0CF
:100A1000883509F45DC0883409F0D9C0D6C088395A
:100A200009F4C7C0A8F4883709F467C038F48836D9
:100A300009F463C0803709F460C0C9C0883809F47C
:100A4000B8C0803909F45FC0803809F0C0C05BC00D
:100A5000803B09F486C038F4803A09F466C0883ACD
:100A600009F47FC0B4C0803C09F4A7C0883C09F4F5
:100A7000A4C0883B09F48AC0AAC08091E50410C0D4
:100A80009091070580910605981770F5E09107058C
:100A900081E08E0F80930705F0E0EA51FB4F8081E3
:100AA0008093BB0085EC86C0809308058EC0E091E2
:100AB000070581E08E0F809307058091BB00F0E071
:100AC000EA51FB4F808390910705809106056EC027
:100AD000E091070581E08E0F809307058091BB00B0
:100AE000F0E0EA51FB4F80838091090581116DC0D0
:100AF00081E08093E40484EA61C083E080930A0586
:100B000010922804CFCF80912804803208F051C081
:100B1000E091280481E08E0F809328048091BB002F
:100B2000F0E0E85FFB4F8083BDCF85EC8093BC0095
:100B300010920A0580912804803230F4E091280454
:100B4000F0E0E85FFB4F10826091280470E0E091D4
:100B50000604F091070488E094E0199510922804A7
:100B600036C084E080930A051092050410920404B4
:100B7000E0910204F091030419958091040481111D
:100B800005C081E0809304041092E203E091050423
:100B900081E08E0F80930504F0E0EE51FC4F8081E0
:100BA0008093BB009091050480910404981708F489
:100BB00079CF85E88093BC000AC085EC8093BC00A7
:100BC00010920A0504C0109208050E94AC01FF9122
:100BD000EF91BF91AF919F918F917F916F915F91B5
:100BE0004F913F912F910F900BBE0F900FBE0F9022
:100BF0001F9018958F929F92AF92BF92CF92DF92E3
:100C0000EF92FF926B017C010E9469024B015C0133
:100C1000C114D104E104F104F1F00E946902DC0185
:100C2000CB0188199909AA09BB09883E9340A105FF
:100C3000B10570F321E0C21AD108E108F10888EE8D
:100C4000880E83E0981EA11CB11CC114D104E104DC
:100C5000F10419F7DDCFFF90EF90DF90CF90BF90B8
:100C6000AF909F908F9008952FB7F8946091DA031A
:100C70007091DB038091DC039091DD032FBF089519
:100C80001F920F920FB60F9211242F933F938F93C1
:100C90009F93AF93BF938091DA039091DB03A09170
:100CA000DC03B091DD033091D90323E0230F2D370E
:100CB00020F40196A11DB11D05C026E8230F029660
:100CC000A11DB11D2093D9038093DA039093DB0318
:100CD000A093DC03B093DD038091DE039091DF03EA
:100CE000A091E003B091E1030196A11DB11D809395
:100CF000DE039093DF03A093E003B093E103BF9181
:100D0000AF919F918F913F912F910F900FBE0F90B8
:100D10001F9018956115710579F0FB010190002075
:100D2000E9F73197AF01461B570BDC01ED91FC91C0
:100D30000280F381E02D199480E090E008959F9364
:100D40008F931F9280E88F9389E294E09F938F9313
:100D50000E94F51743EB55E16CEB72E088E595E0F6
:100D60000E948B0D69E274E088E595E00E948A0696
:100D70000F900F900F900F900F900F9088E595E0D7
:100D80000C94130D4F925F926F927F92EF92FF92AD
:100D90000F931F93CF93DF93CDB7DEB7A1970FB615
:100DA000F894DEBF0FBECDBF7C01FA01CB0119A2C2
:100DB000223008F42AE08E010F5D1F4F422E512C85
:100DC000612C712CBF01A30192010E94D91AF90173
:100DD000CA01015011096A3014F4605D01C0695CF8
:100DE000D8016C93232B242B252B61F7B801C70165
:100DF0000E948A06A1960FB6F894DEBF0FBECDBF43
:100E0000DF91CF911F910F91FF90EF907F906F90A6
:100E10005F904F9008958F929F92AF92BF92CF9222
:100E2000DF92EF92FF920F931F93CF93DF937C019A
:100E3000EB016C0182E0C80ED11C4701E5E08E0E8B
:100E4000911C00E010E0F60141916F0150E060E07C
:100E500070E02AE0CE010E94C2065C01E881F981BF
:100E60000190F081E02D6EE2CE0119958A0D9B1D57
:100E7000080F191FC814D90431F7F701458150E054
:100E800060E070E02AE0CE010E94C206800F911F50
:100E9000DF91CF911F910F91FF90EF90DF90CF9056
:100EA000BF90AF909F908F9008951F920F920FB6B2
:100EB0000F9211240BB60F922F933F934F935F9392
:100EC0006F937F938F939F93AF93BF93EF93FF9312
:100ED0008FE795E00E940403FF91EF91BF91AF91DE
:100EE0009F918F917F916F915F914F913F912F9142
:100EF0000F900BBE0F900FBE0F901F9018951F9272
:100F00000F920FB60F9211240BB60F922F938F935F
:100F10009F93EF93FF93E0918F05F091900580816F
:100F2000E0919505F091960582FD12C09081809127
:100F300098058F5F8F7320919905821751F0E0918A
:100F40009805F0E0E158FA4F958F8093980501C01D
:100F50008081FF91EF919F918F912F910F900BBE08
:100F60000F900FBE0F901F90189508951F93CF9369
:100F7000DF93182F66E270E00E94500CC82FD0E07B
:100F800067E270E0812F0E94500CDC2FCC279E017D
:100F9000282BC901DF91CF911F9108952C9A0895B4
:100FA0002C9808951F93CF93DF93182F60E270E081
:100FB0000E94500CC82FD0E061E270E0812F0E94A7
:100FC000500CDC2FCC279E01282BC901DF91CF913B
:100FD0001F9108958EBD00000DB407FEFDCF8EB5A4
:100FE0000895CF92DF92EF92FF920F931F93CF93CA
:100FF000DF93EC017A018B016C01C40ED51ECC1578
:10100000DD05A9F00E94D0078FE00E94EA078D2F2E
:101010000E94EA078C2F0E94EA07219680E00E9436
:10102000EA07F80181938F010E94CE07E8CFC7013C
:10103000DF91CF911F910F91FF90EF90DF90CF90B4
:101040000895AF92BF92CF92DF92EF92FF920F93EB
:101050001F93CF93DF931F921F92CDB7DEB77A8392
:101060006983BA01A901E981FA81F770082F10E0BC
:10107000000F111F06541B4FD8018D919C918E0FAC
:101080009F1F2E0F3F1F2130384098F07A015B01DF
:1010900020E038E06901CE1ADF0AA6010E94F107BC
:1010A000A7014C195D09B5016C0D7D1DF80180810A
:1010B00091810F900F90DF91CF911F910F91FF9031
:1010C000EF90DF90CF90BF90AF900C94F107AF926C
:1010D000BF92DF92EF92FF920F931F93CF93DF9314
:1010E000D82E7B018A0180E590E00E940D04C0E0CB
:1010F000D0E08D2D0E94B6075C01892B21F08D2D4B
:101100000E94B607EC01CA15DB0599F7209799F400
:1011100063E070E08D2D0E94500C8431D9F188235A
:10112000C9F1C1E0D0E08C3111F4C0E0D0E0D1953C
:10113000C195D1092FC00C171D070CF4E8011C162E
:101140001D0644F568E270E08D2D0E94500C082FBA
:1011500010E069E270E08D2D0E94500C102F0027E6
:10116000082B9E01A701B8018D2D0E9421080C0FAC
:101170001D1F412F68E270E08D2D0E94020C402F50
:1011800069E270E08D2D0E94020C60E470E08D2D0C
:101190000E9440110E940C04CE01DF91CF911F915B
:1011A0000F91FF90EF90DF90BF90AF900895CF9395
:1011B000DF93FC01218D328D2115310519F48FEF5C
:1011C0009FEF11C0EC014217530708F0A901888D69
:1011D0000E9467081816190694F7298D3A8D281B66
:1011E000390B3A8F298FDF91CF9108950F931F9379
:1011F000CF93DF931F92CDB7DEB7FC01218D328DE7
:10120000232B61F08C0141E050E0BE016F5F7F4F06
:10121000808D0E946708181619061CF08FEF9FEF4B
:1012200008C0F801818D928D0197928F818F8981FD
:1012300090E00F90DF91CF911F910F910895BF9291
:10124000CF92DF92EF92FF920F931F93CF93DF9392
:10125000CDB7DEB728970FB6F894DEBF0FBECDBF6F
:101260008C01F801818D928D892B49F0D801ED9187
:10127000FC910284F385E02DC8011995F2CFB08C62
:1012800080E590E00E940D04E12CF12C8B2D0E9452
:10129000B6076C01892B21F08B2D0E94B6077C01CB
:1012A000EC14FD0499F70E940C041E141F045CF555
:1012B00048E050E0BE016F5F7F4FD80158968C9197
:1012C0000E9467089C0118161906DCF489819A812E
:1012D000AB81BC81F801808B918BA28BB38B8D810C
:1012E00090E0982F88272E81820F911D958B848BFB
:1012F0002F8130E0322F22278885280F311D328F31
:10130000218FC90102C080E090E028960FB6F894C2
:10131000DEBF0FBECDBFDF91CF911F910F91FF9028
:10132000EF90DF90CF90BF900895FF920F931F939F
:10133000CF93DF931F92CDB7DEB7FC01218D328DA5
:10134000232B09F1F08C80E590E00E940D0468E207
:1013500070E08F2D0E94500C082F10E069E270E0C1
:101360008F2D0E94500C702F6627682B21E030E0F3
:10137000AE014F5F5F4F8F2D0E9421080E940C0429
:10138000898190E002C08FEF9FEF0F90DF91CF91A6
:101390001F910F91FF900895CF92DF92EF92FF92ED
:1013A0000F931F93CF93DF93EC017A018B016C01B4
:1013B000C40ED51ECC15DD05A1F00E94D00780EF2C
:1013C0000E94EA078D2F0E94EA078C2F0E94EA07ED
:1013D0002196F80181918F010E94EA070E94CE07B1
:1013E000E9CFC701DF91CF911F910F91FF90EF904F
:1013F000DF90CF900895BF92CF92DF92EF92FF924D
:101400000F931F93CF93DF9300D000D0CDB7DEB7FB
:10141000FC01208D243009F05CC06A017B018C0145
:10142000B12C63E070E08B2D0E94500C811103C041
:10143000F801B08E06C08831D9F3B394F4E0BF123E
:10144000F0CFF801808D843009F443C096E0E8E1E4
:10145000F2E0DE01119601900D929A95E1F7F70105
:1014600093819F779C8394819D8395819E83B7010F
:101470006E5F7F4F90E0982F882744E050E0845FB4
:101480009B4F0E94CC09F801F08C4D2D60E170E07B
:101490008F2D0E94020C4C2D61E170E08F2D0E9477
:1014A000020CF801808D90E0982F882746E050E0EC
:1014B000BE016F5F7F4F8A5F9B4F0E94CC09F8018E
:1014C000128E118E40E8B601808D0E94501181E08D
:1014D00001C080E026960FB6F894DEBF0FBECDBFE8
:1014E000DF91CF911F910F91FF90EF90DF90CF9000
:1014F000BF9008951F93CF93DF931F921F92CDB794
:10150000DEB7182F6A8399830E94D00780EF0E946C
:10151000EA079981892F0E94EA07812F0E94EA0732
:101520006A81862F0E94EA070E94CE0781E00F9011
:101530000F90DF91CF911F910895CF92DF92EF929C
:10154000FF921F93CF93DF93CDB7DEB7E0970FB62F
:10155000F894DEBF0FBECDBFFC0182819381A481D0
:10156000B5818DA79EA7AFA7B8AB51E058ABCDA46E
:10157000DEA4EFA4F8A8CB8EDC8EED8EFE8EFB01F0
:10158000C280D380E480F580C9A2DAA2EBA2FCA2DB
:101590008FA398A7A9A7BAA724EB32E03C8B2B8B8B
:1015A0004FEF4D8B4E8B4F8B188E3E872D875E8F66
:1015B0004B8D5C8D6D8D7E8D4F87588B698B7A8BB3
:1015C000C986DA86EB86FC863A8329838B839C83E3
:1015D000AD83BE836CE271E080E090E00E94FA058A
:1015E0001FB7F8948091A904811124C0EBE8F2E0C0
:1015F0008491E1EDF2E09491E82FF0E0EE0FFF1F0F
:10160000E45CFD4FA591B491EC91E92321F461E0F4
:1016100085E30E94100485E30E940E118CB5806161
:101620008CBD8CB580648CBD84E30E940E1183E375
:101630000E940E118091A9048F5F8093A9041FBF9F
:10164000249A80E590E00E940D0460E880E090E03C
:101650000E947A0A65E58BE190E00E947A0A65E5CE
:101660008AE190E00E947A0A0E940C0480E090E4F3
:101670009093B3048093B20480E090E69093BB040F
:101680008093BA0480E098E49093B5048093B40406
:1016900080E098E69093BD048093BC0480E090E5E0
:1016A0009093B7048093B60480E090E79093BF04D2
:1016B0008093BE0480E098E59093B9048093B804C9
:1016C00080E098E79093C1048093C00480E590E0A7
:1016D0000E940D0446E050E068E072E089E090E08E
:1016E0000E94CC0944E050E0BE016D5F7F4F8FE067
:1016F00090E00E94CC0944E050E0BE01615F7F4F62
:1017000081E090E00E94CC0944E050E0BE016B5EB5
:101710007F4F85E090E00E94CC090E940C048985EF
:101720009A85AB85BC858093370590933805A09347
:101730003905B0933A05E0960FB6F894DEBF0FBEB8
:10174000CDBFDF91CF911F91FF90EF90DF90CF90B1
:101750000895CF93C82F80E590E00E940D0460E1CA
:1017600070E08C2F0E9440114FEF62E070E08C2FF0
:101770000E94020CCF910C940C04CF93DF931F9224
:10178000CDB7DEB76983DC01ED91FC910280F38176
:10179000E02D41E050E0BE016F5F7F4F19950F9043
:1017A000DF91CF910895FC01818D928D0895FC0108
:1017B00084899589089524EB32E0FC0131832083EC
:1017C000FB014089518962897389FC0142835383FB
:1017D00064837583089580E00895CF93DF93EC01CF
:1017E000888D843061F00E94A90BE88DF0E0EE0F47
:1017F000FF1FE655FB4F1182108284E0888FDF9136
:10180000CF9108959B0190E00496982F8827642F2C
:10181000820F931F0C947A0AEF92FF921F93CF933B
:10182000DF93EB017A01FC01178A168A108D8A81F9
:10183000811109C08B81811106C08C81811103C087
:101840008D81882329F1E114F10411F180E590E004
:101850000E940D04BE016E5F7F4F812F90E0982F94
:10186000882744E050E0845F9B4F0E94CC094F2DB5
:1018700060E170E0812F0E94020C4E2D61E170E06A
:10188000812F0E94020C0E940C0481E090E002C0B3
:1018900080E090E0DF91CF911F91FF90EF9008954D
:1018A0000F931F93CF93DF931F92CDB7DEB790E0D6
:1018B0000496982F88278C01060F171F0E94D007C7
:1018C0008FE00E94EA07812F0E94EA07802F0E9482
:1018D000EA0780E00E94EA0789830E94CE07898197
:1018E0000F90DF91CF911F910F9108957F928F926A
:1018F0009F92AF92BF92CF92DF92EF92FF920F939F
:101900001F93CF93DF935C014B016A01FC010689B1
:101910001789708C80E590E00E940D04C0E0D0E053
:10192000872D0E94D2077C01892B21F0872D0E94F0
:10193000D207EC01CE15DF0599F7CC15DD0578F45B
:10194000C0E0D0E0872D0E94D2076C01892B21F0E6
:10195000872D0E94D207EC01CC15DD0599F764E2D2
:1019600070E0872D0E94500CE82EF12C65E270E0AB
:10197000872D0E94500CFE2CEE24E82AE701C00FB0
:10198000D11F9E013770E72CF12CC701880F991FDA
:10199000AC014E545B4F7A01FA0180819181820F34
:1019A000931FA9014C0D5D1D4130584090F000E09F
:1019B00018E0021B130BA801B4010E94CC09A60178
:1019C000401B510BB401600F711FF70180819181A1
:1019D00002C0A601B4010E94CC09CC0DDD1D4D2F23
:1019E00064E270E0872D0E94020C4C2F65E270E0EB
:1019F000872D0E94020C0E940C04F50186899789AC
:101A00008C0D9D1D978B868BC601DF91CF911F9109
:101A10000F91FF90EF90DF90CF90BF90AF909F908D
:101A20008F907F900895CF93FC01C08D80E590E06A
:101A30000E940D0460E270E08C2F0E94401162E071
:101A400070E08C2F0E94500C84FD19C062E070E0A1
:101A50008C2F0E94500C83FF0BC048E162E070E0C5
:101A60008C2F0E94020C0E940C0480E090E011C0B8
:101A70000E940C0480E590E00E940D04E0CF40E15C
:101A800062E070E08C2F0E94020C0E940C0481E046
:101A900090E0CF910895CF92DF92EF92FF921F9343
:101AA000CF93DF931F92CDB7DEB7FC01208D24309A
:101AB00011F080E027C07B016C0110E080E590E030
:101AC0000E940D0463E070E0812F0E94500C898316
:101AD0000E940C048981811103C0F601108F05C09A
:101AE0008831D9F31F5F143049F7F601808D8430B7
:101AF00001F3F586E486128E118E40E0B7010E9454
:101B0000501181E00F90DF91CF911F91FF90EF90E6
:101B1000DF90CF9008954F925F926F927F928F9255
:101B20009F92AF92BF92CF92DF92EF92FF920F936C
:101B30001F93CF93DF93CDB7DEB7EE970FB6F89430
:101B4000DEBF0FBECDBF5C018B014A0184EB92E08A
:101B50009A8389831C861B8648EE53E060E070E020
:101B60004D875E876F87788B2AE432E03A87298732
:101B7000988F8F8B198E1A8E1B8E1C8E24E029A3B2
:101B800099AB88AB1AAA1BAA1CAA1DAA809137057B
:101B900090913805A0913905B0913A058EA39FA385
:101BA000A8A7B9A78B839C83AD83BE8318861F82A9
:101BB000F80120E080E090E06AE03191332319F1F0
:101BC00040ED430F4A3080F4689FA001699F500D9B
:101BD0001124CA01C097830F911D37FD9A958F3F3D
:101BE000910559F350F32BC03E3249F5233039F1BA
:101BF000A2E3B0E0AC0FBD1FA20FB11D8C932F5F0D
:101C000080E090E0DACF2330D1F48DABD501ED91B7
:101C1000FC910488F589E02D84EB92E09DA38CA3D0
:101C20008AA99BA9ACA9BDA98EA39FA3A8A7B9A760
:101C3000A401BE016C5D7F4FC501199530C24B8177
:101C40005C816D817E818091310590913205A091FA
:101C50003305B0913405481759076A077B0709F423
:101C60001CC20E9434066F7077277C5FCE010996F4
:101C70000E944B0D813009F00DC284EB92E09DA3D0
:101C80008CA38B819C81AD81BE818EA39FA3A8A7CD
:101C9000B9A745E350E0BE016C5D7F4FCE010996C8
:101CA0000E940C0C892B19F400E010E07EC10E9408
:101CB000340678876F837627672776277DA36CA302
:101CC00042E050E0BE016C5D7F4FCE0109960E945C
:101CD000760C81E090E09FAB8EAB42E050E0BE011D
:101CE0006A5C7F4FCE0109960E94760C80E091E0FD
:101CF0009FAB8EAB42E050E0BE016A5C7F4FCE01ED
:101D000009960E94760C1FAA1EAA42E050E0BE016E
:101D10006A5C7F4FCE0109960E94760C42E050E04B
:101D2000BE016A5C7F4FCE0109960E94760C42E0AC
:101D300050E0BE016A5C7F4FCE0109960E94760C8E
:101D40007801D7018C91882319F1F8017F018191E5
:101D5000811117C06701C01AD10A1C141D04A4F414
:101D6000C8AE41E050E0BE01685C7F4FCE010996ED
:101D70000E94760CA601B801CE0109960E94760C4D
:101D800003C08E3219F7E6CF87010F5F1F4FD9CFFF
:101D900018AE41E050E0BE01685C7F4FCE0109966D
:101DA0000E94760C00E011E01FAB0EAB42E050E069
:101DB000BE016A5C7F4FCE0109960E94760C1FAB74
:101DC0000EAB42E050E0BE016A5C7F4FCE01099647
:101DD0000E94760CCE0109960E94130D892B09F4FE
:101DE00063CF63E0E62EF12C0E9434062B013C0108
:101DF000CE0109960E941F0918161906A4F00E9428
:101E00003406DC01CB0184199509A609B709893884
:101E10009341A105B105C8F462E370E080E090E071
:101E20000E94FA05E5CF4B815C816D817E81898DB1
:101E30009A8DAB8DBC8D481759076A077B0741F413
:101E40008D8D9E8DC59721F406C02FEF3FEFA4C066
:101E50002EEF3FEFA1C08AA19BA10C970CF4B2C05A
:101E60004CE050E0BE016C5D7F4FCE0109960E94B0
:101E7000D7088EA190E0982F88272FA1822B9BAFA7
:101E80008AAF2CA130E0322F22274DA1242B4F8185
:101E900058854217530709F092C097FF90C08F7082
:101EA0009270892B09F0F3C00AA510E0102F0027CB
:101EB0008BA5082B0115110509F4E6C0C12CD12C06
:101EC00088A590E0982F882729A5822BC816D906C7
:101ED00008F47BC0C12CD12C41E050E0BE01645C11
:101EE0007F4FCE0109960E94D7088CAD982F907C29
:101EF00009F0A5C0811197C08CAD8111EDCF42E0F2
:101F000050E0BE01685C7F4FCE0109960E94D70861
:101F100042E050E0BE016A5C7F4FCE0109960E940C
:101F2000D708CE0109960E94F608CE0109960E94B4
:101F3000F608CE0109960E94F608CE0109960E9485
:101F4000F60842E050E0BE01665C7F4FCE01099684
:101F50000E94D70888AD99AD8115914009F075C0F0
:101F60002EA93FA93227232732272130310509F036
:101F70006CC08AAD9BAD8115944009F082C044E0ED
:101F800050E0BE016E5C7F4FCE0109962DAF3EAF93
:101F90000E94D7082DAD3EAD8901B1E0EB1AF108E2
:101FA00021F02F3F3F4F09F41FCFCE0109960E9429
:101FB000ED0B0130110509F429CEC80170C02CEFDA
:101FC0003FEFEACF2DEF3FEFE7CF41E050E0BE011A
:101FD0006A5C7F4FCE0109960E94D7088EA98111B5
:101FE00017C08EA98111F1CFCE0109960E94F60883
:101FF000CE0109960E94F608CE0109960E94F608C5
:10200000CE0109960E94F608FFEFCF1ADF0A58CFDB
:102010008EA99FEF980F9EAB882319F3CE010996E6
:102020000E94F608F5CF8CAD9FEF980F9CAF8823E8
:1020300009F462CFCE0109960E94F608F4CFCE01D2
:1020400009960E94F6081CAE57CF612C712C8AAD00
:102050009BAD9827892798276816790640F4CE010A
:1020600009960E94F6088FEF681A780AF0CFAFEF52
:10207000CA1ADA0AC016D10609F02ECF26EF3FEFB2
:102080008BCF27EF3FEF88CF2AEF3FEF85CF2BEFA6
:102090003FEF82CF80E090E002C08EEF9FEFEE96A0
:1020A0000FB6F894DEBF0FBECDBFDF91CF911F9169
:1020B0000F91FF90EF90DF90CF90BF90AF909F90E7
:1020C0008F907F906F905F904F90089520912E0594
:1020D00090912D05213208F04AC080910A058111A6
:1020E000FCCF32E030930A0531E0309309053FEF31
:1020F000309308051092070520930605ADE0B5E082
:1021000046EE54E0FA013E2F341B321718F43D918D
:102110003193F9CF1092E5042091E504990F922BA9
:102120009093E5049091E404913061F41092E404FA
:102130009091E5049093BB009091BC0093FDF8CF83
:1021400095EC01C095EE9093BC0090910A059230F9
:10215000E1F3909108059F3F79F080910805803266
:1021600041F080910805803331F084E005C081E0C2
:1021700003C082E001C083E010920C0510922E058E
:1021800010920B05089590910A059111FCCF6132D0
:1021900008F060E291E090930A05909309052FEF13
:1021A0002093080510920705260F209306059093AB
:1021B000E5049091E504880F892B8093E5048091D4
:1021C000E404813061F41092E4048091E50480938A
:1021D000BB008091BC0083FDF8CF85EC01C085EE8B
:1021E0008093BC0080910A058130E1F3809107055E
:1021F000861710F460910705A6EEB4E024EC34E0F5
:10220000F9018E2F821B861718F48D918193F9CFD7
:102210001092C3046093C204862F089590E0FC01DD
:10222000E456FD4F2491FC01EA5AFD4F8491882326
:1022300099F090E0880F991FFC01E45CFD4FA59197
:10224000B491FC01EE5DFD4F859194918FB7F894A8
:10225000EC91E22BEC938FBF0895CF93DF93BC01F9
:102260008FE795E00E948A06EC016BE973E08FE747
:1022700095E00E948A068C0F9D1FDF91CF910895F3
:10228000CF93C82F462F61E070E00E94020C61E0FE
:1022900070E08C2F0E94500C8111F9CFCF910895DE
:1022A000FF920F931F93CF93DF931F92CDB7DEB7AB
:1022B000F82E8B0149830E94A90B80E590E00E94D3
:1022C0000D044981426060E070E08F2D0E94020C95
:1022D0000115110551F400912A0610912B060F5F8C
:1022E0001F4F10932B0600932A06412F64E070E0E5
:1022F0008F2D0E94020C402F65E070E08F2D0E9410
:10230000020C61E070E08F2D0E9440110E940C04CD
:1023100081E00F90DF91CF911F910F91FF90089571
:10232000CF93DF93CDB7DEB7C858D1090FB6F89475
:10233000DEBF0FBECDBF789484B5826084BD84B506
:10234000816084BD85B5826085BD85B5816085BDB0
:1023500080916E00816080936E0010928100809168
:1023600081008260809381008091810081608093F0
:102370008100809180008160809380008091B10015
:1023800084608093B1008091B00081608093B00040
:102390008091910082608093910080919100816092
:1023A0008093910080919000816080939000809153
:1023B000A10082608093A1008091A1008160809340
:1023C000A1008091A00081608093A00080912101F4
:1023D000826080932101809121018160809321019D
:1023E0008091200181608093200180917A00846037
:1023F00080937A0080917A00826080937A00809145
:102400007A00816080937A0080917A00806880935E
:102410007A001092C100E0918F05F091900582E062
:102420008083E0918B05F0918C051082E0918D0501
:10243000F0918E058FEC808310929705E0919305C3
:10244000F091940586E08083E0919105F0919205EA
:10245000808180618083E0919105F0919205808177
:1024600088608083E0919105F09192058081806879
:102470008083E0919105F091920580818F7D80832A
:1024800000912006109121061F930F938CEC92E08F
:102490009F938F931F9285E08F9373EAE72E73E0EB
:1024A000F72EFF92EF920E94F517F701019000209E
:1024B000E9F73197E35AF340F093A003E0939F03C9
:1024C000FF92EF9281ED92E09F938F931F92EFE343
:1024D000FE2EFF929E012F5F3F4F19013F932F93D6
:1024E0000E94F517C1010E942D1108581F4F8091BD
:1024F0000D02800F80930D0280910702080F009358
:10250000070284EB92E09A83898340910002509104
:10251000010260910202709103024B835C836D8320
:102520007E834E0131E4830E911CD4018D939C93E4
:102530008091040290910502A0910602B0910702D9
:10254000F40182839383A483B583B101C4010E9403
:102550009D0A6BE07AE188E595E00E944B0D6AE008
:102560007AE18DE395E00E944B0D809107021F9266
:102570008F93809106021F928F93809105021F9284
:102580008F93809104021F928F9385EE92E09F9328
:102590008F931F92FF923F922F920E94F517C101D5
:1025A0000E942D111092C3041092C20410920C05C7
:1025B00010922E050E948D040FB6F894DEBF0FBE58
:1025C000CDBFF9ECAF2EF3E0BF2E00E010E0D50157
:1025D0001D921C92B1E0B0930B0580E2800F8093B6
:1025E0002D0510920C0510922E050E946610811187
:1025F000A7C01F930F93A3E0B3E0BF93AF931F92C5
:10260000FFE3FF933F922F920E94F517C1010E94B2
:102610002D1184E390E00E94B5166C01EEE9F3E021
:10262000DC011196FC93EE9313961C930E93129774
:10263000602FCF010E94AB0496012C5F3F4FCF5714
:10264000DF4F39832883C158D040205E3F4FCD579C
:10265000DF4F39832883C358D0400FB6F894DEBFCC
:102660000FBECDBFE12CF12C21E098E0E916F1047A
:102670000CF420E0622F8EE993E0CA57DF4F2883E5
:10268000C658D0400E94E8039E2D9770412C512CD3
:102690003201439404C0440C551C661C771C9A9567
:1026A000D2F7482F4429CA57DF4F2881C658D04057
:1026B000622F8EE993E00E94C703A8E0EA16F104B6
:1026C00014F02DE001C02CE0622F8EE993E0CA5790
:1026D000DF4F2883C658D0400E94E803482F442982
:1026E000CA57DF4F2881C658D040622F8EE993E049
:1026F0000E94C703CF57DF4FE881F981C158D0400E
:1027000011921192CF57DF4FF983E883C158D0401F
:10271000CD57DF4FA881B981C358D0401D92CD5706
:10272000DF4FB983A883C358D040BFEFEB1AFB0A31
:10273000E0E1EE16F10409F097CFD501CD92DC92DD
:102740000F5F1F4FB2E0AB0EB11C0830110509F04E
:102750003ECF4EE1442E512C612C712C58E9C52EF0
:102760005AE3D52EE12CF12C29EC33E0CD57DF4F85
:1027700039832883C358D040CD57DF4FA881B98112
:10278000C358D0400D911D91CD57DF4FB983A88319
:10279000C358D0400115110509F419C1F80162812F
:1027A000808191810E94AB04D801AD90BC90F5016D
:1027B0008081806291E090930B0580932D051092AB
:1027C0000C0510922E0562E183E795E00E943A0223
:1027D0000E946610D5018C91806262E070E090E00A
:1027E0000E94C31083E795E00E94EE01B82E83E7B4
:1027F00095E00E94EE01982F88278B299E012F5982
:102800003F4FCF57DF4F39832883C158D040F8015D
:10281000B496A8014C5F5F4F580134E3A30EB11C7E
:10282000DE01AF59BF4FC957DF4FB983A883C758DF
:10283000D04061E070E0C957DF4FA881B981C75827
:10284000D0401D921C92DA012D913C91B08180FF05
:1028500003C02150310902C02F5F3F4F25303105A1
:102860006CF0B111B9C1B1E0B083C957DF4FA88195
:10287000B981C758D0406D937C93AEC12C3FAFEF68
:102880003A077CF4BB2359F010822FEF3FEFC95772
:10289000DF4FA881B981C758D0402D933C932CEFCE
:1028A0003FEFDA012D933D93AD0196958795C9577A
:1028B000DF4F28813981C758D0402E5F3F4FC9571D
:1028C000DF4F39832883C758D0403196EA15FB057E
:1028D00009F0B1CFAA24A394B12CCF57DF4FA88120
:1028E000B981C158D0408D919C91892B09F459C070
:1028F00061E080911C060E941004409226065092CE
:10290000270660922806709229060E94340660937A
:10291000220670932306809324069093250681E077
:10292000CF57DF4FE881F981C158D04020813181F4
:102930002F3F3F4F09F480E01F928F93BF92AF92D9
:10294000D80113968C9113978F9312968C918F9335
:10295000809121068F93809120068F93A4E2B3E0AB
:10296000BF93AF931F92F0E2FF939F928F920E94CA
:10297000F5179F928F92A4E3B3E0BF93AF931F929A
:10298000FFE3FF933F922F920E94F517C1010E942F
:102990002D11C4010E949F060FB6F894DEBF0FBE32
:1029A000CDBF3FEFA31AB30ACF57DF4F288139813C
:1029B000C158D0402E5F3F4FCF57DF4F3983288318
:1029C000C158D04031E1A316B10409F086CFCD57EC
:1029D000DF4F28813981C358D040295D334009F049
:1029E000CBCE8DE395E00E941F09181619060CF056
:1029F00065C088E1E1EBF3E0DF011D928A95E9F71C
:102A000048E150E0BF018DE395E00E94A50148E157
:102A100050E06FE373E081EB93E00E94E717892BAE
:102A200009F04CC081E08093B003C092AC03D09217
:102A3000AD03E092AE03F092AF030E9434066093C0
:102A4000A8037093A9038093AA039093AB0361E05A
:102A500080911C060E9410048EE190E0A0E0B0E09E
:102A60008093260690932706A0932806B093290604
:102A70000E943406609322067093230680932406F6
:102A80009093250660E080911E060E94100483EA60
:102A900093E09F938F9384E493E09F938F931F928F
:102AA00080E28F933F922F920E94F517C1010E94FE
:102AB0009F060FB6F894DEBF0FBECDBF0E9434064E
:102AC0000091A8031091A9032091AA033091AB03B0
:102AD000DC01CB01801B910BA20BB30B0091AC036B
:102AE0001091AD032091AE033091AF038017910791
:102AF000A207B30708F441C00E9434066093A803FC
:102B00007093A9038093AA039093AB038CE493E0A2
:102B10000E942D111092B003C092AC03D092AD036D
:102B2000E092AE03F092AF030E9434066093A803D4
:102B30007093A9038093AA039093AB0361E0809103
:102B40001E060E9410048091A1039091A2039C0193
:102B50002F5F3F4F3093A2032093A1030B976CF09C
:102B600087E693E00E942D1168E873E180E090E031
:102B70000E94FA05E0E0F0E019950E943406009109
:102B80002206109123062091240630912506DC01AF
:102B9000CB01801B910BA20BB30B00912606109169
:102BA0002706209128063091290680179107A20751
:102BB000B30778F00E9434066093220670932306D0
:102BC000809324069093250660E080911C060E9465
:102BD00010040E948E03C8CD24E030E062CECF9373
:102BE000DF93EFE2F5E084EB92E091838083128241
:102BF000138214821582ECE2F6E0918380831282C4
:102C0000138214821582E2E3F6E0918380831282BC
:102C1000138214821582E8E3F6E0918380831282A6
:102C2000138214821582E5E3F5E09183808312829A
:102C3000138214821582EEE3F6E091838083128280
:102C4000138214821582E8E5F5E01382128248EEC1
:102C500053E060E070E04483558366837783AAE4A1
:102C6000B2E0B183A08397878687108A118A128A7F
:102C7000138A24E0208FEDE3F5E01382128244836F
:102C8000558366837783B183A08397878687108A6D
:102C9000118A128A138A208FE3E7F5E013821282E9
:102CA000448355836683778322E732E03183208330
:102CB000E4E4F6E091838083128213821482158209
:102CC000EFE7F5E0138212824483558366837783AE
:102CD00024E832E03183208325EC30E035872487F7
:102CE00024EC30E03787268720EC30E0318B208BD6
:102CF00021EC30E0338B228B22EC30E0358B248BBF
:102D000026EC30E0378B268B118E128E138E148EAC
:102D1000EAE4F6E0918380831282138214821582A2
:102D2000CCE1D6E08CE190E09983888384E290E066
:102D30009B838A838CE10E940E1160E08CE10E94EB
:102D4000100484E20E940E1160E084E20E941004EC
:102D50001D821C82DF91CF910895EE0FFF1F881F07
:102D60008BBF0790F691E02D1994CF93DF938230BB
:102D7000910510F482E090E0E0915206F091530644
:102D800020E030E0C0E0D0E0309711F14081518187
:102D900048175907C0F04817590761F48281938199
:102DA000209719F09B838A832BC0909353068093BE
:102DB000520626C02115310519F04217530718F4A1
:102DC0009A01BE01DF01EF010280F381E02DDCCF2B
:102DD0002115310509F1281B390B2430310590F4F8
:102DE00012968D919C9113976115710521F0FB014D
:102DF0009383828304C09093530680935206FD010F
:102E0000329644C0FD01E20FF31F8193919322504B
:102E100031092D933C933AC02091500630915106D0
:102E2000232B41F42091100230911102309351066E
:102E30002093500620910E0230910F02211531058A
:102E400041F42DB73EB74091120250911302241B5A
:102E5000350BE0915006F0915106E217F307A0F40C
:102E60002E1B3F0B2817390778F0AC014E5F5F4FE0
:102E70002417350748F04E0F5F1F509351064093BB
:102E800050068193919302C0E0E0F0E0CF01DF9122
:102E9000CF9108950F931F93CF93DF93009709F479
:102EA0008CC0FC013297138212820091520610915D
:102EB00053060115110581F420813181820F931F82
:102EC00020915006309151062817390779F5F09373
:102ED0005106E093500671C0D80140E050E0AE17B3
:102EE000BF0750F412962D913C911397AD01211517
:102EF000310509F1D901F3CF9D01DA013383228332
:102F000060817181860F971F8217930769F4EC0126
:102F100028813981260F371F2E5F3F4F3183208351
:102F20008A819B8193838283452B29F4F0935306F6
:102F3000E093520642C01396FC93EE931297ED0174
:102F4000499159919E01240F351FE217F30771F43F
:102F500080819181840F951F029611969C938E9388
:102F60008281938113969C938E931297E0E0F0E018
:102F7000D80112968D919C911397009719F0F80142
:102F80008C01F6CF8D919C9198012E5F3F4F820F5F
:102F9000931F20915006309151062817390769F484
:102FA000309729F4109253061092520602C01382F1
:102FB00012821093510600935006DF91CF911F911A
:102FC0000F91089581E090E0F8940C94FB1AFB01B6
:102FD000DC014150504030F08D910190801919F47E
:102FE0000020B9F7881B990B08950F931F93CF9377
:102FF000DF93CDB7DEB72E970FB6F894DEBF0FBEC6
:10300000CDBF0E891F89888D998D26E02C831A8368
:10301000098397FF02C080E090E801979E838D832B
:10302000AE01445E5F4F6A8D7B8DCE0101960E949A
:1030300032184D815E8157FD0AC02F8138854217B5
:1030400053070CF49A01F801E20FF31F10822E9639
:103050000FB6F894DEBF0FBECDBFDF91CF911F91A9
:103060000F9108952F923F924F925F926F927F92AD
:103070008F929F92AF92BF92CF92DF92EF92FF9288
:103080000F931F93CF93DF93CDB7DEB72C970FB677
:10309000F894DEBF0FBECDBF7C016B018A01FC013D
:1030A00017821682838181FFBDC1CE0101964C013A
:1030B000F7019381F60193FD859193FF81916F0153
:1030C000882309F4ABC1853239F493FD859193FFD0
:1030D00081916F01853229F4B70190E00E94431A73
:1030E000E7CF512C312C20E02032A0F48B3269F054
:1030F00030F4803259F0833269F420612CC08D3273
:1031000039F0803339F4216026C02260246023C066
:10311000286021C027FD27C030ED380F3A3078F401
:1031200026FF06C0FAE05F9E300D1124532E13C017
:103130008AE0389E300D1124332E20620CC08E326E
:1031400021F426FD6BC1206406C08C3611F4206882
:1031500002C0883641F4F60193FD859193FF819179
:103160006F018111C1CF982F9F7D9554933028F422
:103170000C5F1F4FFFE3F9830DC0833631F08337B7
:1031800071F0833509F05BC022C0F801808189832A
:103190000E5F1F4F44244394512C540115C0380135
:1031A000F2E06F0E711CF801A080B18026FF03C011
:1031B000652D70E002C06FEF7FEFC5012C870E9484
:1031C000381A2C0183012C852F77222E17C0380145
:1031D000F2E06F0E711CF801A080B18026FF03C0E1
:1031E000652D70E002C06FEF7FEFC5012C870E9454
:1031F0002D1A2C012C852068222E830123FC1BC054
:10320000832D90E048165906B0F4B70180E290E0B3
:103210000E94431A3A94F4CFF50127FC859127FECA
:1032200081915F01B70190E00E94431A31103A94F6
:10323000F1E04F1A51084114510471F7E5C084368A
:1032400011F0893639F5F80127FF07C060817181D7
:10325000828193810C5F1F4F08C060817181072EAE
:10326000000C880B990B0E5F1F4F2F76722E97FF65
:1032700009C090958095709561957F4F8F4F9F4FB6
:103280002068722E2AE030E0A4010E947B1AA82E4A
:10329000A81844C0853729F42F7EB22E2AE030E0EA
:1032A00025C0F22FF97FBF2E8F36C1F018F4883574
:1032B00079F0B4C0803719F0883721F0AFC02F2FD4
:1032C0002061B22EB4FE0DC08B2D8460B82E09C0D3
:1032D00024FF0AC09F2F9660B92E06C028E030E078
:1032E00005C020E130E002C020E132E0F801B7FE85
:1032F00007C060817181828193810C5F1F4F06C07E
:103300006081718180E090E00E5F1F4FA4010E94F8
:103310007B1AA82EA818FB2DFF777F2E76FE0BC0F8
:10332000372D3E7FA51450F474FE0AC072FC08C00D
:10333000372D3E7E05C0BA2C372D03C0BA2C01C0F4
:10334000B52C34FF0DC0FE01EA0DF11D80818033E4
:1033500011F4397E09C032FF06C0B394B39404C09F
:10336000832F867809F0B39433FD13C030FF06C075
:103370005A2CB31418F4530C5B18B32CB31468F420
:10338000B70180E290E03C870E94431AB3943C85E9
:10339000F5CFB31410F43B1801C0312C34FF12C028
:1033A000B70180E390E03C870E94431A3C8532FFDE
:1033B00017C031FD03C088E790E002C088E590E0C7
:1033C000B7010CC0832F867859F031FF02C08BE221
:1033D00001C080E237FD8DE2B70190E00E94431A00
:1033E000A51438F4B70180E390E00E94431A5A9480
:1033F000F7CFAA94F401EA0DF11D8081B70190E0A6
:103400000E94431AA110F5CF332009F451CEB70121
:1034100080E290E00E94431A3A94F6CFF701868149
:10342000978102C08FEF9FEF2C960FB6F894DEBF06
:103430000FBECDBFDF91CF911F910F91FF90EF9005
:10344000DF90CF90BF90AF909F908F907F906F90C4
:103450005F904F903F902F900895FC010590615030
:1034600070400110D8F7809590958E0F9F1F08959A
:10347000FC016150704001900110D8F78095909543
:103480008E0F9F1F08950F931F93CF93DF93FB0120
:10349000238121FD03C08FEF9FEF28C022FF16C0BC
:1034A00046815781248135814217530744F4A08116
:1034B000B1819D012F5F3F4F318320838C93268103
:1034C00037812F5F3F4F3783268310C0EB01092FD1
:1034D000182F0084F185E02D1995892BE1F68E8156
:1034E0009F8101969F838E83812F902FDF91CF91B3
:1034F0001F910F910895FA01AA27283051F1203128
:1035000081F1E8946F936E7F6E5F7F4F8F4F9F4F77
:10351000AF4FB1E03ED0B4E03CD0670F781F891FB9
:103520009A1FA11D680F791F8A1F911DA11D6A0F87
:10353000711D811D911DA11D20D009F468943F913A
:103540002AE0269F11243019305D3193DEF6CF0139
:103550000895462F4770405D4193B3E00FD0C9F7FF
:10356000F6CF462F4F70405D4A3318F0495D31FD6C
:103570004052419302D0A9F7EACFB4E0A6959795BF
:10358000879577956795BA95C9F700976105710595
:1035900008959B01AC010A2E0694579547953795DF
:1035A0002795BA95C9F7620F731F841F951FA01D39
:1035B0000895A1E21A2EAA1BBB1BFD010DC0AA1F74
:1035C000BB1FEE1FFF1FA217B307E407F50720F08C
:1035D000A21BB30BE40BF50B661F771F881F991F07
:1035E0001A9469F760957095809590959B01AC0150
:0A35F000BD01CF010895F894FFCF4C
:1035FA00FFFFFF00C0A85800DEADBEAAFE01000012
:10360A00540680000100000001005E000000000076
:10361A0000000A040A04BA020A040A040A040A0490
:10362A000A04EB0B0A040A040A040A040A040A0438
:10363A000A040A040A0400000000BD0B760CBA0250
:10364A00B507D30BF60895094B0DFB09ED0B0C0CCE
:10365A008B0D130D1F09D708A501DB0BD70B000033
:10366A0000003A020A02BA02DE010202EE01DF019A
:10367A000000000025038E02BD026C03EE02CC029C
:10368A00E002000000000A048E02BA02B9020A042B
:10369A000A040A04000000000A048E02BA02B902EF
:1036AA00000000000B07000000000A043235352E26
:1036BA003235352E3235352E32353500696D256471
:1036CA00004D617374657220626F6172642069646F
:1036DA003A2025730041737369676E6564206164DB
:1036EA0064726573733A2025642E25642E25642E30
:1036FA00256400466F756E6420696E707574206269
:10370A006F61726420617420616464726573733AD4
:10371A0020256400696D256420622564206925647A
:10372A002025640053656E64696E672025730070F6
:10373A00696E6700257320706F6E67004E6F207088
:10374A00696E67202D20636F6E6E656374696F6E94
:10375A00206C6F73743F004E6F2070696E6720662D
:10376A006F722061206C6F6E672074696D652C2002
:10377A00747279696E6720746F207265736574203C
:0E378A0074686520646576696365000D0A0049
:00000001FF
