:100000000C9468000C9490000C9490000C94900058
:100010000C9490000C9490000C9490000C94900020
:100020000C9490000C9490000C9490000C94900010
:100030000C9490000C9490000C9490000C94900000
:100040000C94F8020C9490000C9468030C944203F6
:100050000C9490000C9490000C9490000C949000E0
:100060000C94FA080C949000000000002500280071
:100070002B000000000023002600290000000008DB
:10008000000201000003040700000000000000005F
:1000900000000000240027002A00010204081020AC
:1000A000408001020408102001020408102004040A
:1000B0000404040404040202020202020303030310
:1000C00003036364696E6F70737578585B00761410
:1000D00011241FBECFEFD8E0DEBFCDBF25E0AEEAD2
:1000E000B2E001C01D92AF36B207E1F712E0A0E026
:1000F000B1E0E4E6FBE302C005900D92AE3AB10731
:10010000D9F710E0C8E6D0E004C02197FE010E94B4
:100110002E16C736D107C9F70E94B6100C94B01D31
:100120000C9400003FB7F8948091690390916A03A2
:10013000A0916B03B0916C0326B5A89B05C02F3F1F
:1001400019F00196A11DB11D3FBFBA2FA92F982FFD
:100150008827820F911DA11DB11DBC01CD0142E078
:10016000660F771F881F991F4A95D1F70895CF9280
:10017000DF92EF92FF920F931F93CF93DF936C0167
:100180007A018B01C0E0D0E0CE15DF0589F0D801FF
:100190006D918D01D601ED91FC910190F081E02DE2
:1001A000C6010995892B11F47E0102C02196ECCF7E
:1001B000C701DF91CF911F910F91FF90EF90DF90DA
:1001C000CF900895089580E090E00895FC01538D4C
:1001D000448D252F30E0842F90E0821B930B541721
:1001E00010F0CF96089501970895FC01918D828DAE
:1001F000981761F0828DDF01A80FB11D5D968C917B
:10020000928D9F5F9F73928F90E008958FEF9FEF85
:100210000895FC01918D828D981731F0828DE80F41
:10022000F11D858D90E008958FEF9FEF0895FC01FB
:10023000918D228D892F90E0805C9F4F821B9109C8
:100240008F739927089583E594E00E94170121E0B8
:10025000892B09F420E0822F0895FC01848DDF01B1
:10026000A80FB11DA35ABF4F2C91848D90E0019629
:100270008F739927848FA689B7892C93A089B18918
:100280008C9180648C93938D848D981306C0028822
:10029000F389E02D80818F7D80830895EF92FF9216
:1002A0000F931F93CF93DF93EC0181E0888F9B8D99
:1002B0008C8D981305C0E889F989808185FD24C05B
:1002C000F62E0B8D10E00F5F1F4F0F731127E02EDE
:1002D0008C8DE8120CC00FB607FCFACFE889F989BB
:1002E000808185FFF5CFCE010E942D01F1CF8B8D4E
:1002F000FE01E80FF11DE35AFF4FF0820B8FEA89F0
:10030000FB898081806207C0EE89FF896083E8896C
:10031000F98980818064808381E090E0DF91CF91D2
:100320001F910F91FF90EF900895CF93DF93EC0111
:10033000888D8823C9F0EA89FB89808185FD05C005
:10034000A889B9898C9186FD0FC00FB607FCF5CF3F
:10035000808185FFF2CFA889B9898C9185FFEDCF87
:10036000CE010E942D01E7CFDF91CF91089580E06B
:1003700090E0892B29F00E94230181110C94000048
:100380000895DC01ED91FC91048CF58DE02D09942C
:100390000E946117CF93DF931F92CDB7DEB7FC01A8
:1003A0008081806291E090931504809337041092CD
:1003B00016041092380487E494E049830E944C05A7
:1003C0004981642F87E494E00E944C0581E00F90FE
:1003D000DF91CF910C94ED0DCF93DF93EC019881D9
:1003E000906281E080931504909337041092160474
:1003F0001092380487E494E00E944C0581E00E944A
:10040000ED0D8881909114049111FCCF91E09093AF
:100410001404909313042FEF2093120410921104EC
:10042000109210049093EF039091EF038062880F75
:10043000892B8093EF038091EE03813061F4109259
:10044000EE038091EF038093BB008091BC0083FD9D
:10045000F8CF85EC01C085EE8093BC008091140438
:100460008130E1F380911104811103C08091110466
:1004700001C081E0A0EFB3E02DE633E0F9019E2F4B
:10048000921B981718F49D919193F9CF10928E03B7
:1004900080938D0387E494E00E940005DF91CF9163
:1004A0000895EF92FF920F931F93CF93DF931F92C4
:1004B000CDB7DEB77C01162F062F0770683010F01D
:1004C00065E101C064E1C70149830E94EC014981F3
:1004D000442369F041E050E060E070E004C0440F64
:1004E000551F661F771F0A95D2F7482B0DC041E0B4
:1004F00050E060E070E004C0440F551F661F771F96
:100500000A95D2F740954823183010F063E101C0F6
:1005100062E1C7010F90DF91CF911F910F91FF9082
:10052000EF900C94CA01EF92FF920F931F93CF9319
:100530007C0125E0E20EF11CC0E08C010E5F1F4F34
:10054000F7014081F2E0EF0EF11C6C2FC8010E9410
:100550005102CF5FC031A1F7CF911F910F91FF9052
:10056000EF9008958F929F92AF92BF92CF92DF92B9
:10057000EF92FF926B017C010E9492004B015C01A3
:10058000C114D104E104F104F1F00E949200DC01F5
:10059000CB0188199909AA09BB09883E9340A10596
:1005A000B10570F321E0C21AD108E108F10888EE24
:1005B000880E83E0981EA11CB11CC114D104E10473
:1005C000F10419F7DDCFFF90EF90DF90CF90BF904F
:1005D000AF909F908F9008952FB7F8946091650326
:1005E0007091660380916703909168032FBF08950F
:1005F0001F920F920FB60F9211242F933F938F9358
:100600009F93AF93BF938091650390916603A091F0
:100610006703B09168033091640323E0230F2D3703
:1006200020F40196A11DB11D05C026E8230F0296F6
:10063000A11DB11D2093640380936503909366030D
:10064000A0936703B09368038091690390916A0354
:10065000A0916B03B0916C030196A11DB11D809315
:10066000690390936A03A0936B03B0936C03BF91EB
:10067000AF919F918F913F912F910F900FBE0F904F
:100680001F9018951F920F920FB60F9211242F935F
:100690003F934F935F936F937F938F939F93AF930A
:1006A000BF93EF93FF9383E594E00E942D01FF91A8
:1006B000EF91BF91AF919F918F917F916F915F91DA
:1006C0004F913F912F910F900FBE0F901F90189553
:1006D0001F920F920FB60F9211242F938F939F9317
:1006E000EF93FF93E0916304F09164048081E091C3
:1006F0006904F0916A0482FD12C0908180916C04BB
:100700008F5F8F7320916D04821751F0E0916C041C
:10071000F0E0ED5AFB4F958F80936C0401C080810F
:10072000FF91EF919F918F912F910F900FBE0F909E
:100730001F9018952CE330E0FC0134832383359619
:100740009C01295D3F4F11921192E217F307D9F7EF
:10075000FC017183608308956115710579F0FB01D7
:1007600001900020E9F73197AF01461B570BDC01E0
:10077000ED91FC910280F381E02D099480E090E0FE
:1007800008954F925F926F927F92EF92FF920F9334
:100790001F93CF93DF93CDB7DEB7A1970FB6F89431
:1007A000DEBF0FBECDBF7C01FA01CB0119A2223002
:1007B00008F42AE08E010F5D1F4F422E512C612C50
:1007C000712CBF01A30192010E94571DF901CA01BA
:1007D000015011096A3014F4605D01C0695CD801F0
:1007E0006C93232B242B252B61F7B801C7010E94A2
:1007F000AC03A1960FB6F894DEBF0FBECDBFDF915C
:10080000CF911F910F91FF90EF907F906F905F902D
:100810004F9008958F929F92AF92BF92CF92DF92A6
:10082000EF92FF920F931F93CF93DF937C01EB0125
:100830006C0182E0C80ED11C4701E5E08E0E911CD0
:1008400000E010E0F60141916F0150E060E070E0DF
:100850002AE0CE010E94C1035C01E881F981019088
:10086000F081E02D6EE2CE0109958A0D9B1D080FE7
:10087000191FC814D90431F7F701458150E060E031
:1008800070E02AE0CE010E94C103800F911FDF912A
:10089000CF911F910F91FF90EF90DF90CF90BF907D
:1008A000AF909F908F9008950F931F93CF93DF93F6
:1008B000CDB7DEB7C054D1090FB6F894DEBF0FBE76
:1008C000CDBF182F092F9F938F931F9280E88F938E
:1008D0008EEA92E09F938F930E94741743EB55E149
:1008E0006CEB71E089E295E00E941F066EEA72E00F
:1008F00089E295E00E94AC0389E295E00E94C30B77
:100900000F931F938CEC91E09F938F931F928FE333
:100910008F938E010F5F1F4F1F930F930E947417C9
:10092000C8010E944A0E0FB6F894DEBF0FBECDBFBD
:10093000C05CDF4F0FB6F894DEBF0FBECDBFDF91B6
:10094000CF911F910F910895FC01818D928D089593
:10095000FC0184899589089524EB31E0FC01318301
:100960002083FB014089518962897389FC0142839C
:10097000538364837583089580E0089585ED8093A3
:10098000BC008091BC0084FDFCCF1092140408953B
:100990004091B103262F30E0240F311D2132310563
:1009A000DCF4209114042430C9F4FC0180E090E0D0
:1009B000861758F43091B1032191DC01A157BC4F47
:1009C000A30FB11D2C930196F3CF8091B103680F53
:1009D0006093B10380E0089581E0089582E0089576
:1009E0000895E0918E0380918D03E81730F4F0E0D4
:1009F000E359FC4F808190E008958FEF9FEF0895B9
:100A000090918E0380918D03981750F4E92FF0E0B8
:100A1000E359FC4F208130E09F5F90938E0302C02A
:100A20002FEF3FEFC901089580918D0390E0209151
:100A30008E03821B91090895CF92DF92EF92FF926D
:100A40000F931F93CF93DF937C01262F972F8A015B
:100A500080911504882391F0C62FD72F6E01C40E04
:100A6000D51ECC15DD0571F06991D701ED91FC9192
:100A70000190F081E02DC7010995F3CF642F822FFB
:100A80000E94C804C801DF91CF911F910F91FF9080
:100A9000EF90DF90CF900895CF93DF931F92CDB763
:100AA000DEB76983209115042223D1F02091380408
:100AB000203240F021E030E0FC013383228380E0EB
:100AC00090E015C080911604E82FF0E0E95EFB4F3E
:100AD000998190838F5F809316048093380405C0BA
:100AE00061E0CE0101960E94C80481E090E00F9081
:100AF000DF91CF910895833081F028F4813099F00F
:100B00008230A1F008958730A9F08830B9F08430A0
:100B1000D1F4809180008F7D03C0809180008F7719
:100B200080938000089584B58F7702C084B58F7D4F
:100B300084BD08958091B0008F7703C08091B0008C
:100B40008F7D8093B0000895CF93DF93EC01888D63
:100B5000843061F00E94D90DE88DF0E0EE0FFF1FA8
:100B6000EA52FC4F1182108284E0888FDF91CF918E
:100B700008959B0190E00496982F8827642F820F98
:100B8000931F0C94550F0F931F93CF93DF931F92D6
:100B9000CDB7DEB790E00496982F88278C01060F1A
:100BA000171F0E94AF0E8FE00E94D20D812F0E946E
:100BB000D20D802F0E94D20D80E00E94D20D898339
:100BC0000E94AD0E89810F90DF91CF911F910F91FF
:100BD000089508958CBD9DBD0895EF92FF921F93D7
:100BE000CF93DF93FC01208D243011F080E021C0F1
:100BF0007B01EC0110E080E590E00E94EA0563E0F3
:100C000070E0812F0E94C305811102C0188F05C0BA
:100C10008831E1F31F5F143071F7888D843031F330
:100C2000FD86EC861A8E198E40E0B7010E946D0E8B
:100C300081E0DF91CF911F91FF90EF9008954F9247
:100C40005F926F927F928F929F92AF92BF92CF925C
:100C5000DF92EF92FF920F931F93CF93DF93CDB765
:100C6000DEB7EE970FB6F894DEBF0FBECDBF5C01C6
:100C70008B014A0184EB91E09A8389831C861B8651
:100C800048EE53E060E070E04D875E876F87788BB9
:100C90002CE831E03A872987988F8F8B198E1A8E2E
:100CA0001B8E1C8E24E029A399AB88AB1AAA1BAA21
:100CB0001CAA1DAA8091410490914204A091430472
:100CC000B09144048EA39FA3A8A7B9A78B839C834C
:100CD000AD83BE8318861F82F80120E080E090E09B
:100CE0006AE03191332319F140ED430F4A3080F42B
:100CF000689FA001699F500D1124CA01C097830FFE
:100D0000911D37FD9A958F3F910559F350F32BC0F4
:100D10003E3249F5233039F1A2E3B0E0AC0FBD1FFC
:100D2000A20FB11D8C932F5F80E090E0DACF2330CB
:100D3000D1F48DABD501ED91FC910488F589E02DBE
:100D400084EB91E09DA38CA38AA99BA9ACA9BDA922
:100D50008EA39FA3A8A7B9A7A401BE016C5D7F4F76
:100D6000C501099530C24B815C816D817E81809186
:100D70003B0490913C04A0913D04B0913E0448177F
:100D800059076A077B0709F41CC20E94EC026F70C6
:100D900077277C5FCE0109960E94ED05813009F02E
:100DA0000DC284EB91E09DA38CA38B819C81AD81CE
:100DB000BE818EA39FA3A8A7B9A745E350E0BE01BB
:100DC0006C5D7F4FCE0109960E94FB0B892B19F4B5
:100DD00000E010E07EC10E94EC0278876F837627E6
:100DE000672776277DA36CA342E050E0BE016C5DCF
:100DF0007F4FCE0109960E94350D81E090E09FABB8
:100E00008EAB42E050E0BE016A5C7F4FCE01099696
:100E10000E94350D80E091E09FAB8EAB42E050E048
:100E2000BE016A5C7F4FCE0109960E94350D1FAA54
:100E30001EAA42E050E0BE016A5C7F4FCE010996D7
:100E40000E94350D42E050E0BE016A5C7F4FCE014A
:100E500009960E94350D42E050E0BE016A5C7F4F6A
:100E6000CE0109960E94350D7801D7018C91882317
:100E700019F1F8017F018191811117C06701C01A32
:100E8000D10A1C141D04A4F4C8AE41E050E0BE0118
:100E9000685C7F4FCE0109960E94350DA601B8010E
:100EA000CE0109960E94350D03C08E3219F7E6CFA8
:100EB00087010F5F1F4FD9CF18AE41E050E0BE0150
:100EC000685C7F4FCE0109960E94350D00E011E06D
:100ED0001FAB0EAB42E050E0BE016A5C7F4FCE011B
:100EE00009960E94350D1FAB0EAB42E050E0BE01EB
:100EF0006A5C7F4FCE0109960E94350DCE0109969E
:100F00000E94C30B892B09F463CF63E0E62EF12C1A
:100F10000E94EC022B013C01CE0109960E94BF0CFD
:100F200018161906A4F00E94EC02DC01CB0184190A
:100F30009509A609B70989389341A105B105C8F4F7
:100F400062E370E080E090E00E94B202E5CF4B8166
:100F50005C816D817E81898D9A8DAB8DBC8D4817AA
:100F600059076A077B0741F48D8D9E8DC59721F443
:100F700006C02FEF3FEFA4C02EEF3FEFA1C08AA124
:100F80009BA10C970CF4B2C04CE050E0BE016C5D2C
:100F90007F4FCE0109960E94440B8EA190E0982FBE
:100FA00088272FA1822B9BAF8AAF2CA130E0322F54
:100FB00022274DA1242B4F8158854217530709F052
:100FC00092C097FF90C08F709270892B09F0F3C088
:100FD0000AA510E0102F00278BA5082B011511057D
:100FE00009F4E6C0C12CD12C88A590E0982F882761
:100FF00029A5822BC816D90608F47BC0C12CD12C98
:1010000041E050E0BE01645C7F4FCE0109960E9432
:10101000440B8CAD982F907C09F0A5C0811197C02E
:101020008CAD8111EDCF42E050E0BE01685C7F4F96
:10103000CE0109960E94440B42E050E0BE016A5C7A
:101040007F4FCE0109960E94440BCE0109960E9463
:10105000630BCE0109960E94630BCE0109960E9494
:10106000630BCE0109960E94630B42E050E0BE0183
:10107000665C7F4FCE0109960E94440B88AD99AD06
:101080008115914009F075C02EA93FA93227232769
:1010900032272130310509F06CC08AAD9BAD811536
:1010A000944009F082C044E050E0BE016E5C7F4F86
:1010B000CE0109962DAF3EAF0E94440B2DAD3EAD43
:1010C0008901B1E0EB1AF10821F02F3F3F4F09F4FD
:1010D0001FCFCE0109960E94A4050130110509F425
:1010E00029CEC80170C02CEF3FEFEACF2DEF3FEFC4
:1010F000E7CF41E050E0BE016A5C7F4FCE01099628
:101100000E94440B8EA9811117C08EA98111F1CFC5
:10111000CE0109960E94630BCE0109960E94630BD3
:10112000CE0109960E94630BCE0109960E94630BC3
:10113000FFEFCF1ADF0A58CF8EA99FEF980F9EAB13
:10114000882319F3CE0109960E94630BF5CF8CAD6D
:101150009FEF980F9CAF882309F462CFCE010996C8
:101160000E94630BF4CFCE0109960E94630B1CAE64
:1011700057CF612C712C8AAD9BAD98278927982772
:101180006816790640F4CE0109960E94630B8FEF32
:10119000681A780AF0CFAFEFCA1ADA0AC016D10679
:1011A00009F02ECF26EF3FEF8BCF27EF3FEF88CF11
:1011B0002AEF3FEF85CF2BEF3FEF82CF80E090E02B
:1011C00002C08EEF9FEFEE960FB6F894DEBF0FBE13
:1011D000CDBFDF91CF911F910F91FF90EF90DF90E6
:1011E000CF90BF90AF909F908F907F906F905F90C7
:1011F0004F9008951F920F920FB60F9211242F93C4
:101200003F934F935F936F937F938F939F93AF938E
:10121000BF93EF93FF938091B900887F803609F4E4
:101220009CC068F5883209F45BC090F4803109F401
:1012300054C038F4882309F4F6C0883009F44DC04E
:10124000F6C0883109F44CC0803209F45DC0EFC0AB
:10125000803409F468C048F4803309F455C08833F9
:1012600009F0E5C080931204D8C0803509F44FC05E
:10127000883509F45DC0883409F0D9C0D6C08839F2
:1012800009F4C7C0A8F4883709F467C038F4883671
:1012900009F463C0803709F460C0C9C0883809F414
:1012A000B8C0803909F45FC0803809F0C0C05BC0A5
:1012B000803B09F486C038F4803A09F466C0883A65
:1012C00009F47FC0B4C0803C09F4A7C0883C09F48D
:1012D000A4C0883B09F48AC0AAC08091EF0310C063
:1012E0009091110480911004981770F5E091110409
:1012F00081E08E0F80931104F0E0E051FC4F80817B
:101300008093BB0085EC86C0809312048EC0E09170
:10131000110481E08E0F809311048091BB00F0E0F6
:10132000E051FC4F808390911104809110046EC0B5
:10133000E091110481E08E0F809311048091BB0035
:10134000F0E0E051FC4F80838091130481116DC067
:1013500081E08093EE0384EA61C083E0809314040B
:101360001092D503CFCF8091D503803208F051C0C1
:10137000E091D50381E08E0F8093D5038091BB006F
:10138000F0E0EB54FC4F8083BDCF85EC8093BC0034
:10139000109214048091D503803230F4E091D5038B
:1013A000F0E0EB54FC4F10826091D50370E0E091C7
:1013B000B303F091B40385EB93E009951092D50344
:1013C00036C084E0809314041092B2031092B103EB
:1013D000E091AF03F091B00309958091B1038111C1
:1013E00005C081E08093B10310928F03E091B203B6
:1013F00081E08E0F8093B203F0E0E157FC4F8081D3
:101400008093BB009091B2038091B103981708F4C8
:1014100079CF85E88093BC000AC085EC8093BC003E
:101420001092140404C0109212040E94BE04FF9192
:10143000EF91BF91AF919F918F917F916F915F914C
:101440004F913F912F910F900FBE0F901F901895C5
:10145000CF93DF93282F30E0F901E458FF4F8491B8
:10146000F901E656FF4FD491F901E255FF4FC491BF
:10147000CC2391F081110E947B05EC2FF0E0EE0F60
:10148000FF1FEE58FF4FA591B491EC91ED2381E041
:1014900090E021F480E002C080E090E0DF91CF9105
:1014A00008951F93CF93DF93282F30E0F901E4587C
:1014B000FF4F8491F901E656FF4FD491F901E255AF
:1014C000FF4FC491CC23C9F0162F81110E947B05D8
:1014D000EC2FF0E0EE0FFF1FE859FF4FA591B491FC
:1014E0008FB7F894111105C09C91ED2FE095E92379
:1014F00002C0EC91ED2BEC938FBFDF91CF911F9148
:101500000895CF93DF9390E0FC01E656FF4F2491BE
:10151000FC01E255FF4F8491882361F190E0880F30
:10152000991FFC01E057FF4FC591D491FC01E85988
:10153000FF4FA591B491611109C09FB7F8948881BC
:10154000209582238883EC912E230BC0623061F4B6
:101550009FB7F8943881822F809583238883EC91FC
:101560002E2B2C939FBF06C08FB7F894E8812E2BAB
:1015700028838FBFDF91CF9108950895CF93DF9394
:101580001F92CDB7DEB76983DC01ED91FC9102803B
:10159000F381E02D41E050E0BE016F5F7F4F099580
:1015A0000F90DF91CF910895AF92BF92DF92EF92AB
:1015B000FF920F931F93CF93DF93D82E7B018A0165
:1015C00080E590E00E94EA05C0E0D0E08D2D0E9409
:1015D00086105C01892B21F08D2D0E948610EC0174
:1015E000CA15DB0599F7209799F463E070E08D2D1B
:1015F0000E94C3058431D9F18823C9F1C1E0D0E04C
:101600008C3111F4C0E0D0E0D195C195D1092FC043
:101610000C171D070CF4E8011C161D0644F568E2C2
:1016200070E08D2D0E94C305082F10E069E270E084
:101630008D2D0E94C305102F0027082B9E01A701A6
:10164000B8018D2D0E94E10E0C0F1D1F412F68E285
:1016500070E08D2D0E94B905402F69E270E08D2D5C
:101660000E94B90560E470E08D2D0E945D0E0E941D
:10167000E905CE01DF91CF911F910F91FF90EF907F
:10168000DF90BF90AF900895CF93DF93FC01218D41
:10169000328D2115310519F48FEF9FEF11C0EC0148
:1016A0004217530708F0A901888D0E94D40A181622
:1016B000190694F7298D3A8D281B390B3A8F298FFB
:1016C000DF91CF9108950F931F93CF93DF931F92D4
:1016D000CDB7DEB7FC01218D328D232B61F08C015B
:1016E00041E050E0BE016F5F7F4F808D0E94D40AC1
:1016F000181619061CF08FEF9FEF08C0F801818DB6
:10170000928D0197928F818F898190E00F90DF9168
:10171000CF911F910F910895FF920F931F93CF9335
:10172000DF931F92CDB7DEB7FC01218D328D232BC5
:1017300009F1F08C80E590E00E94EA0568E270E033
:101740008F2D0E94C305082F10E069E270E08F2DF5
:101750000E94C305702F6627682B21E030E0AE01A0
:101760004F5F5F4F8F2D0E94E10E0E94E905898136
:1017700090E002C08FEF9FEF0F90DF91CF911F910C
:101780000F91FF900895CF93FC01C08D80E590E00C
:101790000E94EA0560E270E08C2F0E945D0E62E01C
:1017A00070E08C2F0E94C30584FD19C062E070E0D8
:1017B0008C2F0E94C30583FF0BC048E162E070E0FC
:1017C0008C2F0E94B9050E94E90580E090E011C0CD
:1017D0000E94E90580E590E00E94EA05E0CF40E143
:1017E00062E070E08C2F0E94B9050E94E90581E05B
:1017F00090E0CF910895EF92FF921F93CF93DF93E4
:10180000EB017A01FC01178A168A108D8A818111F9
:1018100009C08B81811106C08C81811103C08D812B
:10182000882329F1E114F10411F180E590E00E9490
:10183000EA05BE016E5F7F4F812F90E0982F8827C9
:1018400044E050E0845F9B4F0E94260F4F2D60E1E3
:1018500070E0812F0E94B9054E2D61E170E0812F6B
:101860000E94B9050E94E90581E090E002C080E095
:1018700090E0DF91CF911F91FF90EF900895BF927C
:10188000CF92DF92EF92FF920F931F93CF93DF934C
:1018900000D000D000D0CDB7DEB7FC01208D2430C1
:1018A00009F05CC06A017B018C01B12C63E070E03F
:1018B0008B2D0E94C305811103C0F801B08E06C0B4
:1018C0008831D9F3B394F4E0BF12F0CFF801808DE2
:1018D000843009F443C096E0E8E1F1E0DE011196BE
:1018E00001900D929A95E1F7F70193819F779C8380
:1018F00094819D8395819E83B7016E5F7F4F90E0B9
:10190000982F882744E050E0845F9B4F0E94260F69
:10191000F801F08C4D2D60E170E08F2D0E94B9052B
:101920004C2D61E170E08F2D0E94B905F801808D8A
:1019300090E0982F882746E050E0BE016F5F7F4F10
:101940008A5F9B4F0E94260FF801128E118E40E88D
:10195000B601808D0E946D0E81E001C080E0269668
:101960000FB6F894DEBF0FBECDBFDF91CF911F91B0
:101970000F91FF90EF90DF90CF90BF900895BF92AE
:10198000CF92DF92EF92FF920F931F93CF93DF934B
:10199000CDB7DEB728970FB6F894DEBF0FBECDBF28
:1019A0008C01F801818D928D892B49F0D801ED9140
:1019B000FC910284F385E02DC8010995F2CFB08C2B
:1019C00080E590E00E94EA05E12CF12C8B2D0E942D
:1019D00086106C01892B21F08B2D0E9486107C01D2
:1019E000EC14FD0499F70E94E9051E141F045CF530
:1019F00048E050E0BE016F5F7F4FD80158968C9150
:101A00000E94D40A9C0118161906DCF489819A8177
:101A1000AB81BC81F801808B918BA28BB38B8D81C4
:101A200090E0982F88272E81820F911D958B848BB3
:101A30002F8130E0322F22278885280F311D328FE9
:101A4000218FC90102C080E090E028960FB6F8947B
:101A5000DEBF0FBECDBFDF91CF911F910F91FF90E1
:101A6000EF90DF90CF90BF9008957F928F929F92DA
:101A7000AF92BF92CF92DF92EF92FF920F931F939C
:101A8000CF93DF935C014B016A01FC010689178942
:101A9000708C80E590E00E94EA05C0E0D0E0872DE0
:101AA0000E949E107C01892B21F0872D0E949E10A0
:101AB000EC01CE15DF0599F7CC15DD0578F4C0E013
:101AC000D0E0872D0E949E106C01892B21F0872D7C
:101AD0000E949E10EC01CC15DD0599F764E270E0E0
:101AE000872D0E94C305E82EF12C65E270E0872D5A
:101AF0000E94C305FE2CEE24E82AE701C00FD11F87
:101B00009E013770E72CF12CC701880F991FAC019B
:101B100042525C4F7A01FA0180819181820F931FBA
:101B2000A9014C0D5D1D4130584090F000E018E0D7
:101B3000021B130BA801B4010E94260FA601401B33
:101B4000510BB401600F711FF7018081918102C0B8
:101B5000A601B4010E94260FCC0DDD1D4D2F64E2BD
:101B600070E0872D0E94B9054C2F65E270E0872D4B
:101B70000E94B9050E94E905F501868997898C0DB7
:101B80009D1D978B868BC601DF91CF911F910F9181
:101B9000FF90EF90DF90CF90BF90AF909F908F908D
:101BA0007F9008958EBD00000DB407FEFDCF8EB569
:101BB0000895CF93C82F80E590E00E94EA0560E188
:101BC00070E08C2F0E945D0E4FEF62E070E08C2F72
:101BD0000E94B905CF910C94E905382F2091380463
:101BE00090913704213208F049C08091140481118A
:101BF000FCCF42E040931404309313043FEF309342
:101C000012041092110420931004A7E1B4E040EFF5
:101C100053E0FA013E2F341B321718F43D913193F3
:101C2000F9CF1092EF032091EF03990F922B90932D
:101C3000EF039091EE03913061F41092EE039091D6
:101C4000EF039093BB009091BC0093FDF8CF95EC0F
:101C500001C095EE9093BC00909114049230E1F392
:101C6000909112049F3F79F080911204803241F0EC
:101C700080911204803331F084E005C081E003C01C
:101C800082E001C083E01092160410923804109292
:101C900015040895CF93DF93BC0183E594E00E947F
:101CA000AC03EC016AEA72E083E594E00E94AC03C5
:101CB0008C0F9D1FDF91CF910895CF93C82F462F92
:101CC00061E070E00E94B90561E070E08C2F0E9435
:101CD000C3058111F9CFCF910895FF920F931F9300
:101CE000CF93DF931F92CDB7DEB7F82E8B014983D8
:101CF0000E94D90D80E590E00E94EA05498142608A
:101D000060E070E08F2D0E94B9050115110551F4B6
:101D100000914505109146050F5F1F4F1093460532
:101D200000934505412F64E070E08F2D0E94B905B6
:101D3000402F65E070E08F2D0E94B90561E070E0F2
:101D40008F2D0E945D0E0E94E90581E00F90DF91CA
:101D5000CF911F910F91FF9008952A9A08952A9884
:101D60000895CF92DF92EF92FF920F931F93CF933C
:101D7000DF93EC017A018B016C01C40ED51ECC15EA
:101D8000DD05A9F00E94AF0E8FE00E94D20D8D2FCD
:101D90000E94D20D8C2F0E94D20D219680E00E94CD
:101DA000D20DF80181938F010E94AD0EE8CFC701DB
:101DB000DF91CF911F910F91FF90EF90DF90CF9027
:101DC0000895AF92BF92CF92DF92EF92FF920F935E
:101DD0001F93CF93DF9300D0CDB7DEB77A836983AB
:101DE000BA01A901E981FA81F770082F10E0000F0C
:101DF000111F0A511C4FD8018D919C918E0F9F1F6E
:101E00002E0F3F1F2130384098F07A015B0120E00F
:101E100038E06901CE1ADF0AA6010E94B10EA701BF
:101E20004C195D09B5016C0D7D1DF8018081918112
:101E30000F900F90DF91CF911F910F91FF90EF9036
:101E4000DF90CF90BF90AF900C94B10ECF92DF9205
:101E5000EF92FF920F931F93CF93DF93EC017A01E0
:101E60008B016C01C40ED51ECC15DD05A1F00E94BE
:101E7000AF0E80EF0E94D20D8D2F0E94D20D8C2FBD
:101E80000E94D20D2196F80181918F010E94D20DFE
:101E90000E94AD0EE9CFC701DF91CF911F910F9145
:101EA000FF90EF90DF90CF9008951F93CF93DF9333
:101EB00000D0CDB7DEB7182F6A8399830E94AF0E8A
:101EC00080EF0E94D20D9981892F0E94D20D812F1F
:101ED0000E94D20D6A81862F0E94D20D0E94AD0E03
:101EE00081E00F900F90DF91CF911F910895CF92D5
:101EF000DF92EF92FF921F93CF93DF93CDB7DEB7C0
:101F0000E0970FB6F894DEBF0FBECDBFFC01828113
:101F10009381A481B5818DA79EA7AFA7B8AB51E0EF
:101F200058ABCDA4DEA4EFA4F8A8CB8EDC8EED8E4A
:101F3000FE8EFB01C280D380E480F580C9A2DAA2C4
:101F4000EBA2FCA28FA398A7A9A7BAA724EB31E024
:101F50003C8B2B8B4FEF4D8B4E8B4F8B188E3E87D0
:101F60002D875E8F4B8D5C8D6D8D7E8D4F87588B51
:101F7000698B7A8BC986DA86EB86FC863A8329835D
:101F80008B839C83AD83BE836CE271E080E090E044
:101F90000E94B2021FB7F89480914405811127C0B6
:101FA000E8EBF0E08491E4EAF0E09491E82FF0E0CF
:101FB000EE0FFF1FE057FF4FA591B491EC91E9237D
:101FC00021F461E08AE00E94510A61E08AE00E9407
:101FD000810A8CB580618CBD8CB580648CBD61E05C
:101FE0008DE00E94810A61E08BE00E94810A80916D
:101FF00044058F5F809344051FBF229A80E590E0DF
:102000000E94EA0560E880E090E00E94550F65E5D7
:102010008BE190E00E94550F65E58AE190E00E9417
:10202000550F0E94E90580E090E49093DF038093D0
:10203000DE0380E090E69093E7038093E60380E080
:1020400098E49093E1038093E00380E098E6909316
:10205000E9038093E80380E090E59093E3038093A5
:10206000E20380E090E79093EB038093EA0380E043
:1020700098E59093E5038093E40380E098E79093DC
:10208000ED038093EC0380E590E00E94EA0546E0D2
:1020900050E068E071E089E090E00E94260F44E0A3
:1020A00050E0BE016D5F7F4F8FE090E00E94260FF1
:1020B00044E050E0BE01615F7F4F81E090E00E940C
:1020C000260F44E050E0BE016B5E7F4F85E090E05C
:1020D0000E94260F0E94E90589859A85AB85BC85FB
:1020E0008093410490934204A0934304B09344042A
:1020F000E0960FB6F894DEBF0FBECDBFDF91CF9153
:102100001F91FF90EF90DF90CF9008951F93CF9392
:10211000DF93182F66E270E00E94C305C82FD0E05D
:1021200067E270E0812F0E94C305DC2FCC279E015F
:10213000282BC901DF91CF911F9108951F93CF9351
:10214000DF93182F60E270E00E94C305C82FD0E033
:1021500061E270E0812F0E94C305DC2FCC279E0135
:10216000282BC901DF91CF911F910895CF93DF9361
:10217000CDB7DEB7C654D1090FB6F894DEBF0FBE97
:10218000CDBF789484B5826084BD84B5816084BD00
:1021900085B5826085BD85B5816085BD80916E0005
:1021A000816080936E001092810080918100826036
:1021B0008093810080918100816080938100809173
:1021C00080008160809380008091B1008460809362
:1021D000B1008091B00081608093B00080917A005E
:1021E000846080937A0080917A00826080937A0084
:1021F00080917A00816080937A0080917A00806873
:1022000080937A001092C100E0916304F09164041D
:1022100082E08083E0915F04F09160041082E0919D
:102220006104F09162048FEC808310926B04E09162
:102230006704F091680486E08083E0916504F09182
:102240006604808180618083E0916504F09166047A
:10225000808188608083E0916504F09166048081CC
:1022600080688083E0916504F091660480818F7DB1
:1022700080838091040590910505809330039093AD
:1022800031039F938F938CE092E09F938F931F92E3
:1022900085E08F930EE313E01F930F930E94741752
:1022A000F80101900020E9F73197EE53F340F093E5
:1022B0003D03E0933C031F930F9384ED91E09F93C4
:1022C0008F931F92AFE3FA2EFF928E010F5F1F4F85
:1022D0001F930F930E947417C8010E944A0E8091A9
:1022E00030039091310384579F4F90910D01980FC7
:1022F00090930D0190910701890F8093070184EB62
:1023000091E09A838983409100015091010160918D
:102310000201709103014B835C836D837E8323965E
:102320009FAF8EAF23978091040190910501A091FA
:102330000601B091070127968CAF9DAFAEAFBFAF3E
:102340002797B801CE018F5B9F4F0E94770F6BE0FC
:102350007AE189E295E00E94ED056AE07AE18EE09B
:1023600095E00E94ED05809107011F928F93809167
:1023700006011F928F93809105011F928F93809188
:1023800004011F928F9388EE91E09F938F931F9289
:10239000FF921F930F930E947417C8010E944A0E68
:1023A0000FB6F894DEBF0FBECDBFB0EFAB2EB4E0DA
:1023B000BB2E6624639488E4882E212C312C2101C5
:1023C0002394D501ED91FD915D016F01B2E0CB0E3B
:1023D000D11C8081883008F087E0828310928E03C0
:1023E00010928D0310921604109238041092140467
:1023F000609213041092EE0361E082E10E94510AA0
:1024000061E083E10E94510A8091B9008E7F809340
:10241000B9008091B9008D7F8093B9008092B80097
:10242000E5E4E093BC004FEF60E0C6010E94CA0102
:102430004FEF61E0C6010E94CA01E12CF12C7E2C15
:1024400099249394F8E0EF16F1040CF4912C692D83
:10245000C6010E94EC01972D9770B201A10104C042
:10246000440F551F661F771F9A95D2F74095482352
:10247000692DC6010E94CA0140E0672DC6010E9475
:1024800051022FEFE21AF20A30E1E316F104B9F635
:1024900080E0A81685E0B80609F093CF88E99AE3B2
:1024A000A0E0B0E08093470390934803A0934903D2
:1024B000B0934A030E94EC02609343037093440379
:1024C0008093450390934603FAE0CF2ED12CFF244E
:1024D000F394EE24E3946F2D86E00E94510AFE24CB
:1024E0006F2D87E00E94510A62E370E080E090E087
:1024F0000E94B20291E0C91AD10869F760E086E053
:102500000E94510A60E087E00E94510A80913103E5
:102510008F93809130038F9386E092E09F938F9307
:102520001F9280E28F931F930F930E947417C8012C
:102530000E9454040FB6F894DEBF0FBECDBF5CE41A
:10254000252E53E0352E64E3862E63E0962E78E93F
:10255000C72E7AE3D72EE12CF12CEEE14E2E512C32
:10256000612C712C8EE095E00E94BF0C18161906A4
:102570000CF017C1F10128E111922A95E9F748E121
:1025800050E06CE473E08EE095E00E94C10148E108
:1025900050E061E172E08CE493E00E946617892BC1
:1025A00009F042C081E080934B03C0924703D09270
:1025B0004803E0924903F0924A030E94EC026093C0
:1025C000430370934403809345039093460361E073
:1025D00086E00E94510A40920A0550920B056092D3
:1025E0000C0570920D050E94EC0260930605709335
:1025F0000705809308059093090560E087E00E9435
:10260000510A8EE393E09F938F93A6E1B2E0BF93CC
:10261000AF931F9280E28F931F930F930E947417C2
:10262000C8010E945404B8C040913C0350913D033E
:102630006EE373E08CE493E00E946617892B09F047
:10264000B0C09F928F92A6E3B3E0BF93AF93A8E38D
:10265000B3E0BF93AF93AAE3B3E0BF93AF93AEE110
:10266000B2E0BF93AF933F922F920E94A417909332
:102670003303809332030FB6F894DEBF0FBECDBF95
:10268000049709F08EC020913A0330913B0380916A
:102690003003909131032817390709F082C0C092A6
:1026A0004703D0924803E0924903F0924A030E9404
:1026B000EC0260934303709344038093450390932B
:1026C000460361E086E00E94510A40920A0550925A
:1026D0000B0560920C0570920D050E94EC02609350
:1026E000060570930705809308059093090560E03F
:1026F00087E00E94510A2091360330913703215020
:1027000031093093370320933603E0913803F09179
:102710003903EE0FFF1FE051FB4F80819181409103
:1027200034035091350320313105A0F4452B41F09D
:10273000DC0113964D915C9114974F5F5F4F02C07F
:1027400040E050E0F9013196EE0FFF1FE80FF91F4E
:10275000548343830E949302809135038F93809129
:1027600034038F93809137038F93809136038F9337
:10277000809139038F93809138038F93AEE2B2E05A
:10278000BF93AF931F928FE38F931F930F930E947A
:102790007417C8010E944A0E0FB6F894DEBF0FBE30
:1027A000CDBF0E94EC02209143033091440340913D
:1027B000450350914603DC01CB01821B930BA40B14
:1027C000B50B209147033091480340914903509144
:1027D0004A0382179307A407B50708F459C00E945B
:1027E000EC026093430370934403809345039093FA
:1027F000460384E492E00E944A0E10924B0380EF5D
:10280000A82E84E0B82ED5018D919D915D01FC012B
:1028100035969C012B5D3F4F11921192E217F30701
:10282000D9F70E949302B0E0AB16B5E0BB0659F7AA
:10283000C0924703D0924803E0924903F0924A03C2
:102840000E94EC026093430370934403809345031A
:102850009093460361E087E00E94510A80912E0325
:1028600090912F039C012F5F3F4F30932F032093B4
:102870002E030B976CF086E792E00E944A0E68E800
:1028800073E180E090E00E94B202E0E0F0E00995A0
:102890000E94EC0220910605309107054091080541
:1028A00050910905DC01CB01821B930BA40BB50BE6
:1028B00020910A0530910B0540910C0550910D05B2
:1028C00082179307A407B50770F00E94EC0260938B
:1028D000060570930705809308059093090560E04D
:1028E00086E00E94510A0E94B7013CCECF92DF924F
:1028F000EF92FF9284EB91E090933A048093390435
:1029000010923B0410923C0410923D0410923E043D
:1029100090934805809347051092490510924A0507
:1029200010924B0510924C0590934E0580934D05E7
:1029300010924F05109250051092510510925205B9
:1029400090935405809353051092550510925605A7
:1029500010925705109258059093400480933F04BD
:1029600010924104109242041092430410924404C5
:1029700010924A041092490448EE53E060E070E07F
:1029800040934B0450934C0460934D0470934E0459
:1029900022E231E0309348042093470490935A0593
:1029A0008093590510925B0510925C0510925D05AD
:1029B00010925E05109256041092550440935704ED
:1029C000509358046093590470935A0424E331E0FF
:1029D000309354042093530425EC30E0309360048A
:1029E00020935F0424EC30E0309362042093610470
:1029F00020EC30E0309364042093630421EC30E059
:102A0000309366042093650422EC30E03093680430
:102A10002093670426EC30E030936A042093690425
:102A200010926C0410926D0410926E0410926F0458
:102A30009093600580935F05109261051092620586
:102A4000109263051092640510920505109204051A
:102A500062E085E00E94810A62E083E00E94810AD0
:102A600062E082E00E94810A85E00E94280A892BA8
:102A700049F48091040590910505816090930505C6
:102A80008093040583E00E94280A892B49F48091F1
:102A900004059091050582609093050580930405D7
:102AA00082E00E94280A892B49F4809104059091C4
:102AB00005058460909305058093040561E086E038
:102AC0000E94810A60E086E00E94510A61E087E08E
:102AD0000E94810A60E087E00E94510A87E290E04C
:102AE0000E9434167C0160E070E00E949A03F0922C
:102AF000F104E092F00487E290E00E9434167C0139
:102B000061E070E00E949A03F092F304E092F20414
:102B100087E290E00E9434167C0162E070E00E943F
:102B20009A03F092F504E092F40487E290E00E94A8
:102B300034167C0163E070E00E949A03F092F7047F
:102B4000E092F60487E290E00E9434167C0164E093
:102B500070E00E949A03F092F904E092F80487E290
:102B600090E00E9434167C0165E070E00E949A03B8
:102B7000F092FB04E092FA0487E290E00E9434169F
:102B80007C0166E070E00E949A03F092FD04E092FE
:102B9000FC0487E290E00E9434167C0167E070E05C
:102BA0000E949A03F092FF04E092FE0484EB91E00D
:102BB00090936605809365051092670510926805ED
:102BC0001092690510926A0510922C0510922B053F
:102BD00028EEC22E23E0D22EE12CF12CC0922D053E
:102BE000D0922E05E0922F05F09230054CE851E08E
:102BF00050932A0540932905909338058093370513
:102C00001092390510923A0510923B0510923C053E
:102C100024E0209341051092110510921005C092F6
:102C20001205D0921305E0921405F0921505509309
:102C30000F0540930E0590931D0580931C0510927F
:102C40001E0510921F051092200510922105209359
:102C50002605FF90EF90DF90CF900895EE0FFF1FB5
:102C60000590F491E02D0994CF93DF938230910584
:102C700010F482E090E0E0916D05F0916E0520E0A7
:102C800030E0C0E0D0E0309711F140815181481729
:102C90005907C0F04817590761F482819381209742
:102CA00019F09B838A832BC090936E0580936D05EA
:102CB00026C02115310519F04217530718F49A015F
:102CC000BE01DF01EF010280F381E02DDCCF211591
:102CD000310509F1281B390B2430310590F4129687
:102CE0008D919C9113976115710521F0FB019383E0
:102CF000828304C090936E0580936D05FD0132962A
:102D000044C0FD01E20FF31F8193919322503109DA
:102D10002D933C933AC020916B0530916C05232B89
:102D200041F4209110013091110130936C052093F2
:102D30006B0520910E0130910F012115310541F4F1
:102D40002DB73EB74091120150911301241B350B52
:102D5000E0916B05F0916C05E217F307A0F42E1BD0
:102D60003F0B2817390778F0AC014E5F5F4F2417EF
:102D7000350748F04E0F5F1F50936C0540936B056D
:102D80008193919302C0E0E0F0E0CF01DF91CF9119
:102D900008950F931F93CF93DF93009709F48CC08E
:102DA000FC0132971382128200916D0510916E051D
:102DB0000115110581F420813181820F931F20912B
:102DC0006B0530916C052817390779F5F0936C0580
:102DD000E0936B0571C0D80140E050E0AE17BF072B
:102DE00050F412962D913C911397AD0121153105A8
:102DF00009F1D901F3CF9D01DA0133832283608188
:102E00007181860F971F8217930769F4EC0128815F
:102E10003981260F371F2E5F3F4F318320838A81F0
:102E20009B8193838283452B29F4F0936E05E09375
:102E30006D0542C01396FC93EE931297ED014991F4
:102E400059919E01240F351FE217F30771F4808119
:102E50009181840F951F029611969C938E93828187
:102E6000938113969C938E931297E0E0F0E0D80143
:102E700012968D919C911397009719F0F8018C018F
:102E8000F6CF8D919C9198012E5F3F4F820F931F3B
:102E900020916B0530916C052817390769F430973C
:102EA00029F410926E0510926D0502C013821282F1
:102EB00010936C0500936B05DF91CF911F910F91DB
:102EC000089581E090E0F8940C94B01DFB01DC01C2
:102ED0004150504030F08D910190801919F400203C
:102EE000B9F7881B990B0895AEE0B0E0EAE7F7E187
:102EF0000C94871D0D891E898F89988D26E02C835F
:102F00001A83098397FF02C080E090E801979E83AF
:102F10008D83AE01455E5F4F698D7A8DCE0101963E
:102F20000E94BD174D815E8157FD0AC02F813885F3
:102F3000421753070CF49A01F801E20FF31F1082B5
:102F40002E96E4E00C94A31DAEE0B0E0EAEAF7E1CF
:102F50000C94891D85E08C838B899C899A83898355
:102F6000AE01495E5F4F6D897E89CE0101960E9458
:102F70000F1B2E96E2E00C94A51DACE0B0E0E3EC54
:102F8000F7E10C94791D7C016B018A01FC01178229
:102F90001682838181FFBDC1CE0101964C01F701EC
:102FA0009381F60193FD859193FF81916F018823B1
:102FB00009F4ABC1853239F493FD859193FF81917A
:102FC0006F01853229F4B70190E00E94A51CE7CF7C
:102FD000512C312C20E02032A0F48B3269F030F4F7
:102FE000803259F0833269F420612CC08D3239F07F
:102FF000803339F4216026C02260246023C0286019
:1030000021C027FD27C030ED380F3A3078F426FF75
:1030100006C0FAE05F9E300D1124532E13C08AE0E3
:10302000389E300D1124332E20620CC08E3221F4D4
:1030300026FD6BC1206406C08C3611F4206802C0E6
:10304000883641F4F60193FD859193FF81916F01DC
:103050008111C1CF982F9F7D9554933028F40C5F38
:103060001F4FFFE3F9830DC0833631F0833771F0D2
:10307000833509F05BC022C0F801808189830E5F2F
:103080001F4F44244394512C540115C03801F2E0E1
:103090006F0E711CF801A080B18026FF03C0652D62
:1030A00070E002C06FEF7FEFC5012C870E945C1CAF
:1030B0002C0183012C852F77222E17C03801F2E0D6
:1030C0006F0E711CF801A080B18026FF03C0652D32
:1030D00070E002C06FEF7FEFC5012C870E94511C8A
:1030E0002C012C852068222E830123FC1BC0832DFC
:1030F00090E048165906B0F4B70180E290E00E94D3
:10310000A51C3A94F4CFF50127FC859127FE819107
:103110005F01B70190E00E94A51C31103A94F1E0E4
:103120004F1A51084114510471F7E5C0843611F06B
:10313000893639F5F80127FF07C0608171818281E6
:1031400093810C5F1F4F08C060817181072E000CB6
:10315000880B990B0E5F1F4F2F76722E97FF09C0B9
:1031600090958095709561957F4F8F4F9F4F206808
:10317000722E2AE030E0A4010E94F61CA82EA818A6
:1031800044C0853729F42F7EB22E2AE030E025C0D6
:10319000F22FF97FBF2E8F36C1F018F4883579F001
:1031A000B4C0803719F0883721F0AFC02F2F2061CD
:1031B000B22EB4FE0DC08B2D8460B82E09C024FF42
:1031C0000AC09F2F9660B92E06C028E030E005C0E7
:1031D00020E130E002C020E132E0F801B7FE07C094
:1031E00060817181828193810C5F1F4F06C0608175
:1031F000718180E090E00E5F1F4FA4010E94F61CD9
:10320000A82EA818FB2DFF777F2E76FE0BC0372D3A
:103210003E7FA51450F474FE0AC072FC08C0372D1E
:103220003E7E05C0BA2C372D03C0BA2C01C0B52C88
:1032300034FF0DC0FE01EA0DF11D8081803311F4D1
:10324000397E09C032FF06C0B394B39404C0832F03
:10325000867809F0B39433FD13C030FF06C05A2CB2
:10326000B31418F4530C5B18B32CB31468F4B701FF
:1032700080E290E03C870E94A51CB3943C85F5CF8A
:10328000B31410F43B1801C0312C34FF12C0B70145
:1032900080E390E03C870E94A51C3C8532FF17C06C
:1032A00031FD03C088E790E002C088E590E0B701F7
:1032B0000CC0832F867859F031FF02C08BE201C029
:1032C00080E237FD8DE2B70190E00E94A51CA514B5
:1032D00038F4B70180E390E00E94A51C5A94F7CF20
:1032E000AA94F401EA0DF11D8081B70190E00E94DB
:1032F000A51CA110F5CF332009F451CEB70180E20F
:1033000090E00E94A51C3A94F6CFF7018681978140
:1033100002C08FEF9FEF2C96E2E10C94951D20FDEB
:1033200009C0FC0123FD05C022FF02C07383628334
:1033300051834083089544FD10C046FD10C0DB0159
:10334000FC01AA0FBB1FEE1FFF1F1094D1F76A0FDD
:103350007B1F8E1F9F1F31E003C033E001C034E0AC
:10336000660F771F881F991F3150D1F7620F711DAB
:10337000811D911D08950F931F93CF93DF938C01AF
:10338000C8010E94671CEC0197FD08C00E943D1C0B
:10339000892BB1F7B801CE010E94DD1CCE01DF916F
:1033A000CF911F910F910895A1E0B0E0EAEDF9E10E
:1033B0000C947F1D8C01C62E7A0129830E94671C04
:1033C000AC01552729814B32510521F04D32510571
:1033D00069F42068CA94C11002C080E076C0C801B8
:1033E00029830E94671C298197FDF7CF322F3D7FEB
:1033F000D32E322F307349F5803339F5BB24BA947C
:10340000BC0C09F44EC0C80129830E94671C2981A5
:1034100097FD47C0382F3F7D383569F48D2D826484
:10342000D82ECA94CA94CC20E1F1C8010E94671C2E
:1034300097FF0BC036C026FF04C02D2D2260D22E70
:1034400003C03D2D3261D32ECB2C812C912C540105
:1034500020ED280F283080F0D4FE04C0B8010E946F
:10346000DD1C1CC02A3040F0D6FEF8CF2F7D3FEE89
:10347000320F363098F727504D2DC501B4010E9408
:103480009B194B015C018D2D8260D82ECA94CC20F3
:1034900059F0C8010E94671C97FFDACFD1FC04C025
:1034A0009CCF812C912C5401D7FE08C0B094A094DD
:1034B00090948094811C911CA11CB11C2D2DB501F0
:1034C000A401C7010E948F1981E02196ECE00C94C1
:1034D0009B1DA1E2B0E0EFE6FAE10C947D1D5C01DA
:1034E0007A01CE0101966C0180E2F60111928A9573
:1034F000E9F7F501838040E050E0912C712C70E0F9
:10350000A1E0B0E0F90183FC859183FE81918F01F8
:10351000982F9F01811103C080E090E07CC08E3520
:1035200019F44115510549F1E72FF0E0E417F507CB
:103530003CF48D3559F18D3219F4772001F103C037
:10354000711001C0982E892F8695869586958601E3
:10355000080F111D892F87703D0101C0660C8A95E7
:10356000EAF7F801808186298083991559F0991529
:1035700010F49F5FE8CF9150E6CF71E004C077244C
:10358000739401C0712C4F5F5F4FBCCF772019F04F
:103590008E8180628E83711103C09924939416C02A
:1035A000F6019E012F5D3F4F808180958193E21748
:1035B000F307D1F7F2CFE114F10429F0F70180838A
:1035C000C70101967C016150912CF9F0C50169A3F6
:1035D0000E94671C69A197FD16C0282F2695269585
:1035E0002695F601E20FF11D208130E0AC01477015
:1035F000552702C0359527954A95E2F720FDDBCF88
:10360000B5010E94DD1C911087CFE114F10411F087
:10361000F7011082C801A196EEE00C94991D4F921B
:103620005F927F928F929F92AF92BF92CF92DF92E2
:10363000EF92FF920F931F93CF93DF931F92CDB71B
:10364000DEB76C012B015A01FC0117821682712C26
:10365000F601F380F201F3FC8591F3FE8191382F9E
:103660002F01882309F4F3C090E039830E943D1CA8
:103670003981892B21F0C6010E94BB19E9CF35326F
:1036800041F4F201F3FC3591F3FE31912F01353213
:1036900069F4C60139830E94671C398197FDD5C042
:1036A0003817B1F2B6010E94DD1CD1C03A3239F4AC
:1036B000F3FC3591F3FE31912F0151E001C050E050
:1036C000420110E020ED230F2A3090F45260612F68
:1036D00070E080E090E040E259830E949B19162F31
:1036E000F401F3FC3591F3FE31914F015981EACF9A
:1036F000052F232F240151FF03C0111102C0A7C0C1
:103700001FEF383619F03C3659F011C0F401F3FCC4
:103710002591F3FE21912F01283649F4052F0860E9
:103720000460F201F3FC2591F3FE21912F01222385
:1037300009F48DC0622F70E082EC90E029830E9432
:10374000461C2981892B09F482C000FD07C0F501C0
:10375000E080F180C50102965C0102C0E12CF12CF1
:103760002E3651F4F6014681578160E070E0202F3B
:10377000C7010E948F196CCF233691F401FF11E02D
:10378000C6010E94671C97FD60C0E114F10429F096
:10379000F7018083C70101967C01115089F751C060
:1037A0002B3559F49201A701612FC6010E94691AB5
:1037B0002C01892B09F045C03FC0C60129830E9416
:1037C000BB19298197FD41C02F3659F128F42436C1
:1037D00031F1293649F127C0233769F02537F9F04F
:1037E00022C0E114F10429F0F7018082C70101969B
:1037F0007C01115071F0C6010E94671C4C0197FDBD
:1038000008C00E943D1C892B61F3B601C4010E94CF
:10381000DD1CE114F104A9F0F701108212C000626E
:1038200003C0006101C00064202FA701612FC60101
:103830000E94D419811105C0F6018381807329F497
:1038400006C000FD05CF739403CF772019F0872DB4
:1038500090E002C08FEF9FEF0F90DF91CF911F910B
:103860000F91FF90EF90DF90CF90BF90AF909F901F
:103870008F907F905F904F90089591110C94541DFC
:10388000803219F089508550C8F70895FC010590E1
:10389000061621F00020D9F7C00108953197CF0115
:1038A0000895FC010590615070400110D8F7809593
:1038B00090958E0F9F1F0895FC01615070400190FC
:1038C0000110D8F7809590958E0F9F1F0895CF9384
:1038D000DF93EC012B8120FF33C026FF0AC02F7B32
:1038E0002B838E819F8101969F838E838A8190E0B6
:1038F00029C022FF0FC0E881F9818081082E000CC9
:10390000990B009719F420622B831AC03196F98322
:10391000E8830EC0EA85FB85099597FF09C02B81D6
:10392000019611F080E201C080E1822B8B8308C0F8
:103930002E813F812F5F3F4F3F832E83992702C007
:103940008FEF9FEFDF91CF9108950F931F93CF9348
:10395000DF93FB01238121FD03C08FEF9FEF28C080
:1039600022FF16C0468157812481358142175307B3
:1039700044F4A081B1819D012F5F3F4F31832083AB
:103980008C93268137812F5F3F4F3783268310C06A
:10399000EB01092F182F0084F185E02D0995892B63
:1039A000E1F68E819F8101969F838E83812F902FD8
:1039B000DF91CF911F910F910895FB01238120FF8B
:1039C00012C026FD10C08F3F3FEF930761F0828346
:1039D0002F7D20642383268137812150310937834D
:1039E0002683992708958FEF9FEF0895FA01AA275C
:1039F000283051F1203181F1E8946F936E7F6E5F32
:103A00007F4F8F4F9F4FAF4FB1E03ED0B4E03CD0DF
:103A1000670F781F891F9A1FA11D680F791F8A1FC2
:103A2000911DA11D6A0F711D811D911DA11D20D029
:103A300009F468943F912AE0269F11243019305DE3
:103A40003193DEF6CF010895462F4770405D4193D4
:103A5000B3E00FD0C9F7F6CF462F4F70405D4A3321
:103A600018F0495D31FD4052419302D0A9F7EACFE9
:103A7000B4E0A6959795879577956795BA95C9F718
:103A800000976105710508959B01AC010A2E06940B
:103A90005795479537952795BA95C9F7620F731FC4
:103AA000841F951FA01D0895992788270895A1E2D6
:103AB0001A2EAA1BBB1BFD010DC0AA1FBB1FEE1FA8
:103AC000FF1FA217B307E407F50720F0A21BB30BF3
:103AD000E40BF50B661F771F881F991F1A9469F76F
:103AE00060957095809590959B01AC01BD01CF01CB
:103AF00008952F923F924F925F926F927F928F9292
:103B00009F92AF92BF92CF92DF92EF92FF920F936C
:103B10001F93CF93DF93CDB7DEB7CA1BDB0B0FB676
:103B2000F894DEBF0FBECDBF09942A883988488833
:103B30005F846E847D848C849B84AA84B984C884C9
:103B4000DF80EE80FD800C811B81AA81B981CE0FC0
:103B5000D11D0FB6F894DEBF0FBECDBFED010895A5
:043B6000F894FFCF07
:103B6400FFFFFF00C0A86300DEADBEAAFE01000097
:103B74006F0580000100000001005E0000000000ED
:103B840000004C051C05E300F00414050005F104D5
:103B9400000000004E01B700E60095011701F50092
:103BA400090100000000C801C801E300C801C80100
:103BB400C801C801C801BC04C801C801C801C801C2
:103BC400C801C801C801C801C80100000000C8013B
:103BD400B700E300E200C801C801C801000000000A
:103BE400C801B700E300E20000000000BE0A350D82
:103BF400E300BD0AA404630B8C0BED053F0CA40584
:103C0400FB0B1F06C30BBF0C440BC101AC04A8047F
:103C1400000000000A0400000000C8013235352EFF
:103C24003235352E3235352E3235350053656E74C6
:103C3400202573004D617374657220626F61726434
:103C44002069643A2025730041737369676E656463
:103C540020616464726573733A2025642E25642E92
:103C640025642E25640068656C6C6F206F6D256477
:103C74000070696E6700257320706F6E67006F6D4A
:103C84002564206225642072256420256400526521
:103C94006C61792025642F25642073657420746F0A
:103CA400202564004E6F2070696E67202D20636F9D
:103CB4006E6E656374696F6E206C6F73743F20540D
:103CC40075726E696E672065766572797468696E5F
:103CD40067206F6666004E6F2070696E6720666F9E
:103CE400722061206C6F6E672074696D652C20747E
:103CF4007279696E6720746F2072657365742074BD
:0E3D0400686520646576696365000D0A00003D
:00000001FF
