:100000000C9462000C948A000C948A000C948A0070
:100010000C948A000C948A000C948A000C948A0038
:100020000C948A000C948A000C948A000C948A0028
:100030000C948A000C948A000C948A000C948A0018
:100040000C942F100C948A000C94540B0C942E0BCF
:100050000C948A000C948A000C948A000C948A00F8
:100060000C9426080C948A0000000000250028004B
:100070002B000000000023002600290000000008DB
:10008000000201000003040700000000000000005F
:1000900000000000240027002A00010204081020AC
:1000A000408001020408102001020408102004040A
:1000B0000404040404040202020202020303030310
:1000C0000303251411241FBECFEFD8E0DEBFCDBF40
:1000D00011E0A0E0B1E0E0ECF3E302C005900D9286
:1000E000A43EB107D9F724E0A4EEB1E001C01D920F
:1000F000A236B207E1F710E0C2E6D0E004C02197D3
:10010000FE010E94E315C136D107C9F70E9479109C
:100110000C94DE190C9400000895CF93DF931F9286
:10012000CDB7DEB76983DC01ED91FC910280F381EC
:10013000E02D41E050E0BE016F5F7F4F09950F90C9
:10014000DF91CF910895FC01818D928D0895FC017E
:1001500084899589089520EB31E0FC013183208367
:10016000FB014089518962897389FC014283538371
:10017000648375830895DC01ED91FC91048CF58D09
:10018000E02D099480E0089585ED8093BC00809176
:10019000BC0084FDFCCF109223030895409104021B
:1001A000262F30E0240F311D21323105DCF420915F
:1001B00023032430C9F4FC0180E090E0861758F452
:1001C000309104022191DC01AC51BE4FA30FB11D4F
:1001D0002C930196F3CF80910402680F6093040280
:1001E00080E0089581E0089582E0089508950895DB
:1001F000E091FC028091FB02E81730F4F0E0E95254
:10020000FD4F808190E008958FEF9FEF08959091CA
:10021000FC028091FB02981750F4E92FF0E0E952BC
:10022000FD4F208130E09F5F9093FC0202C02FEFD2
:100230003FEFC90108958091FB0290E02091FC02FC
:10024000821B91090895CF92DF92EF92FF920F9354
:100250001F93CF93DF937C01CB018A01209124036C
:10026000222389F0EB016B01C40ED51ECC15DD05F0
:1002700069F06991D701ED91FC910190F081E02D39
:10028000C7010995F3CF642F0E94CE00C801DF910A
:10029000CF911F910F91FF90EF90DF90CF90089535
:1002A000CF93DF931F92CDB7DEB7698320912403EC
:1002B0002223D1F020914703203240F021E030E0AA
:1002C000FC013383228380E090E015C080912503F8
:1002D000E82FF0E0EA5DFC4F998190838F5F809377
:1002E00025038093470305C061E0CE0101960E947B
:1002F000CE0081E090E00F90DF91CF9108950895B6
:1003000080E090E008958EBD00000DB407FEFDCFA3
:100310008EB508959B0190E00496982F8827642F4E
:10032000820F931F0C94E90BCF93DF9390E0049618
:10033000982F8827EC01C60FD71F0E94880B8FE0EB
:100340000E9483018D2F0E9483018C2F0E948301C4
:1003500080E00E948301C82F0E94860B8C2FDF91C2
:10036000CF910895BF92CF92DF92EF92FF920F93B9
:100370001F93CF93DF9300D000D000D0CDB7DEB76E
:10038000FC01208D243009F05CC06A017B018C01E6
:10039000B12C63E070E08B2D0E949401811103C0A9
:1003A000F801B08E06C08831D9F3B394F4E0BF12DF
:1003B000F0CFF801808D843009F443C096E0E4E189
:1003C000F1E0DE01119601900D929A95E1F7F701A7
:1003D00093819F779C8394819D8395819E83B701B0
:1003E0006E5F7F4F90E0982F882744E050E0845F55
:1003F0009B4F0E94BA0BF801F08C4D2D60E170E02C
:100400008F2D0E948A014C2D61E170E08F2D0E949A
:100410008A01F801808D90E0982F882746E050E00F
:10042000BE016F5F7F4F8A5F9B4F0E94BA0BF8013E
:10043000128E118E40E8B601808D0E948F0D81E0F2
:1004400001C080E026960FB6F894DEBF0FBECDBF88
:10045000DF91CF911F910F91FF90EF90DF90CF90A0
:10046000BF90089508958CBD9DBD08958F929F9271
:10047000BF92CF92DF92EF92FF920F931F93CF9391
:10048000DF9300D0CDB7DEB7B82E6B017A01CE0175
:1004900001960E942C0D89819A810E943302812C41
:1004A000912C8B2D0E94040C8C01892B21F08B2D1B
:1004B0000E94040C4C010815190599F70115110546
:1004C00099F463E070E08B2D0E9494018431D9F19E
:1004D0008823C9F101E010E08C3111F400E010E054
:1004E0001195019511092FC0E016F1060CF4870152
:1004F0001016110644F568E270E08B2D0E949401FD
:10050000E82EF12C69E270E08B2D0E949401FE2C04
:10051000EE24E82A9801A601B7018B2D0E94D70D81
:10052000E00EF11E4F2D68E270E08B2D0E948A01D3
:100530004E2D69E270E08B2D0E948A0160E470E02C
:100540008B2D0E94310DC8010F900F90DF91CF913C
:100550001F910F91FF90EF90DF90CF90BF909F90F1
:100560008F900895CF93DF93FC01218D328D21155B
:10057000310519F48FEF9FEF11C0EC0142175307BB
:1005800008F0A901888D0E9436021816190694F702
:10059000298D3A8D281B390B3A8F298FDF91CF9106
:1005A00008950F931F93CF93DF931F92CDB7DEB7BC
:1005B000FC01218D328D232B61F08C0141E050E054
:1005C000BE016F5F7F4F808D0E943602181619069C
:1005D0001CF08FEF9FEF08C0F801818D928D01977D
:1005E000928F818F898190E00F90DF91CF911F9141
:1005F0000F9108951F93CF93DF9300D0CDB7DEB74F
:10060000182FCE0101960E942C0D89819A810E949B
:10061000330260E170E0812F0E94310D4FEF62E004
:1006200070E0812F0E948A010F900F90DF91CF918F
:100630001F910895CF93DF93FC01808D843029F0C2
:10064000EF010E94FA0284E0888FDF91CF91089534
:10065000FF920F931F93CF93DF9300D0CDB7DEB7F8
:10066000FC01218D328D232B19F1F08CCE010196E6
:100670000E942C0D89819A810E94330268E270E009
:100680008F2D0E949401082F10E069E270E08F2DF9
:100690000E949401702F6627682B21E030E0AE01A4
:1006A0004F5F5F4F8F2D0E94D70D898190E002C070
:1006B0008FEF9FEF0F900F90DF91CF911F910F91D0
:1006C000FF900895BF92CF92DF92EF92FF920F9327
:1006D0001F93CF93DF93CDB7DEB728970FB6F8946B
:1006E000DEBF0FBECDBF8C01D80159968D919C9174
:1006F0005A97892B41F0ED91FC910284F385E02D0E
:10070000C8010995F1CFF801B08CCE0101960E9485
:100710002C0D89819A810E943302C12CD12C8B2D02
:100720000E94040C7C01892B21F08B2D0E94040C6B
:100730006C01EC14FD0499F71E141F0454F548E0F5
:1007400050E0BE016F5F7F4FD80158968C910E9498
:10075000360218161906FCF4D801509684E0FE0102
:10076000319601900D928A95E1F78D8190E0982F56
:1007700088272E81820F911DF801958B848B8F81A4
:1007800090E0982F88272885820F911D928F818F66
:1007900002C080E090E028960FB6F894DEBF0FBE4E
:1007A000CDBFDF91CF911F910F91FF90EF90DF9020
:1007B000CF90BF9008955F926F927F928F929F9299
:1007C000AF92BF92CF92DF92EF92FF920F931F935F
:1007D000CF93DF9300D0CDB7DEB77C016B018A01E8
:1007E000FC0166887788508CCE0101960E942C0D02
:1007F00089819A810E943302812C912C852D0E943F
:100800001C0C5C01892B21F0852D0E941C0C4C01D5
:10081000A814B90499F7A016B10678F400E010E026
:10082000852D0E941C0C5C01892B21F0852D0E94D6
:100830001C0C8C01A016B10699F764E270E0852DBE
:100840000E949401A82EB12C65E270E0852D0E94D3
:100850009401BA2CAA24A82A6A0C7B1C9301377035
:10086000852C912CC401880F991FAC014A535D4F10
:100870004A01FA0180819181820F931FA801420FE2
:10088000531F4130584098F060E078E05B01A21AB5
:10089000B30AA501B6010E94BA0BA8014A195B0967
:1008A000B6016A0D7B1DF4018081918102C0A8010F
:1008B000B6010E94BA0B600E711E472D64E270E013
:1008C000852D0E948A01462D65E270E0852D0E94EB
:1008D0008A01F70186899789800F911F978B868BF4
:1008E000C8010F900F90DF91CF911F910F91FF9052
:1008F000EF90DF90CF90BF90AF909F908F907F90C0
:100900006F905F9008951F93CF93DF9300D0CDB782
:10091000DEB7FC01108DCE0101960E942C0D89815D
:100920009A810E94330260E270E0812F0E94310DB3
:1009300062E070E0812F0E94940184FD19C062E0A2
:1009400070E0812F0E94940183FF09C048E162E0BA
:1009500070E0812F0E948A0180E090E011C0CE01FA
:1009600001960E942C0D89819A810E943302E0CF6A
:1009700040E162E070E0812F0E948A0181E090E016
:100980000F900F90DF91CF911F910895DF92EF921A
:10099000FF920F931F93CF93DF9300D0CDB7DEB7B5
:1009A000FB01DC0157961C921E9256972281211161
:1009B00009C02381211106C02481211103C0258192
:1009C000222359F14115510541F17A018F01FC01B2
:1009D000D08CCE0101960E942C0D89819A810E94B3
:1009E0003302B8016E5F7F4F8D2D90E0982F8827DE
:1009F00044E050E0845F9B4F0E94BA0B4F2D60E1B2
:100A000070E08D2D0E948A014E2D61E170E08D2DE8
:100A10000E948A0181E090E002C080E090E00F90A7
:100A20000F90DF91CF911F910F91FF90EF90DF908A
:100A30000895CF92DF92FF920F931F93CF93DF938E
:100A400000D0CDB7DEB7FC01208D243011F080E05E
:100A500028C06B018C01F12CCE0101960E942C0D57
:100A600089819A810E94330263E070E08F2D0E9499
:100A70009401811103C0F801F08E06C08831D9F3CA
:100A8000F394F4E0FF12E8CFF801808D8430F9F29E
:100A9000D586C486128E118E40E0B6010E948F0D5D
:100AA00081E00F900F90DF91CF911F910F91FF90F8
:100AB000DF90CF9008956F927F928F929F92AF9226
:100AC000BF92CF92DF92EF92FF920F931F93CF933B
:100AD000DF93CDB7DEB7EC970FB6F894DEBF0FBE4D
:100AE000CDBF4C017B013A0180EB91E09A83898371
:100AF0001C861B8648EE53E060E070E04D875E8701
:100B00006F87788B28E831E03A872987988F8F8B19
:100B1000198E1A8E1B8E1C8E24E029A399AB88ABEC
:100B20001AAA1BAA1CAA1DAA8091ED039091EE039C
:100B3000A091EF03B091F0038EA39FA3A8A7B9A73C
:100B40008B839C83AD83BE8318861F82F70120E0D0
:100B500080E090E06AE03191332319F140ED430FDA
:100B60004A3080F4689FA001699F500D1124CA018A
:100B7000C097830F911D37FD9A958F3F910559F3CB
:100B800050F32BC03E3249F5233039F1A2E3B0E0F7
:100B9000AC0FBD1FA20FB11D8C932F5F80E090E0C2
:100BA000DACF2330D1F48DABD401ED91FC910488E0
:100BB000F589E02D80EB91E09DA38CA38AA99BA9E8
:100BC000ACA9BDA98EA39FA3A8A7B9A7A301BE01E5
:100BD0006C5D7F4FC401099524C24B815C816D819E
:100BE0007E818091E7039091E803A091E903B091A1
:100BF000EA03481759076A077B0709F410C20E94E5
:100C000023106F7077277C5FCE0109960E9419052B
:100C1000813009F001C280EB91E09DA38CA38B8110
:100C20009C81AD81BE818EA39FA3A8A7B9A745E3F0
:100C300050E0BE016C5D7F4FCE0109960E94C60454
:100C4000892B19F400E010E072C10E94231078870C
:100C50006F837627672776277DA36CA342E050E059
:100C6000BE016C5D7F4FCE0109960E94DB0381E0DF
:100C700090E09FAB8EAB42E050E0BE016A5C7F4FDC
:100C8000CE0109960E94DB0380E091E09FAB8EAB22
:100C900042E050E0BE016A5C7F4FCE0109960E949F
:100CA000DB031FAA1EAA42E050E0BE016A5C7F4F30
:100CB000CE0109960E94DB0342E050E0BE016A5C6F
:100CC0007F4FCE0109960E94DB0342E050E0BE0157
:100CD0006A5C7F4FCE0109960E94DB036701D70152
:100CE0008C91882311F186017801F70181915F01D0
:100CF000882321F08E3211F08501F6CF0C191D09E1
:100D00001016110684F408AF41E050E0BE01685CA3
:100D10007F4FCE0109960E94DB03A801B601CE01E8
:100D200009960E94DB036501DACF18AE41E050E07E
:100D3000BE01685C7F4FCE0109960E94DB0300E094
:100D400011E01FAB0EAB42E050E0BE016A5C7F4F8A
:100D5000CE0109960E94DB031FAB0EAB42E050E0D0
:100D6000BE016A5C7F4FCE0109960E94DB03CE0173
:100D700009960E948304892B09F464CF83E0E82E4E
:100D8000F12C0E9423105B016C01CE0109960E9498
:100D9000620318161906A4F00E942310DC01CB018F
:100DA0008A199B09AC09BD0989389341A105B10590
:100DB000C8F462E370E080E090E00E94D20EE5CFDC
:100DC0004B815C816D817E81898D9A8DAB8DBC8DCF
:100DD000481759076A077B0741F48D8D9E8DC5978B
:100DE00021F406C00FEF1FEF99C00EEF1FEF96C062
:100DF0008AA19BA10C970CF4A7C04CE050E0BE0167
:100E00006C5D7F4FCE0109960E94B2028EA19FA118
:100E10009827892798279BAF8AAF2CA13DA132271D
:100E2000232732274F8158852417350709F089C0B9
:100E300097FF87C08F709270892B09F0EAC0AAA42F
:100E4000BBA4BA24AB24BA24A114B10409F4DEC0B3
:100E500000E010E088A599A598278927982708170A
:100E6000190708F474C0C12CD12C41E050E0BE0138
:100E7000645C7F4FCE0109960E94B2028CAD982F20
:100E8000907C09F09CC081118FC042E050E0BE010F
:100E9000685C7F4FCE0109960E94B20242E050E0AA
:100EA000BE016A5C7F4FCE0109960E94B202CE015C
:100EB00009960E94D102CE0109960E94D102CE016C
:100EC00009960E94D102CE0109960E94D10242E009
:100ED00050E0BE01665C7F4FCE0109960E94B202CF
:100EE00088AD99AD8115914009F072C00EA91FA976
:100EF0001027012710270130110509F069C08AADBC
:100F00009BAD8115944009F07EC044E050E0BE01E5
:100F10006E5C7F4FCE0109960E94B202F1E0EF1A9B
:100F2000F10829F00F3FFFEF1F0709F42ACFCE0188
:100F300009960E941A030130110509F435CEC80143
:100F400070C00CEF1FEFEACF0DEF1FEFE7CF41E0CE
:100F500050E0BE016A5C7F4FCE0109960E94B2024A
:100F60008EA9882359F08EA99FEF980F9EAB8823F6
:100F700029F0CE0109960E94D102F5CF8EA98111E8
:100F8000E6CFCE0109960E94D102CE0109960E94B9
:100F9000D102CE0109960E94D102CE0109960E948B
:100FA000D1020F5F1F4F56CF8CAD9FEF980F9CAFB4
:100FB000882351F0CE0109960E94D102F5CFCE01CF
:100FC00009960E94D1021CAE8CAD81114ECF5DCF2F
:100FD00000E010E08AAD9BAD982789279827081775
:100FE000190738F4CE0109960E94D1020F5F1F4FF6
:100FF000F1CFEFEFCE1ADE0ACA14DB0409F035CFC9
:1010000006EF1FEF8BCF07EF1FEF88CF0AEF1FEF21
:1010100085CF0BEF1FEF82CF80E090E002C08EEF14
:101020009FEFEC960FB6F894DEBF0FBECDBFDF91F9
:10103000CF911F910F91FF90EF90DF90CF90BF90D5
:10104000AF909F908F907F906F9008951F920F9216
:101050000FB60F9211242F933F934F935F936F938B
:101060007F938F939F93AF93BF93EF93FF93809161
:10107000B900887F803609F49CC068F5883209F48D
:101080005BC090F4803109F454C038F4882309F42B
:10109000F6C0883009F44DC0F6C0883109F44CC060
:1010A000803209F45DC0EFC0803409F468C048F4B0
:1010B000803309F455C0883309F0E5C080932103DB
:1010C000D8C0803509F44FC0883509F45DC0883434
:1010D00009F0D9C0D6C0883909F4C7C0A8F4883748
:1010E00009F467C038F4883609F463C0803709F41E
:1010F00060C0C9C0883809F4B8C0803909F45FC03D
:10110000803809F0C0C05BC0803B09F486C038F469
:10111000803A09F466C0883A09F47FC0B4C0803CC4
:1011200009F4A7C0883C09F4A4C0883B09F48AC02C
:10113000AAC08091FE0210C09091200380911F03ED
:10114000981770F5E091200381E08E0F80932003C3
:10115000F0E0E150FD4F80818093BB0085EC86C0BC
:10116000809321038EC0E091200381E08E0F809355
:1011700020038091BB00F0E0E150FD4F808390910F
:10118000200380911F036EC0E091200381E08E0F49
:10119000809320038091BB00F0E0E150FD4F8083FD
:1011A0008091220381116DC081E08093FD0284EA69
:1011B00061C083E08093230310922602CFCF8091F9
:1011C0002602803208F051C0E091260281E08E0FA5
:1011D000809326028091BB00F0E0EA5FFD4F8083A0
:1011E000BDCF85EC8093BC00109223038091260232
:1011F000803230F4E0912602F0E0EA5FFD4F108289
:101200006091260270E0E091F702F091F80286E02A
:1012100092E009951092260236C084E08093230361
:101220001092050210920402E091F902F091FA0284
:10123000099580910402811105C081E08093040228
:101240001092E401E091050281E08E0F8093050287
:10125000F0E0EC51FE4F80818093BB00909105023D
:1012600080910402981708F479CF85E88093BC0038
:101270000AC085EC8093BC001092230304C0109236
:1012800021030E94C400FF91EF91BF91AF919F9104
:101290008F917F916F915F914F913F912F910F901F
:1012A0000FBE0F901F9018950F931F93CF93DF934E
:1012B00000D000D000D0CDB7DEB78C0180EB91E03C
:1012C0009A83898380912A0490912B04A0912C0405
:1012D000B0912D048B839C83AD83BE8343EB55E19A
:1012E000BE016F5F7F4F8DE094E00E94C604B8019D
:1012F0008DE094E00E94190B68EB71E08DE094E0C2
:101300000E94190B8DE094E00E94830426960FB68C
:10131000F894DEBF0FBECDBFDF91CF911F910F912B
:101320000895CF93C42FFC018081806291E0909357
:10133000240380934603109225031092470383EF02
:1013400093E00E9450016C2F83EF93E00E945001C4
:1013500081E0CF910C94340CCF93DF93EC01683093
:1013600008F067E068830E94900C4FEF60E0CE01C8
:101370000E9491094FEF61E0CE01DF91CF910C9473
:101380009109CF92DF92EF92FF920F931F93CF9329
:10139000DF936C017A018B01C0E0D0E0CE15DF0550
:1013A00081F0D8016D918D01D601ED91FC910190F4
:1013B000F081E02DC6010995892B11F02196EECF21
:1013C0007E01C701DF91CF911F910F91FF90EF90A8
:1013D000DF90CF900895FC01538D448D252F30E090
:1013E000842F90E0821B930B541710F0CF96089532
:1013F00001970895FC01918D828D981761F0828D7F
:10140000DF01A80FB11D5D968C91928D9F5F9F7338
:10141000928F90E008958FEF9FEF0895FC01918DDA
:10142000828D981731F0828DE80FF11D858D90E047
:1014300008958FEF9FEF0895FC01918D228D892FE4
:1014400090E0805C9F4F821B91098F7399270895CC
:1014500088E493E00E941C0A21E0892B09F420E033
:10146000822F0895FC01848DDF01A80FB11DA35ABE
:10147000BF4F2C91848D90E001968F739927848FB4
:10148000A689B7892C93A089B1898C9183708064D7
:101490008C93938D848D981306C00288F389E02D78
:1014A00080818F7D80830895EF92FF920F931F9329
:1014B000CF93DF93EC0181E0888F9B8D8C8D981307
:1014C00005C0E889F989808185FD26C0F62E0B8D3F
:1014D00010E00F5F1F4F0F731127E02E8C8DE81265
:1014E0000CC00FB607FCFACFE889F989808185FF27
:1014F000F5CFCE010E94320AF1CF8B8DFE01E80FAD
:10150000F11DE35AFF4FF0829FB7F8940B8FEA89E1
:10151000FB89808180620AC09FB7F894EE89FF89B9
:101520006083E889F98980818370806480839FBFAC
:1015300081E090E0DF91CF911F910F91FF90EF90AC
:101540000895CF93DF93EC01888D8823C9F0EA8951
:10155000FB89808185FD05C0A889B9898C9186FDAC
:101560000FC00FB607FCF5CF808185FFF2CFA889A9
:10157000B9898C9185FFEDCFCE010E94320AE7CF69
:10158000DF91CF91089580E090E0892B29F00E94AF
:10159000280A81110C94000008950E940A178F9266
:1015A0009F92AF92BF92CF92DF92EF92FF920F93F2
:1015B0001F93CF93DF937C01EB016C0182E0C80E97
:1015C000D11C4701E5E08E0E911C00E010E0F60111
:1015D00041916F0150E060E070E02AE0CE010E948E
:1015E0001E0E5C01E881F9810190F081E02D6EE230
:1015F000CE0109958A0D9B1D080F191F8C149D049F
:1016000031F7F701458150E060E070E02AE0CE015B
:101610000E941E0E800F911FDF91CF911F910F919D
:10162000FF90EF90DF90CF90BF90AF909F908F9002
:1016300008956115710579F0FB0101900020E9F72B
:101640003197AF01461B570BDC01ED91FC910280F5
:10165000F381E02D099480E090E008951F920F92AD
:101660000FB60F9211242F933F934F935F936F9375
:101670007F938F939F93AF93BF93EF93FF9388E4F0
:1016800093E00E94320AFF91EF91BF91AF919F9139
:101690008F917F916F915F914F913F912F910F901B
:1016A0000FBE0F901F9018951F920F920FB60F92BA
:1016B00011242F938F939F93EF93FF93E0915803FF
:1016C000F09159038081E0915E03F0915F0382FD08
:1016D00012C09081809161038F5F8F7320916203AC
:1016E000821751F0E0916103F0E0E85BFC4F958FC9
:1016F0008093610301C08081FF91EF919F918F9151
:101700002F910F900FBE0F901F9018952A9A089551
:101710002A980895CF92DF92EF92FF920F931F9332
:10172000CF93DF93EC017A018B016C01C40ED51EBF
:10173000CC15DD05A9F00E94880B8FE00E94830183
:101740008D2F0E9483018C2F0E948301219680E0BF
:101750000E948301F80181938F010E94860BE8CFDC
:10176000C701DF91CF911F910F91FF90EF90DF9014
:10177000CF900895CF92DF92EF92FF920F931F9335
:10178000CF93DF93EC017A018B016C01C40ED51E5F
:10179000CC15DD05A1F00E94880B80EF0E9483012B
:1017A0008D2F0E9483018C2F0E9483012196F801C6
:1017B00081918F010E9483010E94860BE9CFC701AE
:1017C000DF91CF911F910F91FF90EF90DF90CF901D
:1017D00008951F93CF93DF93D82F192FC62F0E9400
:1017E000880B80EF0E948301812F0E9483018D2F3F
:1017F0000E9483018C2F0E9483010E94860B81E04E
:10180000DF91CF911F9108951F93CF93DF93182FEE
:1018100066E270E00E949401C82FD0E067E270E0B9
:10182000812F0E949401DC2FCC279E01282BC90117
:10183000DF91CF911F9108951F93CF93DF93182FBE
:1018400060E270E00E949401C82FD0E061E270E095
:10185000812F0E949401DC2FCC279E01282BC901E7
:10186000DF91CF911F910895282F30914703313296
:1018700008F04AC0809123038111FCCF9091460368
:1018800042E040932303209322032FEF2093210370
:101890001092200330931F03E6E2F3E0AFEFB2E0D3
:1018A00020E0321721F041914D932F5FFACF109233
:1018B000FE022091FE02990F922B9093FE029091CE
:1018C000FD02913061F41092FD029091FE0290931E
:1018D000BB009091BC0093FDF8CF95EC01C095EE54
:1018E0009093BC00909123039230E1F390912103F7
:1018F0009F3F79F080912103803241F08091210354
:10190000803331F084E005C081E003C082E001C093
:1019100083E0109225031092470310922403089548
:101920001092FC021092FB021092250310924703C2
:101930001092230381E0809322031092FD0261E064
:1019400082E10E94670E61E083E10E94670EE9EB8D
:10195000F0E080818E7F808380818D7F808388E42A
:101960008093B80085E48093BC0086EF90E090936C
:10197000FA028093F90287EF90E09093F802809347
:10198000F7020895909123039111FCCF613208F082
:1019900060E291E090932303909322032FEF209332
:1019A000210310922003260F20931F039093FE0221
:1019B0009091FE02880F892B8093FE028091FD0298
:1019C000813061F41092FD028091FE028093BB0091
:1019D0008091BC0083FDF8CF85EC01C085EE80933B
:1019E000BC00809123038130E1F3809120038617AE
:1019F00010F460912003AFEFB2E0E7EDF2E080E099
:101A0000861721F09D9191938F5FFACF1092FC027F
:101A10008093FB0208959091D602906221E020937A
:101A20002403909346031092250310924703682FD6
:101A300083EF93E00E94500181E00E94340C80917A
:101A4000D602806261E070E090E00E94C20C83EFF9
:101A500093E00E940701089520E5FC012083118294
:101A60000895CF93C82F462F61E070E00E948A014D
:101A700061E070E08C2F0E9494018111F9CFCF9129
:101A80000895833081F028F4813099F08230A1F0FC
:101A900008958730A9F08830B9F08430D1F480916E
:101AA00080008F7D03C0809180008F7780938000BD
:101AB000089584B58F7702C084B58F7D84BD089565
:101AC0008091B0008F7703C08091B0008F7D8093AC
:101AD000B00008953FB7F89480915704909158044E
:101AE000A0915904B0915A0426B5A89B05C02F3F78
:101AF00019F00196A11DB11D3FBFBA2FA92F982F34
:101B00008827820F911DA11DB11DBC01CD0142E0AE
:101B1000660F771F881F991F4A95D1F70895EF9296
:101B2000FF920F931F93CF93DF9300D0CDB7DEB713
:101B3000182F7B01042F0E94FA02CE0101960E9409
:101B40002C0D89819A810E943302402F426060E00F
:101B500070E0812F0E948A01E114F10459F4E090B1
:101B60005C04F0905D048FEFE81AF80AF0925D04CF
:101B7000E0925C044F2D64E070E0812F0E948A01A6
:101B80004E2D65E070E0812F0E948A0161E070E0D7
:101B9000812F0E94310D0E94320281E00F900F9040
:101BA000DF91CF911F910F91FF90EF900895AF9229
:101BB000BF92CF92DF92EF92FF920F931F93CF933A
:101BC000DF9300D0CDB7DEB77A836983BA01A9016C
:101BD000E981FA81F770082F10E0000F111F0253FE
:101BE0001D4FD8018D919C918E0F9F1F9F01240F37
:101BF000351F21303840A0F07A015B0160E078E0C9
:101C00006B01CE1ADF0AA601B5010E948A0BA7015B
:101C10004C195D09B5016C0D7D1DF8018081918124
:101C20000F900F90DF91CF911F910F91FF90EF9048
:101C3000DF90CF90BF90AF900C948A0B8F929F92C1
:101C4000AF92BF92EF92FF920F931F93CF93DF93C8
:101C5000CDB7DEB7A1970FB6F894DEBF0FBECDBFEC
:101C60007C01FA01CB0119A2223008F42AE08E018E
:101C70000F5D1F4F822E912CA12CB12CBF01A5010D
:101C800094010E94C115F901CA01015011096A307D
:101C900014F4605D01C0695CD8016C93232B242B84
:101CA000252B61F7B801C7010E94190BA1960FB649
:101CB000F894DEBF0FBECDBFDF91CF911F910F9182
:101CC000FF90EF90BF90AF909F908F9008951F93DB
:101CD000CF93DF93282F30E0F901E458FF4F849130
:101CE000F901E656FF4FD491F901E255FF4FC49137
:101CF000CC23C1F0162F81110E94410DEC2FF0E092
:101D0000EE0FFF1FE859FF4FA591B4919FB7F894CC
:101D1000111104C08C91D095D82302C0EC91DE2B18
:101D2000DC939FBFDF91CF911F910895CF93DF93F5
:101D300090E0FC01E656FF4F2491FC01E255FF4F75
:101D40008491882361F190E0880F991FFC01E0578E
:101D5000FF4FC591D491FC01E859FF4FA591B49173
:101D6000611109C09FB7F8948881209582238883E8
:101D7000EC912E230BC0623061F49FB7F8948881F8
:101D8000322F309583238883EC912E2B2C939FBF89
:101D900006C08FB7F894E8812E2B28838FBFDF9180
:101DA000CF9108958F929F92AF92BF92CF92DF9280
:101DB000EF92FF926B017C010E946A0D4B015C0166
:101DC000C114D104E104F104F1F00E946A0DDC01B8
:101DD000CB0188199909AA09BB09883E9340A1053E
:101DE000B10570F321E0C21AD108E108F10888EECC
:101DF000880E83E0981EA11CB11CC114D104E1041B
:101E0000F10419F7DDCFFF90EF90DF90CF90BF90F6
:101E1000AF909F908F900895CF92DF92EF92FF92B4
:101E20001F93CF93DF93CDB7DEB7E2970FB6F89449
:101E3000DEBF0FBECDBFFC0182819381A481B5813D
:101E40008DA79EA7AFA7B8AB51E058ABCDA4DEA439
:101E5000EFA4F8A8CB8EDC8EED8EFE8EFB01C28047
:101E6000D380E480F580C9A2DAA2EBA2FCA28FA302
:101E700098A7A9A7BAA720EB31E03C8B2B8B4FEF9B
:101E80004D8B4E8B4F8B188E3E872D875E8F4B8DE3
:101E90005C8D6D8D7E8D4F87588B698B7A8BC98653
:101EA000DA86EB86FC863A8329838B839C83AD8319
:101EB000BE836CE271E080E090E00E94D20E1FB71A
:101EC000F89480915B04811127C0E8EBF0E08491E5
:101ED000E4EAF0E09491E82FF0E0EE0FFF1FE05706
:101EE000FF4FA591B491EC91E92321F461E08AE0E0
:101EF0000E94670E61E08AE00E94960E8CB58061B8
:101F00008CBD8CB580648CBD61E08DE00E94960E26
:101F100061E08BE00E94960E80915B048F5F80935E
:101F20005B041FBF229ACE01C1960E942C0D89A985
:101F30009AA90E94330260E880E090E00E94E90BD9
:101F400065E58BE190E00E94E90B65E58AE190E0B0
:101F50000E94E90B0E94320280E090E49093C70255
:101F60008093C60280E090E69093CF028093CE02E9
:101F700080E098E49093C9028093C80280E098E6DC
:101F80009093D1028093D00280E090E59093CB02B1
:101F90008093CA0280E090E79093D3028093D202AC
:101FA00080E098E59093CD028093CC0280E098E7A2
:101FB0009093D5028093D402CE01C1960E942C0D3D
:101FC00089A99AA90E94330246E050E068E071E0D6
:101FD00089E090E00E94BA0B44E050E0BE016D5FE2
:101FE0007F4F8FE090E00E94BA0B44E050E0BE01CA
:101FF000615F7F4F81E090E00E94BA0B44E050E0C7
:10200000BE016B5E7F4F85E090E00E94BA0B0E949C
:10201000320289859A85AB85BC858093ED039093C8
:10202000EE03A093EF03B093F003E2960FB6F8949B
:10203000DEBF0FBECDBFDF91CF911F91FF90EF901C
:10204000DF90CF9008952FB7F8946091530470916A
:10205000540480915504909156042FBF08951F9207
:102060000F920FB60F9211242F933F938F939F934C
:10207000AF93BF938091530490915404A091550461
:10208000B09156043091520423E0230F2D3720F4F1
:102090000196A11DB11D05C026E8230F0296A11DC2
:1020A000B11D209352048093530490935404A09341
:1020B0005504B09356048091570490915804A09110
:1020C0005904B0915A040196A11DB11D8093570483
:1020D00090935804A0935904B0935A04BF91AF91C0
:1020E0009F918F913F912F910F900FBE0F901F9056
:1020F0001895CF93DF93CDB7DEB7C654D1090FB68D
:10210000F894DEBF0FBECDBF789484B5826084BDE5
:1021100084B5816084BD85B5826085BD85B58160EB
:1021200085BD80916E00816080936E001092810069
:102130008091810082608093810080918100816024
:1021400080938100809180008160809380008091E5
:10215000B10084608093B1008091B0008160809371
:10216000B00080917A00846080937A0080917A0038
:10217000826080937A0080917A00816080937A00F7
:1021800080917A00806880937A001092C100E0917B
:102190005803F091590382E08083E0915403F09159
:1021A00055031082E0915603F09157038FEC808322
:1021B00010926003E0915C03F0915D0386E0808300
:1021C000E0915A03F0915B03808180618083E0910C
:1021D0005A03F0915B03808188608083E0915A0309
:1021E000F0915B03808180688083E0915A03F091D5
:1021F0005B0380818F7D8083C0900304D0900404B2
:10220000DF92CF9281EC91E09F938F931F9285E0B4
:102210008F9389E292E09F938F930E941D17C601CE
:1022200088589F4F90910D01980F90930D019091B8
:102230000701890F8093070180EB91E09A838983DE
:1022400040910001509101016091020170910301E0
:102250004B835C836D837E839AA389A38091040161
:1022600090910501A0910601B09107018BA39CA359
:10227000ADA3BEA3BE016F5F7F4FCE0181960E94CA
:102280000C0F6AE07AE18DE094E00E9419050E944B
:10229000900C0FB6F894DEBF0FBECDBFE6EB8E2ECE
:1022A000E2E09E2EE12CF12C412C512C3201439482
:1022B000D4011D921C92B1E0B093240380E28E0DF4
:1022C00080934603109225031092470381E00E94F9
:1022D000340C182F81115FC084E390E00E94E9154F
:1022E0005C0126ED32E0FC0131832083F382E2823F
:1022F0006E2DC9010E94AC09150134E0230E311C7A
:10230000A5014C5D5F4F23965FAF4EAF239701E071
:10231000183008F400E0802F0E940B0D912F977069
:10232000A301920104C0220F331F441F551F9A9529
:10233000D2F727962CAF3DAF4EAF5FAF2797422F16
:10234000482B602F86ED92E00E949109183010F022
:102350000DE001C00CE0802F0E940B0D24964FADC4
:102360002497482B602F86ED92E00E949109D101BD
:102370001D921D921D012396EEADFFAD2397119284
:102380002396FFAFEEAF23971F5F103109F0BFCF49
:10239000D401AD92BC92BFEFEB1AFB0AE2E08E0EC5
:1023A000911CF8E0EF16F10409F082CF7AE0E72EF5
:1023B000F12C11E001E0612F86E00E94670E1027EA
:1023C000612F87E00E94670E62E370E080E090E09A
:1023D0000E94D20E21E0E21AF10869F760E086E07F
:1023E0000E94670E60E087E00E94670EDF92CF9246
:1023F0008BEB91E09F938F931F9280E48F938EE2FB
:1024000092E09F938F930E941D178EE292E00E94AC
:1024100054090FB6F894DEBF0FBECDBF5EE1252E86
:10242000312C412C512C68E9862E6AE3962EA12C82
:10243000B12C46EB642E42E0742ED3010D911D9118
:102440003D010115110509F4D6C0F80162818081B2
:1024500091810E94AC09D801ED90FC90F701808138
:102460008062F1E0F09324038093460310922503E9
:102470001092470362E183EF93E00E94500181E0F4
:102480000E94340CD7018C91806262E070E090E091
:102490000E94C20C83EF93E00E940701F82E83EFA5
:1024A00093E00E940701982F88278F29FE01B1969B
:1024B0002396FFAFEEAF2397F801A8014C5F5F4F63
:1024C000B801605F7F4F9E012F5D3F4F6901D601CC
:1024D0001D921C92DA012D913C91F4A080FF03C063
:1024E0002150310902C02F5F3F4F2530310554F094
:1024F000F110A8C1B1E0B4A321E030E0D6012D93E2
:102500003C93A0C12C3FAFEF3A0754F4FF2031F0C9
:1025100014A22FEF3FEFD6012D933C932CEF3FEF0A
:10252000DA012D933D93AD0196958795B2E0CB0EE0
:10253000D11C3196E617F70751F6EE24E394F12CFF
:102540002396EEADFFAD2397C190D1902396FFAFB8
:10255000EEAF2397C114D10409F445C061E086E0D1
:102560000E94670E2092090430920A0440920B04E4
:1025700050920C040E94231060930504709306048B
:10258000809307049093080481E0CD20C09409F45F
:1025900080E01F928F93FF92EF92D80113968C9157
:1025A00013978F9312968C918F93809104048F933D
:1025B000809103048F93E6ECF1E0FF93EF931F9279
:1025C00030E23F9341E050E04C0F5D1F5F934F932B
:1025D0000E941D17CE0101960E9454090FB6F8946F
:1025E000DEBF0FBECDBF9FEFE91AF90AA1E1EA16DF
:1025F000F10409F0A5CFE6ECF2E0E615F70509F0E5
:102600001CCF8DE094E00E946203181619060CF0AE
:1026100098C08FE3E6E7F2E0DF011D928A95E9F7C3
:102620008F0185EBE82E82E0F82E0E942310609344
:1026300015047093160480931704909318048DE08A
:1026400094E00E94D10297FF1EC00E9423102091A7
:102650001504309116044091170450911804DC01C0
:10266000CB01821B930BA40BB50B2091110430916D
:102670001204409113045091140482179307A40785
:10268000B507E8F209C08B33910531F0F801819369
:102690008F01EE16FF0649F640E450E06EED71E062
:1026A00086E792E00E940F17892B09F04AC08092BA
:1026B000720290927302A0927402B09275020E940C
:1026C000231060936E0270936F0280937002909358
:1026D000710261E086E00E94670E2EE130E040E08A
:1026E00050E02093090430930A0440930B04509364
:1026F0000C040E94231060930504709306048093D9
:1027000007049093080460E087E00E94670E89E266
:1027100092E09F938F9386ED91E09F938F931F920A
:1027200080E48F938EE292E09F938F930E941D1717
:102730008EE292E00E9454090FB6F894DEBF0FBEFD
:10274000CDBF0E94231000916E0210916F02209164
:10275000700230917102DC01CB01801B910BA20B46
:10276000B30B0091720210917302209174023091A8
:10277000750280179107A207B307B0F10E942310DA
:1027800060936E0270936F02809370029093710257
:102790008092720290927302A0927402B0927502BB
:1027A0000E94231060936E0270936F0280937002F8
:1027B0009093710261E087E00E94670E809127028A
:1027C000909128029C012F5F3F4F30932802209365
:1027D00027020B974CF068E873E180E090E00E94DC
:1027E000D20EE0E0F0E009950E942310009105046C
:1027F000109106042091070430910804DC01CB01FC
:10280000801B910BA20BB30B0091090410910A04D9
:1028100020910B0430910C0480179107A207B30795
:1028200070F00E9423106093050470930604809357
:1028300007049093080460E086E00E94670E0E94FF
:10284000C30AF7CD24E030E06BCE10924B03109218
:102850004A0348EE53E060E070E040934C0350932D
:102860004D0360934E0370934F038EE191E090937C
:1028700049038093480385EC90E09093550380933F
:10288000540384EC90E0909357038093560380ECBC
:1028900090E0909359038093580381EC90E09093DB
:1028A0005B0380935A0382EC90E090935D038093E6
:1028B0005C0386EC90E090935F0380935E0310923C
:1028C000610310926203109263031092640380EB21
:1028D00091E09093E6038093E5031092E703109252
:1028E000E8031092E9031092EA0390932F04809377
:1028F0002E0410923004109231041092320410927F
:10290000330490933504809334041092360410926B
:102910003704109238041092390490933B0480934A
:102920003A0410923C0410923D0410923E0410921E
:102930003F049093EC038093EB031092ED0310920D
:10294000EE031092EF031092F0031092F603109230
:10295000F5034093F7035093F8036093F9037093E2
:10296000FA0320E331E03093F4032093F3039093D0
:102970004704809346041092480410924904109230
:102980004A0410924B04909341048093400480ECDD
:102990008093420488EA8093430483E6809344044E
:1029A0008FEF80934504109204041092030462E0B8
:1029B00085E00E94960E62E083E00E94960E62E03F
:1029C00082E00E94960E85E00E946115892B49F4F1
:1029D0008091030490910404816090930404809397
:1029E000030483E00E946115892B49F4809103045C
:1029F000909104048260909304048093030482E025
:102A00000E946115892B49F480910304909104047C
:102A10008460909304048093030461E086E00E9444
:102A2000960E60E086E00E94670E61E087E00E94FB
:102A3000960E60E087E00E94670E80EB91E0909335
:102A40004D0480934C0410924E0410924F04109247
:102A5000500410925104909329048093280420EC90
:102A600020932A0428EA20932B0423E620932C04A5
:102A70002FEF20932D041092100410920F0448EEB3
:102A800053E060E070E040931104509312046093AF
:102A900013047093140428E831E030930E0420935B
:102AA0000D0490931C0480931B0410921D0410923B
:102AB0001E0410921F041092200484E080932504C9
:102AC0000895CF93DF93282F30E0F901E458FF4FAA
:102AD0008491F901E656FF4FD491F901E255FF4F79
:102AE000C491CC2391F081110E94410DEC2FF0E0B4
:102AF000EE0FFF1FEE58FF4FA591B491EC91ED231F
:102B000081E090E021F480E002C080E090E0DF917D
:102B1000CF9108952F923F924F925F926F927F9242
:102B20008F929F92AF92BF92CF92DF92EF92FF92DD
:102B30000F931F93CF93DF93CDB7DEB7CA1BDB0B89
:102B40000FB6F894DEBF0FBECDBF09942A8839882E
:102B500048885F846E847D848C849B84AA84B98435
:102B6000C884DF80EE80FD800C811B81AA81B98141
:102B7000CE0FD11D0FB6F894DEBF0FBECDBFED0155
:102B80000895A1E21A2EAA1BBB1BFD010DC0AA1FAE
:102B9000BB1FEE1FFF1FA217B307E407F50720F0C6
:102BA000A21BB30BE40BF50B661F771F881F991F41
:102BB0001A9469F760957095809590959B01AC018A
:102BC000BD01CF010895EE0FFF1F0590F491E02D98
:102BD00009940F931F93CF93DF938230910510F4E4
:102BE00082E090E0E0916004F091610420E030E048
:102BF000A0E0B0E0309719F140815181028113814A
:102C000048175907C8F08417950769F4109731F0F1
:102C100012960C93129713961C9327C0009360048E
:102C20001093610422C02115310519F04217530792
:102C300018F49A01BD01EF01DF01F801DBCF211586
:102C40003105F9F0281B390B2430310580F48A81D5
:102C50009B816115710521F0FB019383828304C080
:102C60009093610480936004FE01329644C0FE019B
:102C7000E20FF31F81939193225031093983288306
:102C80003AC020915E0430915F04232B41F42091DF
:102C900010013091110130935F0420935E04209164
:102CA0000E0130910F012115310541F42DB73EB7CA
:102CB0004091120150911301241B350BE0915E04E9
:102CC000F0915F04E217F307A0F42E1B3F0B2817C7
:102CD000390778F0AC014E5F5F4F2417350748F095
:102CE0004E0F5F1F50935F0440935E048193919356
:102CF00002C0E0E0F0E0CF01DF91CF911F910F9192
:102D00000895CF93DF93009709F481C0FC013297B7
:102D100013821282A0916004B0916104109781F433
:102D200020813181820F931F20915E0430915F04D6
:102D30002817390751F5F0935F04E0935E0467C0EC
:102D4000ED0120E030E0CE17DF0740F44A815B81DF
:102D50009E0141155105F1F0EA01F5CFD383C283FD
:102D600040815181840F951FC817D90759F4888174
:102D70009981840F951F0296918380838A819B811C
:102D8000938382832115310529F4F0936104E09344
:102D900060043DC0E901FB83EA8349915991C40F66
:102DA000D51FEC17FD0761F480819181840F951F79
:102DB0000296E90199838883828193819B838A8328
:102DC000E0E0F0E012968D919C911397009719F036
:102DD000FD01DC01F7CF8D919C9111979D012E5F34
:102DE0003F4F820F931F20915E0430915F0428179C
:102DF000390769F4309729F4109261041092600445
:102E000002C013821282B0935F04A0935E04DF912C
:102E1000CF91089581E090E0F8940C94DE19FB01C5
:102E2000DC014150504030F08D910190801919F42F
:102E30000020B9F7881B990B0895AEE0B0E0E3E2FB
:102E4000F7E10C9498150D891E898F89988D26E0DD
:102E50002C831A83098397FF02C080E090E80197D2
:102E60009E838D83AE01455E5F4F698D7A8DCE0165
:102E700001960E944D174D815E8157FD0AC02F813A
:102E80003885421753070CF49A01F801E20FF31F3B
:102E900010822E96E4E00C94B415ABE0B0E0E3E5CC
:102EA000F7E10C948A156C017B018A01FC01178201
:102EB0001682838181FFCCC1CE0101963C01F601CF
:102EC0009381F70193FD859193FF81917F01882381
:102ED00009F4BAC1853239F493FD859193FF81914C
:102EE0007F01853229F4B60190E00E944419E7CFB2
:102EF000912C212C312CFFE1F315D8F08B3279F095
:102F000038F4803279F08332A1F4232D20611DC082
:102F10008D3261F0803369F4232D216016C0832D3A
:102F20008260382EE32DE4603E2E2AC0F32DF86037
:102F30001DC037FC2DC020ED280F2A3040F08E3206
:102F4000B9F436FC81C1232D2064322E19C036FE1F
:102F500006C08AE0989E200D1124922E11C0EAE04E
:102F60002E9E200D1124222EF32DF0623F2E08C03C
:102F70008C3621F4832D8068382E02C0883641F4C7
:102F8000F70193FD859193FF81917F018111B3CF6B
:102F9000982F9F7D9554933028F40C5F1F4F9FE32B
:102FA00099830DC0833631F0833771F0833509F092
:102FB00059C021C0F801808189830E5F1F4F88248A
:102FC0008394912C530113C02801F2E04F0E511C41
:102FD000F801A080B18036FE03C0692D70E002C008
:102FE0006FEF7FEFC5010E9439194C018201F32D6B
:102FF000FF773F2E16C0280122E0420E511CF80137
:10300000A080B18036FE03C0692D70E002C06FEF72
:103010007FEFC5010E942E194C01F32DF0683F2E61
:10302000820133FC1BC0822D90E088169906B0F413
:10303000B60180E290E00E9444192A94F4CFF50191
:1030400037FC859137FE81915F01B60190E00E94C7
:10305000441921102A9421E0821A910881149104C4
:1030600071F7E8C0843611F0893641F5F80137FE72
:1030700007C060817181828193810C5F1F4F08C0FE
:1030800060817181072E000C880B990B0E5F1F4F1A
:10309000F32DFF763F2E97FF09C090958095709590
:1030A00061957F4F8F4F9F4FF0683F2E2AE030E0B1
:1030B000A3010E948019882E861845C0853731F4F7
:1030C000232D2F7EB22E2AE030E025C0932D997F4C
:1030D000B92E8F36C1F018F4883579F0B5C0803735
:1030E00019F0883721F0B0C0E92FE061BE2EB4FEA0
:1030F0000DC0FB2DF460BF2E09C034FE0AC0292F7D
:103100002660B22E06C028E030E005C020E130E0A5
:1031100002C020E132E0F801B7FE07C06081718192
:10312000828193810C5F1F4F06C06081718180E0B6
:1031300090E00E5F1F4FA3010E948019882E861811
:10314000FB2DFF773F2E36FE0DC0232D2E7FA22EA6
:10315000891458F434FE0BC032FC09C0832D8E7ED6
:10316000A82E05C0B82CA32C03C0B82C01C0B92CC4
:10317000A4FE0FC0FE01E80DF11D8081803321F413
:103180009A2D997EA92E09C0A2FE06C0B394B394CD
:1031900004C08A2D867809F0B394A3FC11C0A0FE68
:1031A00006C0B21488F4280C922C9B180EC0B214DE
:1031B00060F4B60180E290E00E944419B394F7CF26
:1031C000B21418F42B1802C0982C212CA4FE10C0A5
:1031D000B60180E390E00E944419A2FE17C0A1FC52
:1031E00003C088E790E002C088E590E0B6010CC01B
:1031F0008A2D867859F0A1FE02C08BE201C080E2E0
:10320000A7FC8DE2B60190E00E944419891438F4BD
:10321000B60180E390E00E9444199A94F7CF8A9413
:10322000F301E80DF11D8081B60190E00E94441980
:103230008110F5CF222009F442CEB60180E290E061
:103240000E9444192A94F6CFF6018681978102C024
:103250008FEF9FEF2B96E2E10C94A615FC010590F1
:10326000615070400110D8F7809590958E0F9F1F88
:103270000895FC016150704001900110D8F78095CD
:1032800090958E0F9F1F08950F931F93CF93DF93F9
:10329000FB01238121FD03C08FEF9FEF2CC022FF94
:1032A00016C046815781248135814217530744F463
:1032B000A081B1819D012F5F3F4F318320838C938B
:1032C000268137812F5F3F4F3783268314C08B01C0
:1032D000EC01FB010084F185E02D0995892BE1F6D5
:1032E000D80116968D919C911797019617969C93ED
:1032F0008E931697CE01DF91CF911F910F91089574
:10330000FA01AA27283051F1203181F1E8946F9316
:103310006E7F6E5F7F4F8F4F9F4FAF4FB1E03ED0BC
:10332000B4E03CD0670F781F891F9A1FA11D680F5A
:10333000791F8A1F911DA11D6A0F711D811D911D8D
:10334000A11D20D009F468943F912AE0269F112402
:103350003019305D3193DEF6CF010895462F477066
:10336000405D4193B3E00FD0C9F7F6CF462F4F70C1
:10337000405D4A3318F0495D31FD4052419302D01F
:10338000A9F7EACFB4E0A6959795879577956795C5
:10339000BA95C9F700976105710508959B01AC01C5
:1033A0000A2E06945795479537952795BA95C9F7EC
:1033B000620F731F841F951FA01D0895F894FFCFFF
:1033C000FFFFFF00C0A86300DEADBEAAFE01000043
:1033D0006204800001005E00000000000000540A4A
:1033E000C109EB09A10A1C0AFA090E0A0000000033
:1033F0005001230180018C001B010701F80000002F
:103400000000CD0AC10980017F01CD0ACD0ACD0A95
:1034100000000000CD0AC10980017F01000000000A
:10342000CD0ACD0A8001CD0ACD0ACD0ACD0ACD0A3A
:10343000C200CD0ACD0ACD0ACD0ACD0ACD0ACD0AE9
:10344000CD0ACD0A000000008D00DB0380018C0056
:10345000A300D10228031905B2011A03C6045B05B3
:1034600083046203B202BB00AB00A70000000000AF
:10347000CF0A00000000CD0A0D0A0068656C6C6F71
:1034800020696D256400696D2564206225642069CA
:10349000256420256400257320706F6E67007069B5
:0434A0006E67000053
:00000001FF
