:100000000C9462000C948A000C948A000C948A0070
:100010000C948A000C948A000C948A000C948A0038
:100020000C948A000C948A000C948A000C948A0028
:100030000C948A000C948A000C948A000C948A0018
:100040000C944F100C948A000C943E040C941804E9
:100050000C948A000C948A000C948A000C948A00F8
:100060000C94BD0A0C948A000000000025002800B2
:100070002B000000000023002600290000000008DB
:10008000000201000003040700000000000000005F
:1000900000000000240027002A00010204081020AC
:1000A000408001020408102001020408102004040A
:1000B0000404040404040202020202020303030310
:1000C0000303CC1411241FBECFEFD8E0DEBFCDBF99
:1000D00012E0A0E0B1E0EEE0F5E302C005900D9281
:1000E000AE37B107D9F724E0AEE7B2E001C01D9208
:1000F000AC3FB207E1F710E0C2E6D0E004C02197C0
:10010000FE010E948A16C136D107C9F70E949910D4
:100110000C94851A0C940000CF92DF92EF92FF921C
:100120000F931F93CF93DF936C017A018B01C0E093
:10013000D0E0CE15DF0581F0D8016D918D01D6019B
:10014000ED91FC910190F081E02DC6010995892B7C
:1001500011F02196EECF7E01C701DF91CF911F9163
:100160000F91FF90EF90DF90CF900895FC01538D99
:10017000448D252F30E0842F90E0821B930B541781
:1001800010F0CF96089501970895FC01918D828D0E
:10019000981761F0828DDF01A80FB11D5D968C91DB
:1001A000928D9F5F9F73928F90E008958FEF9FEFE6
:1001B0000895FC01918D828D981731F0828DE80FA2
:1001C000F11D858D90E008958FEF9FEF0895FC015C
:1001D000918D228D892F90E0805C9F4F821B910929
:1001E0008F739927089582EE93E00E94E70021E043
:1001F000892B09F420E0822F0895FC01848DDF0112
:10020000A80FB11DA35ABF4F2C91848D90E0019689
:100210008F739927848FA689B7892C93A089B18978
:100220008C91837080648C93938D848D981306C019
:100230000288F389E02D80818F7D80830895EF927D
:10024000FF920F931F93CF93DF93EC0181E0888F90
:100250009B8D8C8D981305C0E889F989808185FD77
:1002600026C0F62E0B8D10E00F5F1F4F0F73112766
:10027000E02E8C8DE8120CC00FB607FCFACFE8898F
:10028000F989808185FFF5CFCE010E94FD00F1CF75
:100290008B8DFE01E80FF11DE35AFF4FF0829FB7EF
:1002A000F8940B8FEA89FB89808180620AC09FB72E
:1002B000F894EE89FF896083E889F98980818370E9
:1002C000806480839FBF81E090E0DF91CF911F9198
:1002D0000F91FF90EF900895CF93DF93EC01888DFD
:1002E0008823C9F0EA89FB89808185FD05C0A8893A
:1002F000B9898C9186FD0FC00FB607FCF5CF8081C0
:1003000085FFF2CFA889B9898C9185FFEDCFCE0109
:100310000E94FD00E7CFDF91CF91089580E090E04B
:10032000892B29F00E94F30081110C94000008959C
:100330000895CF93DF931F92CDB7DEB76983DC01B9
:10034000ED91FC910280F381E02D41E050E0BE018F
:100350006F5F7F4F09950F90DF91CF9108958F9236
:100360009F92AF92BF92CF92DF92EF92FF920F9344
:100370001F93CF93DF937C01EB016C0182E0C80EE9
:10038000D11C4701E5E08E0E911C00E010E0F60163
:1003900041916F0150E060E070E02AE0CE010E94E0
:1003A0003E0E5C01E881F9810190F081E02D6EE262
:1003B000CE0109958A0D9B1D080F191F8C149D04F1
:1003C00031F7F701458150E060E070E02AE0CE01AE
:1003D0000E943E0E800F911FDF91CF911F910F91D0
:1003E000FF90EF90DF90CF90BF90AF909F908F9055
:1003F00008951F93CF93DF93182F66E270E00E9459
:100400008E07C82FD0E067E270E0812F0E948E0730
:10041000DC2FCC279E01282BC901DF91CF911F91A2
:1004200008951F93CF93DF93182F60E270E00E942E
:100430008E07C82FD0E061E270E0812F0E948E0706
:10044000DC2FCC279E01282BC901DF91CF911F9172
:100450000895FF920F931F93CF93DF9300D0CDB7F2
:10046000DEB7FC01218D328D232B29F1F08CCE01DA
:1004700001960E944C0D89819A810E94AD0768E225
:1004800070E08F2D0E948E07082F10E069E270E067
:100490008F2D0E948E07702F6627682B21E030E099
:1004A000AE014F5F5F4F8F2D0E94F70D0E94AC078A
:1004B000898190E002C08FEF9FEF0F900F90DF9146
:1004C000CF911F910F91FF9008958F929F92BF92AD
:1004D000CF92DF92EF92FF920F931F93CF93DF9310
:1004E00000D0CDB7DEB7B82E6B017A01CE010196F0
:1004F0000E944C0D89819A810E94AD07812C912C1C
:100500008B2D0E94F9018C01892B21F08B2D0E94EB
:10051000F9014C010815190599F70115110599F410
:1005200063E070E08B2D0E948E078431D9F188231F
:10053000C9F101E010E08C3111F400E010E01195F8
:10054000019511092FC0E016F1060CF48701101671
:10055000110644F568E270E08B2D0E948E07E82EAC
:10056000F12C69E270E08B2D0E948E07FE2CEE24A8
:10057000E82A9801A601B7018B2D0E94F70DE00E25
:10058000F11E4F2D68E270E08B2D0E9484074E2DE6
:1005900069E270E08B2D0E94840760E470E08B2D8F
:1005A0000E94510D0E94AC07C8010F900F90DF917F
:1005B000CF911F910F91FF90EF90DF90CF90BF9060
:1005C0009F908F900895CF93DF93FC01218D328D02
:1005D0002115310519F48FEF9FEF11C0EC0142177F
:1005E000530708F0A901888D0E94650218161906A4
:1005F00094F7298D3A8D281B390B3A8F298FDF917B
:10060000CF9108950F931F93CF93DF931F92CDB790
:10061000DEB7FC01218D328D232B61F08C0141E08E
:1006200050E0BE016F5F7F4F808D0E9465021816FB
:1006300019061CF08FEF9FEF08C0F801818D928D95
:100640000197928F818F898190E00F90DF91CF91F8
:100650001F910F9108951F93CF93DF9300D0CDB7D3
:10066000DEB7FC01108DCE0101960E944C0D8981F0
:100670009A810E94AD0760E270E0812F0E94510DC7
:1006800062E070E0812F0E948E0784FD1DC062E051
:1006900070E0812F0E948E0783FF0BC048E162E06B
:1006A00070E0812F0E9484070E94AC0780E090E0F8
:1006B00015C00E94AC07CE0101960E944C0D8981A5
:1006C0009A810E94AD07DCCF40E162E070E0812FAB
:1006D0000E9484070E94AC0781E090E00F900F9089
:1006E000DF91CF911F910895BF92CF92DF92EF9249
:1006F000FF920F931F93CF93DF93CDB7DEB7289769
:100700000FB6F894DEBF0FBECDBF8C01D80159964D
:100710008D919C915A97892B41F0ED91FC91028427
:10072000F385E02DC8010995F1CFF801B08CCE0119
:1007300001960E944C0D89819A810E94AD07C12CBF
:10074000D12C8B2D0E94F9017C01892B21F08B2D5E
:100750000E94F9016C01EC14FD0499F70E94AC07AA
:100760001E141F0454F548E050E0BE016F5F7F4F38
:10077000D80158968C910E94650218161906FCF44F
:10078000D801509684E0FE01319601900D928A9531
:10079000E1F78D8190E0982F88272E81820F911D9F
:1007A000F801958B848B8F8190E0982F882728857E
:1007B000820F911D928F818F02C080E090E0289679
:1007C0000FB6F894DEBF0FBECDBFDF91CF911F9162
:1007D0000F91FF90EF90DF90CF90BF90089561153B
:1007E000710579F0FB0101900020E9F73197AF0125
:1007F000461B570BDC01ED91FC910280F381E02D4B
:10080000099480E090E008950F931F93CF93DF93B6
:10081000EC010E94EF038C0168EB71E0CE010E94B5
:10082000EF03800F911FDF91CF911F910F910895DA
:100830001F920F920FB60F9211242F933F934F9355
:100840005F936F937F938F939F93AF93BF93EF9338
:10085000FF9382EE93E00E94FD00FF91EF91BF9124
:10086000AF919F918F917F916F915F914F913F9148
:100870002F910F900FBE0F901F9018951F920F92FF
:100880000FB60F9211242F938F939F93EF93FF93A3
:10089000E091F203F091F3038081E091F803F0918D
:1008A000F90382FD12C090818091FB038F5F8F73EB
:1008B0002091FC03821751F0E091FB03F0E0EE5130
:1008C000FC4F958F8093FB0301C08081FF91EF91D6
:1008D0009F918F912F910F900FBE0F901F901895A1
:1008E0002A9A08952A9808958EBD00000DB407FE37
:1008F000FDCF8EB50895CF92DF92EF92FF920F93C6
:100900001F93CF93DF93EC017A018B016C01C40E2E
:10091000D51ECC15DD05A9F00E9472048FE00E945F
:1009200074048D2F0E9474048C2F0E9474042196ED
:1009300080E00E947404F80181938F010E9470048A
:10094000E8CFC701DF91CF911F910F91FF90EF90FA
:10095000DF90CF900895CF92DF92EF92FF920F93A6
:100960001F93CF93DF93EC017A018B016C01C40ECE
:10097000D51ECC15DD05A1F00E94720480EF0E9407
:1009800074048D2F0E9474048C2F0E94740421968D
:10099000F80181918F010E9474040E947004E9CFD4
:1009A000C701DF91CF911F910F91FF90EF90DF90E2
:1009B000CF900895BF92CF92DF92EF92FF920F9364
:1009C0001F93CF93DF9300D000D000D0CDB7DEB718
:1009D000FC01208D243009F05CC06A017B018C0190
:1009E000B12C63E070E08B2D0E948E07811103C053
:1009F000F801B08E06C08831D9F3B394F4E0BF1289
:100A0000F0CFF801808D843009F443C096E0E4E132
:100A1000F1E0DE01119601900D929A95E1F7F70150
:100A200093819F779C8394819D8395819E83B70159
:100A30006E5F7F4F90E0982F882744E050E0845FFE
:100A40009B4F0E94AB04F801F08C4D2D60E170E0EB
:100A50008F2D0E9484074C2D61E170E08F2D0E9444
:100A60008407F801808D90E0982F882746E050E0B9
:100A7000BE016F5F7F4F8A5F9B4F0E94AB04F801FE
:100A8000128E118E40E8B601808D0E94AF0D81E07C
:100A900001C080E026960FB6F894DEBF0FBECDBF32
:100AA000DF91CF911F910F91FF90EF90DF90CF904A
:100AB000BF9008955F926F927F928F929F92AF92B4
:100AC000BF92CF92DF92EF92FF920F931F93CF933B
:100AD000DF9300D0CDB7DEB77C016B018A01FC014A
:100AE00066887788508CCE0101960E944C0D8981D2
:100AF0009A810E94AD07812C912C852D0E941102B4
:100B00005C01892B21F0852D0E9411024C01A81453
:100B1000B90499F7A016B10678F400E010E0852D2D
:100B20000E9411025C01892B21F0852D0E94110287
:100B30008C01A016B10699F764E270E0852D0E9441
:100B40008E07A82EB12C65E270E0852D0E948E07DD
:100B5000BA2CAA24A82A6A0C7B1C93013770852C16
:100B6000912CC401880F991FAC01405A5C4F4A0177
:100B7000FA0180819181820F931FA801420F531FB8
:100B80004130584098F060E078E05B01A21AB30A67
:100B9000A501B6010E94AB04A8014A195B09B60180
:100BA0006A0D7B1DF4018081918102C0A801B6010C
:100BB0000E94AB04600E711E472D64E270E0852D2B
:100BC0000E948407462D65E270E0852D0E9484070F
:100BD0000E94AC07F70186899789800F911F978B38
:100BE000868BC8010F900F90DF91CF911F910F91CD
:100BF000FF90EF90DF90CF90BF90AF909F908F903D
:100C00007F906F905F900895DF92EF92FF920F9325
:100C10001F93CF93DF9300D0CDB7DEB7FB01DC018C
:100C200057961C921E9256972281211109C023814A
:100C3000211106C02481211103C02581222369F1DD
:100C40004115510551F17A018F01FC01D08CCE0183
:100C500001960E944C0D89819A810E94AD07B801CE
:100C60006E5F7F4F8D2D90E0982F882744E050E0F5
:100C7000845F9B4F0E94AB044F2D60E170E08D2D8F
:100C80000E9484074E2D61E170E08D2D0E94840743
:100C90000E94AC0781E090E002C080E090E00F90FD
:100CA0000F90DF91CF911F910F91FF90EF90DF9008
:100CB00008951F93CF93DF93D82F192FC62F0E942B
:100CC000720480EF0E947404812F0E9474048D2F9F
:100CD0000E9474048C2F0E9474040E94700481E0AE
:100CE000DF91CF911F9108951F93CF93DF9300D091
:100CF000CDB7DEB7182FCE0101960E944C0D898129
:100D00009A810E94AD0760E170E0812F0E94510D31
:100D10004FEF62E070E0812F0E9484070E94AC07D1
:100D20000F900F90DF91CF911F910895FC01818D5D
:100D3000928D0895FC0184899589089520EB31E016
:100D4000FC0131832083FB014089518962897389C9
:100D5000FC0142835383648375830895DC01ED9124
:100D6000FC91048CF58DE02D099480E0089585EDCB
:100D70008093BC008091BC0084FDFCCF1092BD0329
:100D8000089540919E02262F30E0240F311D21321C
:100D90003105DCF42091BD032430C9F4FC0180E06E
:100DA00090E0861758F430919E022191DC01A25800
:100DB000BD4FA30FB11D2C930196F3CF80919E02DE
:100DC000680F60939E0280E0089581E0089582E0BC
:100DD000089508950895E091960380919503E8178A
:100DE00030F4F0E0EF58FC4F808190E008958FEFF1
:100DF0009FEF08959091960380919503981750F472
:100E0000E92FF0E0EF58FC4F208130E09F5F909396
:100E1000960302C02FEF3FEFC9010895809195031B
:100E200090E020919603821B91090895CF92DF9262
:100E3000EF92FF920F931F93CF93DF937C01CB012F
:100E40008A012091BE03222389F0EB016B01C40EBD
:100E5000D51ECC15DD0569F06991D701ED91FC91A6
:100E60000190F081E02DC7010995F3CF642F0E9416
:100E7000C106C801DF91CF911F910F91FF90EF90B4
:100E8000DF90CF900895CF93DF931F92CDB7DEB759
:100E900069832091BE032223D1F02091E103203207
:100EA00040F021E030E0FC013383228380E090E0D9
:100EB00015C08091BF03E82FF0E0E054FC4F99810A
:100EC00090838F5F8093BF038093E10305C061E04F
:100ED000CE0101960E94C10681E090E00F90DF9163
:100EE000CF910895089580E090E00895CF93DF9327
:100EF000FC01808D843029F0EF010E94740684E0AB
:100F0000888FDF91CF9108959B0190E00496982FF0
:100F10008827642F820F931F0C945906CF93DF9379
:100F200090E00496982F8827EC01C60FD71F0E94E7
:100F300072048FE00E9474048D2F0E9474048C2F21
:100F40000E94740480E00E947404C82F0E94700400
:100F50008C2FDF91CF91089508958CBD9DBD08958C
:100F6000CF92DF92FF920F931F93CF93DF9300D026
:100F7000CDB7DEB7FC01208D243011F080E028C011
:100F80006B018C01F12CCE0101960E944C0D8981E0
:100F90009A810E94AD0763E070E08F2D0E948E075A
:100FA000811103C0F801F08E06C08831D9F3F394A3
:100FB000F4E0FF12E8CFF801808D8430F9F2D58695
:100FC000C486128E118E40E0B6010E94AF0D81E002
:100FD0000F900F90DF91CF911F910F91FF90DF90B5
:100FE000CF9008956F927F928F929F92AF92BF920F
:100FF000CF92DF92EF92FF920F931F93CF93DF93E5
:10100000CDB7DEB7EC970FB6F894DEBF0FBECDBFFD
:101010004C017B013A0180EB91E09A8389831C8625
:101020001B8648EE53E060E070E04D875E876F8777
:10103000788B28E831E03A872987988F8F8B198E33
:101040001A8E1B8E1C8E24E029A399AB88AB1AAA9A
:101050001BAA1CAA1DAA8091870490918804A091C4
:101060008904B0918A048EA39FA3A8A7B9A78B83F4
:101070009C83AD83BE8318861F82F70120E080E049
:1010800090E06AE03191332319F140ED430F4A308B
:1010900080F4689FA001699F500D1124CA01C09778
:1010A000830F911D37FD9A958F3F910559F350F3AA
:1010B0002BC03E3249F5233039F1A2E3B0E0AC0F4A
:1010C000BD1FA20FB11D8C932F5F80E090E0DACF9F
:1010D0002330D1F48DABD401ED91FC910488F589D6
:1010E000E02D80EB91E09DA38CA38AA99BA9ACA9DC
:1010F000BDA98EA39FA3A8A7B9A7A301BE016C5D3C
:101100007F4FC401099524C24B815C816D817E8132
:101110008091810490918204A0918304B091840411
:10112000481759076A077B0709F410C20E94431049
:101130006F7077277C5FCE0109960E94B0078130DF
:1011400009F001C280EB91E09DA38CA38B819C816F
:10115000AD81BE818EA39FA3A8A7B9A745E350E0A8
:10116000BE016C5D7F4FCE0109960E940406892B5B
:1011700019F400E010E072C10E94431078876F8379
:101180007627672776277DA36CA342E050E0BE0157
:101190006C5D7F4FCE0109960E945A0581E090E078
:1011A0009FAB8EAB42E050E0BE016A5C7F4FCE0148
:1011B00009960E945A0580E091E09FAB8EAB42E019
:1011C00050E0BE016A5C7F4FCE0109960E945A052D
:1011D0001FAA1EAA42E050E0BE016A5C7F4FCE010A
:1011E00009960E945A0542E050E0BE016A5C7F4FBA
:1011F000CE0109960E945A0542E050E0BE016A5CA9
:101200007F4FCE0109960E945A056701D7018C9144
:10121000882311F186017801F70181915F0188230C
:1012200021F08E3211F08501F6CF0C191D09101630
:10123000110684F408AF41E050E0BE01685C7F4FC6
:10124000CE0109960E945A05A801B601CE01099661
:101250000E945A056501DACF18AE41E050E0BE01A8
:10126000685C7F4FCE0109960E945A0500E011E0AC
:101270001FAB0EAB42E050E0BE016A5C7F4FCE0177
:1012800009960E945A051FAB0EAB42E050E0BE012A
:101290006A5C7F4FCE0109960E945A05CE010996DD
:1012A0000E942B03892B09F464CF83E0E82EF12CF4
:1012B0000E9443105B016C01CE0109960E947403E9
:1012C00018161906A4F00E944310DC01CB018A19FC
:1012D0009B09AC09BD0989389341A105B105C8F442
:1012E00062E370E080E090E00E94F20EE5CF4B8177
:1012F0005C816D817E81898D9A8DAB8DBC8D481707
:1013000059076A077B0741F48D8D9E8DC59721F49F
:1013100006C00FEF1FEF99C00EEF1FEF96C08AA116
:101320009BA10C970CF4A7C04CE050E0BE016C5D93
:101330007F4FCE0109960E94E3028EA19FA19827BC
:10134000892798279BAF8AAF2CA13DA1322723275D
:1013500032274F8158852417350709F089C097FF38
:1013600087C08F709270892B09F0EAC0AAA4BBA431
:10137000BA24AB24BA24A114B10409F4DEC000E0FD
:1013800010E088A599A59827892798270817190795
:1013900008F474C0C12CD12C41E050E0BE01645C63
:1013A0007F4FCE0109960E94E3028CAD982F907C6E
:1013B00009F09CC081118FC042E050E0BE01685C22
:1013C0007F4FCE0109960E94E30242E050E0BE0149
:1013D0006A5C7F4FCE0109960E94E302CE01099616
:1013E0000E940203CE0109960E940203CE010996D3
:1013F0000E940203CE0109960E94020342E050E0DF
:10140000BE01665C7F4FCE0109960E94E30288AD63
:1014100099AD8115914009F072C00EA91FA910273E
:10142000012710270130110509F069C08AAD9BAD75
:101430008115944009F07EC044E050E0BE016E5C2E
:101440007F4FCE0109960E94E302F1E0EF1AF10806
:1014500029F00F3FFFEF1F0709F42ACFCE010996AD
:101460000E9476070130110509F435CEC80170C01D
:101470000CEF1FEFEACF0DEF1FEFE7CF41E050E099
:10148000BE016A5C7F4FCE0109960E94E3028EA9DD
:10149000882359F08EA99FEF980F9EAB882329F0DF
:1014A000CE0109960E940203F5CF8EA98111E6CFE5
:1014B000CE0109960E940203CE0109960E94020302
:1014C000CE0109960E940203CE0109960E940203F2
:1014D0000F5F1F4F56CF8CAD9FEF980F9CAF8823A7
:1014E00051F0CE0109960E940203F5CFCE01099674
:1014F0000E9402031CAE8CAD81114ECF5DCF00E087
:1015000010E08AAD9BAD98278927982708171907FF
:1015100038F4CE0109960E9402030F5F1F4FF1CFEE
:10152000EFEFCE1ADE0ACA14DB0409F035CF06EF5E
:101530001FEF8BCF07EF1FEF88CF0AEF1FEF85CF8D
:101540000BEF1FEF82CF80E090E002C08EEF9FEFA5
:10155000EC960FB6F894DEBF0FBECDBFDF91CF91F2
:101560001F910F91FF90EF90DF90CF90BF90AF90C1
:101570009F908F907F906F9008951F920F920FB65B
:101580000F9211242F933F934F935F936F937F9309
:101590008F939F93AF93BF93EF93FF938091B90085
:1015A000887F803609F49CC068F5883209F45BC0F6
:1015B00090F4803109F454C038F4882309F4F6C05B
:1015C000883009F44DC0F6C0883109F44CC080322F
:1015D00009F45DC0EFC0803409F468C048F480337A
:1015E00009F455C0883309F0E5C08093BB03D8C027
:1015F000803509F44FC0883509F45DC0883409F09E
:10160000D9C0D6C0883909F4C7C0A8F4883709F40E
:1016100067C038F4883609F463C0803709F460C0C5
:10162000C9C0883809F4B8C0803909F45FC080386F
:1016300009F0C0C05BC0803B09F486C038F4803A32
:1016400009F466C0883A09F47FC0B4C0803C09F44C
:10165000A7C0883C09F4A4C0883B09F48AC0AAC08A
:101660008091980310C09091BA038091B9039817A4
:1016700070F5E091BA0381E08E0F8093BA03F0E039
:10168000E756FC4F80818093BB0085EC86C0809339
:10169000BB038EC0E091BA0381E08E0F8093BA0342
:1016A0008091BB00F0E0E756FC4F80839091BA0335
:1016B0008091B9036EC0E091BA0381E08E0F8093F0
:1016C000BA038091BB00F0E0E756FC4F8083809125
:1016D000BC0381116DC081E08093970384EA61C0EF
:1016E00083E08093BD031092C002CFCF8091C002EF
:1016F000803208F051C0E091C00281E08E0F8093EB
:10170000C0028091BB00F0E0E056FD4F8083BDCF6A
:1017100085EC8093BC001092BD038091C0028032A2
:1017200030F4E091C002F0E0E056FD4F108260918D
:10173000C00270E0E0919103F091920380EA92E0A0
:1017400009951092C00236C084E08093BD031092C8
:101750009F0210929E02E0919303F09194030995E9
:1017600080919E02811105C081E080939E021092BB
:101770007E02E0919F0281E08E0F80939F02F0E055
:10178000E258FD4F80818093BB0090919F02809131
:101790009E02981708F479CF85E88093BC000AC0B0
:1017A00085EC8093BC001092BD0304C01092BB0373
:1017B0000E94B706FF91EF91BF91AF919F918F91DA
:1017C0007F916F915F914F913F912F910F900FBE3D
:1017D0000F901F9018950F931F93CF93DF9300D016
:1017E00000D000D0CDB7DEB78C0180EB91E09A83BA
:1017F00089838091C4049091C504A091C604B091DE
:10180000C7048B839C83AD83BE8343EB55E1BE014C
:101810006F5F7F4F87EA94E00E940406B80187EA71
:1018200094E00E94040487EA94E00E942B03269629
:101830000FB6F894DEBF0FBECDBFDF91CF911F91E1
:101840000F910895CF93C42FFC018081806291E0B5
:101850009093BE038093E0031092BF031092E103C4
:101860008DE894E00E9443076C2F8DE894E00E947D
:10187000430781E0CF910C94540CCF93DF93EC019C
:10188000683008F067E068830E94B00C4FEF60E0BA
:10189000CE010E94220C4FEF61E0CE01DF91CF918B
:1018A0000C94220C0E94B117282F3091E1033132A1
:1018B00008F04AC08091BD038111FCCF9091E003F4
:1018C00042E04093BD032093BC032FEF2093BB0362
:1018D0001092BA033093B903E0ECF3E0A9E9B3E066
:1018E00020E0321721F041914D932F5FFACF1092F3
:1018F000980320919803990F922B909398039091BD
:101900009703913061F4109297039091980390930C
:10191000BB009091BC0093FDF8CF95EC01C095EE13
:101920009093BC009091BD039230E1F39091BB0382
:101930009F3F79F08091BB03803241F08091BB03DF
:10194000803331F084E005C081E003C082E001C053
:1019500083E01092BF031092E1031092BE0308953A
:1019600010929603109295031092BF031092E10318
:101970001092BD0381E08093BC031092970361E055
:1019800082E10E94870E61E083E10E94870EE9EB0D
:10199000F0E080818E7F808380818D7F808388E4EA
:1019A0008093B80085E48093BC0089EE96E0909324
:1019B0009403809393038AEE96E09093920380932E
:1019C000910308959091BD039111FCCF613208F00D
:1019D00060E291E09093BD039093BC032FEF2093BE
:1019E000BB031092BA03260F2093B9039093980378
:1019F00090919803880F892B809398038091970387
:101A0000813061F410929703809198038093BB001A
:101A10008091BC0083FDF8CF85EC01C085EE8093FA
:101A2000BC008091BD038130E1F38091BA03861739
:101A300010F46091BA03A9E9B3E0E1E7F3E080E0D4
:101A4000861721F09D9191938F5FFACF10929603A4
:101A500080939503089590917003906221E0209304
:101A6000BE039093E0031092BF031092E103682F2E
:101A70008DE894E00E94430781E00E94540C80911D
:101A80007003806261E070E090E00E94E20C8DE8FB
:101A900094E00E94FA06089520E5FC01208311825B
:101AA0000895CF93C82F462F61E070E00E9484070D
:101AB00061E070E08C2F0E948E078111F9CFCF91E9
:101AC0000895833081F028F4813099F08230A1F0BC
:101AD00008958730A9F08830B9F08430D1F480912E
:101AE00080008F7D03C0809180008F77809380007D
:101AF000089584B58F7702C084B58F7D84BD089525
:101B00008091B0008F7703C08091B0008F7D80936B
:101B1000B00008953FB7F8948091F1049091F204D9
:101B2000A091F304B091F40426B5A89B05C02F3F03
:101B300019F00196A11DB11D3FBFBA2FA92F982FF3
:101B40008827820F911DA11DB11DBC01CD0142E06E
:101B5000660F771F881F991F4A95D1F70895EF9256
:101B6000FF920F931F93CF93DF9300D0CDB7DEB7D3
:101B7000182F7B01042F0E947406CE0101960E944B
:101B80004C0D89819A810E94AD07402F426060E030
:101B900070E0812F0E948407E114F10459F4E09071
:101BA000F604F090F7048FEFE81AF80AF092F704C1
:101BB000E092F6044F2D64E070E0812F0E948407CC
:101BC0004E2D65E070E0812F0E94840761E070E097
:101BD000812F0E94510D0E94AC0781E00F900F9061
:101BE000DF91CF911F910F91FF90EF900895AF92E9
:101BF000BF92CF92DF92EF92FF920F931F93CF93FA
:101C0000DF9300D0CDB7DEB77A836983BA01A9012B
:101C1000E981FA81F770082F10E0000F111F0859B1
:101C20001C4FD8018D919C918E0F9F1F9F01240FF7
:101C3000351F21303840A0F07A015B0160E078E088
:101C40006B01CE1ADF0AA601B5010E947B04A70131
:101C50004C195D09B5016C0D7D1DF80180819181E4
:101C60000F900F90DF91CF911F910F91FF90EF9008
:101C7000DF90CF90BF90AF900C947B048F929F9297
:101C8000AF92BF92EF92FF920F931F93CF93DF9388
:101C9000CDB7DEB7A1970FB6F894DEBF0FBECDBFAC
:101CA0007C01FA01CB0119A2223008F42AE08E014E
:101CB0000F5D1F4F822E912CA12CB12CBF01A501CD
:101CC00094010E946816F901CA01015011096A3095
:101CD00014F4605D01C0695CD8016C93232B242B44
:101CE000252B61F7B801C7010E94EF03A1960FB63B
:101CF000F894DEBF0FBECDBFDF91CF911F910F9142
:101D0000FF90EF90BF90AF909F908F9008951F939A
:101D1000CF93DF93282F30E0F901E458FF4F8491EF
:101D2000F901E656FF4FD491F901E255FF4FC491F6
:101D3000CC23C1F0162F81110E94610DEC2FF0E031
:101D4000EE0FFF1FE859FF4FA591B4919FB7F8948C
:101D5000111104C08C91D095D82302C0EC91DE2BD8
:101D6000DC939FBFDF91CF911F910895CF93DF93B5
:101D700090E0FC01E656FF4F2491FC01E255FF4F35
:101D80008491882361F190E0880F991FFC01E0574E
:101D9000FF4FC591D491FC01E859FF4FA591B49133
:101DA000611109C09FB7F8948881209582238883A8
:101DB000EC912E230BC0623061F49FB7F8948881B8
:101DC000322F309583238883EC912E2B2C939FBF49
:101DD00006C08FB7F894E8812E2B28838FBFDF9140
:101DE000CF9108958F929F92AF92BF92CF92DF9240
:101DF000EF92FF926B017C010E948A0D4B015C0106
:101E0000C114D104E104F104F1F00E948A0DDC0157
:101E1000CB0188199909AA09BB09883E9340A105FD
:101E2000B10570F321E0C21AD108E108F10888EE8B
:101E3000880E83E0981EA11CB11CC114D104E104DA
:101E4000F10419F7DDCFFF90EF90DF90CF90BF90B6
:101E5000AF909F908F900895CF92DF92EF92FF9274
:101E60001F93CF93DF93CDB7DEB7E2970FB6F89409
:101E7000DEBF0FBECDBFFC0182819381A481B581FD
:101E80008DA79EA7AFA7B8AB51E058ABCDA4DEA4F9
:101E9000EFA4F8A8CB8EDC8EED8EFE8EFB01C28007
:101EA000D380E480F580C9A2DAA2EBA2FCA28FA3C2
:101EB00098A7A9A7BAA720EB31E03C8B2B8B4FEF5B
:101EC0004D8B4E8B4F8B188E3E872D875E8F4B8DA3
:101ED0005C8D6D8D7E8D4F87588B698B7A8BC98613
:101EE000DA86EB86FC863A8329838B839C83AD83D9
:101EF000BE836CE271E080E090E00E94F20E1FB7BA
:101F0000F8948091F504811127C0E8EBF0E084910A
:101F1000E4EAF0E09491E82FF0E0EE0FFF1FE057C5
:101F2000FF4FA591B491EC91E92321F461E08AE09F
:101F30000E94870E61E08AE00E94B60E8CB5806137
:101F40008CBD8CB580648CBD61E08DE00E94B60EC6
:101F500061E08BE00E94B60E8091F5048F5F809364
:101F6000F5041FBF229ACE01C1960E944C0D89A98B
:101F70009AA90E94AD0760E880E090E00E945906AF
:101F800065E58BE190E00E94590665E58AE190E005
:101F90000E9459060E94AC0780E090E49093610390
:101FA0008093600380E090E69093690380936803D8
:101FB00080E098E4909363038093620380E098E666
:101FC00090936B0380936A0380E090E590936503A0
:101FD0008093640380E090E790936D0380936C039B
:101FE00080E098E5909367038093660380E098E72C
:101FF00090936F0380936E03CE01C1960E944C0DA7
:1020000089A99AA90E94AD0746E050E068E071E016
:1020100089E090E00E94AB0444E050E0BE016D5FB7
:102020007F4F8FE090E00E94AB0444E050E0BE019F
:10203000615F7F4F81E090E00E94AB0444E050E09C
:10204000BE016B5E7F4F85E090E00E94AB040E9472
:10205000AC0789859A85AB85BC858093870490936E
:102060008804A0938904B0938A04E2960FB6F8948A
:10207000DEBF0FBECDBFDF91CF911F91FF90EF90DC
:10208000DF90CF9008952FB7F8946091ED04709190
:10209000EE048091EF049091F0042FBF08951F92F9
:1020A0000F920FB60F9211242F933F938F939F930C
:1020B000AF93BF938091ED049091EE04A091EF0453
:1020C000B091F0043091EC0423E0230F2D3720F47D
:1020D0000196A11DB11D05C026E8230F0296A11D82
:1020E000B11D2093EC048093ED049093EE04A09333
:1020F000EF04B093F0048091F1049091F204A09168
:10210000F304B091F4040196A11DB11D8093F10474
:102110009093F204A093F304B093F404BF91AF91B1
:102120009F918F913F912F910F900FBE0F901F9015
:102130001895CF93DF93CDB7DEB7C658D1090FB648
:10214000F894DEBF0FBECDBF789484B5826084BDA5
:1021500084B5816084BD85B5826085BD85B58160AB
:1021600085BD80916E00816080936E001092810029
:1021700080918100826080938100809181008160E4
:1021800080938100809180008160809380008091A5
:10219000B10084608093B1008091B0008160809331
:1021A000B00080917A00846080937A0080917A00F8
:1021B000826080937A0080917A00816080937A00B7
:1021C00080917A00806880937A001092C100E0913B
:1021D000F203F091F30382E08083E091EE03F0914B
:1021E000EF031082E091F003F091F1038FEC808314
:1021F0001092FA03E091F603F091F70386E08083F2
:10220000E091F403F091F503808180618083E09197
:10221000F403F091F503808188608083E091F403FA
:10222000F091F503808180688083E091F403F09160
:10223000F50380818F7D8083C0909D04D0909E04A3
:10224000DF92CF9286EF91E09F938F931F9285E06C
:102250008F9303EC12E01F930F930E94C4171F93F8
:102260000F938BEB91E09F938F931F928FE38F934C
:102270009E012F5F3F4F29013F932F930E94C41768
:10228000B20182EE93E00E940404C60188589F4F79
:1022900090910D01980F90930D0190910701890F76
:1022A0008093070180EB91E09A838983409100013C
:1022B0005091010160910201709103014B835C8395
:1022C0006D837E831E0131E4230E311CD1018D9379
:1022D0009C938091040190910501A0910601B09119
:1022E0000701F10182839383A483B583B201C10105
:1022F0000E942C0F6AE07AE187EA94E00E94B0071E
:102300000E94B00C0FB6F894DEBF0FBECDBFF0E553
:102310008F2EF3E09F2E00E010E0D4011D921C925E
:10232000B1E0B093BE0380E2800F8093E00310928F
:10233000BF031092E10381E00E94540CF82E81113A
:102340008AC01F930F93EFECF1E0FF93EF931F927E
:102350003FE33F935F924F920E94C417B20182EE17
:1023600093E00E94040484E390E00E9490165C01D4
:10237000E0E7F3E0DC011196FC93EE9313961C93D7
:102380000E931297602FCF010E943D0C95012C5F98
:102390003F4FCF57DF4F39832883C158D040350195
:1023A00034E2630E711C0FB6F894DEBF0FBECDBFD2
:1023B000EE24E39457E05F1508F0E12C8E2D0E9487
:1023C0002B0D9F2D977021E030E040E050E004C0DD
:1023D000220F331F441F551F9A95D2F7CD57DF4F59
:1023E000288339834A835B83C358D040422F482BCC
:1023F0006E2D80E793E00E94220C37E03F1518F421
:10240000EDE0EE2E02C07CE0E72E8E2D0E942B0D1B
:10241000CD57DF4F4881C358D040482B6E2D80E701
:1024200093E00E94220CCF57DF4FA881B981C15899
:10243000D0401D921D92CF57DF4FB983A883C1585A
:10244000D040F30111923F01F394F0E1FF12B0CFBD
:10245000D401AD92BC920F5F1F4FB2E08B0E911C66
:102460000830110509F059CF6AE0E62EF12C11E091
:1024700001E0612F86E00E94870E1027612F87E020
:102480000E94870E62E370E080E090E00E94F20E0E
:10249000E1E0EE1AF10869F760E086E00E94870E3D
:1024A00060E087E00E94870EDF92CF9280EF91E09C
:1024B0009F938F931F9280E48F9388EC92E09F9379
:1024C0008F930E94C41788EC92E00E94EB0B0FB62A
:1024D000F894DEBF0FBECDBF58E9852E5AE3952E86
:1024E000A12CB12C40E5642E43E0742ED3010D9154
:1024F0001D913D010115110509F4FEC0F80162812D
:10250000808191810E943D0CD801ED90FC90F701F3
:102510008081806291E09093BE038093E0031092EB
:10252000BF031092E10362E18DE894E00E9443074B
:1025300081E00E94540CD7018C91806262E070E0CF
:1025400090E00E94E20C8DE894E00E94FA06F82EDA
:102550008DE894E00E94FA06982F88278F297E0143
:10256000B1E6EB0EF11CF801A8014C5F5F4FB8011A
:10257000605F7F4FCF57DF4FF982E882C158D0406C
:10258000CC24C394CF57DF4FA881B981C158D04024
:102590001D921C92DA012D913C91D4A080FF03C0C2
:1025A0002150310902C02F5F3F4F2530310574F0B3
:1025B000D110EFC1C4A221E030E0CF57DF4FA88196
:1025C000B981C158D0402D933C93E3C12C3FAFEF6C
:1025D0003A077CF4DD2059F014A22FEF3FEFCF57DC
:1025E000DF4FA881B981C158D0402D933C932CEF87
:1025F0003FEFDA012D933D93AD0196958795CF5727
:10260000DF4F28813981C158D0402E5F3F4FCF57CF
:10261000DF4F39832883C158D0403196E617F7073A
:1026200009F0B0CFCC24C394D12CD7018D919C91CB
:10263000892B09F456C061E086E00E94870E2EE1E6
:1026400030E040E050E02093A3043093A404409392
:10265000A5045093A6040E94431060939F047093B6
:10266000A0048093A1049093A20481E0D7012D914E
:102670003C912F3F3F4F09F480E01F928F93DF92F0
:10268000CF92F80183818F9382818F9380919E04F2
:102690008F9380919D048F932BEF31E03F932F9385
:1026A0001F9250E25F933F922F920E94C4173F9275
:1026B0002F928BE092E09F938F931F92BFE3BF9383
:1026C0005F924F920E94C417B20182EE93E00E9483
:1026D0000404C1010E94EB0B0FB6F894DEBF0FBEDD
:1026E000CDBFFFEFCF1ADF0A22E0E20EF11C31E18D
:1026F000C316D10409F099CF40E653E046155705BB
:1027000009F0F4CE87EA94E00E94740318161906C3
:102710000CF0B1C08FE3E0E1F3E0DF011D928A9598
:10272000E9F78F018FE4E82E83E0F82E0E94431032
:102730006093AF047093B0048093B1049093B2049B
:1027400087EA94E00E94020397FF1EC00E94431094
:102750002091AF043091B0044091B1045091B20483
:10276000DC01CB01821B930BA40BB50B2091AB04B6
:102770003091AC044091AD045091AE0482179307A0
:10278000A407B507E8F209C08B33910531F0F801D1
:1027900081938F01EE16FF0649F680E193E09F9347
:1027A0008F938DE692E09F938F931F928FE38F9389
:1027B0005F924F920E94C417B20182EE93E00E9492
:1027C000040440E450E069E772E080E193E00E9495
:1027D000B6170FB6F894DEBF0FBECDBF892B09F038
:1027E0004AC080920C0390920D03A0920E03B09207
:1027F0000F030E94431060930803709309038093B2
:102800000A0390930B0361E086E00E94870E2EE19D
:1028100030E040E050E02093A3043093A4044093C0
:10282000A5045093A6040E94431060939F047093E4
:10283000A0048093A1049093A20460E087E00E942A
:10284000870E83EC92E09F938F9386E192E09F93B3
:102850008F931F9280E48F9388EC92E09F938F93E5
:102860000E94C41788EC92E00E94EB0B0FB6F8941C
:10287000DEBF0FBECDBF0E94431000910803109130
:10288000090320910A0330910B03DC01CB01801B6B
:10289000910BA20BB30B00910C0310910D0320912F
:1028A0000E0330910F0380179107A207B30708F4B6
:1028B00042C00E9443106093080370930903809301
:1028C0000A0390930B036EE172E082EE93E00E94A4
:1028D000040480920C0390920D03A0920E03B09218
:1028E0000F030E94431060930803709309038093C1
:1028F0000A0390930B0361E087E00E94870E8091AA
:10290000C1029091C2029C012F5F3F4F3093C202DF
:102910002093C1020B977CF069E372E082EE93E0B2
:102920000E94040468E873E180E090E00E94F20EE7
:10293000E0E0F0E009950E94431000919F0410919F
:10294000A0042091A1043091A204DC01CB01801BE2
:10295000910BA20BB30B0091A3041091A40420913E
:10296000A5043091A60480179107A207B30770F061
:102970000E94431060939F047093A0048093A1046D
:102980009093A20460E086E00E94870E0E948E0170
:10299000A9CD24E030E02DCE1092E5031092E4039F
:1029A00048EE53E060E070E04093E6035093E703A5
:1029B0006093E8037093E9038EE191E09093E30361
:1029C0008093E20385EC90E09093EF038093EE0315
:1029D00084EC90E09093F1038093F00380EC90E01E
:1029E0009093F3038093F20381EC90E09093F503CE
:1029F0008093F40382EC90E09093F7038093F603C6
:102A000086EC90E09093F9038093F8031092FB0317
:102A10001092FC031092FD031092FE0380EB91E0F4
:102A20009093800480937F0410928104109282041A
:102A300010928304109284049093C9048093C80474
:102A40001092CA041092CB041092CC041092CD04C0
:102A50009093CF048093CE041092D0041092D104AE
:102A60001092D2041092D3049093D5048093D4048E
:102A70001092D6041092D7041092D8041092D90460
:102A800090938604809385041092870410928804A2
:102A90001092890410928A041092900410928F046C
:102AA0004093910450939204609393047093940420
:102AB00020E331E030938E0420938D049093E10461
:102AC0008093E0041092E2041092E3041092E40474
:102AD0001092E5049093DB048093DA0480EC8093F9
:102AE000DC0488EA8093DD0483E68093DE048FEFC4
:102AF0008093DF0410929E0410929D0462E085E0B2
:102B00000E94B60E62E083E00E94B60E62E082E0B0
:102B10000E94B60E85E00E940816892B49F4809128
:102B20009D0490919E04816090939E0480939D04E7
:102B300083E00E940816892B49F480919D049091AE
:102B40009E04826090939E0480939D0482E00E9484
:102B50000816892B49F480919D0490919E0484600D
:102B600090939E0480939D0461E086E00E94B60EDF
:102B700060E086E00E94870E61E087E00E94B60E6A
:102B800060E087E00E94870E80EB91E09093E7047D
:102B90008093E6041092E8041092E9041092EA048B
:102BA0001092EB049093C3048093C20420EC209312
:102BB000C40428EA2093C50423E62093C6042FEF1B
:102BC0002093C7041092AA041092A90448EE53E07F
:102BD00060E070E04093AB045093AC046093AD04AC
:102BE0007093AE0428E831E03093A8042093A70442
:102BF0009093B6048093B5041092B7041092B80471
:102C00001092B9041092BA0484E08093BF0408952E
:102C1000CF93DF93282F30E0F901E458FF4F8491E0
:102C2000F901E656FF4FD491F901E255FF4FC491E7
:102C3000CC2391F081110E94610DEC2FF0E0EE0F9A
:102C4000FF1FEE58FF4FA591B491EC91ED2381E069
:102C500090E021F480E002C080E090E0DF91CF912D
:102C600008952F923F924F925F926F927F928F9230
:102C70009F92AF92BF92CF92DF92EF92FF920F930B
:102C80001F93CF93DF93CDB7DEB7CA1BDB0B0FB615
:102C9000F894DEBF0FBECDBF09942A8839884888D2
:102CA0005F846E847D848C849B84AA84B984C88468
:102CB000DF80EE80FD800C811B81AA81B981CE0F5F
:102CC000D11D0FB6F894DEBF0FBECDBFED01089544
:102CD000A1E21A2EAA1BBB1BFD010DC0AA1FBB1F20
:102CE000EE1FFF1FA217B307E407F50720F0A21B92
:102CF000B30BE40BF50B661F771F881F991F1A94FF
:102D000069F760957095809590959B01AC01BD0128
:102D1000CF010895EE0FFF1F0590F491E02D099467
:102D20000F931F93CF93DF938230910510F482E0CD
:102D300090E0E091FA04F091FB0420E030E0A0E0A4
:102D4000B0E0309719F14081518102811381481719
:102D50005907C8F08417950769F4109731F0129657
:102D60000C93129713961C9327C00093FA041093A8
:102D7000FB0422C02115310519F04217530718F43E
:102D80009A01BD01EF01DF01F801DBCF211531050B
:102D9000F9F0281B390B2430310580F48A819B819E
:102DA0006115710521F0FB019383828304C0909328
:102DB000FB048093FA04FE01329644C0FE01E20F48
:102DC000F31F8193919322503109398328833AC0AC
:102DD0002091F8043091F904232B41F42091100143
:102DE000309111013093F9042093F80420910E01E1
:102DF00030910F012115310541F42DB73EB74091B7
:102E0000120150911301241B350BE091F804F0914D
:102E1000F904E217F307A0F42E1B3F0B281739071C
:102E200078F0AC014E5F5F4F2417350748F04E0F26
:102E30005F1F5093F9044093F8048193919302C06B
:102E4000E0E0F0E0CF01DF91CF911F910F91089565
:102E5000CF93DF93009709F481C0FC01329713826E
:102E60001282A091FA04B091FB04109781F42081A2
:102E70003181820F931F2091F8043091F9042817B3
:102E8000390751F5F093F904E093F80467C0ED01B8
:102E900020E030E0CE17DF0740F44A815B819E01DD
:102EA00041155105F1F0EA01F5CFD383C28340818A
:102EB0005181840F951FC817D90759F488819981CA
:102EC000840F951F0296918380838A819B819383CF
:102ED00082832115310529F4F093FB04E093FA0471
:102EE0003DC0E901FB83EA8349915991C40FD51F85
:102EF000EC17FD0761F480819181840F951F029684
:102F0000E90199838883828193819B838A83E0E0AE
:102F1000F0E012968D919C911397009719F0FD01A6
:102F2000DC01F7CF8D919C9111979D012E5F3F4F52
:102F3000820F931F2091F8043091F9042817390764
:102F400069F4309729F41092FB041092FA0402C03D
:102F500013821282B093F904A093F804DF91CF9109
:102F6000089581E090E0F8940C94851AFB01DC014F
:102F70004150504030F08D910190801919F400209B
:102F8000B9F7881B990B0895AEE0B0E0EAECF7E1E1
:102F90000C943F160D891E898F89988D26E02C830D
:102FA0001A83098397FF02C080E090E801979E830F
:102FB0008D83AE01455E5F4F698D7A8DCE0101969E
:102FC0000E94F4174D815E8157FD0AC02F8138851C
:102FD000421753070CF49A01F801E20FF31F108215
:102FE0002E96E4E00C945B16ABE0B0E0EAEFF7E17C
:102FF0000C9431166C017B018A01FC011782168248
:10300000838181FFCCC1CE0101963C01F601938101
:10301000F70193FD859193FF81917F01882309F446
:10302000BAC1853239F493FD859193FF81917F0177
:10303000853229F4B60190E00E94EB19E7CF912C7C
:10304000212C312CFFE1F315D8F08B3279F038F4D4
:10305000803279F08332A1F4232D20611DC08D329E
:1030600061F0803369F4232D216016C0832D8260C6
:10307000382EE32DE4603E2E2AC0F32DF8601DC0EB
:1030800037FC2DC020ED280F2A3040F08E32B9F4E5
:1030900036FC81C1232D2064322E19C036FE06C0B5
:1030A0008AE0989E200D1124922E11C0EAE02E9EF7
:1030B000200D1124222EF32DF0623F2E08C08C36F5
:1030C00021F4832D8068382E02C0883641F4F70140
:1030D00093FD859193FF81917F018111B3CF982F4B
:1030E0009F7D9554933028F40C5F1F4F9FE3998385
:1030F0000DC0833631F0833771F0833509F059C044
:1031000021C0F801808189830E5F1F4F882483943A
:10311000912C530113C02801F2E04F0E511CF8010D
:10312000A080B18036FE03C0692D70E002C06FEF51
:103130007FEFC5010E94E0194C018201F32DFF775A
:103140003F2E16C0280122E0420E511CF801A0803B
:10315000B18036FE03C0692D70E002C06FEF7FEFD3
:10316000C5010E94D5194C01F32DF0683F2E820154
:1031700033FC1BC0822D90E088169906B0F4B6018E
:1031800080E290E00E94EB192A94F4CFF50137FC1D
:10319000859137FE81915F01B60190E00E94EB19A5
:1031A00021102A9421E0821A91088114910471F768
:1031B000E8C0843611F0893641F5F80137FE07C0C2
:1031C00060817181828193810C5F1F4F08C0608193
:1031D0007181072E000C880B990B0E5F1F4FF32D8A
:1031E000FF763F2E97FF09C0909580957095619569
:1031F0007F4F8F4F9F4FF0683F2E2AE030E0A301B2
:103200000E94271A882E861845C0853731F4232D51
:103210002F7EB22E2AE030E025C0932D997FB92E63
:103220008F36C1F018F4883579F0B5C0803719F0C1
:10323000883721F0B0C0E92FE061BE2EB4FE0DC08A
:10324000FB2DF460BF2E09C034FE0AC0292F266072
:10325000B22E06C028E030E005C020E130E002C018
:1032600020E132E0F801B7FE07C060817181828100
:1032700093810C5F1F4F06C06081718180E090E0F8
:103280000E5F1F4FA3010E94271A882E8618FB2D60
:10329000FF773F2E36FE0DC0232D2E7FA22E8914E0
:1032A00058F434FE0BC032FC09C0832D8E7EA82E4C
:1032B00005C0B82CA32C03C0B82C01C0B92CA4FEA7
:1032C0000FC0FE01E80DF11D8081803321F49A2D9D
:1032D000997EA92E09C0A2FE06C0B394B39404C07F
:1032E0008A2D867809F0B394A3FC11C0A0FE06C015
:1032F000B21488F4280C922C9B180EC0B21460F4FF
:10330000B60180E290E00E94EB19B394F7CFB214BB
:1033100018F42B1802C0982C212CA4FE10C0B60162
:1033200080E390E00E94EB19A2FE17C0A1FC03C04D
:1033300088E790E002C088E590E0B6010CC08A2DD5
:10334000867859F0A1FE02C08BE201C080E2A7FCA2
:103350008DE2B60190E00E94EB19891438F4B601B1
:1033600080E390E00E94EB199A94F7CF8A94F301DE
:10337000E80DF11D8081B60190E00E94EB198110EB
:10338000F5CF222009F442CEB60180E290E00E94FF
:10339000EB192A94F6CFF6018681978102C08FEF50
:1033A0009FEF2B96E2E10C944D16FC0105906150C5
:1033B00070400110D8F7809590958E0F9F1F08954B
:1033C000FC016150704001900110D8F780959095F4
:1033D0008E0F9F1F08950F931F93CF93DF93FB01D1
:1033E000238121FD03C08FEF9FEF2CC022FF16C069
:1033F00046815781248135814217530744F4A081C7
:10340000B1819D012F5F3F4F318320838C932681B3
:1034100037812F5F3F4F3783268314C08B01EC0128
:10342000FB010084F185E02D0995892BE1F6D80197
:1034300016968D919C911797019617969C938E9353
:103440001697CE01DF91CF911F910F910895FA0148
:10345000AA27283051F1203181F1E8946F936E7FD3
:103460006E5F7F4F8F4F9F4FAF4FB1E03ED0B4E0C4
:103470003CD0670F781F891F9A1FA11D680F791F05
:103480008A1F911DA11D6A0F711D811D911DA11D16
:1034900020D009F468943F912AE0269F1124301926
:1034A000305D3193DEF6CF010895462F4770405DC1
:1034B0004193B3E00FD0C9F7F6CF462F4F70405D70
:1034C0004A3318F0495D31FD4052419302D0A9F7CB
:1034D000EACFB4E0A6959795879577956795BA95C5
:1034E000C9F700976105710508959B01AC010A2E8B
:1034F00006945795479537952795BA95C9F7620F62
:0E350000731F841F951FA01D0895F894FFCF20
:10350E00FFFFFF00C0A86300DEADBEAAFE010000F3
:10351E00FC04800001005E000000000000001F019E
:10352E008C00B6006C01E700C500D9000000000059
:10353E0043071607730798010E07FA06EB060000FD
:10354E000000520C8C0073077207520C520C520C76
:10355E0000000000520C8C00730772070000000080
:10356E00520C520C7307520C520C520C520C520C41
:10357E00B506520C520C520C520C520C520C520CF0
:10358E00520C520C0000000099015A057307980165
:10359E00960602032902B007DA0476070406F2073C
:1035AE002B037403E302AE069E069A06000000008B
:1035BE00AF0100000000520C0D0A004D61737465DE
:1035CE007220626F6172642069643A20257300462E
:1035DE006F756E6420696E70757420626F617264AF
:1035EE0020617420616464726573733A20256400EF
:1035FE0068656C6C6F20696D256400696D256420AB
:10360E00622564206925642025640053656E646913
:10361E006E6720257300257320706F6E67004E6FE6
:10362E002070696E67202D20636F6E6E65637469FE
:10363E006F6E206C6F73743F004E6F2070696E67F3
:10364E0020666F722061206C6F6E672074696D65E5
:10365E002C20747279696E6720746F2072657365A1
:10366E0074207468652064657669636500526563CD
:0E367E0065697665642025730070696E6700CB
:00000001FF
