:100000000C9468000C9490000C9490000C94900058
:100010000C9490000C9490000C9490000C94900020
:100020000C9490000C9490000C9490000C94900010
:100030000C9490000C9490000C9490000C94900000
:100040000C9485100C9490000C94670A0C94410A4F
:100050000C9490000C9490000C9490000C949000E0
:100060000C94B9040C9490006364696E6F7073759E
:1000700078585B0000000000250028002B000000DD
:1000800000002300260029000000000800020100F3
:100090000003040700000000000000000000000052
:1000A000240027002A0001020408102040800102D9
:1000B00004081020010204081020040404040404AD
:1000C00004040202020202020303030303030A11EF
:1000D00011241FBECFEFD8E0DEBFCDBF12E0A0E0FD
:1000E000B1E0E6E3FCE302C005900D92A639B1074A
:1000F000D9F725E0A6E9B2E001C01D92AF31B20701
:10010000E1F710E0C8E6D0E004C02197FE010E94AC
:10011000F616C736D107C9F70E94B2120C94191E01
:100120000C940000FC01818D928D0895FC0184895E
:100130009589089520EB31E0FC0131832083FB0198
:100140004089518962897389FC01428353836483A6
:1001500075830895DC01ED91FC91048CF58DE02D03
:10016000099480E0089585ED8093BC008091BC00E7
:1001700084FDFCCF10927D0308954091D602262F76
:1001800030E0240F311D21323105DCF420917D0354
:100190002430C9F4FC0180E090E0861758F43091D7
:1001A000D6022191DC01AA54BD4FA30FB11D2C939F
:1001B0000196F3CF8091D602680F6093D60280E05B
:1001C000089581E0089582E0089508950895E091EA
:1001D000560380915503E81730F4F0E0EA56FD4FDE
:1001E000808190E008958FEF9FEF089590915603DE
:1001F00080915503981750F4E92FF0E0EA56FD4F2F
:10020000208130E09F5F9093560302C02FEF3FEFB5
:10021000C90108958091550390E020915603821BF7
:1002200091090895CF92DF92EF92FF920F931F935F
:10023000CF93DF937C01CB018A0120917E0322239F
:1002400089F0EB016B01C40ED51ECC15DD0569F0FC
:100250006991D701ED91FC910190F081E02DC701EA
:100260000995F3CF642F0E94BD00C801DF91CF91A3
:100270001F910F91FF90EF90DF90CF900895CF9353
:10028000DF931F92CDB7DEB7698320917E032223CF
:10029000D1F02091A103203240F021E030E0FC01B8
:1002A0003383228380E090E015C080917F03E82FA4
:1002B000F0E0E058FC4F998190838F5F80937F033B
:1002C0008093A10305C061E0CE0101960E94BD00AC
:1002D00081E090E00F90DF91CF910895089580E044
:1002E00090E00895CF93DF93FC01808D843029F056
:1002F000EF010E949D0C84E0888FDF91CF910895DB
:100300009B0190E00496982F8827642F820F931FFB
:100310000C94820CCF93DF9390E00496982F88275B
:10032000EC01C60FD71F0E949B0A8FE00E949D0A16
:100330008D2F0E949D0A8C2F0E949D0A80E00E94B2
:100340009D0AC82F0E94990A8C2FDF91CF910895A2
:1003500008958CBD9DBD0895CF92DF92FF920F93BB
:100360001F93CF93DF9300D0CDB7DEB7FC01208D74
:10037000243011F080E028C06B018C01F12CCE01FB
:1003800001960E94A50D89819A810E94A90163E0CE
:1003900070E08F2D0E948A01811103C0F801F08E58
:1003A00006C08831D9F3F394F4E0FF12E8CFF801E6
:1003B000808D8430F9F2D586C486128E118E40E08D
:1003C000B6010E94BA0D81E00F900F90DF91CF919E
:1003D0001F910F91FF90DF90CF9008956F927F92C1
:1003E0008F929F92AF92BF92CF92DF92EF92FF9245
:1003F0000F931F93CF93DF93CDB7DEB7EC970FB674
:10040000F894DEBF0FBECDBF4C017B013A0180EBFB
:1004100091E09A8389831C861B8648EE53E060E056
:1004200070E04D875E876F87788B28E831E03A87E8
:100430002987988F8F8B198E1A8E1B8E1C8E24E025
:1004400029A399AB88AB1AAA1BAA1CAA1DAA809142
:10045000470490914804A0914904B0914A048EA3A6
:100460009FA3A8A7B9A78B839C83AD83BE8318865F
:100470001F82F70120E080E090E06AE031913323B1
:1004800019F140ED430F4A3080F4689FA001699F45
:10049000500D1124CA01C097830F911D37FD9A9505
:1004A0008F3F910559F350F32BC03E3249F523306D
:1004B00039F1A2E3B0E0AC0FBD1FA20FB11D8C93C8
:1004C0002F5F80E090E0DACF2330D1F48DABD40100
:1004D000ED91FC910488F589E02D80EB91E09DA3DE
:1004E0008CA38AA99BA9ACA9BDA98EA39FA3A8A7E9
:1004F000B9A7A301BE016C5D7F4FC401099524C259
:100500004B815C816D817E81809141049091420498
:10051000A0914304B0914404481759076A077B0728
:1005200009F410C20E9477106F7077277C5FCE01AC
:1005300009960E94AC01813009F001C280EB91E084
:100540009DA38CA38B819C81AD81BE818EA39FA333
:10055000A8A7B9A745E350E0BE016C5D7F4FCE016F
:1005600009960E942D0C892B19F400E010E072C14D
:100570000E94771078876F837627672776277DA379
:100580006CA342E050E0BE016C5D7F4FCE01099646
:100590000E94830B81E090E09FAB8EAB42E050E085
:1005A000BE016A5C7F4FCE0109960E94830B80E0FA
:1005B00091E09FAB8EAB42E050E0BE016A5C7F4FA2
:1005C000CE0109960E94830B1FAA1EAA42E050E0AA
:1005D000BE016A5C7F4FCE0109960E94830B42E008
:1005E00050E0BE016A5C7F4FCE0109960E94830BEA
:1005F00042E050E0BE016A5C7F4FCE0109960E9446
:10060000830B6701D7018C91882311F18601780152
:10061000F70181915F01882321F08E3211F085016D
:10062000F6CF0C191D091016110684F408AF41E02D
:1006300050E0BE01685C7F4FCE0109960E94830B9B
:10064000A801B601CE0109960E94830B6501DACF9D
:1006500018AE41E050E0BE01685C7F4FCE010996C4
:100660000E94830B00E011E01FAB0EAB42E050E0B4
:10067000BE016A5C7F4FCE0109960E94830B1FABBF
:100680000EAB42E050E0BE016A5C7F4FCE0109969E
:100690000E94830BCE0109960E945409892B09F40C
:1006A00064CF83E0E82EF12C0E9477105B016C018F
:1006B000CE0109960E949D0918161906A4F00E9401
:1006C0007710DC01CB018A199B09AC09BD09893877
:1006D0009341A105B105C8F462E370E080E090E0C9
:1006E0000E94260FE5CF4B815C816D817E81898DD3
:1006F0009A8DAB8DBC8D481759076A077B0741F46B
:100700008D8D9E8DC59721F406C00FEF1FEF99C008
:100710000EEF1FEF96C08AA19BA10C970CF4A7C007
:100720004CE050E0BE016C5D7F4FCE0109960E9407
:100730000C098EA19FA19827892798279BAF8AAF84
:100740002CA13DA13227232732274F81588524171A
:10075000350709F089C097FF87C08F709270892B89
:1007600009F0EAC0AAA4BBA4BA24AB24BA24A114F9
:10077000B10409F4DEC000E010E088A599A598272F
:10078000892798270817190708F474C0C12CD12CA1
:1007900041E050E0BE01645C7F4FCE0109960E94AB
:1007A0000C098CAD982F907C09F09CC081118FC0F2
:1007B00042E050E0BE01685C7F4FCE0109960E9486
:1007C0000C0942E050E0BE016A5C7F4FCE01099601
:1007D0000E940C09CE0109960E942B09CE010996B0
:1007E0000E942B09CE0109960E942B09CE01099681
:1007F0000E942B0942E050E0BE01665C7F4FCE01B3
:1008000009960E940C0988AD99AD8115914009F0B7
:1008100072C00EA91FA9102701271027013011054A
:1008200009F069C08AAD9BAD8115944009F07EC086
:1008300044E050E0BE016E5C7F4FCE0109960E94FD
:100840000C09F1E0EF1AF10829F00F3FFFEF1F0745
:1008500009F42ACFCE0109960E94720101301105D8
:1008600009F435CEC80170C00CEF1FEFEACF0DEFD1
:100870001FEFE7CF41E050E0BE016A5C7F4FCE0141
:1008800009960E940C098EA9882359F08EA99FEF22
:10089000980F9EAB882329F0CE0109960E942B0960
:1008A000F5CF8EA98111E6CFCE0109960E942B09C2
:1008B000CE0109960E942B09CE0109960E942B09B0
:1008C000CE0109960E942B090F5F1F4F56CF8CADAA
:1008D0009FEF980F9CAF882351F0CE0109960E949C
:1008E0002B09F5CFCE0109960E942B091CAE8CADC9
:1008F00081114ECF5DCF00E010E08AAD9BAD98270F
:10090000892798270817190738F4CE0109960E94FD
:100910002B090F5F1F4FF1CFEFEFCE1ADE0ACA147B
:10092000DB0409F035CF06EF1FEF8BCF07EF1FEF8A
:1009300088CF0AEF1FEF85CF0BEF1FEF82CF80E04C
:1009400090E002C08EEF9FEFEC960FB6F894DEBFFA
:100950000FBECDBFDF91CF911F910F91FF90EF9010
:10096000DF90CF90BF90AF909F908F907F906F90CF
:1009700008951F920F920FB60F9211242F933F9359
:100980004F935F936F937F938F939F93AF93BF9397
:10099000EF93FF938091B900887F803609F49CC063
:1009A00068F5883209F45BC090F4803109F454C0D2
:1009B00038F4882309F4F6C0883009F44DC0F6C035
:1009C000883109F44CC0803209F45DC0EFC0803436
:1009D00009F468C048F4803309F455C0883309F03D
:1009E000E5C080937B03D8C0803509F44FC08835BB
:1009F00009F45DC0883409F0D9C0D6C0883909F43B
:100A0000C7C0A8F4883709F467C038F4883609F4F9
:100A100063C0803709F460C0C9C0883809F4B8C021
:100A2000803909F45FC0803809F0C0C05BC0803BEA
:100A300009F486C038F4803A09F466C0883A09F4AB
:100A40007FC0B4C0803C09F4A7C0883C09F4A4C0AE
:100A5000883B09F48AC0AAC08091580310C09091C5
:100A60007A0380917903981770F5E0917A0381E019
:100A70008E0F80937A03F0E0E75AFC4F80818093D9
:100A8000BB0085EC86C080937B038EC0E0917A0327
:100A900081E08E0F80937A038091BB00F0E0E75AEB
:100AA000FC4F808390917A03809179036EC0E0912E
:100AB0007A0381E08E0F80937A038091BB00F0E08F
:100AC000E75AFC4F808380917C0381116DC081E0E7
:100AD0008093570384EA61C083E080937D03109282
:100AE000F802CFCF8091F802803208F051C0E09137
:100AF000F80281E08E0F8093F8028091BB00F0E055
:100B0000E852FD4F8083BDCF85EC8093BC001092EE
:100B10007D038091F802803230F4E091F802F0E039
:100B2000E852FD4F10826091F80270E0E0915103AD
:100B3000F091520388ED92E009951092F80236C0C8
:100B400084E080937D031092D7021092D602E09148
:100B50005303F091540309958091D602811105C089
:100B600081E08093D6021092B602E091D70281E034
:100B70008E0F8093D702F0E0EA54FD4F808180937E
:100B8000BB009091D7028091D602981708F479CFD4
:100B900085E88093BC000AC085EC8093BC0010926D
:100BA0007D0304C010927B030E94B300FF91EF917C
:100BB000BF91AF919F918F917F916F915F914F9175
:100BC0003F912F910F900FBE0F901F901895CF93CC
:100BD000C42FFC018081806291E090937E0380931A
:100BE000A00310927F031092A1038DE494E00E9471
:100BF0003F016C2F8DE494E00E943F0181E0CF9192
:100C00000C94490DCF93DF93EC018881806291E0D1
:100C100090937E038093A00310927F031092A10310
:100C20008DE494E00E943F0181E00E94490D809193
:100C30007D038111FCCF888191E090937D03909397
:100C40007C032FEF20937B0310927A031092790399
:100C500090935803909158038062880F892B80935A
:100C6000580380915703813061F4109257038091AB
:100C700058038093BB008091BC0083FDF8CF85ECC6
:100C800001C085EE8093BC0080917D038130E1F34B
:100C900080917A03811103C090917A0301C091E0A1
:100CA000A9E5B3E0E6E9F2E080E0891721F02D91B3
:100CB00021938F5FFACF10925603809355038DE4F2
:100CC00094E00E94F600DF91CF910895FF920F9378
:100CD0001F93CF93DF93EC01162FF42E062F07708E
:100CE000683010F065E101C064E1CE010E940206A7
:100CF00041E050E060E070E004C0440F551F661F03
:100D0000771F0A95D2F7FF2011F0482B02C04095BB
:100D10004823183010F063E101C062E1CE01DF9199
:100D2000CF911F910F91FF900C94E705EF92FF92E6
:100D30000F931F93CF937C0125E0E20EF11CC0E0DE
:100D40008C010E5F1F4FF7014081F2E0EF0EF11CA6
:100D50006C2FC8010E946606CF5FC031A1F7CF910A
:100D60001F910F91FF90EF900895CF92DF92EF9235
:100D7000FF920F931F93CF93DF936C017A018B0146
:100D8000C0E0D0E0CE15DF0581F0D8016D918D0176
:100D9000D601ED91FC910190F081E02DC6010995FD
:100DA000892B11F02196EECF7E01C701DF91CF9103
:100DB0001F910F91FF90EF90DF90CF900895FC016D
:100DC000538D448D252F30E0842F90E0821B930BB0
:100DD000541710F0CF96089501970895FC01918D56
:100DE000828D981761F0828DDF01A80FB11D5D968D
:100DF0008C91928D9F5F9F73928F90E008958FEFFB
:100E00009FEF0895FC01918D828D981731F0828DAE
:100E1000E80FF11D858D90E008958FEF9FEF089505
:100E2000FC01918D228D892F90E0805C9F4F821B69
:100E300091098F739927089582EA93E00E94100721
:100E400021E0892B09F420E0822F0895FC01848D94
:100E5000DF01A80FB11DA35ABF4F2C91848D90E0E4
:100E600001968F739927848FA689B7892C93A089BF
:100E7000B1898C91837080648C93938D848D981349
:100E800006C00288F389E02D80818F7D80830895DC
:100E9000EF92FF920F931F93CF93DF93EC0181E0CA
:100EA000888F9B8D8C8D981305C0E889F989808186
:100EB00085FD26C0F62E0B8D10E00F5F1F4F0F73C0
:100EC0001127E02E8C8DE8120CC00FB607FCFACF6C
:100ED000E889F989808185FFF5CFCE010E94260738
:100EE000F1CF8B8DFE01E80FF11DE35AFF4FF08229
:100EF0009FB7F8940B8FEA89FB89808180620AC0D2
:100F00009FB7F894EE89FF896083E889F989808129
:100F10008370806480839FBF81E090E0DF91CF91F8
:100F20001F910F91FF90EF900895CF93DF93EC0105
:100F3000888D8823C9F0EA89FB89808185FD05C0F9
:100F4000A889B9898C9186FD0FC00FB607FCF5CF33
:100F5000808185FFF2CFA889B9898C9185FFEDCF7B
:100F6000CE010E942607E7CFDF91CF91089580E060
:100F700090E0892B29F00E941C0781110C9400003D
:100F800008950895CF93DF931F92CDB7DEB769839D
:100F9000DC01ED91FC910280F381E02D41E050E015
:100FA000BE016F5F7F4F09950F90DF91CF9108953C
:100FB0008F929F92AF92BF92CF92DF92EF92FF9269
:100FC0000F931F93CF93DF937C01EB016C0182E0C1
:100FD000C80ED11C4701E5E08E0E911C00E010E028
:100FE000F60141916F0150E060E070E02AE0CE012F
:100FF0000E947C0E5C01E881F9810190F081E02D76
:101000006EE2CE0109958A0D9B1D080F191F8C14E5
:101010009D0431F7F701458150E060E070E02AE07F
:10102000CE010E947C0E800F911FDF91CF911F9106
:101030000F91FF90EF90DF90CF90BF90AF909F9077
:101040008F9008951F93CF93DF93182F66E270E07F
:101050000E948A01C82FD0E067E270E0812F0E94D1
:101060008A01DC2FCC279E01282BC901DF91CF916B
:101070001F9108951F93CF93DF93182F60E270E0C4
:101080000E948A01C82FD0E061E270E0812F0E94A7
:101090008A01DC2FCC279E01282BC901DF91CF913B
:1010A0001F910895FF920F931F93CF93DF9300D06A
:1010B000CDB7DEB7FC01218D328D232B29F1F08CC9
:1010C000CE0101960E94A50D89819A810E94A901F5
:1010D00068E270E08F2D0E948A01082F10E069E21B
:1010E00070E08F2D0E948A01702F6627682B21E007
:1010F00030E0AE014F5F5F4F8F2D0E94350E0E9492
:10110000A801898190E002C08FEF9FEF0F900F90B0
:10111000DF91CF911F910F91FF9008958F929F9231
:10112000BF92CF92DF92EF92FF920F931F93CF93D4
:10113000DF9300D0CDB7DEB7B82E6B017A01CE01B8
:1011400001960E94A50D89819A810E94A901812C96
:10115000912C8B2D0E9422088C01892B21F08B2D44
:101160000E9422084C010815190599F7011511056F
:1011700099F463E070E08B2D0E948A018431D9F1EB
:101180008823C9F101E010E08C3111F400E010E097
:101190001195019511092FC0E016F1060CF4870195
:1011A0001016110644F568E270E08B2D0E948A014A
:1011B000E82EF12C69E270E08B2D0E948A01FE2C52
:1011C000EE24E82A9801A601B7018B2D0E94350E66
:1011D000E00EF11E4F2D68E270E08B2D0E94800121
:1011E0004E2D69E270E08B2D0E94800160E470E07A
:1011F0008B2D0E94AA0D0E94A801C8010F900F908C
:10120000DF91CF911F910F91FF90EF90DF90CF90E2
:10121000BF909F908F900895CF93DF93FC01218D15
:10122000328D2115310519F48FEF9FEF11C0EC01BC
:101230004217530708F0A901888D0E948E081816DE
:10124000190694F7298D3A8D281B390B3A8F298F6F
:10125000DF91CF9108950F931F93CF93DF931F9248
:10126000CDB7DEB7FC01218D328D232B61F08C01CF
:1012700041E050E0BE016F5F7F4F808D0E948E087D
:10128000181619061CF08FEF9FEF08C0F801818D2A
:10129000928D0197928F818F898190E00F90DF91DD
:1012A000CF911F910F9108951F93CF93DF9300D09B
:1012B000CDB7DEB7FC01108DCE0101960E94A50DC1
:1012C00089819A810E94A90160E270E0812F0E94C9
:1012D000AA0D62E070E0812F0E948A0184FD1DC08A
:1012E00062E070E0812F0E948A0183FF0BC048E119
:1012F00062E070E0812F0E9480010E94A80180E0DE
:1013000090E015C00E94A801CE0101960E94A50D93
:1013100089819A810E94A901DCCF40E162E070E0FE
:10132000812F0E9480010E94A80181E090E00F902F
:101330000F90DF91CF911F910895BF92CF92DF92CE
:10134000EF92FF920F931F93CF93DF93CDB7DEB74A
:1013500028970FB6F894DEBF0FBECDBF8C01D80121
:1013600059968D919C915A97892B41F0ED91FC9162
:101370000284F385E02DC8010995F1CFF801B08C06
:10138000CE0101960E94A50D89819A810E94A90132
:10139000C12CD12C8B2D0E9422087C01892B21F09D
:1013A0008B2D0E9422086C01EC14FD0499F70E9419
:1013B000A8011E141F0454F548E050E0BE016F5F01
:1013C0007F4FD80158968C910E948E0818161906E6
:1013D000FCF4D801509684E0FE01319601900D9204
:1013E0008A95E1F78D8190E0982F88272E81820FD2
:1013F000911DF801958B848B8F8190E0982F882721
:101400002885820F911D928F818F02C080E090E02D
:1014100028960FB6F894DEBF0FBECDBFDF91CF91F7
:101420001F910F91FF90EF90DF90CF90BF900895A4
:101430006115710579F0FB0101900020E9F7319702
:10144000AF01461B570BDC01ED91FC910280F3814B
:10145000E02D099480E090E008950F931F93CF93BF
:10146000DF93EC010E94180A8C0168EB71E0CE0159
:101470000E94180A800F911FDF91CF911F910F9149
:1014800008951F920F920FB60F9211242F933F933E
:101490004F935F936F937F938F939F93AF93BF937C
:1014A000EF93FF9382EA93E00E942607FF91EF916A
:1014B000BF91AF919F918F917F916F915F914F916C
:1014C0003F912F910F900FBE0F901F9018951F9274
:1014D0000F920FB60F9211242F938F939F93EF9338
:1014E000FF93E091B203F091B3038081E091B803E0
:1014F000F091B90382FD12C090818091BB038F5F90
:101500008F732091BC03821751F0E091BB03F0E090
:10151000EE55FC4F958F8093BB0301C08081FF91F6
:10152000EF919F918F912F910F900FBE0F901F9071
:1015300018952A9A08952A9808958EBD00000DB432
:1015400007FEFDCF8EB50895CF92DF92EF92FF9206
:101550000F931F93CF93DF93EC017A018B016C0102
:10156000C40ED51ECC15DD05A9F00E949B0A8FE0A4
:101570000E949D0A8D2F0E949D0A8C2F0E949D0A19
:10158000219680E00E949D0AF80181938F010E94BC
:10159000990AE8CFC701DF91CF911F910F91FF907A
:1015A000EF90DF90CF900895CF92DF92EF92FF926D
:1015B0000F931F93CF93DF93EC017A018B016C01A2
:1015C000C40ED51ECC15DD05A1F00E949B0A80EF4C
:1015D0000E949D0A8D2F0E949D0A8C2F0E949D0AB9
:1015E0002196F80181918F010E949D0A0E94990A1B
:1015F000E9CFC701DF91CF911F910F91FF90EF903D
:10160000DF90CF900895BF92CF92DF92EF92FF923A
:101610000F931F93CF93DF9300D000D000D0CDB7AE
:10162000DEB7FC01208D243009F05CC06A017B012B
:101630008C01B12C63E070E08B2D0E948A01811136
:1016400003C0F801B08E06C08831D9F3B394F4E03A
:10165000BF12F0CFF801808D843009F443C096E0CA
:10166000E4E1F1E0DE01119601900D929A95E1F727
:10167000F70193819F779C8394819D8395819E83BD
:10168000B7016E5F7F4F90E0982F882744E050E0CD
:10169000845F9B4F0E94D40AF801F08C4D2D60E1CD
:1016A00070E08F2D0E9480014C2D61E170E08F2D44
:1016B0000E948001F801808D90E0982F882746E0F5
:1016C00050E0BE016F5F7F4F8A5F9B4F0E94D40A3C
:1016D000F801128E118E40E8B601808D0E94BA0D7D
:1016E00081E001C080E026960FB6F894DEBF0FBE01
:1016F000CDBFDF91CF911F910F91FF90EF90DF90C1
:10170000CF90BF9008955F926F927F928F929F9239
:10171000AF92BF92CF92DF92EF92FF920F931F93FF
:10172000CF93DF9300D0CDB7DEB77C016B018A0188
:10173000FC0166887788508CCE0101960E94A50D29
:1017400089819A810E94A901812C912C852D0E946A
:101750003A085C01892B21F0852D0E943A084C0142
:10176000A814B90499F7A016B10678F400E010E0C7
:10177000852D0E943A085C01892B21F0852D0E945D
:101780003A088C01A016B10699F764E270E0852D45
:101790000E948A01A82EB12C65E270E0852D0E947E
:1017A0008A01BA2CAA24A82A6A0C7B1C93013770E0
:1017B000852C912CC401880F991FAC014F5B5C4FA5
:1017C0004A01FA0180819181820F931FA801420F83
:1017D000531F4130584098F060E078E05B01A21A56
:1017E000B30AA501B6010E94D40AA8014A195B09EF
:1017F000B6016A0D7B1DF4018081918102C0A801B0
:10180000B6010E94D40A600E711E472D64E270E09A
:10181000852D0E948001462D65E270E0852D0E9495
:1018200080010E94A801F70186899789800F911F86
:10183000978B868BC8010F900F90DF91CF911F91EE
:101840000F91FF90EF90DF90CF90BF90AF909F905F
:101850008F907F906F905F900895DF92EF92FF924C
:101860000F931F93CF93DF9300D0CDB7DEB7FB016B
:10187000DC0157961C921E9256972281211109C0B5
:101880002381211106C02481211103C02581222337
:1018900069F14115510551F17A018F01FC01D08C9C
:1018A000CE0101960E94A50D89819A810E94A9010D
:1018B000B8016E5F7F4F8D2D90E0982F882744E010
:1018C00050E0845F9B4F0E94D40A4F2D60E170E08E
:1018D0008D2D0E9480014E2D61E170E08D2D0E94C2
:1018E00080010E94A80181E090E002C080E090E0C9
:1018F0000F900F90DF91CF911F910F91FF90EF907C
:10190000DF9008951F93CF93DF93D82F192FC62F01
:101910000E949B0A80EF0E949D0A812F0E949D0ACF
:101920008D2F0E949D0A8C2F0E949D0A0E94990A69
:1019300081E0DF91CF911F9108951F93CF93DF93A3
:1019400000D0CDB7DEB7182FCE0101960E94A50DAD
:1019500089819A810E94A90160E170E0812F0E9433
:10196000AA0D4FEF62E070E0812F0E9480010E947B
:10197000A8010F900F90DF91CF911F9108958330B0
:1019800081F028F4813099F08230A1F008958730F9
:10199000A9F08830B9F08430D1F4809180008F7D37
:1019A00003C0809180008F7780938000089584B574
:1019B0008F7702C084B58F7D84BD08958091B0007B
:1019C0008F7703C08091B0008F7D8093B000089521
:1019D000CF93DF9390E0FC01EA55FF4F2491FC0187
:1019E000E654FF4F8491882361F190E0880F991F9E
:1019F000FC01E456FF4FC591D491FC01EC58FF4F18
:101A0000A591B491611109C09FB7F8948881209580
:101A100082238883EC912E230BC0623061F49FB740
:101A2000F8948881322F309583238883EC912E2B74
:101A30002C939FBF06C08FB7F894E8812E2B288384
:101A40008FBFDF91CF9108953FB7F8948091FD0249
:101A50009091FE02A091FF02B091000326B5A89BD1
:101A600005C02F3F19F00196A11DB11D3FBFBA2F30
:101A7000A92F982F8827820F911DA11DB11DBC0190
:101A8000CD0142E0660F771F881F991F4A95D1F755
:101A90000895282F3091A103313208F04AC0809177
:101AA0007D038111FCCF9091A00342E040937D0320
:101AB00020937C032FEF20937B0310927A033093C3
:101AC0007903E0E8F3E0A9E5B3E020E0321721F084
:101AD00041914D932F5FFACF1092580320915803F4
:101AE000990F922B9093580390915703913061F482
:101AF00010925703909158039093BB009091BC00B3
:101B000093FDF8CF95EC01C095EE9093BC009091B9
:101B10007D039230E1F390917B039F3F79F08091B8
:101B20007B03803241F080917B03803331F084E08D
:101B300005C081E003C082E001C083E010927F0312
:101B40001092A10310927E03089520E5FC012083EA
:101B500011820895CF93C82F462F61E070E00E9454
:101B6000800161E070E08C2F0E948A018111F9CF21
:101B7000CF910895EF92FF920F931F93CF93DF932E
:101B800000D0CDB7DEB7182F7B01042F0E949D0C2B
:101B9000CE0101960E94A50D89819A810E94A9011A
:101BA000402F426060E070E0812F0E948001E114CC
:101BB000F10459F4E0909304F09094048FEFE81A44
:101BC000F80AF0929404E09293044F2D64E070E0E0
:101BD000812F0E9480014E2D65E070E0812F0E94D0
:101BE000800161E070E0812F0E94AA0D0E94A8018F
:101BF00081E00F900F90DF91CF911F910F91FF9097
:101C0000EF900895CF93DF9300D000D000D0CDB7F0
:101C1000DEB780EB91E09A8389838091B50490913F
:101C2000B604A091B704B091B8048B839C83AD83B4
:101C3000BE8343EB55E1BE016F5F7F4F87E794E0C2
:101C40000E942D0C61E073E087E794E00E942D0A6A
:101C500087E794E00E94540926960FB6F894DEBFF9
:101C60000FBECDBFDF91CF910895AF92BF92CF92BB
:101C7000DF92EF92FF920F931F93CF93DF9300D0E9
:101C8000CDB7DEB77A836983BA01A901E981FA8108
:101C9000F770082F10E0000F111F075B1C4FD801D1
:101CA0008D919C918E0F9F1F9F01240F351F213016
:101CB0003840A0F07A015B0160E078E06B01CE1A59
:101CC000DF0AA601B5010E94A40AA7014C195D090B
:101CD000B5016C0D7D1DF801808191810F900F90F1
:101CE000DF91CF911F910F91FF90EF90DF90CF90F8
:101CF000BF90AF900C94A40A8F929F92AF92BF9224
:101D0000EF92FF920F931F93CF93DF93CDB7DEB780
:101D1000A1970FB6F894DEBF0FBECDBF7C01FA01CC
:101D2000CB0119A2223008F42AE08E010F5D1F4F6B
:101D3000822E912CA12CB12CBF01A50194010E94EF
:101D4000D416F901CA01015011096A3014F4605D1A
:101D500001C0695CD8016C93232B242B252B61F7E0
:101D6000B801C7010E94180AA1960FB6F894DEBF09
:101D70000FBECDBFDF91CF911F910F91FF90EF90DC
:101D8000BF90AF909F908F9008951F93CF93DF9354
:101D9000282F30E0F901E857FF4F8491F901EA5507
:101DA000FF4FD491F901E654FF4FC491CC23C1F009
:101DB000162F81110E94BF0CEC2FF0E0EE0FFF1FD9
:101DC000EC58FF4FA591B4919FB7F894111104C03E
:101DD0008C91D095D82302C0EC91DE2BDC939FBF71
:101DE000DF91CF911F9108951092560310925503E1
:101DF00010927F031092A10310927D0381E08093E3
:101E00007C031092570361E082E10E94C50E61E0FD
:101E100083E10E94C50EE9EBF0E080818E7F808334
:101E200080818D7F808388E48093B80085E48093EF
:101E3000BC0085EE90E0909354038093530386EEAC
:101E400090E0909352038093510308958F929F9254
:101E5000AF92BF92CF92DF92EF92FF926B017C0123
:101E60000E94240D4B015C01C114D104E104F10472
:101E7000F1F00E94240DDC01CB0188199909AA090F
:101E8000BB09883E9340A105B10570F321E0C21A59
:101E9000D108E108F10888EE880E83E0981EA11CA5
:101EA000B11CC114D104E104F10419F7DDCFFF9096
:101EB000EF90DF90CF90BF90AF909F908F9008955C
:101EC000CF92DF92EF92FF921F93CF93DF93CDB724
:101ED000DEB7E2970FB6F894DEBF0FBECDBFFC01B0
:101EE00082819381A481B5818DA79EA7AFA7B8AB4E
:101EF00051E058ABCDA4DEA4EFA4F8A8CB8EDC8EC5
:101F0000ED8EFE8EFB01C280D380E480F580C9A2F5
:101F1000DAA2EBA2FCA28FA398A7A9A7BAA720EBED
:101F200031E03C8B2B8B4FEF4D8B4E8B4F8B188EB4
:101F30003E872D875E8F4B8D5C8D6D8D7E8D4F879F
:101F4000588B698B7A8BC986DA86EB86FC863A8356
:101F500029838B839C83AD83BE836CE271E080E038
:101F600090E00E94260F1FB7F8948091920481118F
:101F700027C0E4ECF0E08491E0EBF0E09491E82FEE
:101F8000F0E0EE0FFF1FE456FF4FA591B491EC91E6
:101F9000E92321F461E08AE00E94C50E61E08AE055
:101FA0000E94E80C8CB580618CBD8CB580648CBDC2
:101FB00061E08DE00E94E80C61E08BE00E94E80C9B
:101FC000809192048F5F809392041FBF229ACE016A
:101FD000C1960E94A50D89A99AA90E94A90160E84D
:101FE00080E090E00E94820C65E58BE190E00E9429
:101FF000820C65E58AE190E00E94820C0E94A801B3
:1020000080E090E4909342038093410380E090E667
:1020100090934A038093490380E098E490934403AB
:102020008093430380E098E690934C0380934B03A6
:1020300080E090E5909346038093450380E090E72D
:1020400090934E0380934D0380E098E5909348036E
:102050008093470380E098E79093500380934F0369
:10206000CE01C1960E94A50D89A99AA90E94A90135
:1020700046E050E060E071E089E090E00E94D40A20
:1020800044E050E0BE016D5F7F4F8FE090E00E9422
:10209000D40A44E050E0BE01615F7F4F81E090E0F0
:1020A0000E94D40A44E050E0BE016B5E7F4F85E0A1
:1020B00090E00E94D40A0E94A80189859A85AB8588
:1020C000BC858093470490934804A0934904B0933F
:1020D0004A04E2960FB6F894DEBF0FBECDBFDF9183
:1020E000CF911F91FF90EF90DF90CF9008952FB781
:1020F000F8946091F9027091FA028091FB0290913C
:10210000FC022FBF08950E941D181F920F920FB658
:102110000F9211242F933F938F939F93AF93BF936D
:102120008091F9029091FA02A091FB02B091FC0219
:1021300030911A0523E0230F2D3720F40196A11DBD
:10214000B11D05C026E8230F0296A11DB11D2093E5
:102150001A058093F9029093FA02A093FB02B093C0
:10216000FC028091FD029091FE02A091FF02B091CD
:1021700000030196A11DB11D8093FD029093FE0204
:10218000A093FF02B0930003BF91AF919F918F91F5
:102190003F912F910F900FBE0F901F9018952CE339
:1021A00030E0FC013483238335969C01295D3F4F49
:1021B00011921192E217F307D9F7FC017183608342
:1021C0000895CF93DF93282F30E0F901E857FF4FB0
:1021D0008491F901EA55FF4FD491F901E654FF4F7C
:1021E000C491CC2391F081110E94BF0CEC2FF0E040
:1021F000EE0FFF1FE258FF4FA591B491EC91ED2334
:1022000081E090E021F480E002C080E090E0DF9186
:10221000CF910895CF93DF931092A5031092A4035A
:1022200048EE53E060E070E04093A6035093A703AC
:102230006093A8037093A9038EE191E09093A303A8
:102240008093A20385EC90E09093AF038093AE035C
:1022500084EC90E09093B1038093B00380EC90E025
:102260009093B3038093B20381EC90E09093B50315
:102270008093B40382EC90E09093B7038093B6030D
:1022800086EC90E09093B9038093B8031092BB035F
:102290001092BC031092BD031092BE0380EB91E03C
:1022A0009093400480933F041092410410924204A2
:1022B00010924304109244049093960480939504E2
:1022C00010929704109298041092990410929A0414
:1022D00090939C0480939B0410929D0410929E0402
:1022E00010929F041092A0049093A2048093A104E2
:1022F0001092A3041092A4041092A5041092A604B4
:102300009093460480934504109247041092480429
:102310001092490410924A041092500410924F04F3
:1023200040935104509352046093530470935404A7
:1023300020E331E030934E0420934D049093AE049B
:102340008093AD041092AF041092B0041092B104C7
:102350001092B2049093A8048093A70480EC809319
:10236000A90488EA8093AA0483E68093AB048FEFE4
:102370008093AC0410926E0410926D0462E085E0CC
:102380000E94E80C62E083E00E94E80C62E082E0D8
:102390000E94E80C85E00E94E110892B49F48091AD
:1023A0006D0490916E04816090936E0480936D042F
:1023B00083E00E94E110892B49F480916D04909193
:1023C0006E04826090936E0480936D0482E00E949C
:1023D000E110892B49F480916D0490916E04846022
:1023E00090936E0480936D0461E086E00E94E80C97
:1023F00060E086E00E94C50E61E087E00E94E80C84
:1024000060E087E00E94C50E87E290E00E94FC1623
:10241000EC0160E070E00E94CF10D0935A04C093AA
:10242000590487E290E00E94FC16EC0161E070E044
:102430000E94CF10D0935C04C0935B0487E290E0CD
:102440000E94FC16EC0162E070E00E94CF10D09375
:102450005E04C0935D0487E290E00E94FC16EC01EC
:1024600063E070E00E94CF10D0936004C0935F04DB
:1024700087E290E00E94FC16EC0164E070E00E94AC
:10248000CF10D0936204C093610487E290E00E9471
:10249000FC16EC0165E070E00E94CF10D09364045C
:1024A000C093630487E290E00E94FC16EC0166E0B2
:1024B00070E00E94CF10D0936604C093650487E259
:1024C00090E00E94FC16EC0167E070E00E94CF10E3
:1024D000D0936804C093670480EB91E09093BA04B2
:1024E0008093B9041092BB041092BC041092BD04F6
:1024F0001092BE049093B4048093B30420EC209314
:10250000B50428EA2093B60423E62093B7042FEFFE
:102510002093B80410927A041092790448EE53E0A4
:1025200060E070E040937B0450937C0460937D04F2
:1025300070937E0428E831E0309378042093770488
:1025400090938604809385041092870410928804E7
:102550001092890410928A0484E080938F04DF91A2
:10256000CF910895CF93DF93CDB7DEB7C654D1098D
:102570000FB6F894DEBF0FBECDBF789484B58260ED
:1025800084BD84B5816084BD85B5826085BD85B517
:10259000816085BD80916E00816080936E00109295
:1025A0008100809181008260809381008091810010
:1025B00081608093810080918000816080938000A1
:1025C0008091B10084608093B1008091B0008160FF
:1025D0008093B00080917A00846080937A0080912B
:1025E0007A00826080937A0080917A008160809383
:1025F0007A0080917A00806880937A001092C100FE
:10260000E091B203F091B30382E08083E091AE03E6
:10261000F091AF031082E091B003F091B1038FEC21
:1026200080831092BA03E091B603F091B70386E07D
:102630008083E091B403F091B50380818061808351
:10264000E091B403F091B503808188608083E091CC
:10265000B403F091B503808180688083E091B40376
:10266000F091B50380818F7D808380916D0490917E
:102670006E048093C1049093C2049F938F9387EF5D
:1026800091E09F938F931F9285E08F930DEC14E060
:102690001F930F930E943018F80101900020E9F772
:1026A0003197ED5CF440F093CC04E093CB041F939E
:1026B0000F938BEB91E09F938F931F928FE38F93F8
:1026C0008E010F5F1F4F1F930F930E943018B801A8
:1026D00082EA93E00E942D0A8091C1049091C20485
:1026E00084579F4F90910501980F90930501909109
:1026F0000D01890F80930D0180EB91E09A8389830E
:102700004091060150910701609108017091090103
:102710004B835C836D837E8323969FAF8EAF23971D
:1027200080910A0190910B01A0910C01B0910D01D3
:1027300027968CAF9DAFAEAFBFAF2797B801CE0144
:102740008F5B9F4F0E94600F6AE07AE187E794E019
:102750000E94AC010E94F40E0FB6F894DEBF0FBECB
:10276000CDBFE12CF12CBB24B3942FECC22E21E081
:10277000D22E3FE3A32EB0927E0380E28E0D809393
:10278000A00310927F031092A10381E00E94490DE3
:10279000811114C0FF92EF92DF92CF921F92AF92FD
:1027A0001F930F930E943018B80182EA93E00E94B1
:1027B0002D0A0FB6F894DEBF0FBECDBF9FEFE91A0A
:1027C000F90AA8E0EA16F104B1F6B9E66B2EB4E016
:1027D0007B2E89E5A82E84E0B82E212C312C2101F6
:1027E0002394D501ED91FD915D016F01B2E0CB0E17
:1027F000D11C8081883008F087E082830E94F40E2B
:102800004FEF60E0C6010E94E7054FEF61E0C601AF
:102810000E94E705F12CEE24E394E7E0EF1508F0C1
:10282000E12C6E2DC6010E9402069F2D9770B20109
:10283000A10104C0440F551F661F771F9A95D2F758
:10284000409548236E2DC6010E94E70540E06F2D9C
:10285000C6010E946606F394F0E1FF12DCCF6A1411
:102860007B0409F0BECF88E99AE3A0E0B0E0809352
:10287000D6049093D704A093D804B093D9040E94AF
:1028800077106093D2047093D3048093D404909310
:10289000D504AAE0CA2ED12CFF24F394EE24E394AD
:1028A0006F2D86E00E94C50EFE246F2D87E00E94EA
:1028B000C50E62E370E080E090E00E94260F21E008
:1028C000C21AD10869F760E086E00E94C50E60E098
:1028D00087E00E94C50E8091C2048F938091C1044D
:1028E0008F9381EF91E09F938F931F9280E48F935A
:1028F00081E093E09F938F930E9430180E94020E14
:102900000FB6F894DEBF0FBECDBF6AED262E64E091
:10291000362E73EC872E74E0972EE8E9CE2EEAE38C
:10292000DE2EE12CF12CFEE14F2E512C612C712C6E
:1029300087E794E00E949D09181619060CF044C020
:10294000D101EFE31D92EA95E9F75AEDA52E54E087
:10295000B52E0E94771060937F047093800480935B
:1029600081049093820487E794E00E942B0997FFEB
:10297000D2C00E94771020917F0430918004409152
:10298000810450918204DC01CB01821B930BA40BC8
:10299000B50B20917B0430917C0440917D045091D3
:1029A0007E0482179307A407B507E8F2C0C04091E0
:1029B000CB045091CC046DEC74E08AED94E00E945D
:1029C0002218892B09F4FEC00E9477102091D204AE
:1029D0003091D3044091D4045091D504DC01CB0153
:1029E000821B930BA40BB50B2091D6043091D70416
:1029F0004091D8045091D90482179307A407B507D2
:102A000008F45BC00E9477106093D2047093D304E3
:102A10008093D4049093D5046AE272E082EA93E052
:102A20000E942D0A89E5A82E84E0B82ED5018D914B
:102A30009D915D01FC0135969C012B5D3F4F1192EC
:102A40001192E217F307D9F70E949606B9E6AB1682
:102A5000B4E0BB0659F7C092D604D092D704E092F6
:102A6000D804F092D9040E9477106093D204709336
:102A7000D3048093D4049093D50461E087E00E944E
:102A8000C50E8091BF049091C0049C012F5F3F4F01
:102A90003093C0042093BF040B977CF06CE572E088
:102AA00082EA93E00E942D0A68E873E180E090E0FA
:102AB0000E94260FE0E0F0E009950E947710209137
:102AC0006F04309170044091710450917204DC01E4
:102AD000CB01821B930BA40BB50B20917304309197
:102AE0007404409175045091760482179307A407EB
:102AF000B50770F00E94771060936F0470937004B4
:102B0000809371049093720460E086E00E94C50E89
:102B10000E94B7070DCF8B33910549F0D5018D93F6
:102B20005D01B9E1AB16B5E0BB0609F012CF40E498
:102B300050E060E972E08AED94E00E942218892B4F
:102B400009F035CFC092D604D092D704E092D804D1
:102B5000F092D9040E9477106093D2047093D3044A
:102B60008093D4049093D50461E086E00E94C50E62
:102B700040927304509274046092750470927604CB
:102B80000E94771060936F047093700480937104B7
:102B90009093720460E087E00E94C50E8DEC94E093
:102BA0009F938F93ECEFF1E0FF93EF931F9280E4FC
:102BB0008F9381E093E09F938F930E9430180E943F
:102BC000020EA9C09F928F9225EC34E03F932F9381
:102BD000A7ECB4E0BF93AF9329EC34E03F932F937D
:102BE000A4E0B2E0BF93AF933F922F920E9460188F
:102BF0000FB6F894DEBF0FBECDBF049709F0E4CE48
:102C00002091C9043091CA048091C1049091C204FA
:102C10002817390709F0D8CEC092D604D092D7042D
:102C2000E092D804F092D9040E9477106093D20405
:102C30007093D3048093D4049093D50461E086E02C
:102C40000E94C50E40927304509274046092750401
:102C5000709276040E94771060936F0470937004F2
:102C6000809371049093720460E087E00E94C50E27
:102C70002091C5043091C604215031093093C60417
:102C80002093C504E091C704F091C804EE0FFF1F24
:102C9000E75AFB4F8081918120313105C0F440918A
:102CA000C3045091C404452B41F0DC0113964D91AF
:102CB0005C9114974F5F5F4F02C040E050E0F90114
:102CC0003196EE0FFF1FE80FF91F548343830E94D4
:102CD00096068091C4048F938091C3048F93809152
:102CE000C6048F938091C5048F938091C8048F93FD
:102CF0008091C7048F93E4E1F2E0FF93EF931F927A
:102D00003FE33F931F930F930E943018B80182EA6C
:102D100093E00E942D0A0FB6F894DEBF0FBECDBF20
:102D200053CE91110C949A16803219F08950855027
:102D3000C8F708959927882708952F923F924F92B8
:102D40005F926F927F928F929F92AF92BF92CF923B
:102D5000DF92EF92FF920F931F93CF93DF93CDB744
:102D6000DEB7CA1BDB0B0FB6F894DEBF0FBECDBFBC
:102D700009942A88398848885F846E847D848C848D
:102D80009B84AA84B984C884DF80EE80FD800C8196
:102D90001B81AA81B981CE0FD11D0FB6F894DEBF79
:102DA0000FBECDBFED010895A1E21A2EAA1BBB1BD9
:102DB000FD010DC0AA1FBB1FEE1FFF1FA217B30707
:102DC000E407F50720F0A21BB30BE40BF50B661F1D
:102DD000771F881F991F1A9469F7609570958095E1
:102DE00090959B01AC01BD01CF010895EE0FFF1F2F
:102DF0000590F491E02D09940F931F93CF93DF93E7
:102E00008230910510F482E090E0E0911D05F09190
:102E10001E0520E030E0A0E0B0E0309719F14081DD
:102E200051810281138148175907C8F0841795070B
:102E300069F4109731F012960C93129713961C9325
:102E400027C000931D0510931E0522C021153105D2
:102E500019F04217530718F49A01BD01EF01DF0181
:102E6000F801DBCF21153105F9F0281B390B24308F
:102E7000310580F48A819B816115710521F0FB0188
:102E80009383828304C090931E0580931D05FE01E9
:102E9000329644C0FE01E20FF31F819391932250BA
:102EA0003109398328833AC020911B0530911C05D4
:102EB000232B41F4209110013091110130931C0516
:102EC00020931B0520910E0130910F012115310532
:102ED00041F42DB73EB74091120150911301241BCC
:102EE000350BE0911B05F0911C05E217F307A0F4E8
:102EF0002E1B3F0B2817390778F0AC014E5F5F4F50
:102F00002417350748F04E0F5F1F50931C05409360
:102F10001B058193919302C0E0E0F0E0CF01DF91C7
:102F2000CF911F910F910895CF93DF93009709F4EC
:102F300081C0FC01329713821282A0911D05B091CD
:102F40001E05109781F420813181820F931F2091FB
:102F50001B0530911C052817390751F5F0931C0506
:102F6000E0931B0567C0ED0120E030E0CE17DF07DE
:102F700040F44A815B819E0141155105F1F0EA015F
:102F8000F5CFD383C28340815181840F951FC81729
:102F9000D90759F488819981840F951F02969183EE
:102FA00080838A819B81938382832115310529F453
:102FB000F0931E05E0931D053DC0E901FB83EA8304
:102FC00049915991C40FD51FEC17FD0761F4808119
:102FD0009181840F951F0296E901998388838281EC
:102FE00093819B838A83E0E0F0E012968D919C911F
:102FF0001397009719F0FD01DC01F7CF8D919C919B
:1030000011979D012E5F3F4F820F931F20911B054B
:1030100030911C052817390769F4309729F410926C
:103020001E0510921D0502C013821282B0931C056A
:10303000A0931B05DF91CF91089581E090E0F89473
:103040000C94191EFB01DC014150504030F08D9171
:103050000190801919F40020B9F7881B990B089585
:10306000AEE0B0E0E6E3F8E10C94AB160D891E8902
:103070008F89988D26E02C831A83098397FF02C0DD
:1030800080E090E801979E838D83AE01455E5F4F9F
:10309000698D7A8DCE0101960E9479184D815E81ED
:1030A00057FD0AC02F813885421753070CF49A0147
:1030B000F801E20FF31F10822E96E4E00C94C7167D
:1030C000AEE0B0E0E6E6F8E10C94AD1685E08C8366
:1030D0008B899C899A838983AE01495E5F4F6D8994
:1030E0007E89CE0101960E94F61B2E96E2E00C949A
:1030F000C916ABE0B0E0EFE7F8E10C949D166C0167
:103100007B018A01FC0117821682838181FFCCC179
:10311000CE0101963C01F6019381F70193FD859163
:1031200093FF81917F01882309F4BAC1853239F474
:1031300093FD859193FF81917F01853229F4B6013A
:1031400090E00E94661DE7CF912C212C312CFFE1ED
:10315000F315D8F08B3279F038F4803279F083327D
:10316000A1F4232D20611DC08D3261F0803369F4FC
:10317000232D216016C0832D8260382EE32DE4605C
:103180003E2E2AC0F32DF8601DC037FC2DC020ED67
:10319000280F2A3040F08E32B9F436FC81C1232D3D
:1031A0002064322E19C036FE06C08AE0989E200D9B
:1031B0001124922E11C0EAE02E9E200D1124222E01
:1031C000F32DF0623F2E08C08C3621F4832D8068E9
:1031D000382E02C0883641F4F70193FD859193FFA4
:1031E00081917F018111B3CF982F9F7D95549330AA
:1031F00028F40C5F1F4F9FE399830DC0833631F095
:10320000833771F0833509F059C021C0F8018081FE
:1032100089830E5F1F4F88248394912C530113C020
:103220002801F2E04F0E511CF801A080B18036FE5B
:1032300003C0692D70E002C06FEF7FEFC5010E94EF
:103240001D1D4C018201F32DFF773F2E16C0280172
:1032500022E0420E511CF801A080B18036FE03C06E
:10326000692D70E002C06FEF7FEFC5010E94121D53
:103270004C01F32DF0683F2E820133FC1BC0822DE0
:1032800090E088169906B0F4B60180E290E00E94C2
:10329000661D2A94F4CFF50137FC859137FE8191A4
:1032A0005F01B60190E00E94661D21102A9421E082
:1032B000821A91088114910471F7E8C0843611F0E4
:1032C000893641F5F80137FE07C06081718182813E
:1032D00093810C5F1F4F08C060817181072E000C25
:1032E000880B990B0E5F1F4FF32DFF763F2E97FF34
:1032F00009C090958095709561957F4F8F4F9F4F36
:10330000F0683F2E2AE030E0A3010E94BB1D882E0A
:10331000861845C0853731F4232D2F7EB22E2AE042
:1033200030E025C0932D997FB92E8F36C1F018F467
:10333000883579F0B5C0803719F0883721F0B0C0F2
:10334000E92FE061BE2EB4FE0DC0FB2DF460BF2E50
:1033500009C034FE0AC0292F2660B22E06C028E01C
:1033600030E005C020E130E002C020E132E0F801A9
:10337000B7FE07C060817181828193810C5F1F4F0E
:1033800006C06081718180E090E00E5F1F4FA30155
:103390000E94BB1D882E8618FB2DFF773F2E36FE20
:1033A0000DC0232D2E7FA22E891458F434FE0BC09D
:1033B00032FC09C0832D8E7EA82E05C0B82CA32C0C
:1033C00003C0B82C01C0B92CA4FE0FC0FE01E80D4B
:1033D000F11D8081803321F49A2D997EA92E09C098
:1033E000A2FE06C0B394B39404C08A2D867809F077
:1033F000B394A3FC11C0A0FE06C0B21488F4280C3C
:10340000922C9B180EC0B21460F4B60180E290E0DA
:103410000E94661DB394F7CFB21418F42B1802C0A3
:10342000982C212CA4FE10C0B60180E390E00E94ED
:10343000661DA2FE17C0A1FC03C088E790E002C091
:1034400088E590E0B6010CC08A2D867859F0A1FE7F
:1034500002C08BE201C080E2A7FC8DE2B60190E0E1
:103460000E94661D891438F4B60180E390E00E9442
:10347000661D9A94F7CF8A94F301E80DF11D8081BF
:10348000B60190E00E94661D8110F5CF222009F45C
:1034900042CEB60180E290E00E94661D2A94F6CFEB
:1034A000F6018681978102C08FEF9FEF2B96E2E1B4
:1034B0000C94B91620FD09C0FC0123FD05C022FFB4
:1034C00002C07383628351834083089544FD17C013
:1034D00046FD17C0AB01BC01DA01FB01AA0FBB1FFF
:1034E000EE1FFF1F1094D1F74A0F5B1F6E1F7F1F47
:1034F000CB01BA01660F771F881F991F09C033E0FF
:1035000001C034E0660F771F881F991F3150D1F733
:10351000620F711D811D911D08950F931F93CF930D
:10352000DF938C01C8010E94281DEC0197FD08C0A3
:103530000E949116892BB1F7B801CE010E94A21DFD
:10354000CE01DF91CF911F910F9108958F929F929D
:10355000AF92BF92EF92FF920F931F93CF93DF939F
:103560008C01D62F7A01B22E0E94281D9C01332790
:103570002B32310531F02D32310561F48B2D80680D
:10358000B82ED15011F480E068C0C8010E94281DF7
:1035900097FDF9CFCB2DCD7F2B2D207309F58033EF
:1035A000F9F4AA24AA94AD0E09F443C0C8010E94FC
:1035B000281D97FD3EC09C012F7D332728353105FE
:1035C00049F4C264D250A9F1C8010E94281D97FF96
:1035D00007C02FC0B6FE02C0C26001C0C261DA2DB2
:1035E000812C912C540120ED280F283080F0C4FF4D
:1035F00004C0B8010E94A21D19C02A3040F0C6FFC5
:10360000F8CF2F7D3FEE320F363098F727504C2FF2
:10361000C501B4010E94661A4B015C01C260D15021
:1036200059F0C8010E94281D97FFDDCFC1FD04C0DD
:10363000AACF812C912C5401C7FF08C0B094A0944C
:1036400090948094811C911CA11CB11C2C2FB5015D
:10365000A401C7010E945A1A81E0DF91CF911F9106
:103660000F91FF90EF90BF90AF909F908F90089533
:10367000A0E2B0E0EEE3FBE10C94A0165C01962E14
:103680007A01F9018E010F5F1F4F680180E2D801B6
:103690001D928A95E9F7D50113968C9080E090E011
:1036A000612C712C30E061E070E083FC259183FE99
:1036B00021918F01522E211103C080E090E092C031
:1036C0002E3511F4009751F1432F50E04817590758
:1036D0003CF42D3559F12D3219F4772009F103C04E
:1036E000772009F46AC0452D469546954695D60142
:1036F000A40FB11D452D47708B0102C0000F111F93
:103700004A95E2F7A8015C91452B4C93651459F05A
:10371000561410F45394E7CF5A94E5CF31E004C027
:103720007724739401C0712C0196BFCF772019F0D4
:103730008E8180628E83311103C08824839417C0E8
:10374000F6019E012F5D3F4F8081809581932E175A
:103750003F07D1F7F2CFE114F10429F0D7018C93A0
:10376000F70131967F019A94812C9920F9F0C501D7
:103770000E94281D97FD18C0FC01FF2723E0F59546
:10378000E7952A95E1F7EC0DFD1D208130E0AC01B5
:103790004770552702C0359527954A95E2F720FDD9
:1037A000DACFB5010E94A21D811087CFE114F10488
:1037B00011F0D7011C92C80115C0422F46954695BD
:1037C0004695D601A40FB11D422F47708B0102C050
:1037D000000F111F4A95E2F7A8015C91452B4C930D
:1037E000622EA2CFA096EFE00C94BC16A0E0B0E051
:1037F000ECEFFBE10C94A0166C01EB015A01FC010B
:1038000017821682512CF601E380FE01E3FC8591BC
:10381000E3FE8191182FEF01882309F4EEC090E0B8
:103820000E949116892B21F0C6010E948D1AEBCFC0
:10383000153241F4FE01E3FC1591E3FE1191EF0115
:10384000153281F4C6010E94281D97FDD4C0412F76
:1038500050E09C01332724173507A9F2B6010E94D6
:10386000A21DCBC01A3239F4E3FC1591E3FE11918D
:10387000EF0101E001C000E0F12C20ED210F2A3022
:1038800080F402606F2D70E080E090E040E20E94E2
:10389000661AF62EFE01E3FC1591E3FE1191EF018D
:1038A000ECCF01FF03C0F11003C0A7C0FF24FA94BE
:1038B000183619F01C3651F010C0FE01E3FC1591CA
:1038C000E3FE1191EF01183641F408600460FE0137
:1038D000E3FC1591E3FE1191EF01112309F48DC072
:1038E000612F70E088E690E00E94071D892B09F4A3
:1038F00084C000FD07C0F50180809180C50102965B
:103900005C0102C0812C912C1E3651F4F6014681D7
:10391000578160E070E0202FC4010E945A1A73CFD3
:103920001336A9F401FD02C0FF24F394C6010E94DE
:10393000281D97FD60C08114910429F0F401808353
:10394000C40101964C01FA94F110F0CF50C01B3520
:1039500059F49E01A4016F2DC6010E94381BEC0191
:10396000892B09F044C03EC0C6010E948D1A97FD04
:1039700042C01F3661F128F4143639F1193651F17D
:1039800028C0133771F0153701F123C08114910459
:1039900029F0F4016082C40101964C01FA94FF20E1
:1039A00071F0C6010E94281D3C0197FD08C00E94CD
:1039B0009116892B59F3B601C3010E94A21D8114EF
:1039C0009104A9F0F401108212C0006203C00061EA
:1039D00001C00064202FA4016F2DC6010E94A61A09
:1039E000811105C0F6018381807329F406C000FDB2
:1039F0000ACF539408CF552019F0852D90E002C0CE
:103A00008FEF9FEFCDB7DEB7EFE00C94BC16FC0153
:103A10000590061621F00020D9F7C00108953197CE
:103A2000CF010895FC010590615070400110D8F756
:103A3000809590958E0F9F1F0895FC0161507040F6
:103A400001900110D8F7809590958E0F9F1F0895D3
:103A5000CF93DF93EC012B8120FF33C026FF0AC0F8
:103A60002F7B2B838E819F8101969F838E838A81FA
:103A700090E029C022FF0FC0E881F9818081082EE3
:103A8000000C990B009719F420622B831AC0319611
:103A9000F983E8830EC0EA85FB85099597FF09C085
:103AA0002B81019611F080E201C080E1822B8B8393
:103AB00008C02E813F812F5F3F4F3F832E83992780
:103AC00002C08FEF9FEFDF91CF9108950F931F9367
:103AD000CF93DF93FB01238121FD03C08FEF9FEF85
:103AE0002CC022FF16C046815781248135814217A0
:103AF000530744F4A081B1819D012F5F3F4F318373
:103B000020838C93268137812F5F3F4F3783268315
:103B100014C08B01EC01FB010084F185E02D0995B7
:103B2000892BE1F6D80116968D919C9117970196F5
:103B300017969C938E931697CE01DF91CF911F918C
:103B40000F910895FB01238120FF12C026FD10C0B4
:103B50008F3F3FEF930761F082832F7D20642383A3
:103B6000268137812150310937832683992708958B
:103B70008FEF9FEF0895FA01AA27283051F12031E5
:103B800081F1E8946F936E7F6E5F7F4F8F4F9F4FF1
:103B9000AF4FB1E03ED0B4E03CD0670F781F891F33
:103BA0009A1FA11D680F791F8A1F911DA11D6A0F01
:103BB000711D811D911DA11D20D009F468943F91B4
:103BC0002AE0269F11243019305D3193DEF6CF01B3
:103BD0000895462F4770405D4193B3E00FD0C9F779
:103BE000F6CF462F4F70405D4A3318F0495D31FDE6
:103BF0004052419302D0A9F7EACFB4E0A695979539
:103C0000879577956795BA95C9F70097610571050E
:103C100008959B01AC010A2E069457954795379558
:103C20002795BA95C9F7620F731F841F951FA01DB2
:063C30000895F894FFCF97
:103C3600DEADBEAAFE01FFFFFF00C0A863000000C4
:103C46001F05800001005E0000000000000048071C
:103C5600B506DF0695071007EE060207000000000E
:103C66003F0112016F01C1070A01F600E7000000DB
:103C760000008310B5066F016E0183108310831058
:103C8600000000008310B5066F016E010000000001
:103C9600831083106F0183108310831083108310A9
:103CA600B100831083108310831083108310831058
:103CB6008310831000000000C207830B6F01C10749
:103CC60092002B095208AC01030B72012D0CEE0178
:103CD60054099D090C09AA009A00960000000000EC
:103CE600D8070000000083100D0A004D617374654B
:103CF6007220626F6172642069643A2025730046FF
:103D06006F756E64206F757470757420626F617262
:103D16006420617420616464726573733A2025645B
:103D26000068656C6C6F206F6D25640025732070CC
:103D36006F6E67006F6D25642062256420722564AE
:103D46002025640052656C61792025642F25642046
:103D560073657420746F202564004E6F2070696E41
:103D660067202D20636F6E6E656374696F6E206CBD
:103D76006F73743F205475726E696E672065766541
:103D860072797468696E67206F6666004E6F207080
:103D9600696E6720666F722061206C6F6E67207493
:103DA600696D652C20747279696E6720746F207254
:103DB600657365742074686520646576696365005B
:063DC60070696E67000049
:00000001FF
