:100000000C9462000C948A000C948A000C948A0070
:100010000C948A000C948A000C948A000C948A0038
:100020000C948A000C948A000C948A000C948A0028
:100030000C948A000C948A000C948A000C948A0018
:100040000C94A4030C948A000C9414040C94EE03F6
:100050000C948A000C948A000C948A000C948A00F8
:100060000C94730D0C948A000000000025002800F9
:100070002B000000000023002600290000000008DB
:10008000000201000003040700000000000000005F
:1000900000000000240027002A00010204081020AC
:1000A000408001020408102001020408102004040A
:1000B0000404040404040202020202020303030310
:1000C0000303C31411241FBECFEFD8E0DEBFCDBFA2
:1000D00025E0ACEAB2E001C01D92A236B207E1F71A
:1000E00012E0A0E0B1E0E4ECF4E302C005900D9270
:1000F000AC3AB107D9F710E0C2E6D0E004C02197CE
:10010000FE010E941316C136D107C9F70E947F1065
:100110000C94601A0C940000FC0184899589089560
:100120002EEA31E0FC0131832083FB0140895189B3
:1001300062897389FC0142835383648375830895C4
:1001400080E00895833081F028F4813099F0823086
:10015000A1F008958730A9F08830B9F08430D1F447
:10016000809180008F7D03C0809180008F77809385
:100170008000089584B58F7702C084B58F7D84BDDB
:1001800008958091B0008F7703C08091B0008F7D7B
:100190008093B00008953FB7F89480916C039091DC
:1001A0006D03A0916E03B0916F0326B5A89B05C0A7
:1001B0002F3F19F00196A11DB11D3FBFBA2FA92FE6
:1001C000982F8827820F911DA11DB11DBC01CD0163
:1001D00042E0660F771F881F991F4A95D1F708954F
:1001E000CF92DF92EF92FF920F931F93CF93DF9303
:1001F0006C017A018B01C0E0D0E0CE15DF0589F0FB
:10020000D8016D918D01D601ED91FC910190F081A5
:10021000E02DC6010995892B11F47E0102C02196BB
:10022000ECCFC701DF91CF911F910F91FF90EF901D
:10023000DF90CF900895089580E090E00895FC014C
:10024000538D448D252F30E0842F90E0821B930B3B
:10025000541710F0CF96089501970895FC01918DE1
:10026000828D981761F0828DDF01A80FB11D5D9618
:100270008C91928D9F5F9F73928F90E008958FEF86
:100280009FEF0895FC01918D828D981731F0828D3A
:10029000E80FF11D858D90E008958FEF9FEF089591
:1002A000FC01918D228D892F90E0805C9F4F821BF5
:1002B00091098F73992708958FE094E00E9450016F
:1002C00021E0892B09F420E0822F0895FC01848D20
:1002D000DF01A80FB11DA35ABF4F2C91848D90E070
:1002E00001968F739927848FA689B7892C93A0894B
:1002F000B1898C9180648C93938D848D981306C002
:100300000288F389E02D80818F7D80830895EF92AC
:10031000FF920F931F93CF93DF93EC0181E0888FBF
:100320009B8D8C8D981305C0E889F989808185FDA6
:1003300024C0F62E0B8D10E00F5F1F4F0F73112797
:10034000E02E8C8DE8120CC00FB607FCFACFE889BE
:10035000F989808185FFF5CFCE010E946601F1CF3A
:100360008B8DFE01E80FF11DE35AFF4FF0820B8FDA
:10037000EA89FB898081806207C0EE89FF896083FA
:10038000E889F98980818064808381E090E0DF9151
:10039000CF911F910F91FF90EF900895CF93DF932E
:1003A000EC01888D8823C9F0EA89FB89808185FD6D
:1003B00005C0A889B9898C9186FD0FC00FB607FCCE
:1003C000F5CF808185FFF2CFA889B9898C9185FF0F
:1003D000EDCFCE010E946601E7CFDF91CF91089566
:1003E00080E090E0892B29F00E945C0181110C943F
:1003F00000000895DC01ED91FC91048CF58DE02D59
:100400000994CF93DF931F92CDB7DEB7FC018081B3
:10041000806291E09093D1038093F3031092D20312
:100420001092F40385EF93E049830E940C0D4981FB
:10043000642F85EF93E00E940C0D0F90DF91CF9118
:100440000C941F0ACF93DF93EC019881906281E0B6
:100450008093D1039093F3031092D2031092F4038C
:1004600085EF93E00E940C0D0E941F0A8881806234
:1004700061E070E090E00E947C0A85EF93E00E94CA
:10048000C00CDF91CF910895CF93DF93EC016830DA
:1004900008F067E068831092890310928803109235
:1004A000D2031092F4030E94A10E4FEF60E0CE0140
:1004B0000E9401024FEF61E0CE01DF91CF910C94D9
:1004C00001020E9446179B0190E00496982F88270E
:1004D000642F820F931F0C94D90F0F931F93CF9308
:1004E000DF931F92CDB7DEB790E00496982F882750
:1004F0008C01060F171F0E94C10E8FE00E94F30EA1
:10050000812F0E94F30E802F0E94F30E80E00E9444
:10051000F30E89830E94BF0E89810F90DF91CF91E6
:100520001F910F91089508958CBD9DBD0895EF9280
:10053000FF921F93CF93DF93FC01208D243011F0A5
:1005400080E021C07B01EC0110E080E590E00E949A
:10055000940263E070E0812F0E946D02811102C05D
:10056000188F05C08831E1F31F5F143071F7888D53
:10057000843031F3FD86EC861A8E198E40E0B70187
:100580000E94EA0A81E0DF91CF911F91FF90EF90E6
:100590000895CF93DF93282F30E0F901E458FF4FFF
:1005A0008491F901E656FF4FD491F901E255FF4FCE
:1005B000C491CC2391F081110E94A200EC2FF0E0B5
:1005C000EE0FFF1FEE58FF4FA591B491EC91ED2374
:1005D00081E090E021F480E002C080E090E0DF91D3
:1005E000CF9108951F93CF93DF93282F30E0F90127
:1005F000E458FF4F8491F901E656FF4FD491F90179
:10060000E255FF4FC491CC23C9F0162F81110E94EF
:10061000A200EC2FF0E0EE0FFF1FE859FF4FA5916D
:10062000B4918FB7F894111105C09C91ED2FE0950E
:10063000E92302C0EC91ED2BEC938FBFDF91CF91BA
:100640001F910895CF93DF9390E0FC01E656FF4F92
:100650002491FC01E255FF4F8491882361F190E0E1
:10066000880F991FFC01E057FF4FC591D491FC0101
:10067000E859FF4FA591B491611109C09FB7F89453
:100680008881209582238883EC912E230BC06230D1
:1006900061F49FB7F8943881822F809583238883F3
:1006A000EC912E2B2C939FBF06C08FB7F894E88156
:1006B0002E2B28838FBFDF91CF9108958F929F9229
:1006C000AF92BF92CF92DF92EF92FF926B017C01CB
:1006D0000E94CB004B015C01C114D104E104F10480
:1006E000F1F00E94CB00DC01CB0188199909AA091D
:1006F000BB09883E9340A105B10570F321E0C21A01
:10070000D108E108F10888EE880E83E0981EA11C4C
:10071000B11CC114D104E104F10419F7DDCFFF903D
:10072000EF90DF90CF90BF90AF909F908F90089503
:100730002FB7F894609168037091690380916A0300
:1007400090916B032FBF08951F920F920FB60F92D7
:1007500011242F933F938F939F93AF93BF938091D7
:10076000680390916903A0916A03B0916B03309183
:10077000670323E0230F2D3720F40196A11DB11D3F
:1007800005C026E8230F0296A11DB11D2093670323
:100790008093680390936903A0936A03B0936B03FB
:1007A00080916C0390916D03A0916E03B0916F03E3
:1007B0000196A11DB11D80936C0390936D03A093CE
:1007C0006E03B0936F03BF91AF919F918F913F9153
:1007D0002F910F900FBE0F901F9018951F920F92A0
:1007E0000FB60F9211242F933F934F935F936F9304
:1007F0007F938F939F93AF93BF93EF93FF938FE07C
:1008000094E00E946601FF91EF91BF91AF919F919B
:100810008F917F916F915F914F913F912F910F90A9
:100820000FBE0F901F9018951F920F920FB60F9248
:1008300011242F938F939F93EF93FF93E0911F04C5
:10084000F09120048081E0912504F091260482FD3E
:1008500012C09081809128048F5F8F7320912904AA
:10086000821751F0E0912804F0E0E15FFB4F958F93
:100870008093280401C08081FF91EF919F918F9117
:100880002F910F900FBE0F901F9018956115710555
:1008900079F0FB0101900020E9F73197AF01461B89
:1008A000570BDC01ED91FC910280F381E02D09945E
:1008B00080E090E008954F925F926F927F92EF9266
:1008C000FF920F931F93CF93DF93CDB7DEB7A1971E
:1008D0000FB6F894DEBF0FBECDBF7C01FA01CB018D
:1008E00019A2223008F42AE08E010F5D1F4F422E1C
:1008F000512C612C712CBF01A30192010E94071A97
:10090000F901CA01015011096A3014F4605D01C097
:10091000695CD8016C93232B242B252B61F7B8013C
:10092000C7010E944604A1960FB6F894DEBF0FBE21
:10093000CDBFDF91CF911F910F91FF90EF907F90EE
:100940006F905F904F9008958F929F92AF92BF9259
:10095000CF92DF92EF92FF920F931F93CF93DF938B
:100960007C01EB016C0182E0C80ED11C4701E5E07F
:100970008E0E911C00E010E0F60141916F0150E0F5
:1009800060E070E02AE0CE010E945B045C01E88137
:10099000F9810190F081E02D6EE2CE0109958A0D7A
:1009A0009B1D080F191FC814D90431F7F7014581A1
:1009B00050E060E070E02AE0CE010E945B04800F0E
:1009C000911FDF91CF911F910F91FF90EF90DF90DA
:1009D000CF90BF90AF909F908F9008950F931F93EB
:1009E000CF93DF93CDB7DEB7C054D1090FB6F894DB
:1009F000DEBF0FBECDBF182F092F9F938F931F927D
:100A000080E88F938CEA92E09F938F930E9459170E
:100A100043EB55E16CEB71E085ED94E00E944407F7
:100A20006CEA72E085ED94E00E94460485ED94E066
:100A30000E94F7060F931F938CEC91E09F938F9386
:100A40001F928FE38F938E010F5F1F4F1F930F93A2
:100A50000E945917C8010E94C70A0FB6F894DEBF5A
:100A60000FBECDBFC05CDF4F0FB6F894DEBF0FBE28
:100A7000CDBFDF91CF911F910F910895CF93DF9359
:100A80001F92CDB7DEB76983DC01ED91FC91028046
:100A9000F381E02D41E050E0BE016F5F7F4F09958B
:100AA0000F90DF91CF910895FC01818D928D089573
:100AB000CF93DF93FC01218D328D2115310519F47F
:100AC0008FEF9FEF11C0EC014217530708F0A90107
:100AD000888D0E94FB0F1816190694F7298D3A8D00
:100AE000281B390B3A8F298FDF91CF9108950F93EF
:100AF0001F93CF93DF931F92CDB7DEB7FC01218DFB
:100B0000328D232B61F08C0141E050E0BE016F5F1C
:100B10007F4F808D0E94FB0F181619061CF08FEF77
:100B20009FEF08C0F801818D928D0197928F818F80
:100B3000898190E00F90DF91CF911F910F910895DF
:100B4000BF92CF92DF92EF92FF920F931F93CF93BA
:100B5000DF93CDB7DEB728970FB6F894DEBF0FBE90
:100B6000CDBF8C01F801818D928D892B49F0D80180
:100B7000ED91FC910284F385E02DC8010995F2CF37
:100B8000B08C80E590E00E949402E12CF12C8B2D3A
:100B90000E94C30E6C01892B21F08B2D0E94C30E85
:100BA0007C01EC14FD0499F70E9493021E141F04AB
:100BB0005CF548E050E0BE016F5F7F4FD80158966A
:100BC0008C910E94FB0F9C0118161906DCF4898198
:100BD0009A81AB81BC81F801808B918BA28BB38B06
:100BE0008D8190E0982F88272E81820F911D958B03
:100BF000848B2F8130E0322F22278885280F311DEA
:100C0000328F218FC90102C080E090E028960FB694
:100C1000F894DEBF0FBECDBFDF91CF911F910F9132
:100C2000FF90EF90DF90CF90BF900895EF92FF92EA
:100C30001F93CF93DF93EB017A01FC01178A168A89
:100C4000108D8A81811109C08B81811106C08C8130
:100C5000811103C08D81882329F1E114F10411F180
:100C600080E590E00E949402BE016E5F7F4F812F6D
:100C700090E0982F882744E050E0845F9B4F0E94CB
:100C80002A0F4F2D60E170E0812F0E9463024E2DEC
:100C900061E170E0812F0E9463020E94930281E073
:100CA00090E002C080E090E0DF91CF911F91FF9033
:100CB000EF9008957F928F929F92AF92BF92CF92C2
:100CC000DF92EF92FF920F931F93CF93DF935C011C
:100CD0004B016A01FC0106891789708C80E590E060
:100CE0000E949402C0E0D0E0872D0E94DB0E7C01C0
:100CF000892B21F0872D0E94DB0EEC01CE15DF053C
:100D000099F7CC15DD0578F4C0E0D0E0872D0E947E
:100D1000DB0E6C01892B21F0872D0E94DB0EEC018C
:100D2000CC15DD0599F764E270E0872D0E946D0215
:100D3000E82EF12C65E270E0872D0E946D02FE2CFA
:100D4000EE24E82AE701C00FD11F9E013770E72C7F
:100D5000F12CC701880F991FAC0148585C4F7A01EC
:100D6000FA0180819181820F931FA9014C0D5D1DB5
:100D70004130584090F000E018E0021B130BA8012E
:100D8000B4010E942A0FA601401B510BB401600F51
:100D9000711FF7018081918102C0A601B4010E94F8
:100DA0002A0FCC0DDD1D4D2F64E270E0872D0E94CF
:100DB00063024C2F65E270E0872D0E9463020E945F
:100DC0009302F501868997898C0D9D1D978B868BE3
:100DD000C601DF91CF911F910F91FF90EF90DF90AF
:100DE000CF90BF90AF909F908F907F900895CF93BA
:100DF000FC01C08D80E590E00E94940260E270E00A
:100E00008C2F0E94DA0A62E070E08C2F0E946D0243
:100E100084FD19C062E070E08C2F0E946D0283FF98
:100E20000BC048E162E070E08C2F0E9463020E94D8
:100E3000930280E090E011C00E94930280E590E070
:100E40000E949402E0CF40E162E070E08C2F0E94AB
:100E500063020E94930281E090E0CF910895CF93C6
:100E6000DF93EC01888D843061F00E946B10E88D77
:100E7000F0E0EE0FFF1FE059FC4F1182108284E07A
:100E8000888FDF91CF9108954F925F926F927F92FA
:100E90008F929F92AF92BF92CF92DF92EF92FF928A
:100EA0000F931F93CF93DF93CDB7DEB7EE970FB6B7
:100EB000F894DEBF0FBECDBF5C018B014A018EEA04
:100EC00091E09A8389831C861B8648EE53E060E09C
:100ED00070E04D875E876F87788B26E831E03A8730
:100EE0002987988F8F8B198E1A8E1B8E1C8E24E06B
:100EF00029A399AB88AB1AAA1BAA1CAA1DAA809188
:100F0000090490910A04A0910B04B0910C048EA3E3
:100F10009FA3A8A7B9A78B839C83AD83BE831886A4
:100F20001F82F80120E080E090E06AE031913323F5
:100F300019F140ED430F4A3080F4689FA001699F8A
:100F4000500D1124CA01C097830F911D37FD9A954A
:100F50008F3F910559F350F32BC03E3249F52330B2
:100F600039F1A2E3B0E0AC0FBD1FA20FB11D8C930D
:100F70002F5F80E090E0DACF2330D1F48DABD50144
:100F8000ED91FC910488F589E02D8EEA91E09DA316
:100F90008CA38AA99BA9ACA9BDA98EA39FA3A8A72E
:100FA000B9A7A401BE016C5D7F4FC501099530C290
:100FB0004B815C816D817E8180910304909104045A
:100FC000A0910504B0910604481759076A077B07EA
:100FD00009F41CC20E9498036F7077277C5FCE01D2
:100FE00009960E949702813009F00DC28EEA91E0C5
:100FF0009DA38CA38B819C81AD81BE818EA39FA379
:10100000A8A7B9A745E350E0BE016C5D7F4FCE01B4
:1010100009960E941606892B19F400E010E07EC1A3
:101020000E94980378876F837627672776277DA3AA
:101030006CA342E050E0BE016C5D7F4FCE0109968B
:101040000E945A0681E090E09FAB8EAB42E050E0F8
:10105000BE016A5C7F4FCE0109960E945A0680E06D
:1010600091E09FAB8EAB42E050E0BE016A5C7F4FE7
:10107000CE0109960E945A061FAA1EAA42E050E01D
:10108000BE016A5C7F4FCE0109960E945A0642E07B
:1010900050E0BE016A5C7F4FCE0109960E945A065D
:1010A00042E050E0BE016A5C7F4FCE0109960E948B
:1010B0005A067801D7018C91882319F1F8017F0134
:1010C0008191811117C06701C01AD10A1C141D0437
:1010D000A4F4C8AE41E050E0BE01685C7F4FCE0191
:1010E00009960E945A06A601B801CE0109960E94EF
:1010F0005A0603C08E3219F7E6CF87010F5F1F4FE4
:10110000D9CF18AE41E050E0BE01685C7F4FCE0100
:1011100009960E945A0600E011E01FAB0EAB42E0B8
:1011200050E0BE016A5C7F4FCE0109960E945A06CC
:101130001FAB0EAB42E050E0BE016A5C7F4FCE01B8
:1011400009960E945A06CE0109960E94F706892B3D
:1011500009F463CF63E0E62EF12C0E9498032B0183
:101160003C01CE0109960E94A00518161906A4F0AC
:101170000E949803DC01CB0184199509A609B709DF
:1011800089389341A105B105C8F462E370E080E0BD
:1011900090E00E945E03E5CF4B815C816D817E8192
:1011A000898D9A8DAB8DBC8D481759076A077B07CF
:1011B00041F48D8D9E8DC59721F406C02FEF3FEF32
:1011C000A4C02EEF3FEFA1C08AA19BA10C970CF405
:1011D000B2C04CE050E0BE016C5D7F4FCE0109967D
:1011E0000E9458058EA190E0982F88272FA1822B6E
:1011F0009BAF8AAF2CA130E0322F22274DA1242BA8
:101200004F8158854217530709F092C097FF90C04D
:101210008F709270892B09F0F3C00AA510E0102F8F
:1012200000278BA5082B0115110509F4E6C0C12C78
:10123000D12C88A590E0982F882729A5822BC81645
:10124000D90608F47BC0C12CD12C41E050E0BE018E
:10125000645C7F4FCE0109960E9458058CAD982F93
:10126000907C09F0A5C0811197C08CAD8111EDCFA4
:1012700042E050E0BE01685C7F4FCE0109960E94BB
:10128000580542E050E0BE016A5C7F4FCE010996EE
:101290000E945805CE0109960E947705CE01099655
:1012A0000E947705CE0109960E947705CE01099626
:1012B0000E94770542E050E0BE01665C7F4FCE01A0
:1012C00009960E94580588AD99AD8115914009F0A5
:1012D00075C02EA93FA93227232732272130310597
:1012E00009F06CC08AAD9BAD8115944009F082C0B5
:1012F00044E050E0BE016E5C7F4FCE0109962DAFF9
:101300003EAF0E9458052DAD3EAD8901B1E0EB1A0C
:10131000F10821F02F3F3F4F09F41FCFCE0109966E
:101320000E942F070130110509F429CEC80170C0B1
:101330002CEF3FEFEACF2DEF3FEFE7CF41E050E05A
:10134000BE016A5C7F4FCE0109960E9458058EA9A6
:10135000811117C08EA98111F1CFCE0109960E948B
:101360007705CE0109960E947705CE0109960E9465
:101370007705CE0109960E947705FFEFCF1ADF0AA5
:1013800058CF8EA99FEF980F9EAB882319F3CE01FB
:1013900009960E947705F5CF8CAD9FEF980F9CAF13
:1013A000882309F462CFCE0109960E947705F4CF15
:1013B000CE0109960E9477051CAE57CF612C712C87
:1013C0008AAD9BAD9827892798276816790640F43F
:1013D000CE0109960E9477058FEF681A780AF0CF40
:1013E000AFEFCA1ADA0AC016D10609F02ECF26EFDF
:1013F0003FEF8BCF27EF3FEF88CF2AEF3FEF85CF2F
:101400002BEF3FEF82CF80E090E002C08EEF9FEFA6
:10141000EE960FB6F894DEBF0FBECDBFDF91CF9131
:101420001F910F91FF90EF90DF90CF90BF90AF9002
:101430009F908F907F906F905F904F900895209134
:10144000F4039091F303213208F04AC08091D00355
:101450008111FCCF32E03093D00331E03093CF03E1
:101460003FEF3093CE031092CD032093CC03A3ED36
:10147000B3E04CEA53E0FA013E2F341B321718F464
:101480003D913193F9CF1092AB032091AB03990FAB
:10149000922B9093AB039091AA03913061F4109238
:1014A000AA039091AB039093BB009091BC0093FD75
:1014B000F8CF95EC01C095EE9093BC009091D003CD
:1014C0009230E1F39091CE039F3F79F08091CE036B
:1014D000803241F08091CE03803331F084E005C04A
:1014E00081E003C082E001C083E01092D203109239
:1014F000F4031092D10308959091D0039111FCCF81
:10150000613208F060E291E09093D0039093CF03B2
:101510002FEF2093CE031092CD03260F2093CC0300
:101520009093AB039091AB03880F892B8093AB030F
:101530008091AA03813061F41092AA038091AB03D9
:101540008093BB008091BC0083FDF8CF85EC01C087
:1015500085EE8093BC008091D0038130E1F38091CF
:10156000CD03861710F46091CD03ACEAB3E02AE80E
:1015700033E0F9018E2F821B861718F48D91819329
:10158000F9CF1092890360938803862F0895CF9333
:10159000DF93BC018FE094E00E944604EC0169EA0D
:1015A00072E08FE094E00E9446048C0F9D1FDF9153
:1015B000CF910895CF93C82F462F61E070E00E942D
:1015C000630261E070E08C2F0E946D028111F9CFFF
:1015D000CF910895FF920F931F93CF93DF931F92A4
:1015E000CDB7DEB7F82E8B0149830E946B1080E5E2
:1015F00090E00E9494024981426060E070E08F2D8B
:101600000E9463020115110551F40091F10410913B
:10161000F2040F5F1F4F1093F2040093F104412F67
:1016200064E070E08F2D0E946302402F65E070E05F
:101630008F2D0E94630261E070E08F2D0E94DA0A14
:101640000E94930281E00F90DF91CF911F910F9143
:10165000FF900895CF92DF92EF92FF921F93CF9366
:10166000DF93CDB7DEB7E0970FB6F894DEBF0FBEBD
:10167000CDBFFC0182819381A481B5818DA79EA7F6
:10168000AFA7B8AB51E058ABCDA4DEA4EFA4F8A847
:10169000CB8EDC8EED8EFE8EFB01C280D380E4808B
:1016A000F580C9A2DAA2EBA2FCA28FA398A7A9A7F2
:1016B000BAA72EEA31E03C8B2B8B4FEF4D8B4E8B34
:1016C0004F8B188E3E872D875E8F4B8D5C8D6D8D79
:1016D0007E8D4F87588B698B7A8BC986DA86EB862D
:1016E000FC863A8329838B839C83AD83BE836CE223
:1016F00071E080E090E00E945E031FB7F894809153
:10170000F004811127C0E8EBF0E08491E4EAF0E016
:101710009491E82FF0E0EE0FFF1FE057FF4FA591E7
:10172000B491EC91E92321F461E08AE00E94F20295
:1017300061E08AE00E9422038CB580618CBD8CB58B
:1017400080648CBD61E08DE00E94220361E08BE04B
:101750000E9422038091F0048F5F8093F0041FBFEA
:10176000229A80E590E00E94940260E880E090E098
:101770000E94D90F65E58BE190E00E94D90F65E5E5
:101780008AE190E00E94D90F0E94930280E090E4E9
:10179000909379038093780380E090E6909381039F
:1017A0008093800380E098E490937B0380937A0396
:1017B00080E098E6909383038093820380E090E535
:1017C00090937D0380937C0380E090E79093850362
:1017D0008093840380E098E590937F0380937E0359
:1017E00080E098E7909387038093860380E590E0FC
:1017F0000E94940246E050E068E071E089E090E0E9
:101800000E942A0F44E050E0BE016D5F7F4F8FE0E1
:1018100090E00E942A0F44E050E0BE01615F7F4FDC
:1018200081E090E00E942A0F44E050E0BE016B5E30
:101830007F4F85E090E00E942A0F0E9493028985E5
:101840009A85AB85BC858093090490930A04A09384
:101850000B04B0930C04E0960FB6F894DEBF0FBEF5
:10186000CDBFDF91CF911F91FF90EF90DF90CF9090
:101870000895AF92BF92CF92DF92EF92FF920F93B3
:101880001F93CF93DF9300D0CDB7DEB77A83698300
:10189000BA01A901E981FA81F770082F10E0000F61
:1018A000111F00581C4FD8018D919C918E0F9F1FC6
:1018B0002E0F3F1F2130384098F07A015B0120E065
:1018C00038E06901CE1ADF0AA6010E94FA0EA701CC
:1018D0004C195D09B5016C0D7D1DF8018081918168
:1018E0000F900F90DF91CF911F910F91FF90EF908C
:1018F000DF90CF90BF90AF900C94FA0E85ED80935F
:10190000BC008091BC0084FDFCCF1092D0030895F0
:1019100040913905262F30E0240F311D2132310549
:10192000DCF42091D0032430C9F4FC0180E090E085
:10193000861758F4309139052191DC01A95EBA4F20
:10194000A30FB11D2C930196F3CF80913905680F39
:101950006093390580E0089581E0089582E008955C
:101960000895E091890380918803E81730F4F0E04E
:10197000E657FC4F808190E008958FEF9FEF089528
:101980009091890380918803981750F4E92FF0E033
:10199000E657FC4F208130E09F5F9093890302C09F
:1019A0002FEF3FEFC90108958091880390E02091C7
:1019B0008903821B91090895CF92DF92EF92FF92E3
:1019C0000F931F93CF93DF937C01262F972F8A01CC
:1019D0008091D103882391F0C62FD72F6E01C40EBA
:1019E000D51ECC15DD0571F06991D701ED91FC9103
:1019F0000190F081E02DC7010995F3CF642F822F6C
:101A00000E94880CC801DF91CF911F910F91FF9028
:101A1000EF90DF90CF900895CF93DF931F92CDB7D3
:101A2000DEB769832091D1032223D1F02091F40302
:101A3000203240F021E030E0FC013383228380E05B
:101A400090E015C08091D203E82FF0E0ED52FC4FFA
:101A5000998190838F5F8093D2038093F40305C0B4
:101A600061E0CE0101960E94880C81E090E00F9029
:101A7000DF91CF9108950895FF920F931F93CF9315
:101A8000DF931F92CDB7DEB7FC01218D328D232B62
:101A900009F1F08C80E590E00E94940268E270E029
:101AA0008F2D0E946D02082F10E069E270E08F2DEB
:101AB0000E946D02702F6627682B21E030E0AE0196
:101AC0004F5F5F4F8F2D0E94390C0E9493028981D6
:101AD00090E002C08FEF9FEF0F90DF91CF911F91A9
:101AE0000F91FF9008951F920F920FB60F9211243D
:101AF0002F933F934F935F936F937F938F939F9316
:101B0000AF93BF93EF93FF938091B900887F8036A6
:101B100009F49CC068F5883209F45BC090F4803108
:101B200009F454C038F4882309F4F6C0883009F465
:101B30004DC0F6C0883109F44CC0803209F45DC054
:101B4000EFC0803409F468C048F4803309F455C00C
:101B5000883309F0E5C08093CE03D8C0803509F4FE
:101B60004FC0883509F45DC0883409F0D9C0D6C0AB
:101B7000883909F4C7C0A8F4883709F467C038F475
:101B8000883609F463C0803709F460C0C9C088385A
:101B900009F4B8C0803909F45FC0803809F0C0C0CA
:101BA0005BC0803B09F486C038F4803A09F466C013
:101BB000883A09F47FC0B4C0803C09F4A7C0883CCF
:101BC00009F4A4C0883B09F48AC0AAC08091AB0381
:101BD00010C09091CD038091CC03981770F5E091DF
:101BE000CD0381E08E0F8093CD03F0E0E455FC4FF0
:101BF00080818093BB0085EC86C08093CE038EC02D
:101C0000E091CD0381E08E0F8093CD038091BB00E6
:101C1000F0E0E455FC4F80839091CD038091CC039C
:101C20006EC0E091CD0381E08E0F8093CD03809153
:101C3000BB00F0E0E455FC4F80838091CF0381111D
:101C40006DC081E08093AA0384EA61C083E0809341
:101C5000D00310925D05CFCF80915D05803208F0F2
:101C600051C0E0915D0581E08E0F80935D0580910C
:101C7000BB00F0E0E35CFA4F8083BDCF85EC80933E
:101C8000BC001092D00380915D05803230F4E09169
:101C90005D05F0E0E35CFA4F108260915D0570E055
:101CA000E0913B05F0913C058DE395E0099510929C
:101CB0005D0536C084E08093D00310923A051092FF
:101CC0003905E0913705F09138050995809139057E
:101CD000811105C081E08093390510921705E091CC
:101CE0003A0581E08E0F80933A05F0E0E95EFA4F05
:101CF00080818093BB0090913A05809139059817B7
:101D000008F479CF85E88093BC000AC085EC809305
:101D1000BC001092D00304C01092CE030E947E0C2F
:101D2000FF91EF91BF91AF919F918F917F916F91B3
:101D30005F914F913F912F910F900FBE0F901F9089
:101D400018951092D00381E08093CF031092AA03DC
:101D500061E082E10E94F20261E083E10E94F2020E
:101D6000E9EBF0E080818E7F808380818D7F8083AE
:101D700088E48093B80085E48093BC0008952A9A93
:101D800008952A9808951F93CF93DF93182F66E242
:101D900070E00E946D02C82FD0E067E270E0812FF2
:101DA0000E946D02DC2FCC279E01282BC901DF91F8
:101DB000CF911F9108951F93CF93DF93182F60E267
:101DC00070E00E946D02C82FD0E061E270E0812FC8
:101DD0000E946D02DC2FCC279E01282BC901DF91C8
:101DE000CF911F9108958EBD00000DB407FEFDCF69
:101DF0008EB50895CF92DF92EF92FF920F931F93CB
:101E0000CF93DF93EC017A018B016C01C40ED51ED8
:101E1000CC15DD05A9F00E94C10E8FE00E94F30EE3
:101E20008D2F0E94F30E8C2F0E94F30E219680E0DE
:101E30000E94F30EF80181938F010E94BF0EE8CF3C
:101E4000C701DF91CF911F910F91FF90EF90DF902D
:101E5000CF900895CF92DF92EF92FF920F931F934E
:101E6000CF93DF93EC017A018B016C01C40ED51E78
:101E7000CC15DD05A1F00E94C10E80EF0E94F30E8B
:101E80008D2F0E94F30E8C2F0E94F30E2196F801E5
:101E900081918F010E94F30E0E94BF0EE9CFC7010E
:101EA000DF91CF911F910F91FF90EF90DF90CF9036
:101EB0000895BF92CF92DF92EF92FF920F931F93FC
:101EC000CF93DF9300D000D000D0CDB7DEB7FC01B8
:101ED000208D243009F05CC06A017B018C01B12C9B
:101EE00063E070E08B2D0E946D02811103C0F80148
:101EF000B08E06C08831D9F3B394F4E0BF12F0CFAE
:101F0000F801808D843009F443C096E0E6EBF1E0FF
:101F1000DE01119601900D929A95E1F7F7019381F8
:101F20009F779C8394819D8395819E83B7016E5F8B
:101F30007F4F90E0982F882744E050E0845F9B4FCC
:101F40000E942A0FF801F08C4D2D60E170E08F2D7A
:101F50000E9463024C2D61E170E08F2D0E946302AC
:101F6000F801808D90E0982F882746E050E0BE0170
:101F70006F5F7F4F8A5F9B4F0E942A0FF801128E7E
:101F8000118E40E8B601808D0E94EA0A81E001C00E
:101F900080E026960FB6F894DEBF0FBECDBFDF916E
:101FA000CF911F910F91FF90EF90DF90CF90BF9056
:101FB00008951F93CF93DF9300D0CDB7DEB7182FCE
:101FC0006A8399830E94C10E80EF0E94F30E99816B
:101FD000892F0E94F30E812F0E94F30E6A81862FB3
:101FE0000E94F30E0E94BF0E81E00F900F90DF91D0
:101FF000CF911F910895AF92BF92DF92EF92FF921F
:102000000F931F93CF93DF93D82E7B018A0180E536
:1020100090E00E949402C0E0D0E08D2D0E94C30E9B
:102020005C01892B21F08D2D0E94C30EEC01CA1595
:10203000DB0599F7209799F463E070E08D2D0E94FD
:102040006D028431D9F18823C9F1C1E0D0E08C312F
:1020500011F4C0E0D0E0D195C195D1092FC00C1783
:102060001D070CF4E8011C161D0644F568E270E03B
:102070008D2D0E946D02082F10E069E270E08D2D19
:102080000E946D02102F0027082B9E01A701B801A6
:102090008D2D0E94390C0C0F1D1F412F68E270E03E
:1020A0008D2D0E946302402F69E270E08D2D0E9409
:1020B000630260E470E08D2D0E94DA0A0E949302B0
:1020C000CE01DF91CF911F910F91FF90EF90DF90A4
:1020D000BF90AF900895CF93C82F80E590E00E9405
:1020E000940260E170E08C2F0E94DA0A4FEF62E008
:1020F00070E08C2F0E946302CF910C949302CF93D7
:10210000DF93CDB7DEB7C958D1090FB6F894DEBF5B
:102110000FBECDBF789484B5826084BD84B58160E4
:1021200084BD85B5826085BD85B5816085BD8091A2
:102130006E00816080936E0010928100809181001A
:102140008260809381008091810081608093810012
:10215000809180008160809380008091B1008460D4
:102160008093B1008091B00081608093B000809135
:102170007A00846080937A0080917A0082608093F4
:102180007A0080917A00816080937A0080917A0051
:10219000806880937A001092C100E0911F04F09152
:1021A000200482E08083E0911B04F0911C041082E3
:1021B000E0911D04F0911E048FEC8083109227049F
:1021C000E0912304F091240486E08083E0912104CF
:1021D000F0912204808180618083E0912104F0915C
:1021E0002204808188608083E0912104F0912204A0
:1021F000808180688083E0912104F09122048081B5
:102200008F7D8083C090B004D090B104DF92CF92D4
:102210008DE292E09F938F931F9285E08F9301E36D
:1022200013E01F930F930E945917F80101900020AB
:10223000E9F73197E153F340F0932E03E0932D0338
:102240001F930F9384ED91E09F938F931F921FE351
:102250001F939E012F5F3F4F19013F932F930E94C1
:102260005917C1010E94C70AC60188589F4F909113
:102270000D01980F90930D0190910701890F8093A4
:1022800007018EEA91E09A83898340910001509181
:10229000010160910201709103014B835C836D83A6
:1022A0007E832E0131E4430E511CD2018D939C9309
:1022B0008091040190910501A0910601B091070160
:1022C000F20182839383A483B583B101C2010E948A
:1022D0002A0B6BE07AE185ED94E00E9497026AE0B8
:1022E0007AE18AEB94E00E949702809107011F92A5
:1022F0008F93809106011F928F93809105011F9209
:102300008F93809104011F928F9388EE91E09F93A9
:102310008F931F921F933F922F920E945917C101D2
:102320000E94C70A10928903109288031092D20368
:102330001092F4030E94A10E0FB6F894DEBF0FBEF8
:10234000CDBF77E5872E73E0972E00E010E066247E
:102350006394D4011D921C926092D10380E2800F9D
:102360008093F3031092D2031092F4030E941F0A89
:102370008111AAC01F930F93A6E0B2E0BF93AF9361
:102380001F92FFE3FF933F922F920E945917C101C2
:102390000E94C70A84E390E00E9419165C01ECE2F7
:1023A000F3E0DC011196FC93EE9313961C930E93CD
:1023B0001297602FCF010E94440295012C5F3F4F7E
:1023C000CF57DF4F39832883C158D040205E3F4F1D
:1023D000CD57DF4F39832883C358D0400FB6F894C8
:1023E000DEBF0FBECDBFE12CF12C7724739458E0F3
:1023F000E516F1040CF4712C672D8CE293E00E9439
:1024000022029E2D977021E030E040E050E004C0B1
:10241000220F331F441F551F9A95D2F7CB57DF4F1A
:10242000288339834A835B83C558D040422F482B89
:10243000672D8CE293E00E94010238E0E316F1047C
:1024400014F02DE001C02CE0622F8CE293E0C7571E
:10245000DF4F2883C958D0400E942202CB57DF4F5C
:102460004881C558D040482BC757DF4F2881C958ED
:10247000D040622F8CE293E00E940102CF57DF4FE1
:10248000A881B981C158D0401D921D92CF57DF4F0E
:10249000B983A883C158D040CD57DF4FE881F98177
:1024A000C358D0401192CD57DF4FF983E883C3580A
:1024B000D040FFEFEF1AFF0A20E1E216F10409F025
:1024C00094CFD401AD92BC920F5F1F4FB2E08B0E40
:1024D000911C0830110509F03CCF6AE0E62EF12C82
:1024E00011E001E0612F86E00E94F2021027612FC7
:1024F00087E00E94F20262E370E080E090E00E94D8
:102500005E03E1E0EE1AF10869F760E086E00E9400
:10251000F20260E087E00E94F202DF92CF9287E24F
:1025200092E09F938F931F9280E28F933F922F921E
:102530000E945917C1010E94EE040FB6F894DEBF45
:102540000FBECDBF58E9C52E5AE3D52EE12CF12C94
:1025500047E553E0CF57DF4F59834883C158D040F8
:1025600066246A94762CCF57DF4FA881B981C15871
:10257000D0400D911D91CF57DF4FB983A883C1582B
:10258000D0400115110509F4FAC0F801628180817B
:1025900091810E944402D801AD90BC90F5018081E8
:1025A000806291E09093D1038093F3031092D20361
:1025B0001092F40362E185EF93E00E940C0D0E94FB
:1025C0001F0AD5018C91806262E070E090E00E9469
:1025D0007C0A85EF93E00E94C00CB82E85EF93E053
:1025E0000E94C00C982F88278B29FE01EF59FF4FBE
:1025F0004F01F801B496A8014C5F5F4F580124E3E6
:10260000A20EB11CCB57DF4F99828882C558D040AB
:1026100061E070E0CB57DF4FA881B981C558D04049
:102620001D921C92DA012D913C91B08180FF03C074
:102630002150310902C02F5F3F4F253031056CF02A
:10264000B1119EC1B1E0B083CB57DF4FA881B981F2
:10265000C558D0406D937C9393C12C3FAFEF3A07A0
:102660006CF4BB2349F01082CB57DF4FA881B981AE
:10267000C558D0406D927C922CEF3FEFDA012D933C
:102680003D93AD0196958795CB57DF4F28813981D2
:10269000C558D0402E5F3F4FCB57DF4F398328833B
:1026A000C558D0403196EA15FB0509F0B3CFAA24EE
:1026B000A394B12CD4018D919C91892B09F454C021
:1026C00061E086E00E94F2022EE130E040E050E05E
:1026D0002093B6043093B7044093B8045093B904E0
:1026E0000E9498036093B2047093B3048093B4047F
:1026F0009093B50481E0D4012D913C912F3F3F4F41
:1027000009F480E01F928F93BF92AF92F80183810A
:102710008F9382818F938091B1048F938091B004C5
:102720008F93A2E3B2E0BF93AF931F92F0E2FF93C7
:102730005F924F920E9459175F924F92A2E4B2E0CB
:10274000BF93AF931F92FFE3FF933F922F920E949C
:102750005917C1010E94C70AC2010E94EE040FB6B8
:10276000F894DEBF0FBECDBF3FEFA31AB30A42E01D
:10277000840E911C51E1A516B10409F09BCFCF57EF
:10278000DF4F28813981C158D0402756334009F0A6
:10279000EACE8AEB94E00E94A005181619060CF008
:1027A00063C088E1EFE3F3E0DF011D928A95E9F76A
:1027B00048E150E0BF018AEB94E00E94FA0148E151
:1027C00050E06DE472E08FE393E00E944B17892B99
:1027D00009F04AC081E080933E03C0923A03D09250
:1027E0003B03E0923C03F0923D030E949803609308
:1027F000360370933703809338039093390361E075
:1028000086E00E94F2022EE130E040E050E02093AA
:10281000B6043093B7044093B8045093B9040E94AF
:1028200098036093B2047093B3048093B4049093BC
:10283000B50460E087E00E94F20281E393E09F9399
:102840008F9382E592E09F938F931F9280E28F9304
:102850003F922F920E945917C1010E94EE040FB6B9
:10286000F894DEBF0FBECDBF0E94980300913603DF
:10287000109137032091380330913903DC01CB01EB
:10288000801B910BA20BB30B00913A0310913B03F9
:1028900020913C0330913D0380179107A207B307B5
:1028A00008F440C00E949803609336037093370386
:1028B00080933803909339038AE592E00E94C70A17
:1028C00010923E03C0923A03D0923B03E0923C0345
:1028D000F0923D030E949803609336037093370390
:1028E000809338039093390361E087E00E94F202FD
:1028F00080912F03909130039C012F5F3F4F3093C5
:10290000300320932F030B976CF085E792E00E9431
:10291000C70A68E873E180E090E00E945E03E0E0AF
:10292000F0E009950E9498030091B2041091B3045D
:102930002091B4043091B504DC01CB01801B910BD4
:10294000A20BB30B0091B6041091B7042091B80408
:102950003091B90480179107A207B30770F00E9465
:1029600098036093B2047093B3048093B40490937B
:10297000B50460E086E00E94F2020E94F001E8CD1A
:1029800024E030E07BCECF92DF92EF92FF92109264
:10299000F8031092F70348EE53E060E070E04093D4
:1029A000F9035093FA036093FB037093FC038CE1EB
:1029B00091E09093F6038093F5038EEA91E0909373
:1029C00002048093010410920304109204041092F4
:1029D0000504109206049093F4048093F30410927B
:1029E000F5041092F6041092F7041092F8049093F4
:1029F000FA048093F9041092FB041092FC041092E4
:102A0000FD041092FE04909300058093FF04109241
:102A1000010510920205109203051092040590938F
:102A20000804809307041092090410920A0410927B
:102A30000B0410920C0490930605809305051092E8
:102A40000705109208051092090510920A051092C8
:102A500012041092110440931304509314046093D1
:102A60001504709316042EE231E030931004209385
:102A70000F0425EC30E030931C0420931B0424EC5D
:102A800030E030931E0420931D0420EC30E030939E
:102A9000200420931F0421EC30E030932204209383
:102AA000210422EC30E0309324042093230426EC0C
:102AB00030E03093260420932504109228041092CD
:102AC000290410922A0410922B0490930C058093F1
:102AD0000B0510920D0510920E0510920F05109225
:102AE00010051092B1041092B00462E085E00E94DB
:102AF000220362E083E00E94220362E082E00E94FF
:102B0000220385E00E94C902892B49F48091B00418
:102B10009091B10481609093B1048093B00483E0FC
:102B20000E94C902892B49F48091B0049091B104AC
:102B300082609093B1048093B00482E00E94C90245
:102B4000892B49F48091B0049091B10484609093F2
:102B5000B1048093B00461E086E00E94220360E04B
:102B600086E00E94F20261E087E00E94220360E0BA
:102B700087E00E94F2028EEA91E090931205809322
:102B8000110510921305109214051092150510925C
:102B900016051092D8041092D70428EEC22E23E016
:102BA000D22EE12CF12CC092D904D092DA04E0921A
:102BB000DB04F092DC0446E851E05093D6044093E5
:102BC000D5049093E4048093E3041092E5041092FA
:102BD000E6041092E7041092E80424E02093ED0448
:102BE0001092BD041092BC04C092BE04D092BF04E7
:102BF000E092C004F092C1045093BB044093BA0425
:102C00009093C9048093C8041092CA041092CB0414
:102C10001092CC041092CD042093D204FF90EF9038
:102C2000DF90CF900895EE0FFF1F0590F491E02DF7
:102C30000994CF93DF938230910510F482E090E005
:102C4000E0916005F091610520E030E0C0E0D0E067
:102C5000309711F14081518148175907C0F048174A
:102C6000590761F482819381209719F09B838A83AD
:102C70002BC0909361058093600526C02115310516
:102C800019F04217530718F49A01BE01DF01EF0152
:102C90000280F381E02DDCCF2115310509F1281BDD
:102CA000390B2430310590F412968D919C91139735
:102CB0006115710521F0FB019383828304C0909319
:102CC000610580936005FD01329644C0FD01E20F6D
:102CD000F31F81939193225031092D933C933AC075
:102CE00020915E0530915F05232B41F42091100166
:102CF0003091110130935F0520935E0520910E0104
:102D000030910F012115310541F42DB73EB74091A7
:102D1000120150911301241B350BE0915E05F091D7
:102D20005F05E217F307A0F42E1B3F0B28173907A6
:102D300078F0AC014E5F5F4F2417350748F04E0F17
:102D40005F1F50935F0540935E058193919302C08E
:102D5000E0E0F0E0CF01DF91CF9108950F931F9352
:102D6000CF93DF93009709F48CC0FC013297138254
:102D7000128200916005109161050115110581F421
:102D800020813181820F931F20915E0530915F0574
:102D90002817390779F5F0935F05E0935E0571C058
:102DA000D80140E050E0AE17BF0750F412962D91C5
:102DB0003C911397AD012115310509F1D901F3CFEC
:102DC0009D01DA013383228360817181860F971F11
:102DD0008217930769F4EC0128813981260F371F88
:102DE0002E5F3F4F318320838A819B81938382832F
:102DF000452B29F4F0936105E093600542C01396DA
:102E0000FC93EE931297ED01499159919E01240F85
:102E1000351FE217F30771F480819181840F951FAC
:102E2000029611969C938E938281938113969C9324
:102E30008E931297E0E0F0E0D80112968D919C916C
:102E40001397009719F0F8018C01F6CF8D919C91A2
:102E500098012E5F3F4F820F931F20915E053091A6
:102E60005F052817390769F4309729F41092610536
:102E70001092600502C01382128210935F050093C6
:102E80005E05DF91CF911F910F91089581E090E051
:102E9000F8940C94601AFB01DC014150504030F072
:102EA0008D910190801919F40020B9F7881B990BB6
:102EB0000895AEE0B0E0EFE5F7E10C94371A0D8924
:102EC0001E898F89988D26E02C831A83098397FFAA
:102ED00002C080E090E801979E838D83AE01455E3D
:102EE0005F4F698D7A8DCE0101960E9489174D81C1
:102EF0005E8157FD0AC02F813885421753070CF4B5
:102F00009A01F801E20FF31F10822E96E4E00C9470
:102F1000531AACE0B0E0EFE8F7E10C94291A7C0119
:102F20006B018A01FC0117821682838181FFBDC17A
:102F3000CE0101964C01F7019381F60193FD859135
:102F400093FF81916F01882309F4ABC1853239F475
:102F500093FD859193FF81916F01853229F4B7012B
:102F600090E00E947119E7CF512C312C20E02032E3
:102F7000A0F48B3269F030F4803259F0833269F476
:102F800020612CC08D3239F0803339F4216026C0A5
:102F90002260246023C0286021C027FD27C030EDB7
:102FA000380F3A3078F426FF06C0FAE05F9E300D05
:102FB0001124532E13C08AE0389E300D1124332E75
:102FC00020620CC08E3221F426FD6BC1206406C045
:102FD0008C3611F4206802C0883641F4F60193FD66
:102FE000859193FF81916F018111C1CF982F9F7DB2
:102FF0009554933028F40C5F1F4FFFE3F9830DC005
:10300000833631F0833771F0833509F05BC022C01D
:10301000F801808189830E5F1F4F44244394512C13
:10302000540115C03801F2E06F0E711CF801A08048
:10303000B18026FF03C0652D70E002C06FEF7FEF07
:10304000C5012C870E9466192C0183012C852F77DE
:10305000222E17C03801F2E06F0E711CF801A0801B
:10306000B18026FF03C0652D70E002C06FEF7FEFD7
:10307000C5012C870E945B192C012C852068222E0B
:10308000830123FC1BC0832D90E048165906B0F441
:10309000B70180E290E00E9471193A94F4CFF501F3
:1030A00027FC859127FE81915F01B70190E00E9486
:1030B000711931103A94F1E04F1A5108411451043A
:1030C00071F7E5C0843611F0893639F5F80127FF2C
:1030D00007C060817181828193810C5F1F4F08C09E
:1030E00060817181072E000C880B990B0E5F1F4FBA
:1030F0002F76722E97FF09C09095809570956195F7
:103100007F4F8F4F9F4F2068722E2AE030E0A4013E
:103110000E94A919A82EA81844C0853729F42F7E2B
:10312000B22E2AE030E025C0F22FF97FBF2E8F3675
:10313000C1F018F4883579F0B4C0803719F08837B9
:1031400021F0AFC02F2F2061B22EB4FE0DC08B2D09
:103150008460B82E09C024FF0AC09F2F9660B92E44
:1031600006C028E030E005C020E130E002C020E1E8
:1031700032E0F801B7FE07C06081718182819381DE
:103180000C5F1F4F06C06081718180E090E00E5F90
:103190001F4FA4010E94A919A82EA818FB2DFF7784
:1031A0007F2E76FE0BC0372D3E7FA51450F474FEA3
:1031B0000AC072FC08C0372D3E7E05C0BA2C372DE0
:1031C00003C0BA2C01C0B52C34FF0DC0FE01EA0DBE
:1031D000F11D8081803311F4397E09C032FF06C0B1
:1031E000B394B39404C0832F867809F0B39433FD6D
:1031F00013C030FF06C05A2CB31418F4530C5B18DC
:10320000B32CB31468F4B70180E290E03C870E94CD
:103210007119B3943C85F5CFB31410F43B1801C079
:10322000312C34FF12C0B70180E390E03C870E944C
:1032300071193C8532FF17C031FD03C088E790E06B
:1032400002C088E590E0B7010CC0832F867859F062
:1032500031FF02C08BE201C080E237FD8DE2B70191
:1032600090E00E947119A51438F4B70180E390E052
:103270000E9471195A94F7CFAA94F401EA0DF11D36
:103280008081B70190E00E947119A110F5CF332021
:1032900009F451CEB70180E290E00E9471193A948E
:1032A000F6CFF7018681978102C08FEF9FEF2C96B2
:1032B000E2E10C94451AFC01059061507040011048
:1032C000D8F7809590958E0F9F1F0895FC0161504F
:1032D000704001900110D8F7809590958E0F9F1F38
:1032E00008950F931F93CF93DF93FB01238121FD5B
:1032F00003C08FEF9FEF28C022FF16C04681578181
:10330000248135814217530744F4A081B1819D0186
:103310002F5F3F4F318320838C93268137812F5F2E
:103320003F4F3783268310C0EB01092F182F0084ED
:10333000F185E02D0995892BE1F68E819F8101961B
:103340009F838E83812F902FDF91CF911F910F91BB
:103350000895FA01AA27283051F1203181F1E8942B
:103360006F936E7F6E5F7F4F8F4F9F4FAF4FB1E078
:103370003ED0B4E03CD0670F781F891F9A1FA11D73
:10338000680F791F8A1F911DA11D6A0F711D811D74
:10339000911DA11D20D009F468943F912AE0269F39
:1033A00011243019305D3193DEF6CF010895462F98
:1033B0004770405D4193B3E00FD0C9F7F6CF462F79
:1033C0004F70405D4A3318F0495D31FD40524193E2
:1033D00002D0A9F7EACFB4E0A6959795879577959F
:1033E0006795BA95C9F700976105710508959B0126
:1033F000AC010A2E06945795479537952795BA95AF
:10340000C9F7620F731F841F951FA01D0895A1E2C5
:103410001A2EAA1BBB1BFD010DC0AA1FBB1FEE1F4E
:10342000FF1FA217B307E407F50720F0A21BB30B99
:10343000E40BF50B661F771F881F991F1A9469F715
:1034400060957095809590959B01AC01BD01CF0171
:1034500008952F923F924F925F926F927F928F9238
:103460009F92AF92BF92CF92DF92EF92FF920F9313
:103470001F93CF93DF93CDB7DEB7CA1BDB0B0FB61D
:10348000F894DEBF0FBECDBF09942A8839884888DA
:103490005F846E847D848C849B84AA84B984C88470
:1034A000DF80EE80FD800C811B81AA81B981CE0F67
:1034B000D11D0FB6F894DEBF0FBECDBFED0108954C
:0434C000F894FFCFAE
:1034C400FFFFFF00C0A86300DEADBEAAFE0100003E
:1034D4006205800001000000000000000C0DDC0CFF
:1034E4001C01B00CD40CC00CB10C0000000087010E
:1034F400F0001F01CE0150012E0142010000000026
:10350400610261021C0161026102610261026102E5
:10351400A000610261026102610261026102610252
:1035240061026102000000006102F0001C011B0145
:10353400610261026102000000006102F0001C01EE
:103544001B01000000003E055A061C013B0D5405FA
:1035540077053C0D9702590F2F0716064407F70607
:10356400A0055805FA0190008C0000000000A40496
:1035740000000000610201005E0000003235352EBB
:103584003235352E3235352E3235350053656E746D
:10359400202573004D617374657220626F617264DB
:1035A4002069643A2025730041737369676E65640A
:1035B40020616464726573733A2025642E25642E39
:1035C40025642E256400466F756E6420696E7075DF
:1035D4007420626F61726420617420616464726536
:1035E40073733A2025640068656C6C6F20696D25DF
:1035F4006400696D256420622564206925642025A2
:10360400640053656E64696E672025730070696E8B
:103614006700257320706F6E67004E6F2070696EAF
:1036240067202D20636F6E6E656374696F6E206C06
:103634006F73743F004E6F2070696E6720666F72FF
:103644002061206C6F6E672074696D652C20747224
:1036540079696E6720746F2072657365742074686D
:0C3664006520646576696365000D0A004E
:00000001FF
