:100000000C9468000C9490000C9490000C94900058
:100010000C9490000C9490000C9490000C94900020
:100020000C9490000C9490000C9490000C94900010
:100030000C9490000C9490000C9490000C94900000
:100040000C94D70B0C9490000C945C0C0C94360C14
:100050000C9490000C9490000C9490000C949000E0
:100060000C94B9040C9490006364696E6F7073759E
:1000700078585B0000000000250028002B000000DD
:1000800000002300260029000000000800020100F3
:100090000003040700000000000000000000000052
:1000A000240027002A0001020408102040800102D9
:1000B00004081020010204081020040404040404AD
:1000C0000404020202020202030303030303FC10FE
:1000D00011241FBECFEFD8E0DEBFCDBF11E0A0E0FE
:1000E000B1E0E2E2FBE302C005900D92A43EB1074D
:1000F000D9F724E0A4EEB1E001C01D92AD36B207FD
:10010000E1F710E0C8E6D0E004C02197FE010E94AC
:100110006C16C736D107C9F70E94A4120C948F1D24
:100120000C940000FC01818D928D0895FC0184895E
:10013000958908952AEA31E0FC0131832083FB018F
:100140004089518962897389FC01428353836483A6
:1001500075830895DC01ED91FC91048CF58DE02D03
:10016000099480E0089585ED8093BC008091BC00E7
:1001700084FDFCCF1092CB02089540912402262FDB
:1001800030E0240F311D21323105DCF42091CB0207
:100190002430C9F4FC0180E090E0861758F43091D7
:1001A00024022191DC01AC5FBD4FA30FB11D2C9344
:1001B0000196F3CF80912402680F6093240280E0BF
:1001C000089581E0089582E0089508950895E091EA
:1001D000A4028091A302E81730F4F0E0EC51FE4F46
:1001E000808190E008958FEF9FEF08959091A40291
:1001F0008091A302981750F4E92FF0E0EC51FE4FE4
:10020000208130E09F5F9093A40202C02FEF3FEF68
:10021000C90108958091A30290E02091A402821B5D
:1002200091090895CF92DF92EF92FF920F931F935F
:10023000CF93DF937C01CB018A012091CC02222352
:1002400089F0EB016B01C40ED51ECC15DD0569F0FC
:100250006991D701ED91FC910190F081E02DC701EA
:100260000995F3CF642F0E94BD00C801DF91CF91A3
:100270001F910F91FF90EF90DF90CF900895CF9353
:10028000DF931F92CDB7DEB769832091CC02222382
:10029000D1F02091EF02203240F021E030E0FC016B
:1002A0003383228380E090E015C08091CD02E82F57
:1002B000F0E0E253FD4F998190838F5F8093CD02F0
:1002C0008093EF0205C061E0CE0101960E94BD005F
:1002D00081E090E00F90DF91CF910895089580E044
:1002E00090E00895CF93DF93FC01808D843029F056
:1002F000EF010E949F1084E0888FDF91CF910895D5
:100300009B0190E00496982F8827642F820F931FFB
:100310000C94F10CCF93DF9390E00496982F8827EC
:10032000EC01C60FD71F0E94900C8FE00E9498101E
:100330008D2F0E9498108C2F0E94981080E00E94B0
:100340009810C82F0E948E0C8C2FDF91CF910895AA
:1003500008958CBD9DBD0895CF92DF92FF920F93BB
:100360001F93CF93DF9300D0CDB7DEB7FC01208D74
:10037000243011F080E028C06B018C01F12CCE01FB
:1003800001960E949B0789819A810E94A90163E0DE
:1003900070E08F2D0E948A01811103C0F801F08E58
:1003A00006C08831D9F3F394F4E0FF12E8CFF801E6
:1003B000808D8430F9F2D586C486128E118E40E08D
:1003C000B6010E94B00781E00F900F90DF91CF91AE
:1003D0001F910F91FF90DF90CF9008956F927F92C1
:1003E0008F929F92AF92BF92CF92DF92EF92FF9245
:1003F0000F931F93CF93DF93CDB7DEB7EC970FB674
:10040000F894DEBF0FBECDBF4C017B013A018AEAF2
:1004100091E09A8389831C861B8648EE53E060E056
:1004200070E04D875E876F87788B22E831E03A87EE
:100430002987988F8F8B198E1A8E1B8E1C8E24E025
:1004400029A399AB88AB1AAA1BAA1CAA1DAA809142
:10045000950390919603A0919703B09198038EA372
:100460009FA3A8A7B9A78B839C83AD83BE8318865F
:100470001F82F70120E080E090E06AE031913323B1
:1004800019F140ED430F4A3080F4689FA001699F45
:10049000500D1124CA01C097830F911D37FD9A9505
:1004A0008F3F910559F350F32BC03E3249F523306D
:1004B00039F1A2E3B0E0AC0FBD1FA20FB11D8C93C8
:1004C0002F5F80E090E0DACF2330D1F48DABD40100
:1004D000ED91FC910488F589E02D8AEA91E09DA3D5
:1004E0008CA38AA99BA9ACA9BDA98EA39FA3A8A7E9
:1004F000B9A7A301BE016C5D7F4FC401099524C259
:100500004B815C816D817E8180918F0390919003FE
:10051000A0919103B0919203481759076A077B078E
:1005200009F410C20E94730A6F7077277C5FCE01B6
:1005300009960E94AC01813009F001C28AEA91E07B
:100540009DA38CA38B819C81AD81BE818EA39FA333
:10055000A8A7B9A745E350E0BE016C5D7F4FCE016F
:1005600009960E94E20E892B19F400E010E072C196
:100570000E94730A78876F837627672776277DA383
:100580006CA342E050E0BE016C5D7F4FCE01099646
:100590000E94EE0F81E090E09FAB8EAB42E050E016
:1005A000BE016A5C7F4FCE0109960E94EE0F80E08B
:1005B00091E09FAB8EAB42E050E0BE016A5C7F4FA2
:1005C000CE0109960E94EE0F1FAA1EAA42E050E03B
:1005D000BE016A5C7F4FCE0109960E94EE0F42E099
:1005E00050E0BE016A5C7F4FCE0109960E94EE0F7B
:1005F00042E050E0BE016A5C7F4FCE0109960E9446
:10060000EE0F6701D7018C91882311F186017801E3
:10061000F70181915F01882321F08E3211F085016D
:10062000F6CF0C191D091016110684F408AF41E02D
:1006300050E0BE01685C7F4FCE0109960E94EE0F2C
:10064000A801B601CE0109960E94EE0F6501DACF2E
:1006500018AE41E050E0BE01685C7F4FCE010996C4
:100660000E94EE0F00E011E01FAB0EAB42E050E045
:10067000BE016A5C7F4FCE0109960E94EE0F1FAB50
:100680000EAB42E050E0BE016A5C7F4FCE0109969E
:100690000E94EE0FCE0109960E94530D892B09F49A
:1006A00064CF83E0E82EF12C0E94730A5B016C0199
:1006B000CE0109960E94730F18161906A4F00E9425
:1006C000730ADC01CB018A199B09AC09BD09893881
:1006D0009341A105B105C8F462E370E080E090E0C9
:1006E0000E942209E5CF4B815C816D817E81898DDD
:1006F0009A8DAB8DBC8D481759076A077B0741F46B
:100700008D8D9E8DC59721F406C00FEF1FEF99C008
:100710000EEF1FEF96C08AA19BA10C970CF4A7C007
:100720004CE050E0BE016C5D7F4FCE0109960E9407
:100730001A0E8EA19FA19827892798279BAF8AAF71
:100740002CA13DA13227232732274F81588524171A
:10075000350709F089C097FF87C08F709270892B89
:1007600009F0EAC0AAA4BBA4BA24AB24BA24A114F9
:10077000B10409F4DEC000E010E088A599A598272F
:10078000892798270817190708F474C0C12CD12CA1
:1007900041E050E0BE01645C7F4FCE0109960E94AB
:1007A0001A0E8CAD982F907C09F09CC081118FC0DF
:1007B00042E050E0BE01685C7F4FCE0109960E9486
:1007C0001A0E42E050E0BE016A5C7F4FCE010996EE
:1007D0000E941A0ECE0109960E94390ECE0109968A
:1007E0000E94390ECE0109960E94390ECE0109965B
:1007F0000E94390E42E050E0BE01665C7F4FCE01A0
:1008000009960E941A0E88AD99AD8115914009F0A4
:1008100072C00EA91FA9102701271027013011054A
:1008200009F069C08AAD9BAD8115944009F07EC086
:1008300044E050E0BE016E5C7F4FCE0109960E94FD
:100840001A0EF1E0EF1AF10829F00F3FFFEF1F0732
:1008500009F42ACFCE0109960E94720101301105D8
:1008600009F435CEC80170C00CEF1FEFEACF0DEFD1
:100870001FEFE7CF41E050E0BE016A5C7F4FCE0141
:1008800009960E941A0E8EA9882359F08EA99FEF0F
:10089000980F9EAB882329F0CE0109960E94390E4D
:1008A000F5CF8EA98111E6CFCE0109960E94390EAF
:1008B000CE0109960E94390ECE0109960E94390E8A
:1008C000CE0109960E94390E0F5F1F4F56CF8CAD97
:1008D0009FEF980F9CAF882351F0CE0109960E949C
:1008E000390EF5CFCE0109960E94390E1CAE8CADA3
:1008F00081114ECF5DCF00E010E08AAD9BAD98270F
:10090000892798270817190738F4CE0109960E94FD
:10091000390E0F5F1F4FF1CFEFEFCE1ADE0ACA1468
:10092000DB0409F035CF06EF1FEF8BCF07EF1FEF8A
:1009300088CF0AEF1FEF85CF0BEF1FEF82CF80E04C
:1009400090E002C08EEF9FEFEC960FB6F894DEBFFA
:100950000FBECDBFDF91CF911F910F91FF90EF9010
:10096000DF90CF90BF90AF909F908F907F906F90CF
:1009700008951F920F920FB60F9211242F933F9359
:100980004F935F936F937F938F939F93AF93BF9397
:10099000EF93FF938091B900887F803609F49CC063
:1009A00068F5883209F45BC090F4803109F454C0D2
:1009B00038F4882309F4F6C0883009F44DC0F6C035
:1009C000883109F44CC0803209F45DC0EFC0803436
:1009D00009F468C048F4803309F455C0883309F03D
:1009E000E5C08093C902D8C0803509F44FC088356E
:1009F00009F45DC0883409F0D9C0D6C0883909F43B
:100A0000C7C0A8F4883709F467C038F4883609F4F9
:100A100063C0803709F460C0C9C0883809F4B8C021
:100A2000803909F45FC0803809F0C0C05BC0803BEA
:100A300009F486C038F4803A09F466C0883A09F4AB
:100A40007FC0B4C0803C09F4A7C0883C09F4A4C0AE
:100A5000883B09F48AC0AAC08091A60210C0909178
:100A6000C8028091C702981770F5E091C80281E032
:100A70008E0F8093C802F0E0E955FD4F808180938E
:100A8000BB0085EC86C08093C9028EC0E091C8028D
:100A900081E08E0F8093C8028091BB00F0E0E955A1
:100AA000FD4F80839091C8028091C7026EC0E09193
:100AB000C80281E08E0F8093C8028091BB00F0E0F5
:100AC000E955FD4F80838091CA0281116DC081E09C
:100AD0008093A50284EA61C083E08093CB021092E8
:100AE0004602CFCF80914602803208F051C0E0919B
:100AF000460281E08E0F809346028091BB00F0E0B9
:100B0000EA5DFD4F8083BDCF85EC8093BC001092E1
:100B1000CB0280914602803230F4E0914602F0E050
:100B2000EA5DFD4F10826091460270E0E0919F0205
:100B3000F091A00286E292E009951092460236C03A
:100B400084E08093CB021092250210922402E0915F
:100B5000A102F091A202099580912402811105C0A1
:100B600081E08093240210920402E091250281E04A
:100B70008E0F80932502F0E0EC5FFD4F8081809323
:100B8000BB009091250280912402981708F479CF38
:100B900085E88093BC000AC085EC8093BC0010926D
:100BA000CB0204C01092C9020E94B300FF91EF91E2
:100BB000BF91AF919F918F917F916F915F914F9175
:100BC0003F912F910F900FBE0F901F901895CF93CC
:100BD000C42FFC018081806291E09093CC028093CD
:100BE000EE021092CD021092EF028BE993E00E9488
:100BF0003F016C2F8BE993E00E943F0181E0CF9190
:100C00000C943F07CF93DF93EC018881806291E0E1
:100C10009093CC028093EE021092CD021092EF02DC
:100C20008BE993E00E943F0181E00E943F078091A1
:100C3000CB028111FCCF888191E09093CB029093FD
:100C4000CA022FEF2093C9021092C8021092C70265
:100C50009093A6029091A6028062880F892B8093C0
:100C6000A6028091A502813061F41092A5028091C4
:100C7000A6028093BB008091BC0083FDF8CF85EC79
:100C800001C085EE8093BC008091CB028130E1F3FE
:100C90008091C802811103C09091C80201C091E007
:100CA000A7EAB2E0E4EEF1E080E0891721F02D91AF
:100CB00021938F5FFACF1092A4028093A3028BE955
:100CC00093E00E94F600DF91CF910895FF920F9379
:100CD0001F93CF93DF93EC01162FF42E062F07708E
:100CE000683010F065E101C064E1CE010E940206A7
:100CF00041E050E060E070E004C0440F551F661F03
:100D0000771F0A95D2F7FF2011F0482B02C04095BB
:100D10004823183010F063E101C062E1CE01DF9199
:100D2000CF911F910F91FF900C94E705EF92FF92E6
:100D30000F931F93CF937C0125E0E20EF11CC0E0DE
:100D40008C010E5F1F4FF7014081F2E0EF0EF11CA6
:100D50006C2FC8010E946606CF5FC031A1F7CF910A
:100D60001F910F91FF90EF900895833081F028F448
:100D7000813099F08230A1F008958730A9F0883051
:100D8000B9F08430D1F4809180008F7D03C08091D0
:100D900080008F7780938000089584B58F7702C09C
:100DA00084B58F7D84BD08958091B0008F7703C096
:100DB0008091B0008F7D8093B0000895CF93DF9332
:100DC00090E0FC01EA55FF4F2491FC01E654FF4FEF
:100DD0008491882361F190E0880F991FFC01E4560B
:100DE000FF4FC591D491FC01EC58FF4FA591B491F0
:100DF000611109C09FB7F894888120958223888368
:100E0000EC912E230BC0623061F49FB7F894888177
:100E1000322F309583238883EC912E2B2C939FBF08
:100E200006C08FB7F894E8812E2B28838FBFDF91FF
:100E3000CF9108953FB7F89480914B0290914C0266
:100E4000A0914D02B0914E0226B5A89B05C02F3F40
:100E500019F00196A11DB11D3FBFBA2FA92F982FE0
:100E60008827820F911DA11DB11DBC01CD0142E05B
:100E7000660F771F881F991F4A95D1F70895282F6D
:100E80003091EF02313208F04AC08091CB028111DB
:100E9000FCCF9091EE0242E04093CB022093CA0235
:100EA0002FEF2093C9021092C8023093C702EEECD4
:100EB000F2E0A7EAB2E020E0321721F041914D9331
:100EC0002F5FFACF1092A6022091A602990F922BC3
:100ED0009093A6029091A502913061F41092A50220
:100EE0009091A6029093BB009091BC0093FDF8CF27
:100EF00095EC01C095EE9093BC009091CB0292309E
:100F0000E1F39091C9029F3F79F08091C90280324C
:100F100041F08091C902803331F084E005C081E066
:100F200003C082E001C083E01092CD021092EF0274
:100F30001092CC02089520E5FC01208311820895CF
:100F4000CF93C82F462F61E070E00E94800161E0DE
:100F500070E08C2F0E948A018111F9CFCF91089502
:100F6000EF92FF920F931F93CF93DF9300D0CDB7F3
:100F7000DEB7182F7B01042F0E949F10CE0101962F
:100F80000E949B0789819A810E94A901402F42609B
:100F900060E070E0812F0E948001E114F10459F4B7
:100FA000E090E103F090E2038FEFE81AF80AF09284
:100FB000E203E092E1034F2D64E070E0812F0E9494
:100FC00080014E2D65E070E0812F0E94800161E07C
:100FD00070E0812F0E94A0070E94A80181E00F907D
:100FE0000F90DF91CF911F910F91FF90EF90089597
:100FF000CF93DF9300D000D000D0CDB7DEB78AEA20
:1010000091E09A8389838091030490910404A091D4
:101010000504B09106048B839C83AD83BE8343EBB0
:1010200055E1BE016F5F7F4F85EC93E00E94E20EB9
:101030006FE472E085EC93E00E94210C68EB71E0B4
:1010400085EC93E00E94210C85EC93E00E94530D07
:1010500026960FB6F894DEBF0FBECDBFDF91CF91BD
:101060000895AF92BF92CF92DF92EF92FF920F93CB
:101070001F93CF93DF9300D0CDB7DEB77A83698318
:10108000BA01A901E981FA81F770082F10E0000F79
:10109000111F09561D4FD8018D919C918E0F9F1FD6
:1010A0009F01240F351F21303840A0F07A015B01E9
:1010B00060E078E06B01CE1ADF0AA601B5010E945C
:1010C000920CA7014C195D09B5016C0D7D1DF8014D
:1010D000808191810F900F90DF91CF911F910F919F
:1010E000FF90EF90DF90CF90BF90AF900C94920C58
:1010F0008F929F92AF92BF92EF92FF920F931F93A6
:10110000CF93DF93CDB7DEB7A1970FB6F894DEBFCC
:101110000FBECDBF7C01FA01CB0119A2223008F429
:101120002AE08E010F5D1F4F822E912CA12CB12C35
:10113000BF01A50194010E944A16F901CA0101509C
:1011400011096A3014F4605D01C0695CD8016C93C8
:10115000232B242B252B61F7B801C7010E94210CFA
:10116000A1960FB6F894DEBF0FBECDBFDF91CF9131
:101170001F910F91FF90EF90BF90AF909F908F9035
:1011800008951F93CF93DF93282F30E0F901E8579C
:10119000FF4F8491F901EA55FF4FD491F901E654CC
:1011A000FF4FC491CC23C1F0162F81110E94B506C8
:1011B000EC2FF0E0EE0FFF1FEC58FF4FA591B4911C
:1011C0009FB7F894111104C08C91D095D82302C018
:1011D000EC91DE2BDC939FBFDF91CF911F9108959F
:1011E0001092A4021092A3021092CD021092EF026C
:1011F0001092CB0281E08093CA021092A50261E0B6
:1012000082E10E94C10861E083E10E94C108E9EB2C
:10121000F0E080818E7F808380818D7F808388E471
:101220008093B80085E48093BC0085EE90E09093B5
:10123000A2028093A10286EE90E09093A002809398
:101240009F0208958F929F92AF92BF92CF92DF92AA
:10125000EF92FF926B017C010E941A074B015C0127
:10126000C114D104E104F104F1F00E941A07DC0179
:10127000CB0188199909AA09BB09883E9340A105A9
:10128000B10570F321E0C21AD108E108F10888EE37
:10129000880E83E0981EA11CB11CC114D104E10486
:1012A000F10419F7DDCFFF90EF90DF90CF90BF9062
:1012B000AF909F908F900895CF92DF92EF92FF9220
:1012C0001F93CF93DF93CDB7DEB7E2970FB6F894B5
:1012D000DEBF0FBECDBFFC0182819381A481B581A9
:1012E0008DA79EA7AFA7B8AB51E058ABCDA4DEA4A5
:1012F000EFA4F8A8CB8EDC8EED8EFE8EFB01C280B3
:10130000D380E480F580C9A2DAA2EBA2FCA28FA36D
:1013100098A7A9A7BAA72AEA31E03C8B2B8B4FEFFD
:101320004D8B4E8B4F8B188E3E872D875E8F4B8D4E
:101330005C8D6D8D7E8D4F87588B698B7A8BC986BE
:10134000DA86EB86FC863A8329838B839C83AD8384
:10135000BE836CE271E080E090E00E9422091FB73A
:10136000F8948091E003811127C0E4ECF0E08491CF
:10137000E0EBF0E09491E82FF0E0EE0FFF1FE45671
:10138000FF4FA591B491EC91E92321F461E08AE04B
:101390000E94C10861E08AE00E94DE068CB580618F
:1013A0008CBD8CB580648CBD61E08DE00E94DE0652
:1013B00061E08BE00E94DE068091E0038F5F809306
:1013C000E0031FBF229ACE01C1960E949B0789A904
:1013D0009AA90E94A90160E880E090E00E94F10CC7
:1013E00065E58BE190E00E94F10C65E58AE190E013
:1013F0000E94F10C0E94A80180E090E4909390027A
:1014000080938F0280E090E69093980280939702F9
:1014100080E098E4909392028093910280E098E6B5
:1014200090939A028093990280E090E590939402C1
:101430008093930280E090E790939C0280939B02BC
:1014400080E098E5909396028093950280E098E77B
:1014500090939E0280939D02CE01C1960E949B07AD
:1014600089A99AA90E94A90146E050E060E071E0D4
:1014700089E090E00E94C20C44E050E0BE016D5F44
:101480007F4F8FE090E00E94C20C44E050E0BE012C
:10149000615F7F4F81E090E00E94C20C44E050E029
:1014A000BE016B5E7F4F85E090E00E94C20C0E94FF
:1014B000A80189859A85AB85BC8580939503909317
:1014C0009603A0939703B0939803E2960FB6F8940F
:1014D000DEBF0FBECDBFDF91CF911F91FF90EF9088
:1014E000DF90CF9008952FB7F894609147027091E4
:1014F00048028091490290914A022FBF0895CF92ED
:10150000DF92EF92FF920F931F93CF93DF936C01C3
:101510007A018B01C0E0D0E0CE15DF0581F0D80163
:101520006D918D01D601ED91FC910190F081E02D3E
:10153000C6010995892B11F02196EECF7E01C701D6
:10154000DF91CF911F910F91FF90EF90DF90CF909F
:101550000895FC01538D448D252F30E0842F90E0B9
:10156000821B930B541710F0CF960895019708959E
:10157000FC01918D828D981761F0828DDF01A80F9B
:10158000B11D5D968C91928D9F5F9F73928F90E0BD
:1015900008958FEF9FEF0895FC01918D828D98172C
:1015A00031F0828DE80FF11D858D90E008958FEF69
:1015B0009FEF0895FC01918D228D892F90E0805C32
:1015C0009F4F821B91098F739927089580EF92E0B6
:1015D0000E94DA0A21E0892B09F420E0822F089585
:1015E000FC01848DDF01A80FB11DA35ABF4F2C91C0
:1015F000848D90E001968F739927848FA689B7898F
:101600002C93A089B1898C91837080648C93938D85
:10161000848D981306C00288F389E02D80818F7D28
:1016200080830895EF92FF920F931F93CF93DF93E0
:10163000EC0181E0888F9B8D8C8D981305C0E88923
:10164000F989808185FD26C0F62E0B8D10E00F5F95
:101650001F4F0F731127E02E8C8DE8120CC00FB6B0
:1016600007FCFACFE889F989808185FFF5CFCE01A3
:101670000E94F00AF1CF8B8DFE01E80FF11DE35AB5
:10168000FF4FF0829FB7F8940B8FEA89FB89808126
:1016900080620AC09FB7F894EE89FF896083E88969
:1016A000F98980818370806480839FBF81E090E0AE
:1016B000DF91CF911F910F91FF90EF900895CF93FD
:1016C000DF93EC01888D8823C9F0EA89FB8980814A
:1016D00085FD05C0A889B9898C9186FD0FC00FB61C
:1016E00007FCF5CF808185FFF2CFA889B9898C915D
:1016F00085FFEDCFCE010E94F00AE7CFDF91CF91B9
:10170000089580E090E0892B29F00E94E60A81117B
:101710000C94000008950E9493178F929F92AF92AD
:10172000BF92CF92DF92EF92FF920F931F93CF93CE
:10173000DF937C01EB016C0182E0C80ED11C4701F4
:10174000E5E08E0E911C00E010E0F60141916F0182
:1017500050E060E070E02AE0CE010E9478085C0171
:10176000E881F9810190F081E02D6EE2CE010995CA
:101770008A0D9B1D080F191F8C149D0431F7F7016A
:10178000458150E060E070E02AE0CE010E947808D8
:10179000800F911FDF91CF911F910F91FF90EF90DC
:1017A000DF90CF90BF90AF909F908F9008951F9241
:1017B0000F920FB60F9211242F933F938F939F9305
:1017C000AF93BF938091470290914802A091490244
:1017D000B0914A023091680423E0230F2D3720F4A2
:1017E0000196A11DB11D05C026E8230F0296A11D7B
:1017F000B11D209368048093470290934802A09300
:101800004902B0934A0280914B0290914C02A09100
:101810004D02B0914E020196A11DB11D80934B0265
:1018200090934C02A0934D02B0934E02BF91AF91A2
:101830009F918F913F912F910F900FBE0F901F900E
:1018400018956115710579F0FB0101900020E9F709
:101850003197AF01461B570BDC01ED91FC910280E3
:10186000F381E02D099480E090E008951F920F929B
:101870000FB60F9211242F933F934F935F936F9363
:101880007F938F939F93AF93BF93EF93FF9380EFDB
:1018900092E00E94F00AFF91EF91BF91AF919F916A
:1018A0008F917F916F915F914F913F912F910F9009
:1018B0000FBE0F901F9018951F920F920FB60F92A8
:1018C00011242F938F939F93EF93FF93E091000345
:1018D000F09101038081E0910603F091070382FDFE
:1018E00012C09081809109038F5F8F7320910A034A
:1018F000821751F0E0910903F0E0E051FD4F958F20
:101900008093090301C08081FF91EF919F918F9196
:101910002F910F900FBE0F901F9018952A9A08953F
:101920002A980895CF92DF92EF92FF920F931F9320
:10193000CF93DF93EC017A018B016C01C40ED51EAD
:10194000CC15DD05A9F00E94900C8FE00E94981044
:101950008D2F0E9498108C2F0E949810219680E065
:101960000E949810F80181938F010E948E0CE8CF9D
:10197000C701DF91CF911F910F91FF90EF90DF9002
:10198000CF900895CF92DF92EF92FF920F931F9323
:10199000CF93DF93EC017A018B016C01C40ED51E4D
:1019A000CC15DD05A1F00E94900C80EF0E949810EC
:1019B0008D2F0E9498108C2F0E9498102196F8016C
:1019C00081918F010E9498100E948E0CE9CFC7016F
:1019D000DF91CF911F910F91FF90EF90DF90CF900B
:1019E00008951F93CF93DF93D82F192FC62F0E94EE
:1019F000900C80EF0E949810812F0E9498108D2FDC
:101A00000E9498108C2F0E9498100E948E0C81E0EA
:101A1000DF91CF911F9108951F93CF93DF93182FDC
:101A200066E270E00E948A01C82FD0E067E270E0B1
:101A3000812F0E948A01DC2FCC279E01282BC9010F
:101A4000DF91CF911F9108951F93CF93DF93182FAC
:101A500060E270E00E948A01C82FD0E061E270E08D
:101A6000812F0E948A01DC2FCC279E01282BC901DF
:101A7000DF91CF911F9108950895CF93DF931F9227
:101A8000CDB7DEB76983DC01ED91FC910280F38173
:101A9000E02D41E050E0BE016F5F7F4F09950F9050
:101AA000DF91CF9108951F93CF93DF9300D0CDB7EF
:101AB000DEB7FC01108DCE0101960E949B07898143
:101AC0009A810E94A90160E270E0812F0E94A00724
:101AD00062E070E0812F0E948A0184FD1DC062E0F7
:101AE00070E0812F0E948A0183FF0BC048E162E011
:101AF00070E0812F0E9480010E94A80180E090E0A8
:101B000015C00E94A801CE0101960E949B07898101
:101B10009A810E94A901DCCF40E162E070E0812F50
:101B20000E9480010E94A80181E090E00F900F9038
:101B3000DF91CF911F9108958F929F92BF92CF9284
:101B4000DF92EF92FF920F931F93CF93DF9300D01A
:101B5000CDB7DEB7B82E6B017A01CE0101960E9497
:101B60009B0789819A810E94A901812C912C8B2D40
:101B70000E940C0D8C01892B21F08B2D0E940C0DE5
:101B80004C010815190599F70115110599F463E041
:101B900070E08B2D0E948A018431D9F18823C9F12C
:101BA00001E010E08C3111F400E010E01195019596
:101BB00011092FC0E016F1060CF48701101611066A
:101BC00044F568E270E08B2D0E948A01E82EF12C2A
:101BD00069E270E08B2D0E948A01FE2CEE24E82A37
:101BE0009801A601B7018B2D0E943108E00EF11E6D
:101BF0004F2D68E270E08B2D0E9480014E2D69E22E
:101C000070E08B2D0E94800160E470E08B2D0E94BB
:101C1000A0070E94A801C8010F900F90DF91CF91FB
:101C20001F910F91FF90EF90DF90CF90BF909F900A
:101C30008F900895CF93DF93FC01218D328D211574
:101C4000310519F48FEF9FEF11C0EC0142175307D4
:101C500008F0A901888D0E949C0D1816190694F7AA
:101C6000298D3A8D281B390B3A8F298FDF91CF911F
:101C700008950F931F93CF93DF931F92CDB7DEB7D5
:101C8000FC01218D328D232B61F08C0141E050E06D
:101C9000BE016F5F7F4F808D0E949C0D1816190644
:101CA0001CF08FEF9FEF08C0F801818D928D019796
:101CB000928F818F898190E00F90DF91CF911F915A
:101CC0000F910895BF92CF92DF92EF92FF920F9300
:101CD0001F93CF93DF9300D000D000D0CDB7DEB7F5
:101CE000FC01208D243009F05CC06A017B018C016D
:101CF000B12C63E070E08B2D0E948A01811103C03A
:101D0000F801B08E06C08831D9F3B394F4E0BF1265
:101D1000F0CFF801808D843009F443C096E0E2EB07
:101D2000F1E0DE01119601900D929A95E1F7F7012D
:101D300093819F779C8394819D8395819E83B70136
:101D40006E5F7F4F90E0982F882744E050E0845FDB
:101D50009B4F0E94C20CF801F08C4D2D60E170E0A9
:101D60008F2D0E9480014C2D61E170E08F2D0E942B
:101D70008001F801808D90E0982F882746E050E0A0
:101D8000BE016F5F7F4F8A5F9B4F0E94C20CF801BC
:101D9000128E118E40E8B601808D0E94B00781E05E
:101DA00001C080E026960FB6F894DEBF0FBECDBF0F
:101DB000DF91CF911F910F91FF90EF90DF90CF9027
:101DC000BF900895DF92EF92FF920F931F93CF93EE
:101DD000DF9300D0CDB7DEB7FB01DC0157961C9234
:101DE0001E9256972281211109C02381211106C01C
:101DF0002481211103C02581222369F14115510558
:101E000051F17A018F01FC01D08CCE0101960E9424
:101E10009B0789819A810E94A901B8016E5F7F4F5B
:101E20008D2D90E0982F882744E050E0845F9B4FF1
:101E30000E94C20C4F2D60E170E08D2D0E94800148
:101E40004E2D61E170E08D2D0E9480010E94A8015D
:101E500081E090E002C080E090E00F900F90DF9171
:101E6000CF911F910F91FF90EF90DF900895FF9217
:101E70000F931F93CF93DF9300D0CDB7DEB7FC0154
:101E8000218D328D232B29F1F08CCE0101960E94F9
:101E90009B0789819A810E94A90168E270E08F2DD9
:101EA0000E948A01082F10E069E270E08F2D0E94E5
:101EB0008A01702F6627682B21E030E0AE014F5F6A
:101EC0005F4F8F2D0E9431080E94A801898190E008
:101ED00002C08FEF9FEF0F900F90DF91CF911F9176
:101EE0000F91FF900895BF92CF92DF92EF92FF92F1
:101EF0000F931F93CF93DF93CDB7DEB728970FB61D
:101F0000F894DEBF0FBECDBF8C01D80159968D91DC
:101F10009C915A97892B41F0ED91FC910284F385B5
:101F2000E02DC8010995F1CFF801B08CCE010196E2
:101F30000E949B0789819A810E94A901C12CD12C02
:101F40008B2D0E940C0D7C01892B21F08B2D0E9482
:101F50000C0D6C01EC14FD0499F70E94A8011E14ED
:101F60001F0454F548E050E0BE016F5F7F4FD80179
:101F700058968C910E949C0D18161906FCF4D801F5
:101F8000509684E0FE01319601900D928A95E1F71A
:101F90008D8190E0982F88272E81820F911DF80166
:101FA000958B848B8F8190E0982F88272885820FCE
:101FB000911D928F818F02C080E090E028960FB62D
:101FC000F894DEBF0FBECDBFDF91CF911F910F916F
:101FD000FF90EF90DF90CF90BF9008955F926F9247
:101FE0007F928F929F92AF92BF92CF92DF92EF92A9
:101FF000FF920F931F93CF93DF9300D0CDB7DEB73F
:102000007C016B018A01FC0166887788508CCE01C7
:1020100001960E949B0789819A810E94A901812CC7
:10202000912C852D0E94240D5C01892B21F0852D9A
:102030000E94240D4C01A814B90499F7A016B1060A
:1020400078F400E010E0852D0E94240D5C01892BBE
:1020500021F0852D0E94240D8C01A016B10699F760
:1020600064E270E0852D0E948A01A82EB12C65E201
:1020700070E0852D0E948A01BA2CAA24A82A6A0C35
:102080007B1C93013770852C912CC401880F991FFC
:10209000AC0141575D4F4A01FA0180819181820F65
:1020A000931FA801420F531F4130584098F060E041
:1020B00078E05B01A21AB30AA501B6010E94C20C26
:1020C000A8014A195B09B6016A0D7B1DF4018081E4
:1020D000918102C0A801B6010E94C20C600E711E5F
:1020E000472D64E270E0852D0E948001462D65E257
:1020F00070E0852D0E9480010E94A801F701868969
:102100009789800F911F978B868BC8010F900F9036
:10211000DF91CF911F910F91FF90EF90DF90CF90C3
:10212000BF90AF909F908F907F906F905F90089539
:102130008EBD00000DB407FEFDCF8EB508951F9330
:10214000CF93DF9300D0CDB7DEB7182FCE01019625
:102150000E949B0789819A810E94A90160E170E039
:10216000812F0E94A0074FEF62E070E0812F0E9454
:1021700080010E94A8010F900F90DF91CF911F91D5
:1021800008952CE330E0FC013483238335969C01D1
:10219000295D3F4F11921192E217F307D9F7FC0125
:1021A000718360830895CF93DF93282F30E0F90186
:1021B000E857FF4F8491F901EA55FF4FD491F90197
:1021C000E654FF4FC491CC2391F081110E94B506D3
:1021D000EC2FF0E0EE0FFF1FE258FF4FA591B491F6
:1021E000EC91ED2381E090E021F480E002C080E0FA
:1021F00090E0DF91CF910895CF93DF931092F30297
:102200001092F20248EE53E060E070E04093F40276
:102210005093F5026093F6027093F70288E191E023
:102220009093F1028093F00285EC90E09093FD0290
:102230008093FC0284EC90E09093FF028093FE0276
:1022400080EC90E0909301038093000381EC90E098
:10225000909303038093020382EC90E09093050334
:102260008093040386EC90E0909307038093060329
:102270001092090310920A0310920B0310920C03A0
:102280008AEA91E090938E0380938D0310928F03DE
:102290001092900310929103109292039093E40392
:1022A0008093E3031092E5031092E6031092E70394
:1022B0001092E8039093EA038093E9031092EB03F2
:1022C0001092EC031092ED031092EE039093F00342
:1022D0008093EF031092F1031092F2031092F30334
:1022E0001092F403909394038093930310929503B8
:1022F00010929603109297031092980310929E03E7
:1023000010929D0340939F035093A0036093A103F9
:102310007093A2032AE231E030939C0320939B0345
:102320009093FC038093FB031092FD031092FE0335
:102330001092FF03109200049093F6038093F5032C
:1023400080EC8093F70388EA8093F80383E6809318
:10235000F9038FEF8093FA031092BC031092BB0332
:1023600062E085E00E94DE0662E083E00E94DE0615
:1023700062E082E00E94DE0685E00E94D310892B95
:1023800049F48091BB039091BC0381609093BC039E
:102390008093BB0383E00E94D310892B49F4809182
:1023A000BB039091BC0382609093BC038093BB03FA
:1023B00082E00E94D310892B49F48091BB03909155
:1023C000BC0384609093BC038093BB0361E086E010
:1023D0000E94DE0660E086E00E94C10861E087E0BE
:1023E0000E94DE0660E087E00E94C10887E290E07C
:1023F0000E947216EC0160E070E00E94C110D09360
:10240000A803C093A70387E290E00E947216EC0134
:1024100061E070E00E94C110D093AA03C093A903A9
:1024200087E290E00E947216EC0162E070E00E9488
:10243000C110D093AC03C093AB0387E290E00E943D
:102440007216EC0163E070E00E94C110D093AE03FD
:10245000C093AD0387E290E00E947216EC0164E045
:1024600070E00E94C110D093B003C093AF0387E225
:1024700090E00E947216EC0165E070E00E94C110CD
:10248000D093B203C093B10387E290E00E9472162A
:10249000EC0166E070E00E94C110D093B403C093D9
:1024A000B30387E290E00E947216EC0167E070E0EF
:1024B0000E94C110D093B603C093B5038AEA91E09D
:1024C00090930804809307041092090410920A0460
:1024D00010920B0410920C04909302048093010458
:1024E00020EC2093030428EA2093040423E620939D
:1024F00005042FEF209306041092C8031092C7031F
:1025000048EE53E060E070E04093C9035093CA0383
:102510006093CB037093CC0322E831E03093C60381
:102520002093C5039093D4038093D3031092D503D3
:102530001092D6031092D7031092D80384E08093B0
:10254000DD03DF91CF910895CF93DF93CDB7DEB751
:102550002C970FB6F894DEBF0FBECDBF789484B52C
:10256000826084BD84B5816084BD85B5826085BD8F
:1025700085B5816085BD80916E00816080936E001D
:10258000109281008091810082608093810080910F
:1025900081008160809381008091800081608093C0
:1025A00080008091B10084608093B1008091B00080
:1025B00081608093B00080917A00846080937A007B
:1025C00080917A00826080937A0080917A008160A5
:1025D00080937A0080917A00806880937A001092CC
:1025E000C100E0910003F091010382E08083E0915B
:1025F000FC02F091FD021082E091FE02F091FF02D8
:102600008FEC808310920803E0910403F09105039E
:1026100086E08083E0910203F09103038081806172
:102620008083E0910203F0910303808188608083BE
:10263000E0910203F0910303808180688083E09140
:102640000203F091030380818F7D80838091BB031F
:102650009091BC0380930F04909310049F938F93E9
:1026600081EC91E09F938F931F9285E08F930BE114
:1026700014E01F930F930E94A617F8010190002009
:10268000E9F731978F010B51144010931A0400930E
:102690001904C0900F04D0901004C60184579F4FB6
:1026A00090910501980F9093050190910D01890F6C
:1026B00080930D018AEA91E09A8389834091060113
:1026C0005091070160910801709109014B835C836F
:1026D0006D837E8398878F8380910A0190910B018F
:1026E000A0910C01B0910D0189879A87AB87BC87B7
:1026F000BE016F5F7F4FCE0107960E945C096AE0C2
:102700007AE185EC93E00E94AC010E94F0080FB6DC
:10271000F894DEBF0FBECDBF10E201E00093CC0203
:102720001093EE021092CD021092EF0281E00E940F
:102730003F071F5F183291F7A7EBAA2EA3E0BA2E2E
:10274000B7EA8B2EB3E09B2E412C512C32014394DF
:10275000D401ED91FD914D017F01B2E0EB0EF11C32
:102760008081883008F087E082830E94F0084FEF74
:1027700060E0C7010E94E7054FEF61E0C7010E94DA
:10278000E70510E001E0183008F400E0602FC70111
:102790000E940206912F9770B301A20104C0440F5A
:1027A000551F661F771F9A95D2F740954823602FD3
:1027B000C7010E94E70540E0612FC7010E9466063D
:1027C0001F5F1031F9F6A814B90411F688E99AE3ED
:1027D000A0E0B0E08093240490932504A093260405
:1027E000B09327040E94730A60932004709321041D
:1027F0008093220490932304FAE0EF2EF12C11E051
:1028000001E0612F86E00E94C1081027612F87E058
:102810000E94C10862E370E080E090E00E9422091B
:10282000E1E0EE1AF10869F760E086E00E94C10875
:1028300060E087E00E94C108DF92CF928BEB91E0CD
:102840009F938F931F9280E48F938FE492E09F93E6
:102850008F930E94A6170E94F8070FB6F894DEBF68
:102860000FBECDBF58E2252E54E0352E61E1862EF5
:1028700064E0962E78E9C72E7AE3D72EE12CF12C6E
:10288000EEE14E2E512C612C712C85EC93E00E94D0
:10289000730F181619060CF08EC0D101EFE31D92CC
:1028A000EA95E9F708E214E00E94730A6093CD0309
:1028B0007093CE038093CF039093D00385EC93E085
:1028C0000E94390E97FF1EC00E94730A2091CD030B
:1028D0003091CE034091CF035091D003DC01CB0166
:1028E000821B930BA40BB50B2091C9033091CA0333
:1028F0004091CB035091CC0382179307A407B507EF
:10290000E8F20AC08B33910539F0D8018D938D011F
:10291000B4E007361B0741F640E450E06EED71E08D
:1029200088E294E00E949817892B09F0DBC0C092DE
:102930002404D0922504E0922604F09227040E94F9
:10294000730A60932004709321048093220490936F
:10295000230461E086E00E94C1084092C1035092C6
:10296000C2036092C3037092C4030E94730A60930F
:10297000BD037093BE038093BF039093C00360E0D8
:1029800087E00E94C1088BE194E09F938F93E6EC6F
:10299000F1E0FF93EF931F9230E43F938FE492E0D6
:1029A0009F938F930E94A6170E94F8070FB6F89482
:1029B000DEBF0FBECDBF0E94730A009120041091AC
:1029C00021042091220430912304DC01CB01801BDF
:1029D000910BA20BB30B00912404109125042091BC
:1029E00026043091270480179107A207B30708F443
:1029F0004BC00E94730A609320047093210480935B
:102A000022049093230407EA13E0F8018191919145
:102A10008F01FC0135969C012B5D3F4F1192119265
:102A2000E217F307D9F70E949606A016B10669F7D8
:102A3000C0922404D0922504E0922604F092270448
:102A40000E94730A609320047093210480932204EF
:102A50009093230461E087E00E94C10880910D04F7
:102A600090910E049C012F5F3F4F30930E042093F2
:102A70000D040B974CF068E873E180E090E00E9451
:102A80002209E0E0F0E009950E94730A0091BD037D
:102A90001091BE032091BF033091C003DC01CB0134
:102AA000801B910BA20BB30B0091C1031091C203C9
:102AB0002091C3033091C40380179107A207B30785
:102AC00070F00E94730A6093BD037093BE038093FD
:102AD000BF039093C00360E086E00E94C1080E949B
:102AE000810BD3CE4091190450911A046BE174E02C
:102AF00088E294E00E949817892B09F05CCF9F929E
:102B00008F9223E134E03F932F93A5E1B4E0BF938C
:102B1000AF9327E134E03F932F93AEECB1E0BF9346
:102B2000AF933F922F920E94D6170FB6F894DEBF54
:102B30000FBECDBF049709F03ECF2091170430910E
:102B4000180480910F04909110042817390709F098
:102B500032CFC0922404D0922504E0922604F09251
:102B600027040E94730A60932004709321048093C9
:102B700022049093230461E086E00E94C108409201
:102B8000C1035092C2036092C3037092C4030E94B7
:102B9000730A6093BD037093BE038093BF03909349
:102BA000C00360E087E00E94C108209113043091C7
:102BB0001404215031093093140420931304E0913C
:102BC0001504F0911604EE0FFF1FE955FC4F8081AC
:102BD0009181409111045091120420313105A0F4EB
:102BE000452B41F0DC0113964D915C9114974F5F9A
:102BF0005F4F02C040E050E0F9013196EE0FFF1F39
:102C0000E80FF91F548343830E949606D4CE911196
:102C10000C941016803219F089508550C8F7089529
:102C20009927882708952F923F924F925F926F9233
:102C30007F928F929F92AF92BF92CF92DF92EF924C
:102C4000FF920F931F93CF93DF93CDB7DEB7CA1BCD
:102C5000DB0B0FB6F894DEBF0FBECDBF09942A88F8
:102C6000398848885F846E847D848C849B84AA84A0
:102C7000B984C884DF80EE80FD800C811B81AA812D
:102C8000B981CE0FD11D0FB6F894DEBF0FBECDBFF8
:102C9000ED010895A1E21A2EAA1BBB1BFD010DC078
:102CA000AA1FBB1FEE1FFF1FA217B307E407F507FC
:102CB00020F0A21BB30BE40BF50B661F771F881FD8
:102CC000991F1A9469F760957095809590959B016E
:102CD000AC01BD01CF010895EE0FFF1F0590F491E7
:102CE000E02D09940F931F93CF93DF9382309105CA
:102CF00010F482E090E0E0916B04F0916C0420E02D
:102D000030E0A0E0B0E0309719F1408151810281BC
:102D1000138148175907C8F08417950769F410976D
:102D200031F012960C93129713961C9327C00093C0
:102D30006B0410936C0422C02115310519F0421761
:102D4000530718F49A01BD01EF01DF01F801DBCF51
:102D500021153105F9F0281B390B2430310580F499
:102D60008A819B816115710521F0FB019383828328
:102D700004C090936C0480936B04FE01329644C0AF
:102D8000FE01E20FF31F81939193225031093983A1
:102D900028833AC02091690430916A04232B41F4BE
:102DA000209110013091110130936A04209369043D
:102DB00020910E0130910F012115310541F42DB7FD
:102DC0003EB74091120150911301241B350BE09145
:102DD0006904F0916A04E217F307A0F42E1B3F0B7D
:102DE0002817390778F0AC014E5F5F4F241735077D
:102DF00048F04E0F5F1F50936A044093690481931B
:102E0000919302C0E0E0F0E0CF01DF91CF911F91FC
:102E10000F910895CF93DF93009709F481C0FC01CF
:102E2000329713821282A0916B04B0916C041097B8
:102E300081F420813181820F931F209169043091A8
:102E40006A042817390751F5F0936A04E09369047E
:102E500067C0ED0120E030E0CE17DF0740F44A8183
:102E60005B819E0141155105F1F0EA01F5CFD38355
:102E7000C28340815181840F951FC817D90759F427
:102E800088819981840F951F0296918380838A811E
:102E90009B81938382832115310529F4F0936C047F
:102EA000E0936B043DC0E901FB83EA8349915991AA
:102EB000C40FD51FEC17FD0761F480819181840F49
:102EC000951F0296E90199838883828193819B8370
:102ED0008A83E0E0F0E012968D919C911397009721
:102EE00019F0FD01DC01F7CF8D919C9111979D01A7
:102EF0002E5F3F4F820F931F2091690430916A0427
:102F00002817390769F4309729F410926C0410924D
:102F10006B0402C013821282B0936A04A093690406
:102F2000DF91CF91089581E090E0F8940C948F1D8B
:102F3000FB01DC014150504030F08D91019080192F
:102F400019F40020B9F7881B990B0895AEE0B0E0A2
:102F5000ECEAF7E10C9421160D891E898F89988D72
:102F600026E02C831A83098397FF02C080E090E853
:102F700001979E838D83AE01455E5F4F698D7A8D8B
:102F8000CE0101960E94EF174D815E8157FD0AC068
:102F90002F813885421753070CF49A01F801E20F8C
:102FA000F31F10822E96E4E00C943D16AEE0B0E0E4
:102FB000ECEDF7E10C94231685E08C838B899C89DA
:102FC0009A838983AE01495E5F4F6D897E89CE0108
:102FD00001960E946C1B2E96E2E00C943F16ABE02B
:102FE000B0E0E5EFF7E10C9413166C017B018A0168
:102FF000FC0117821682838181FFCCC1CE0101962C
:103000003C01F6019381F70193FD859193FF819136
:103010007F01882309F4BAC1853239F493FD859183
:1030200093FF81917F01853229F4B60190E00E94DF
:10303000DC1CE7CF912C212C312CFFE1F315D8F0CB
:103040008B3279F038F4803279F08332A1F4232D79
:1030500020611DC08D3261F0803369F4232D216021
:1030600016C0832D8260382EE32DE4603E2E2AC0E8
:10307000F32DF8601DC037FC2DC020ED280F2A303D
:1030800040F08E32B9F436FC81C1232D2064322EFB
:1030900019C036FE06C08AE0989E200D1124922E9B
:1030A00011C0EAE02E9E200D1124222EF32DF06295
:1030B0003F2E08C08C3621F4832D8068382E02C044
:1030C000883641F4F70193FD859193FF81917F014B
:1030D0008111B3CF982F9F7D9554933028F40C5FC6
:1030E0001F4F9FE399830DC0833631F0833771F012
:1030F000833509F059C021C0F801808189830E5FB2
:103100001F4F88248394912C530113C02801F2E0AF
:103110004F0E511CF801A080B18036FE03C0692D0E
:1031200070E002C06FEF7FEFC5010E94931C4C015D
:103130008201F32DFF773F2E16C0280122E0420EB8
:10314000511CF801A080B18036FE03C0692D70E0EB
:1031500002C06FEF7FEFC5010E94881C4C01F32D68
:10316000F0683F2E820133FC1BC0822D90E0881650
:103170009906B0F4B60180E290E00E94DC1C2A942B
:10318000F4CFF50137FC859137FE81915F01B601DF
:1031900090E00E94DC1C21102A9421E0821A910800
:1031A0008114910471F7E8C0843611F0893641F535
:1031B000F80137FE07C060817181828193810C5FC5
:1031C0001F4F08C060817181072E000C880B990B7E
:1031D0000E5F1F4FF32DFF763F2E97FF09C090958E
:1031E0008095709561957F4F8F4F9F4FF0683F2E70
:1031F0002AE030E0A3010E94311D882E861845C0C8
:10320000853731F4232D2F7EB22E2AE030E025C001
:10321000932D997FB92E8F36C1F018F4883579F047
:10322000B5C0803719F0883721F0B0C0E92FE061D0
:10323000BE2EB4FE0DC0FB2DF460BF2E09C034FEBF
:103240000AC0292F2660B22E06C028E030E005C053
:1032500020E130E002C020E132E0F801B7FE07C013
:1032600060817181828193810C5F1F4F06C06081F4
:10327000718180E090E00E5F1F4FA3010E94311D1D
:10328000882E8618FB2DFF773F2E36FE0DC0232D8E
:103290002E7FA22E891458F434FE0BC032FC09C0D4
:1032A000832D8E7EA82E05C0B82CA32C03C0B82C6D
:1032B00001C0B92CA4FE0FC0FE01E80DF11D8081F4
:1032C000803321F49A2D997EA92E09C0A2FE06C052
:1032D000B394B39404C08A2D867809F0B394A3FC08
:1032E00011C0A0FE06C0B21488F4280C922C9B18C2
:1032F0000EC0B21460F4B60180E290E00E94DC1CC3
:10330000B394F7CFB21418F42B1802C0982C212CC8
:10331000A4FE10C0B60180E390E00E94DC1CA2FE77
:1033200017C0A1FC03C088E790E002C088E590E0E8
:10333000B6010CC08A2D867859F0A1FE02C08BE23E
:1033400001C080E2A7FC8DE2B60190E00E94DC1C87
:10335000891438F4B60180E390E00E94DC1C9A9452
:10336000F7CF8A94F301E80DF11D8081B60190E05A
:103370000E94DC1C8110F5CF222009F442CEB60158
:1033800080E290E00E94DC1C2A94F6CFF601868150
:10339000978102C08FEF9FEF2B96E2E10C942F16DE
:1033A00020FD09C0FC0123FD05C022FF02C073837C
:1033B000628351834083089544FD17C046FD17C0C2
:1033C000AB01BC01DA01FB01AA0FBB1FEE1FFF1FFF
:1033D0001094D1F74A0F5B1F6E1F7F1FCB01BA01FC
:1033E000660F771F881F991F09C033E001C034E0C2
:1033F000660F771F881F991F3150D1F7620F711D1B
:10340000811D911D08950F931F93CF93DF938C011E
:10341000C8010E949E1CEC0197FD08C00E9407167F
:10342000892BB1F7B801CE010E94181DCE01DF91A2
:10343000CF911F910F9108958F929F92AF92BF925B
:10344000EF92FF920F931F93CF93DF938C01D62FB0
:103450007A01B22E0E949E1C9C0133272B3231052B
:1034600031F02D32310561F48B2D8068B82ED150AA
:1034700011F480E068C0C8010E949E1C97FDF9CF3E
:10348000CB2DCD7F2B2D207309F58033F9F4AA24A1
:10349000AA94AD0E09F443C0C8010E949E1C97FD7A
:1034A0003EC09C012F7D33272835310549F4C26485
:1034B000D250A9F1C8010E949E1C97FF07C02FC0DF
:1034C000B6FE02C0C26001C0C261DA2D812C912C0F
:1034D000540120ED280F283080F0C4FF04C0B8014B
:1034E0000E94181D19C02A3040F0C6FFF8CF2F7D6A
:1034F0003FEE320F363098F727504C2FC501B401FC
:103500000E94DC194B015C01C260D15059F0C80126
:103510000E949E1C97FFDDCFC1FD04C0AACF812C65
:10352000912C5401C7FF08C0B094A094909480944B
:10353000811C911CA11CB11C2C2FB501A401C70139
:103540000E94D01981E0DF91CF911F910F91FF90E0
:10355000EF90BF90AF909F908F900895A0E2B0E061
:10356000E4EBFAE10C9416165C01962E7A01F9014F
:103570008E010F5F1F4F680180E2D8011D928A956E
:10358000E9F7D50113968C9080E090E0612C712CC6
:1035900030E061E070E083FC259183FE21918F0192
:1035A000522E211103C080E090E092C02E3511F41C
:1035B000009751F1432F50E0481759073CF42D353F
:1035C00059F12D3219F4772009F103C0772009F45D
:1035D0006AC0452D469546954695D601A40FB11D66
:1035E000452D47708B0102C0000F111F4A95E2F76D
:1035F000A8015C91452B4C93651459F0561410F4B6
:103600005394E7CF5A94E5CF31E004C07724739404
:1036100001C0712C0196BFCF772019F08E81806296
:103620008E83311103C08824839417C0F6019E0154
:103630002F5D3F4F8081809581932E173F07D1F7F3
:10364000F2CFE114F10429F0D7018C93F701319600
:103650007F019A94812C9920F9F0C5010E949E1C4B
:1036600097FD18C0FC01FF2723E0F595E7952A9503
:10367000E1F7EC0DFD1D208130E0AC0147705527CE
:1036800002C0359527954A95E2F720FDDACFB501BE
:103690000E94181D811087CFE114F10411F0D701A9
:1036A0001C92C80115C0422F469546954695D601F5
:1036B000A40FB11D422F47708B0102C0000F111FD4
:1036C0004A95E2F7A8015C91452B4C93622EA2CF5C
:1036D000A096EFE00C943216A0E0B0E0E2E7FBE148
:1036E0000C9416166C01EB015A01FC01178216822C
:1036F000512CF601E380FE01E3FC8591E3FE81910C
:10370000182FEF01882309F4EEC090E00E940716FD
:10371000892B21F0C6010E94031AEBCF153241F428
:10372000FE01E3FC1591E3FE1191EF01153281F4E6
:10373000C6010E949E1C97FDD4C0412F50E09C0101
:10374000332724173507A9F2B6010E94181DCBC0F4
:103750001A3239F4E3FC1591E3FE1191EF0101E017
:1037600001C000E0F12C20ED210F2A3080F402602E
:103770006F2D70E080E090E040E20E94DC19F62EB0
:10378000FE01E3FC1591E3FE1191EF01ECCF01FF87
:1037900003C0F11003C0A7C0FF24FA94183619F033
:1037A0001C3651F010C0FE01E3FC1591E3FE1191AF
:1037B000EF01183641F408600460FE01E3FC159146
:1037C000E3FE1191EF01112309F48DC0612F70E028
:1037D00088E690E00E947D1C892B09F484C000FDDE
:1037E00007C0F50180809180C50102965C0102C08E
:1037F000812C912C1E3651F4F6014681578160E0F0
:1038000070E0202FC4010E94D01973CF1336A9F4A1
:1038100001FD02C0FF24F394C6010E949E1C97FD87
:1038200060C08114910429F0F4018083C4010196E1
:103830004C01FA94F110F0CF50C01B3559F49E01A1
:10384000A4016F2DC6010E94AE1AEC01892B09F06C
:1038500044C03EC0C6010E94031A97FD42C01F36F5
:1038600061F128F4143639F1193651F128C01337B3
:1038700071F0153701F123C08114910429F0F4018E
:103880006082C40101964C01FA94FF2071F0C601D8
:103890000E949E1C3C0197FD08C00E940716892BC0
:1038A00059F3B601C3010E94181D81149104A9F0B7
:1038B000F401108212C0006203C0006101C0006404
:1038C000202FA4016F2DC6010E941C1A811105C072
:1038D000F6018381807329F406C000FD0ACF53945A
:1038E00008CF552019F0852D90E002C08FEF9FEF93
:1038F000CDB7DEB7EFE00C943216FC01059006164A
:1039000021F00020D9F7C00108953197CF01089523
:10391000FC010590615070400110D8F7809590959A
:103920008E0F9F1F0895FC0161507040019001109F
:10393000D8F7809590958E0F9F1F0895CF93DF93B2
:10394000EC012B8120FF33C026FF0AC02F7B2B8385
:103950008E819F8101969F838E838A8190E029C00A
:1039600022FF0FC0E881F9818081082E000C990B9D
:10397000009719F420622B831AC03196F983E883EB
:103980000EC0EA85FB85099597FF09C02B8101963A
:1039900011F080E201C080E1822B8B8308C02E8170
:1039A0003F812F5F3F4F3F832E83992702C08FEFC8
:1039B0009FEFDF91CF9108950F931F93CF93DF93E4
:1039C000FB01238121FD03C08FEF9FEF2CC022FF5D
:1039D00016C046815781248135814217530744F42C
:1039E000A081B1819D012F5F3F4F318320838C9354
:1039F000268137812F5F3F4F3783268314C08B0189
:103A0000EC01FB010084F185E02D0995892BE1F69D
:103A1000D80116968D919C911797019617969C93B5
:103A20008E931697CE01DF91CF911F910F9108953C
:103A3000FB01238120FF12C026FD10C08F3F3FEF06
:103A4000930761F082832F7D206423832681378151
:103A50002150310937832683992708958FEF9FEFEF
:103A60000895FA01AA27283051F1203181F1E89414
:103A70006F936E7F6E5F7F4F8F4F9F4FAF4FB1E061
:103A80003ED0B4E03CD0670F781F891F9A1FA11D5C
:103A9000680F791F8A1F911DA11D6A0F711D811D5D
:103AA000911DA11D20D009F468943F912AE0269F22
:103AB00011243019305D3193DEF6CF010895462F81
:103AC0004770405D4193B3E00FD0C9F7F6CF462F62
:103AD0004F70405D4A3318F0495D31FD40524193CB
:103AE00002D0A9F7EACFB4E0A69597958795779588
:103AF0006795BA95C9F700976105710508959B010F
:103B0000AC010A2E06945795479537952795BA9597
:103B1000C9F7620F731F841F951FA01D0895F894A5
:023B2000FFCFD5
:103B2200DEADBEAAFE01FFFFFF00C0A863000000D9
:103B32006D04800000000000120B7F0AA90A5F0BCF
:103B4200DA0AB80ACC0A000000003F0112016F0134
:103B52003C0D0A01F600E700000000008B0B7F0A13
:103B62006F016E018B0B8B0B8B0B000000008B0B1C
:103B72007F0A6F016E01000000008B0B8B0B6F013F
:103B82008B0B8B0B8B0B8B0B8B0BB1008B0B8B0B68
:103B92008B0B8B0B8B0B8B0B8B0B8B0B8B0B000009
:103BA20000003D0DEE0F6F013C0D9200390E370FF4
:103BB200AC01620E7201E20EEE01530D730F1A0E8A
:103BC200AA009A009600000000008D0B0000000081
:103BD2008B0B01005E0000000D0A0068656C6C6FC3
:103BE200206F6D256400257320706F6E67006F6D06
:103BF2002564206225642072256420256400706992
:043C02006E670000E9
:00000001FF
